{
  "_format": "hh-sol-artifact-1",
  "contractName": "JobMarketplace",
  "sourceName": "contracts/JobMarketplace2.0.sol",
  "abi": [
    {
      "anonymous": false,
      "inputs": [
        {
          "indexed": false,
          "internalType": "uint256",
          "name": "jobId",
          "type": "uint256"
        },
        {
          "indexed": false,
          "internalType": "address",
          "name": "to",
          "type": "address"
        }
      ],
      "name": "FundsReleased",
      "type": "event"
    },
    {
      "anonymous": false,
      "inputs": [
        {
          "indexed": false,
          "internalType": "uint256",
          "name": "jobId",
          "type": "uint256"
        },
        {
          "indexed": false,
          "internalType": "address",
          "name": "freelancer",
          "type": "address"
        }
      ],
      "name": "JobAccepted",
      "type": "event"
    },
    {
      "anonymous": false,
      "inputs": [
        {
          "indexed": false,
          "internalType": "uint256",
          "name": "jobId",
          "type": "uint256"
        },
        {
          "indexed": false,
          "internalType": "address",
          "name": "client",
          "type": "address"
        },
        {
          "indexed": false,
          "internalType": "uint256",
          "name": "budget",
          "type": "uint256"
        },
        {
          "indexed": false,
          "internalType": "string",
          "name": "title",
          "type": "string"
        },
        {
          "indexed": false,
          "internalType": "string",
          "name": "description",
          "type": "string"
        }
      ],
      "name": "JobPosted",
      "type": "event"
    },
    {
      "inputs": [
        {
          "internalType": "uint256",
          "name": "jobId",
          "type": "uint256"
        }
      ],
      "name": "acceptJob",
      "outputs": [],
      "stateMutability": "nonpayable",
      "type": "function"
    },
    {
      "inputs": [
        {
          "internalType": "uint256",
          "name": "jobId",
          "type": "uint256"
        }
      ],
      "name": "depositFunds",
      "outputs": [],
      "stateMutability": "payable",
      "type": "function"
    },
    {
      "inputs": [],
      "name": "jobCounter",
      "outputs": [
        {
          "internalType": "uint256",
          "name": "",
          "type": "uint256"
        }
      ],
      "stateMutability": "view",
      "type": "function"
    },
    {
      "inputs": [
        {
          "internalType": "uint256",
          "name": "",
          "type": "uint256"
        }
      ],
      "name": "jobs",
      "outputs": [
        {
          "internalType": "uint256",
          "name": "id",
          "type": "uint256"
        },
        {
          "internalType": "address",
          "name": "client",
          "type": "address"
        },
        {
          "internalType": "address",
          "name": "freelancer",
          "type": "address"
        },
        {
          "internalType": "uint256",
          "name": "budget",
          "type": "uint256"
        },
        {
          "internalType": "string",
          "name": "title",
          "type": "string"
        },
        {
          "internalType": "string",
          "name": "description",
          "type": "string"
        },
        {
          "internalType": "bool",
          "name": "isCompleted",
          "type": "bool"
        }
      ],
      "stateMutability": "view",
      "type": "function"
    },
    {
      "inputs": [
        {
          "internalType": "uint256",
          "name": "budget",
          "type": "uint256"
        },
        {
          "internalType": "string",
          "name": "title",
          "type": "string"
        },
        {
          "internalType": "string",
          "name": "description",
          "type": "string"
        }
      ],
      "name": "postJob",
      "outputs": [],
      "stateMutability": "nonpayable",
      "type": "function"
    },
    {
      "inputs": [
        {
          "internalType": "uint256",
          "name": "jobId",
          "type": "uint256"
        }
      ],
      "name": "releaseFunds",
      "outputs": [],
      "stateMutability": "nonpayable",
      "type": "function"
    }
  ],
  "bytecode": "0x6080604052348015600f57600080fd5b506117c78061001f6000396000f3fe6080604052600436106100555760003560e01c8063180aedf31461005a5780632a240c7f1461009d5780633b76594d146100c65780634d68282f146100e257806350355d761461010b57806363b2f3c914610136575b600080fd5b34801561006657600080fd5b50610081600480360381019061007c9190610bdf565b61015f565b6040516100949796959493929190610d07565b60405180910390f35b3480156100a957600080fd5b506100c460048036038101906100bf9190610de9565b6102fe565b005b6100e060048036038101906100db9190610bdf565b6105dc565b005b3480156100ee57600080fd5b5061010960048036038101906101049190610bdf565b610762565b005b34801561011757600080fd5b5061012061094a565b60405161012d9190610e7e565b60405180910390f35b34801561014257600080fd5b5061015d60048036038101906101589190610bdf565b610950565b005b60016020528060005260406000206000915090508060000154908060010160009054906101000a900473ffffffffffffffffffffffffffffffffffffffff16908060020160009054906101000a900473ffffffffffffffffffffffffffffffffffffffff16908060030154908060040180546101da90610ec8565b80601f016020809104026020016040519081016040528092919081815260200182805461020690610ec8565b80156102535780601f1061022857610100808354040283529160200191610253565b820191906000526020600020905b81548152906001019060200180831161023657829003601f168201915b50505050509080600501805461026890610ec8565b80601f016020809104026020016040519081016040528092919081815260200182805461029490610ec8565b80156102e15780601f106102b6576101008083540402835291602001916102e1565b820191906000526020600020905b8154815290600101906020018083116102c457829003601f168201915b5050505050908060060160009054906101000a900460ff16905087565b60008511610341576040517f08c379a000000000000000000000000000000000000000000000000000000000815260040161033890610f45565b60405180910390fd5b60008484905011610387576040517f08c379a000000000000000000000000000000000000000000000000000000000815260040161037e90610fb1565b60405180910390fd5b60008081548092919061039990611000565b91905055506040518060e0016040528060005481526020013373ffffffffffffffffffffffffffffffffffffffff168152602001600073ffffffffffffffffffffffffffffffffffffffff16815260200186815260200185858080601f016020809104026020016040519081016040528093929190818152602001838380828437600081840152601f19601f82011690508083019250505050505050815260200183838080601f016020809104026020016040519081016040528093929190818152602001838380828437600081840152601f19601f8201169050808301925050505050505081526020016000151581525060016000805481526020019081526020016000206000820151816000015560208201518160010160006101000a81548173ffffffffffffffffffffffffffffffffffffffff021916908373ffffffffffffffffffffffffffffffffffffffff16021790555060408201518160020160006101000a81548173ffffffffffffffffffffffffffffffffffffffff021916908373ffffffffffffffffffffffffffffffffffffffff1602179055506060820151816003015560808201518160040190816105569190611223565b5060a082015181600501908161056c9190611223565b5060c08201518160060160006101000a81548160ff0219169083151502179055509050507f2ef6e44516c8fbdb66063bce9f07343790986232b32468d3c44239b3f1b14de26000543387878787876040516105cd9796959493929190611331565b60405180910390a15050505050565b60006001600083815260200190815260200160002090503373ffffffffffffffffffffffffffffffffffffffff168160010160009054906101000a900473ffffffffffffffffffffffffffffffffffffffff1673ffffffffffffffffffffffffffffffffffffffff1614610685576040517f08c379a000000000000000000000000000000000000000000000000000000000815260040161067c90611408565b60405180910390fd5b806003015434146106cb576040517f08c379a00000000000000000000000000000000000000000000000000000000081526004016106c290611474565b60405180910390fd5b600073ffffffffffffffffffffffffffffffffffffffff168160020160009054906101000a900473ffffffffffffffffffffffffffffffffffffffff1673ffffffffffffffffffffffffffffffffffffffff160361075e576040517f08c379a0000000000000000000000000000000000000000000000000000000008152600401610755906114e0565b60405180910390fd5b5050565b60006001600083815260200190815260200160002090508060010160009054906101000a900473ffffffffffffffffffffffffffffffffffffffff1673ffffffffffffffffffffffffffffffffffffffff163373ffffffffffffffffffffffffffffffffffffffff161461080b576040517f08c379a000000000000000000000000000000000000000000000000000000000815260040161080290611572565b60405180910390fd5b8060060160009054906101000a900460ff161561085d576040517f08c379a0000000000000000000000000000000000000000000000000000000008152600401610854906115de565b60405180910390fd5b60018160060160006101000a81548160ff0219169083151502179055508060020160009054906101000a900473ffffffffffffffffffffffffffffffffffffffff1673ffffffffffffffffffffffffffffffffffffffff166108fc82600301549081150290604051600060405180830381858888f193505050501580156108e8573d6000803e3d6000fd5b507f8f5073d0a7a22ba450e278541077e181af457be74bea91e61f1f99e6bb40748e828260020160009054906101000a900473ffffffffffffffffffffffffffffffffffffffff1660405161093e9291906115fe565b60405180910390a15050565b60005481565b6000600160008381526020019081526020016000209050600073ffffffffffffffffffffffffffffffffffffffff168160010160009054906101000a900473ffffffffffffffffffffffffffffffffffffffff1673ffffffffffffffffffffffffffffffffffffffff16036109fa576040517f08c379a00000000000000000000000000000000000000000000000000000000081526004016109f190611673565b60405180910390fd5b600073ffffffffffffffffffffffffffffffffffffffff168160020160009054906101000a900473ffffffffffffffffffffffffffffffffffffffff1673ffffffffffffffffffffffffffffffffffffffff1614610a8d576040517f08c379a0000000000000000000000000000000000000000000000000000000008152600401610a84906116df565b60405180910390fd5b8060010160009054906101000a900473ffffffffffffffffffffffffffffffffffffffff1673ffffffffffffffffffffffffffffffffffffffff163373ffffffffffffffffffffffffffffffffffffffff1603610b1f576040517f08c379a0000000000000000000000000000000000000000000000000000000008152600401610b1690611771565b60405180910390fd5b338160020160006101000a81548173ffffffffffffffffffffffffffffffffffffffff021916908373ffffffffffffffffffffffffffffffffffffffff1602179055507f4426e4a90a9570c8f678a263b11785eaaade8b79d76d18c43d4d8e00062e4f838233604051610b939291906115fe565b60405180910390a15050565b600080fd5b600080fd5b6000819050919050565b610bbc81610ba9565b8114610bc757600080fd5b50565b600081359050610bd981610bb3565b92915050565b600060208284031215610bf557610bf4610b9f565b5b6000610c0384828501610bca565b91505092915050565b610c1581610ba9565b82525050565b600073ffffffffffffffffffffffffffffffffffffffff82169050919050565b6000610c4682610c1b565b9050919050565b610c5681610c3b565b82525050565b600081519050919050565b600082825260208201905092915050565b60005b83811015610c96578082015181840152602081019050610c7b565b60008484015250505050565b6000601f19601f8301169050919050565b6000610cbe82610c5c565b610cc88185610c67565b9350610cd8818560208601610c78565b610ce181610ca2565b840191505092915050565b60008115159050919050565b610d0181610cec565b82525050565b600060e082019050610d1c600083018a610c0c565b610d296020830189610c4d565b610d366040830188610c4d565b610d436060830187610c0c565b8181036080830152610d558186610cb3565b905081810360a0830152610d698185610cb3565b9050610d7860c0830184610cf8565b98975050505050505050565b600080fd5b600080fd5b600080fd5b60008083601f840112610da957610da8610d84565b5b8235905067ffffffffffffffff811115610dc657610dc5610d89565b5b602083019150836001820283011115610de257610de1610d8e565b5b9250929050565b600080600080600060608688031215610e0557610e04610b9f565b5b6000610e1388828901610bca565b955050602086013567ffffffffffffffff811115610e3457610e33610ba4565b5b610e4088828901610d93565b9450945050604086013567ffffffffffffffff811115610e6357610e62610ba4565b5b610e6f88828901610d93565b92509250509295509295909350565b6000602082019050610e936000830184610c0c565b92915050565b7f4e487b7100000000000000000000000000000000000000000000000000000000600052602260045260246000fd5b60006002820490506001821680610ee057607f821691505b602082108103610ef357610ef2610e99565b5b50919050565b7f427564676574206d7573742062652067726561746572207468616e207a65726f600082015250565b6000610f2f602083610c67565b9150610f3a82610ef9565b602082019050919050565b60006020820190508181036000830152610f5e81610f22565b9050919050565b7f5469746c65206973207265717569726564000000000000000000000000000000600082015250565b6000610f9b601183610c67565b9150610fa682610f65565b602082019050919050565b60006020820190508181036000830152610fca81610f8e565b9050919050565b7f4e487b7100000000000000000000000000000000000000000000000000000000600052601160045260246000fd5b600061100b82610ba9565b91507fffffffffffffffffffffffffffffffffffffffffffffffffffffffffffffffff820361103d5761103c610fd1565b5b600182019050919050565b7f4e487b7100000000000000000000000000000000000000000000000000000000600052604160045260246000fd5b60008190508160005260206000209050919050565b60006020601f8301049050919050565b600082821b905092915050565b6000600883026110d97fffffffffffffffffffffffffffffffffffffffffffffffffffffffffffffffff8261109c565b6110e3868361109c565b95508019841693508086168417925050509392505050565b6000819050919050565b600061112061111b61111684610ba9565b6110fb565b610ba9565b9050919050565b6000819050919050565b61113a83611105565b61114e61114682611127565b8484546110a9565b825550505050565b600090565b611163611156565b61116e818484611131565b505050565b5b818110156111925761118760008261115b565b600181019050611174565b5050565b601f8211156111d7576111a881611077565b6111b18461108c565b810160208510156111c0578190505b6111d46111cc8561108c565b830182611173565b50505b505050565b600082821c905092915050565b60006111fa600019846008026111dc565b1980831691505092915050565b600061121383836111e9565b9150826002028217905092915050565b61122c82610c5c565b67ffffffffffffffff81111561124557611244611048565b5b61124f8254610ec8565b61125a828285611196565b600060209050601f83116001811461128d576000841561127b578287015190505b6112858582611207565b8655506112ed565b601f19841661129b86611077565b60005b828110156112c35784890151825560018201915060208501945060208101905061129e565b868310156112e057848901516112dc601f8916826111e9565b8355505b6001600288020188555050505b505050505050565b82818337600083830152505050565b60006113108385610c67565b935061131d8385846112f5565b61132683610ca2565b840190509392505050565b600060a082019050611346600083018a610c0c565b6113536020830189610c4d565b6113606040830188610c0c565b8181036060830152611373818688611304565b90508181036080830152611388818486611304565b905098975050505050505050565b7f4f6e6c792074686520636c69656e742063616e206465706f7369742066756e6460008201527f7300000000000000000000000000000000000000000000000000000000000000602082015250565b60006113f2602183610c67565b91506113fd82611396565b604082019050919050565b60006020820190508181036000830152611421816113e5565b9050919050565b7f496e636f7272656374206465706f73697420616d6f756e740000000000000000600082015250565b600061145e601883610c67565b915061146982611428565b602082019050919050565b6000602082019050818103600083015261148d81611451565b9050919050565b7f4a6f6220686173206e6f20667265656c616e6365722061737369676e65640000600082015250565b60006114ca601e83610c67565b91506114d582611494565b602082019050919050565b600060208201905081810360008301526114f9816114bd565b9050919050565b7f4f6e6c792074686520636c69656e742063616e2072656c656173652066756e6460008201527f7300000000000000000000000000000000000000000000000000000000000000602082015250565b600061155c602183610c67565b915061156782611500565b604082019050919050565b6000602082019050818103600083015261158b8161154f565b9050919050565b7f46756e647320616c72656164792072656c656173656400000000000000000000600082015250565b60006115c8601683610c67565b91506115d382611592565b602082019050919050565b600060208201905081810360008301526115f7816115bb565b9050919050565b60006040820190506116136000830185610c0c565b6116206020830184610c4d565b9392505050565b7f4a6f6220646f6573206e6f742065786973740000000000000000000000000000600082015250565b600061165d601283610c67565b915061166882611627565b602082019050919050565b6000602082019050818103600083015261168c81611650565b9050919050565b7f4a6f6220616c7265616479206163636570746564000000000000000000000000600082015250565b60006116c9601483610c67565b91506116d482611693565b602082019050919050565b600060208201905081810360008301526116f8816116bc565b9050919050565b7f436c69656e742063616e6e6f7420616363657074207468656972206f776e206a60008201527f6f62000000000000000000000000000000000000000000000000000000000000602082015250565b600061175b602283610c67565b9150611766826116ff565b604082019050919050565b6000602082019050818103600083015261178a8161174e565b905091905056fea2646970667358221220448f2d3863a460abf3a446ad19895cf0efc49ac02deebf973b76fcc0efb45fcf64736f6c634300081c0033",
  "linkReferences": {},
  "deployedLinkReferences": {}
}