{
	"contracts/JobMarketplace.sol": {
		"JobMarketplace": {
			"abi": [
				{
					"anonymous": false,
					"inputs": [
						{
							"indexed": false,
							"internalType": "uint256",
							"name": "jobId",
							"type": "uint256"
						},
						{
							"indexed": false,
							"internalType": "address",
							"name": "by",
							"type": "address"
						}
					],
					"name": "DisputeRaised",
					"type": "event"
				},
				{
					"anonymous": false,
					"inputs": [
						{
							"indexed": false,
							"internalType": "uint256",
							"name": "jobId",
							"type": "uint256"
						},
						{
							"indexed": false,
							"internalType": "address",
							"name": "to",
							"type": "address"
						}
					],
					"name": "FundsReleased",
					"type": "event"
				},
				{
					"anonymous": false,
					"inputs": [
						{
							"indexed": false,
							"internalType": "uint256",
							"name": "jobId",
							"type": "uint256"
						},
						{
							"indexed": false,
							"internalType": "address",
							"name": "freelancer",
							"type": "address"
						}
					],
					"name": "JobAccepted",
					"type": "event"
				},
				{
					"anonymous": false,
					"inputs": [
						{
							"indexed": false,
							"internalType": "uint256",
							"name": "jobId",
							"type": "uint256"
						},
						{
							"indexed": false,
							"internalType": "address",
							"name": "client",
							"type": "address"
						},
						{
							"indexed": false,
							"internalType": "uint256",
							"name": "budget",
							"type": "uint256"
						},
						{
							"indexed": false,
							"internalType": "string",
							"name": "description",
							"type": "string"
						}
					],
					"name": "JobPosted",
					"type": "event"
				},
				{
					"inputs": [
						{
							"internalType": "uint256",
							"name": "jobId",
							"type": "uint256"
						}
					],
					"name": "acceptJob",
					"outputs": [],
					"stateMutability": "nonpayable",
					"type": "function"
				},
				{
					"inputs": [
						{
							"internalType": "uint256",
							"name": "jobId",
							"type": "uint256"
						}
					],
					"name": "depositFunds",
					"outputs": [],
					"stateMutability": "payable",
					"type": "function"
				},
				{
					"inputs": [],
					"name": "jobCounter",
					"outputs": [
						{
							"internalType": "uint256",
							"name": "",
							"type": "uint256"
						}
					],
					"stateMutability": "view",
					"type": "function"
				},
				{
					"inputs": [
						{
							"internalType": "uint256",
							"name": "",
							"type": "uint256"
						}
					],
					"name": "jobs",
					"outputs": [
						{
							"internalType": "uint256",
							"name": "id",
							"type": "uint256"
						},
						{
							"internalType": "address",
							"name": "client",
							"type": "address"
						},
						{
							"internalType": "address",
							"name": "freelancer",
							"type": "address"
						},
						{
							"internalType": "uint256",
							"name": "budget",
							"type": "uint256"
						},
						{
							"internalType": "string",
							"name": "description",
							"type": "string"
						},
						{
							"internalType": "bool",
							"name": "isCompleted",
							"type": "bool"
						},
						{
							"internalType": "bool",
							"name": "isDisputed",
							"type": "bool"
						}
					],
					"stateMutability": "view",
					"type": "function"
				},
				{
					"inputs": [
						{
							"internalType": "uint256",
							"name": "budget",
							"type": "uint256"
						},
						{
							"internalType": "string",
							"name": "description",
							"type": "string"
						}
					],
					"name": "postJob",
					"outputs": [],
					"stateMutability": "nonpayable",
					"type": "function"
				},
				{
					"inputs": [
						{
							"internalType": "uint256",
							"name": "jobId",
							"type": "uint256"
						}
					],
					"name": "raiseDispute",
					"outputs": [],
					"stateMutability": "nonpayable",
					"type": "function"
				},
				{
					"inputs": [
						{
							"internalType": "uint256",
							"name": "jobId",
							"type": "uint256"
						}
					],
					"name": "releaseFunds",
					"outputs": [],
					"stateMutability": "nonpayable",
					"type": "function"
				}
			],
			"devdoc": {
				"kind": "dev",
				"methods": {},
				"version": 1
			},
			"evm": {
				"assembly": "    /* \"contracts/JobMarketplace.sol\":60:2880  contract JobMarketplace {... */\n  mstore(0x40, 0x80)\n  callvalue\n  dup1\n  iszero\n  tag_1\n  jumpi\n  0x00\n  dup1\n  revert\ntag_1:\n  pop\n  dataSize(sub_0)\n  dup1\n  dataOffset(sub_0)\n  0x00\n  codecopy\n  0x00\n  return\nstop\n\nsub_0: assembly {\n        /* \"contracts/JobMarketplace.sol\":60:2880  contract JobMarketplace {... */\n      mstore(0x40, 0x80)\n      jumpi(tag_1, lt(calldatasize, 0x04))\n      shr(0xe0, calldataload(0x00))\n      dup1\n      0x50355d76\n      gt\n      tag_9\n      jumpi\n      dup1\n      0x50355d76\n      eq\n      tag_5\n      jumpi\n      dup1\n      0x5a0dfe65\n      eq\n      tag_6\n      jumpi\n      dup1\n      0x63b2f3c9\n      eq\n      tag_7\n      jumpi\n      dup1\n      0xa5c1674e\n      eq\n      tag_8\n      jumpi\n      jump(tag_1)\n    tag_9:\n      dup1\n      0x180aedf3\n      eq\n      tag_2\n      jumpi\n      dup1\n      0x3b76594d\n      eq\n      tag_3\n      jumpi\n      dup1\n      0x4d68282f\n      eq\n      tag_4\n      jumpi\n    tag_1:\n      0x00\n      dup1\n      revert\n        /* \"contracts/JobMarketplace.sol\":386:421  mapping(uint256 => Job) public jobs */\n    tag_2:\n      callvalue\n      dup1\n      iszero\n      tag_10\n      jumpi\n      0x00\n      dup1\n      revert\n    tag_10:\n      pop\n      tag_11\n      0x04\n      dup1\n      calldatasize\n      sub\n      dup2\n      add\n      swap1\n      tag_12\n      swap2\n      swap1\n      tag_13\n      jump\t// in\n    tag_12:\n      tag_14\n      jump\t// in\n    tag_11:\n      mload(0x40)\n      tag_15\n      swap8\n      swap7\n      swap6\n      swap5\n      swap4\n      swap3\n      swap2\n      swap1\n      tag_16\n      jump\t// in\n    tag_15:\n      mload(0x40)\n      dup1\n      swap2\n      sub\n      swap1\n      return\n        /* \"contracts/JobMarketplace.sol\":1667:2003  function depositFunds(uint256 jobId) external payable {... */\n    tag_3:\n      tag_17\n      0x04\n      dup1\n      calldatasize\n      sub\n      dup2\n      add\n      swap1\n      tag_18\n      swap2\n      swap1\n      tag_13\n      jump\t// in\n    tag_18:\n      tag_19\n      jump\t// in\n    tag_17:\n      stop\n        /* \"contracts/JobMarketplace.sol\":2051:2486  function releaseFunds(uint256 jobId) external {... */\n    tag_4:\n      callvalue\n      dup1\n      iszero\n      tag_20\n      jumpi\n      0x00\n      dup1\n      revert\n    tag_20:\n      pop\n      tag_21\n      0x04\n      dup1\n      calldatasize\n      sub\n      dup2\n      add\n      swap1\n      tag_22\n      swap2\n      swap1\n      tag_13\n      jump\t// in\n    tag_22:\n      tag_23\n      jump\t// in\n    tag_21:\n      stop\n        /* \"contracts/JobMarketplace.sol\":336:361  uint256 public jobCounter */\n    tag_5:\n      callvalue\n      dup1\n      iszero\n      tag_24\n      jumpi\n      0x00\n      dup1\n      revert\n    tag_24:\n      pop\n      tag_25\n      tag_26\n      jump\t// in\n    tag_25:\n      mload(0x40)\n      tag_27\n      swap2\n      swap1\n      tag_28\n      jump\t// in\n    tag_27:\n      mload(0x40)\n      dup1\n      swap2\n      sub\n      swap1\n      return\n        /* \"contracts/JobMarketplace.sol\":725:1173  function postJob(uint256 budget, string calldata description) external {... */\n    tag_6:\n      callvalue\n      dup1\n      iszero\n      tag_29\n      jumpi\n      0x00\n      dup1\n      revert\n    tag_29:\n      pop\n      tag_30\n      0x04\n      dup1\n      calldatasize\n      sub\n      dup2\n      add\n      swap1\n      tag_31\n      swap2\n      swap1\n      tag_32\n      jump\t// in\n    tag_31:\n      tag_33\n      jump\t// in\n    tag_30:\n      stop\n        /* \"contracts/JobMarketplace.sol\":1218:1617  function acceptJob(uint256 jobId) external {... */\n    tag_7:\n      callvalue\n      dup1\n      iszero\n      tag_34\n      jumpi\n      0x00\n      dup1\n      revert\n    tag_34:\n      pop\n      tag_35\n      0x04\n      dup1\n      calldatasize\n      sub\n      dup2\n      add\n      swap1\n      tag_36\n      swap2\n      swap1\n      tag_13\n      jump\t// in\n    tag_36:\n      tag_37\n      jump\t// in\n    tag_35:\n      stop\n        /* \"contracts/JobMarketplace.sol\":2518:2877  function raiseDispute(uint256 jobId) external {... */\n    tag_8:\n      callvalue\n      dup1\n      iszero\n      tag_38\n      jumpi\n      0x00\n      dup1\n      revert\n    tag_38:\n      pop\n      tag_39\n      0x04\n      dup1\n      calldatasize\n      sub\n      dup2\n      add\n      swap1\n      tag_40\n      swap2\n      swap1\n      tag_13\n      jump\t// in\n    tag_40:\n      tag_41\n      jump\t// in\n    tag_39:\n      stop\n        /* \"contracts/JobMarketplace.sol\":386:421  mapping(uint256 => Job) public jobs */\n    tag_14:\n      mstore(0x20, 0x01)\n      dup1\n      0x00\n      mstore\n      keccak256(0x00, 0x40)\n      0x00\n      swap2\n      pop\n      swap1\n      pop\n      dup1\n      0x00\n      add\n      sload\n      swap1\n      dup1\n      0x01\n      add\n      0x00\n      swap1\n      sload\n      swap1\n      0x0100\n      exp\n      swap1\n      div\n      0xffffffffffffffffffffffffffffffffffffffff\n      and\n      swap1\n      dup1\n      0x02\n      add\n      0x00\n      swap1\n      sload\n      swap1\n      0x0100\n      exp\n      swap1\n      div\n      0xffffffffffffffffffffffffffffffffffffffff\n      and\n      swap1\n      dup1\n      0x03\n      add\n      sload\n      swap1\n      dup1\n      0x04\n      add\n      dup1\n      sload\n      tag_42\n      swap1\n      tag_43\n      jump\t// in\n    tag_42:\n      dup1\n      0x1f\n      add\n      0x20\n      dup1\n      swap2\n      div\n      mul\n      0x20\n      add\n      mload(0x40)\n      swap1\n      dup2\n      add\n      0x40\n      mstore\n      dup1\n      swap3\n      swap2\n      swap1\n      dup2\n      dup2\n      mstore\n      0x20\n      add\n      dup3\n      dup1\n      sload\n      tag_44\n      swap1\n      tag_43\n      jump\t// in\n    tag_44:\n      dup1\n      iszero\n      tag_45\n      jumpi\n      dup1\n      0x1f\n      lt\n      tag_46\n      jumpi\n      0x0100\n      dup1\n      dup4\n      sload\n      div\n      mul\n      dup4\n      mstore\n      swap2\n      0x20\n      add\n      swap2\n      jump(tag_45)\n    tag_46:\n      dup3\n      add\n      swap2\n      swap1\n      0x00\n      mstore\n      keccak256(0x00, 0x20)\n      swap1\n    tag_47:\n      dup2\n      sload\n      dup2\n      mstore\n      swap1\n      0x01\n      add\n      swap1\n      0x20\n      add\n      dup1\n      dup4\n      gt\n      tag_47\n      jumpi\n      dup3\n      swap1\n      sub\n      0x1f\n      and\n      dup3\n      add\n      swap2\n    tag_45:\n      pop\n      pop\n      pop\n      pop\n      pop\n      swap1\n      dup1\n      0x05\n      add\n      0x00\n      swap1\n      sload\n      swap1\n      0x0100\n      exp\n      swap1\n      div\n      0xff\n      and\n      swap1\n      dup1\n      0x05\n      add\n      0x01\n      swap1\n      sload\n      swap1\n      0x0100\n      exp\n      swap1\n      div\n      0xff\n      and\n      swap1\n      pop\n      dup8\n      jump\t// out\n        /* \"contracts/JobMarketplace.sol\":1667:2003  function depositFunds(uint256 jobId) external payable {... */\n    tag_19:\n        /* \"contracts/JobMarketplace.sol\":1732:1747  Job storage job */\n      0x00\n        /* \"contracts/JobMarketplace.sol\":1750:1754  jobs */\n      0x01\n        /* \"contracts/JobMarketplace.sol\":1750:1761  jobs[jobId] */\n      0x00\n        /* \"contracts/JobMarketplace.sol\":1755:1760  jobId */\n      dup4\n        /* \"contracts/JobMarketplace.sol\":1750:1761  jobs[jobId] */\n      dup2\n      mstore\n      0x20\n      add\n      swap1\n      dup2\n      mstore\n      0x20\n      add\n      0x00\n      keccak256\n        /* \"contracts/JobMarketplace.sol\":1732:1761  Job storage job = jobs[jobId] */\n      swap1\n      pop\n        /* \"contracts/JobMarketplace.sol\":1794:1804  msg.sender */\n      caller\n        /* \"contracts/JobMarketplace.sol\":1780:1804  job.client == msg.sender */\n      0xffffffffffffffffffffffffffffffffffffffff\n      and\n        /* \"contracts/JobMarketplace.sol\":1780:1783  job */\n      dup2\n        /* \"contracts/JobMarketplace.sol\":1780:1790  job.client */\n      0x01\n      add\n      0x00\n      swap1\n      sload\n      swap1\n      0x0100\n      exp\n      swap1\n      div\n      0xffffffffffffffffffffffffffffffffffffffff\n      and\n        /* \"contracts/JobMarketplace.sol\":1780:1804  job.client == msg.sender */\n      0xffffffffffffffffffffffffffffffffffffffff\n      and\n      eq\n        /* \"contracts/JobMarketplace.sol\":1772:1842  require(job.client == msg.sender, \"Only the client can deposit funds\") */\n      tag_49\n      jumpi\n      mload(0x40)\n      0x08c379a000000000000000000000000000000000000000000000000000000000\n      dup2\n      mstore\n      0x04\n      add\n      tag_50\n      swap1\n      tag_51\n      jump\t// in\n    tag_50:\n      mload(0x40)\n      dup1\n      swap2\n      sub\n      swap1\n      revert\n    tag_49:\n        /* \"contracts/JobMarketplace.sol\":1874:1877  job */\n      dup1\n        /* \"contracts/JobMarketplace.sol\":1874:1884  job.budget */\n      0x03\n      add\n      sload\n        /* \"contracts/JobMarketplace.sol\":1861:1870  msg.value */\n      callvalue\n        /* \"contracts/JobMarketplace.sol\":1861:1884  msg.value == job.budget */\n      eq\n        /* \"contracts/JobMarketplace.sol\":1853:1913  require(msg.value == job.budget, \"Incorrect deposit amount\") */\n      tag_52\n      jumpi\n      mload(0x40)\n      0x08c379a000000000000000000000000000000000000000000000000000000000\n      dup2\n      mstore\n      0x04\n      add\n      tag_53\n      swap1\n      tag_54\n      jump\t// in\n    tag_53:\n      mload(0x40)\n      dup1\n      swap2\n      sub\n      swap1\n      revert\n    tag_52:\n        /* \"contracts/JobMarketplace.sol\":1958:1959  0 */\n      0x00\n        /* \"contracts/JobMarketplace.sol\":1932:1960  job.freelancer != address(0) */\n      0xffffffffffffffffffffffffffffffffffffffff\n      and\n        /* \"contracts/JobMarketplace.sol\":1932:1935  job */\n      dup2\n        /* \"contracts/JobMarketplace.sol\":1932:1946  job.freelancer */\n      0x02\n      add\n      0x00\n      swap1\n      sload\n      swap1\n      0x0100\n      exp\n      swap1\n      div\n      0xffffffffffffffffffffffffffffffffffffffff\n      and\n        /* \"contracts/JobMarketplace.sol\":1932:1960  job.freelancer != address(0) */\n      0xffffffffffffffffffffffffffffffffffffffff\n      and\n      sub\n        /* \"contracts/JobMarketplace.sol\":1924:1995  require(job.freelancer != address(0), \"Job has no freelancer assigned\") */\n      tag_55\n      jumpi\n      mload(0x40)\n      0x08c379a000000000000000000000000000000000000000000000000000000000\n      dup2\n      mstore\n      0x04\n      add\n      tag_56\n      swap1\n      tag_57\n      jump\t// in\n    tag_56:\n      mload(0x40)\n      dup1\n      swap2\n      sub\n      swap1\n      revert\n    tag_55:\n        /* \"contracts/JobMarketplace.sol\":1721:2003  {... */\n      pop\n        /* \"contracts/JobMarketplace.sol\":1667:2003  function depositFunds(uint256 jobId) external payable {... */\n      pop\n      jump\t// out\n        /* \"contracts/JobMarketplace.sol\":2051:2486  function releaseFunds(uint256 jobId) external {... */\n    tag_23:\n        /* \"contracts/JobMarketplace.sol\":2108:2123  Job storage job */\n      0x00\n        /* \"contracts/JobMarketplace.sol\":2126:2130  jobs */\n      0x01\n        /* \"contracts/JobMarketplace.sol\":2126:2137  jobs[jobId] */\n      0x00\n        /* \"contracts/JobMarketplace.sol\":2131:2136  jobId */\n      dup4\n        /* \"contracts/JobMarketplace.sol\":2126:2137  jobs[jobId] */\n      dup2\n      mstore\n      0x20\n      add\n      swap1\n      dup2\n      mstore\n      0x20\n      add\n      0x00\n      keccak256\n        /* \"contracts/JobMarketplace.sol\":2108:2137  Job storage job = jobs[jobId] */\n      swap1\n      pop\n        /* \"contracts/JobMarketplace.sol\":2170:2173  job */\n      dup1\n        /* \"contracts/JobMarketplace.sol\":2170:2180  job.client */\n      0x01\n      add\n      0x00\n      swap1\n      sload\n      swap1\n      0x0100\n      exp\n      swap1\n      div\n      0xffffffffffffffffffffffffffffffffffffffff\n      and\n        /* \"contracts/JobMarketplace.sol\":2156:2180  msg.sender == job.client */\n      0xffffffffffffffffffffffffffffffffffffffff\n      and\n        /* \"contracts/JobMarketplace.sol\":2156:2166  msg.sender */\n      caller\n        /* \"contracts/JobMarketplace.sol\":2156:2180  msg.sender == job.client */\n      0xffffffffffffffffffffffffffffffffffffffff\n      and\n      eq\n        /* \"contracts/JobMarketplace.sol\":2148:2218  require(msg.sender == job.client, \"Only the client can release funds\") */\n      tag_59\n      jumpi\n      mload(0x40)\n      0x08c379a000000000000000000000000000000000000000000000000000000000\n      dup2\n      mstore\n      0x04\n      add\n      tag_60\n      swap1\n      tag_61\n      jump\t// in\n    tag_60:\n      mload(0x40)\n      dup1\n      swap2\n      sub\n      swap1\n      revert\n    tag_59:\n        /* \"contracts/JobMarketplace.sol\":2238:2241  job */\n      dup1\n        /* \"contracts/JobMarketplace.sol\":2238:2253  job.isCompleted */\n      0x05\n      add\n      0x00\n      swap1\n      sload\n      swap1\n      0x0100\n      exp\n      swap1\n      div\n      0xff\n      and\n        /* \"contracts/JobMarketplace.sol\":2237:2253  !job.isCompleted */\n      iszero\n        /* \"contracts/JobMarketplace.sol\":2229:2280  require(!job.isCompleted, \"Funds already released\") */\n      tag_62\n      jumpi\n      mload(0x40)\n      0x08c379a000000000000000000000000000000000000000000000000000000000\n      dup2\n      mstore\n      0x04\n      add\n      tag_63\n      swap1\n      tag_64\n      jump\t// in\n    tag_63:\n      mload(0x40)\n      dup1\n      swap2\n      sub\n      swap1\n      revert\n    tag_62:\n        /* \"contracts/JobMarketplace.sol\":2300:2303  job */\n      dup1\n        /* \"contracts/JobMarketplace.sol\":2300:2314  job.isDisputed */\n      0x05\n      add\n      0x01\n      swap1\n      sload\n      swap1\n      0x0100\n      exp\n      swap1\n      div\n      0xff\n      and\n        /* \"contracts/JobMarketplace.sol\":2299:2314  !job.isDisputed */\n      iszero\n        /* \"contracts/JobMarketplace.sol\":2291:2334  require(!job.isDisputed, \"Job is disputed\") */\n      tag_65\n      jumpi\n      mload(0x40)\n      0x08c379a000000000000000000000000000000000000000000000000000000000\n      dup2\n      mstore\n      0x04\n      add\n      tag_66\n      swap1\n      tag_67\n      jump\t// in\n    tag_66:\n      mload(0x40)\n      dup1\n      swap2\n      sub\n      swap1\n      revert\n    tag_65:\n        /* \"contracts/JobMarketplace.sol\":2365:2369  true */\n      0x01\n        /* \"contracts/JobMarketplace.sol\":2347:2350  job */\n      dup2\n        /* \"contracts/JobMarketplace.sol\":2347:2362  job.isCompleted */\n      0x05\n      add\n      0x00\n        /* \"contracts/JobMarketplace.sol\":2347:2369  job.isCompleted = true */\n      0x0100\n      exp\n      dup2\n      sload\n      dup2\n      0xff\n      mul\n      not\n      and\n      swap1\n      dup4\n      iszero\n      iszero\n      mul\n      or\n      swap1\n      sstore\n      pop\n        /* \"contracts/JobMarketplace.sol\":2388:2391  job */\n      dup1\n        /* \"contracts/JobMarketplace.sol\":2388:2402  job.freelancer */\n      0x02\n      add\n      0x00\n      swap1\n      sload\n      swap1\n      0x0100\n      exp\n      swap1\n      div\n      0xffffffffffffffffffffffffffffffffffffffff\n      and\n        /* \"contracts/JobMarketplace.sol\":2380:2412  payable(job.freelancer).transfer */\n      0xffffffffffffffffffffffffffffffffffffffff\n      and\n        /* \"contracts/JobMarketplace.sol\":2380:2424  payable(job.freelancer).transfer(job.budget) */\n      0x08fc\n        /* \"contracts/JobMarketplace.sol\":2413:2416  job */\n      dup3\n        /* \"contracts/JobMarketplace.sol\":2413:2423  job.budget */\n      0x03\n      add\n      sload\n        /* \"contracts/JobMarketplace.sol\":2380:2424  payable(job.freelancer).transfer(job.budget) */\n      swap1\n      dup2\n      iszero\n      mul\n      swap1\n      mload(0x40)\n      0x00\n      mload(0x40)\n      dup1\n      dup4\n      sub\n      dup2\n      dup6\n      dup9\n      dup9\n      call\n      swap4\n      pop\n      pop\n      pop\n      pop\n      iszero\n      dup1\n      iszero\n      tag_69\n      jumpi\n      returndatasize\n      0x00\n      dup1\n      returndatacopy\n      revert(0x00, returndatasize)\n    tag_69:\n      pop\n        /* \"contracts/JobMarketplace.sol\":2442:2478  FundsReleased(jobId, job.freelancer) */\n      0x8f5073d0a7a22ba450e278541077e181af457be74bea91e61f1f99e6bb40748e\n        /* \"contracts/JobMarketplace.sol\":2456:2461  jobId */\n      dup3\n        /* \"contracts/JobMarketplace.sol\":2463:2466  job */\n      dup3\n        /* \"contracts/JobMarketplace.sol\":2463:2477  job.freelancer */\n      0x02\n      add\n      0x00\n      swap1\n      sload\n      swap1\n      0x0100\n      exp\n      swap1\n      div\n      0xffffffffffffffffffffffffffffffffffffffff\n      and\n        /* \"contracts/JobMarketplace.sol\":2442:2478  FundsReleased(jobId, job.freelancer) */\n      mload(0x40)\n      tag_70\n      swap3\n      swap2\n      swap1\n      tag_71\n      jump\t// in\n    tag_70:\n      mload(0x40)\n      dup1\n      swap2\n      sub\n      swap1\n      log1\n        /* \"contracts/JobMarketplace.sol\":2097:2486  {... */\n      pop\n        /* \"contracts/JobMarketplace.sol\":2051:2486  function releaseFunds(uint256 jobId) external {... */\n      pop\n      jump\t// out\n        /* \"contracts/JobMarketplace.sol\":336:361  uint256 public jobCounter */\n    tag_26:\n      sload(0x00)\n      dup2\n      jump\t// out\n        /* \"contracts/JobMarketplace.sol\":725:1173  function postJob(uint256 budget, string calldata description) external {... */\n    tag_33:\n        /* \"contracts/JobMarketplace.sol\":824:825  0 */\n      0x00\n        /* \"contracts/JobMarketplace.sol\":815:821  budget */\n      dup4\n        /* \"contracts/JobMarketplace.sol\":815:825  budget > 0 */\n      gt\n        /* \"contracts/JobMarketplace.sol\":807:862  require(budget > 0, \"Budget must be greater than zero\") */\n      tag_73\n      jumpi\n      mload(0x40)\n      0x08c379a000000000000000000000000000000000000000000000000000000000\n      dup2\n      mstore\n      0x04\n      add\n      tag_74\n      swap1\n      tag_75\n      jump\t// in\n    tag_74:\n      mload(0x40)\n      dup1\n      swap2\n      sub\n      swap1\n      revert\n    tag_73:\n        /* \"contracts/JobMarketplace.sol\":875:885  jobCounter */\n      0x00\n      dup1\n        /* \"contracts/JobMarketplace.sol\":875:887  jobCounter++ */\n      dup2\n      sload\n      dup1\n      swap3\n      swap2\n      swap1\n      tag_76\n      swap1\n      tag_77\n      jump\t// in\n    tag_76:\n      swap2\n      swap1\n      pop\n      sstore\n      pop\n        /* \"contracts/JobMarketplace.sol\":917:1093  Job(... */\n      mload(0x40)\n      dup1\n      0xe0\n      add\n      0x40\n      mstore\n      dup1\n        /* \"contracts/JobMarketplace.sol\":935:945  jobCounter */\n      sload(0x00)\n        /* \"contracts/JobMarketplace.sol\":917:1093  Job(... */\n      dup2\n      mstore\n      0x20\n      add\n        /* \"contracts/JobMarketplace.sol\":960:970  msg.sender */\n      caller\n        /* \"contracts/JobMarketplace.sol\":917:1093  Job(... */\n      0xffffffffffffffffffffffffffffffffffffffff\n      and\n      dup2\n      mstore\n      0x20\n      add\n        /* \"contracts/JobMarketplace.sol\":993:994  0 */\n      0x00\n        /* \"contracts/JobMarketplace.sol\":917:1093  Job(... */\n      0xffffffffffffffffffffffffffffffffffffffff\n      and\n      dup2\n      mstore\n      0x20\n      add\n        /* \"contracts/JobMarketplace.sol\":1010:1016  budget */\n      dup5\n        /* \"contracts/JobMarketplace.sol\":917:1093  Job(... */\n      dup2\n      mstore\n      0x20\n      add\n        /* \"contracts/JobMarketplace.sol\":1031:1042  description */\n      dup4\n      dup4\n        /* \"contracts/JobMarketplace.sol\":917:1093  Job(... */\n      dup1\n      dup1\n      0x1f\n      add\n      0x20\n      dup1\n      swap2\n      div\n      mul\n      0x20\n      add\n      mload(0x40)\n      swap1\n      dup2\n      add\n      0x40\n      mstore\n      dup1\n      swap4\n      swap3\n      swap2\n      swap1\n      dup2\n      dup2\n      mstore\n      0x20\n      add\n      dup4\n      dup4\n      dup1\n      dup3\n      dup5\n      calldatacopy\n      0x00\n      dup2\n      dup5\n      add\n      mstore\n      not(0x1f)\n      0x1f\n      dup3\n      add\n      and\n      swap1\n      pop\n      dup1\n      dup4\n      add\n      swap3\n      pop\n      pop\n      pop\n      pop\n      pop\n      pop\n      pop\n      dup2\n      mstore\n      0x20\n      add\n        /* \"contracts/JobMarketplace.sol\":1057:1062  false */\n      0x00\n        /* \"contracts/JobMarketplace.sol\":917:1093  Job(... */\n      iszero\n      iszero\n      dup2\n      mstore\n      0x20\n      add\n        /* \"contracts/JobMarketplace.sol\":1077:1082  false */\n      0x00\n        /* \"contracts/JobMarketplace.sol\":917:1093  Job(... */\n      iszero\n      iszero\n      dup2\n      mstore\n      pop\n        /* \"contracts/JobMarketplace.sol\":898:902  jobs */\n      0x01\n        /* \"contracts/JobMarketplace.sol\":898:914  jobs[jobCounter] */\n      0x00\n        /* \"contracts/JobMarketplace.sol\":903:913  jobCounter */\n      dup1\n      sload\n        /* \"contracts/JobMarketplace.sol\":898:914  jobs[jobCounter] */\n      dup2\n      mstore\n      0x20\n      add\n      swap1\n      dup2\n      mstore\n      0x20\n      add\n      0x00\n      keccak256\n        /* \"contracts/JobMarketplace.sol\":898:1093  jobs[jobCounter] = Job(... */\n      0x00\n      dup3\n      add\n      mload\n      dup2\n      0x00\n      add\n      sstore\n      0x20\n      dup3\n      add\n      mload\n      dup2\n      0x01\n      add\n      exp(0x0100, 0x00)\n      dup2\n      sload\n      dup2\n      0xffffffffffffffffffffffffffffffffffffffff\n      mul\n      not\n      and\n      swap1\n      dup4\n      0xffffffffffffffffffffffffffffffffffffffff\n      and\n      mul\n      or\n      swap1\n      sstore\n      pop\n      0x40\n      dup3\n      add\n      mload\n      dup2\n      0x02\n      add\n      exp(0x0100, 0x00)\n      dup2\n      sload\n      dup2\n      0xffffffffffffffffffffffffffffffffffffffff\n      mul\n      not\n      and\n      swap1\n      dup4\n      0xffffffffffffffffffffffffffffffffffffffff\n      and\n      mul\n      or\n      swap1\n      sstore\n      pop\n      0x60\n      dup3\n      add\n      mload\n      dup2\n      0x03\n      add\n      sstore\n      0x80\n      dup3\n      add\n      mload\n      dup2\n      0x04\n      add\n      swap1\n      dup2\n      tag_78\n      swap2\n      swap1\n      tag_79\n      jump\t// in\n    tag_78:\n      pop\n      0xa0\n      dup3\n      add\n      mload\n      dup2\n      0x05\n      add\n      exp(0x0100, 0x00)\n      dup2\n      sload\n      dup2\n      0xff\n      mul\n      not\n      and\n      swap1\n      dup4\n      iszero\n      iszero\n      mul\n      or\n      swap1\n      sstore\n      pop\n      0xc0\n      dup3\n      add\n      mload\n      dup2\n      0x05\n      add\n      exp(0x0100, 0x01)\n      dup2\n      sload\n      dup2\n      0xff\n      mul\n      not\n      and\n      swap1\n      dup4\n      iszero\n      iszero\n      mul\n      or\n      swap1\n      sstore\n      pop\n      swap1\n      pop\n      pop\n        /* \"contracts/JobMarketplace.sol\":1111:1165  JobPosted(jobCounter, msg.sender, budget, description) */\n      0x54dd462f26b55b6aa0065c74835da2df2d0328b4132a21efa6dd25b911e274a7\n        /* \"contracts/JobMarketplace.sol\":1121:1131  jobCounter */\n      sload(0x00)\n        /* \"contracts/JobMarketplace.sol\":1133:1143  msg.sender */\n      caller\n        /* \"contracts/JobMarketplace.sol\":1145:1151  budget */\n      dup6\n        /* \"contracts/JobMarketplace.sol\":1153:1164  description */\n      dup6\n      dup6\n        /* \"contracts/JobMarketplace.sol\":1111:1165  JobPosted(jobCounter, msg.sender, budget, description) */\n      mload(0x40)\n      tag_80\n      swap6\n      swap5\n      swap4\n      swap3\n      swap2\n      swap1\n      tag_81\n      jump\t// in\n    tag_80:\n      mload(0x40)\n      dup1\n      swap2\n      sub\n      swap1\n      log1\n        /* \"contracts/JobMarketplace.sol\":725:1173  function postJob(uint256 budget, string calldata description) external {... */\n      pop\n      pop\n      pop\n      jump\t// out\n        /* \"contracts/JobMarketplace.sol\":1218:1617  function acceptJob(uint256 jobId) external {... */\n    tag_37:\n        /* \"contracts/JobMarketplace.sol\":1272:1287  Job storage job */\n      0x00\n        /* \"contracts/JobMarketplace.sol\":1290:1294  jobs */\n      0x01\n        /* \"contracts/JobMarketplace.sol\":1290:1301  jobs[jobId] */\n      0x00\n        /* \"contracts/JobMarketplace.sol\":1295:1300  jobId */\n      dup4\n        /* \"contracts/JobMarketplace.sol\":1290:1301  jobs[jobId] */\n      dup2\n      mstore\n      0x20\n      add\n      swap1\n      dup2\n      mstore\n      0x20\n      add\n      0x00\n      keccak256\n        /* \"contracts/JobMarketplace.sol\":1272:1301  Job storage job = jobs[jobId] */\n      swap1\n      pop\n        /* \"contracts/JobMarketplace.sol\":1342:1343  0 */\n      0x00\n        /* \"contracts/JobMarketplace.sol\":1320:1344  job.client != address(0) */\n      0xffffffffffffffffffffffffffffffffffffffff\n      and\n        /* \"contracts/JobMarketplace.sol\":1320:1323  job */\n      dup2\n        /* \"contracts/JobMarketplace.sol\":1320:1330  job.client */\n      0x01\n      add\n      0x00\n      swap1\n      sload\n      swap1\n      0x0100\n      exp\n      swap1\n      div\n      0xffffffffffffffffffffffffffffffffffffffff\n      and\n        /* \"contracts/JobMarketplace.sol\":1320:1344  job.client != address(0) */\n      0xffffffffffffffffffffffffffffffffffffffff\n      and\n      sub\n        /* \"contracts/JobMarketplace.sol\":1312:1367  require(job.client != address(0), \"Job does not exist\") */\n      tag_83\n      jumpi\n      mload(0x40)\n      0x08c379a000000000000000000000000000000000000000000000000000000000\n      dup2\n      mstore\n      0x04\n      add\n      tag_84\n      swap1\n      tag_85\n      jump\t// in\n    tag_84:\n      mload(0x40)\n      dup1\n      swap2\n      sub\n      swap1\n      revert\n    tag_83:\n        /* \"contracts/JobMarketplace.sol\":1412:1413  0 */\n      0x00\n        /* \"contracts/JobMarketplace.sol\":1386:1414  job.freelancer == address(0) */\n      0xffffffffffffffffffffffffffffffffffffffff\n      and\n        /* \"contracts/JobMarketplace.sol\":1386:1389  job */\n      dup2\n        /* \"contracts/JobMarketplace.sol\":1386:1400  job.freelancer */\n      0x02\n      add\n      0x00\n      swap1\n      sload\n      swap1\n      0x0100\n      exp\n      swap1\n      div\n      0xffffffffffffffffffffffffffffffffffffffff\n      and\n        /* \"contracts/JobMarketplace.sol\":1386:1414  job.freelancer == address(0) */\n      0xffffffffffffffffffffffffffffffffffffffff\n      and\n      eq\n        /* \"contracts/JobMarketplace.sol\":1378:1439  require(job.freelancer == address(0), \"Job already accepted\") */\n      tag_86\n      jumpi\n      mload(0x40)\n      0x08c379a000000000000000000000000000000000000000000000000000000000\n      dup2\n      mstore\n      0x04\n      add\n      tag_87\n      swap1\n      tag_88\n      jump\t// in\n    tag_87:\n      mload(0x40)\n      dup1\n      swap2\n      sub\n      swap1\n      revert\n    tag_86:\n        /* \"contracts/JobMarketplace.sol\":1472:1475  job */\n      dup1\n        /* \"contracts/JobMarketplace.sol\":1472:1482  job.client */\n      0x01\n      add\n      0x00\n      swap1\n      sload\n      swap1\n      0x0100\n      exp\n      swap1\n      div\n      0xffffffffffffffffffffffffffffffffffffffff\n      and\n        /* \"contracts/JobMarketplace.sol\":1458:1482  msg.sender != job.client */\n      0xffffffffffffffffffffffffffffffffffffffff\n      and\n        /* \"contracts/JobMarketplace.sol\":1458:1468  msg.sender */\n      caller\n        /* \"contracts/JobMarketplace.sol\":1458:1482  msg.sender != job.client */\n      0xffffffffffffffffffffffffffffffffffffffff\n      and\n      sub\n        /* \"contracts/JobMarketplace.sol\":1450:1521  require(msg.sender != job.client, \"Client cannot accept their own job\") */\n      tag_89\n      jumpi\n      mload(0x40)\n      0x08c379a000000000000000000000000000000000000000000000000000000000\n      dup2\n      mstore\n      0x04\n      add\n      tag_90\n      swap1\n      tag_91\n      jump\t// in\n    tag_90:\n      mload(0x40)\n      dup1\n      swap2\n      sub\n      swap1\n      revert\n    tag_89:\n        /* \"contracts/JobMarketplace.sol\":1551:1561  msg.sender */\n      caller\n        /* \"contracts/JobMarketplace.sol\":1534:1537  job */\n      dup2\n        /* \"contracts/JobMarketplace.sol\":1534:1548  job.freelancer */\n      0x02\n      add\n      0x00\n        /* \"contracts/JobMarketplace.sol\":1534:1561  job.freelancer = msg.sender */\n      0x0100\n      exp\n      dup2\n      sload\n      dup2\n      0xffffffffffffffffffffffffffffffffffffffff\n      mul\n      not\n      and\n      swap1\n      dup4\n      0xffffffffffffffffffffffffffffffffffffffff\n      and\n      mul\n      or\n      swap1\n      sstore\n      pop\n        /* \"contracts/JobMarketplace.sol\":1579:1609  JobAccepted(jobId, msg.sender) */\n      0x4426e4a90a9570c8f678a263b11785eaaade8b79d76d18c43d4d8e00062e4f83\n        /* \"contracts/JobMarketplace.sol\":1591:1596  jobId */\n      dup3\n        /* \"contracts/JobMarketplace.sol\":1598:1608  msg.sender */\n      caller\n        /* \"contracts/JobMarketplace.sol\":1579:1609  JobAccepted(jobId, msg.sender) */\n      mload(0x40)\n      tag_92\n      swap3\n      swap2\n      swap1\n      tag_71\n      jump\t// in\n    tag_92:\n      mload(0x40)\n      dup1\n      swap2\n      sub\n      swap1\n      log1\n        /* \"contracts/JobMarketplace.sol\":1261:1617  {... */\n      pop\n        /* \"contracts/JobMarketplace.sol\":1218:1617  function acceptJob(uint256 jobId) external {... */\n      pop\n      jump\t// out\n        /* \"contracts/JobMarketplace.sol\":2518:2877  function raiseDispute(uint256 jobId) external {... */\n    tag_41:\n        /* \"contracts/JobMarketplace.sol\":2575:2590  Job storage job */\n      0x00\n        /* \"contracts/JobMarketplace.sol\":2593:2597  jobs */\n      0x01\n        /* \"contracts/JobMarketplace.sol\":2593:2604  jobs[jobId] */\n      0x00\n        /* \"contracts/JobMarketplace.sol\":2598:2603  jobId */\n      dup4\n        /* \"contracts/JobMarketplace.sol\":2593:2604  jobs[jobId] */\n      dup2\n      mstore\n      0x20\n      add\n      swap1\n      dup2\n      mstore\n      0x20\n      add\n      0x00\n      keccak256\n        /* \"contracts/JobMarketplace.sol\":2575:2604  Job storage job = jobs[jobId] */\n      swap1\n      pop\n        /* \"contracts/JobMarketplace.sol\":2637:2640  job */\n      dup1\n        /* \"contracts/JobMarketplace.sol\":2637:2647  job.client */\n      0x01\n      add\n      0x00\n      swap1\n      sload\n      swap1\n      0x0100\n      exp\n      swap1\n      div\n      0xffffffffffffffffffffffffffffffffffffffff\n      and\n        /* \"contracts/JobMarketplace.sol\":2623:2647  msg.sender == job.client */\n      0xffffffffffffffffffffffffffffffffffffffff\n      and\n        /* \"contracts/JobMarketplace.sol\":2623:2633  msg.sender */\n      caller\n        /* \"contracts/JobMarketplace.sol\":2623:2647  msg.sender == job.client */\n      0xffffffffffffffffffffffffffffffffffffffff\n      and\n      eq\n        /* \"contracts/JobMarketplace.sol\":2623:2679  msg.sender == job.client || msg.sender == job.freelancer */\n      dup1\n      tag_94\n      jumpi\n      pop\n        /* \"contracts/JobMarketplace.sol\":2665:2668  job */\n      dup1\n        /* \"contracts/JobMarketplace.sol\":2665:2679  job.freelancer */\n      0x02\n      add\n      0x00\n      swap1\n      sload\n      swap1\n      0x0100\n      exp\n      swap1\n      div\n      0xffffffffffffffffffffffffffffffffffffffff\n      and\n        /* \"contracts/JobMarketplace.sol\":2651:2679  msg.sender == job.freelancer */\n      0xffffffffffffffffffffffffffffffffffffffff\n      and\n        /* \"contracts/JobMarketplace.sol\":2651:2661  msg.sender */\n      caller\n        /* \"contracts/JobMarketplace.sol\":2651:2679  msg.sender == job.freelancer */\n      0xffffffffffffffffffffffffffffffffffffffff\n      and\n      eq\n        /* \"contracts/JobMarketplace.sol\":2623:2679  msg.sender == job.client || msg.sender == job.freelancer */\n    tag_94:\n        /* \"contracts/JobMarketplace.sol\":2615:2724  require(msg.sender == job.client || msg.sender == job.freelancer, \"Only involved parties can raise disputes\") */\n      tag_95\n      jumpi\n      mload(0x40)\n      0x08c379a000000000000000000000000000000000000000000000000000000000\n      dup2\n      mstore\n      0x04\n      add\n      tag_96\n      swap1\n      tag_97\n      jump\t// in\n    tag_96:\n      mload(0x40)\n      dup1\n      swap2\n      sub\n      swap1\n      revert\n    tag_95:\n        /* \"contracts/JobMarketplace.sol\":2744:2747  job */\n      dup1\n        /* \"contracts/JobMarketplace.sol\":2744:2759  job.isCompleted */\n      0x05\n      add\n      0x00\n      swap1\n      sload\n      swap1\n      0x0100\n      exp\n      swap1\n      div\n      0xff\n      and\n        /* \"contracts/JobMarketplace.sol\":2743:2759  !job.isCompleted */\n      iszero\n        /* \"contracts/JobMarketplace.sol\":2735:2785  require(!job.isCompleted, \"Job already completed\") */\n      tag_98\n      jumpi\n      mload(0x40)\n      0x08c379a000000000000000000000000000000000000000000000000000000000\n      dup2\n      mstore\n      0x04\n      add\n      tag_99\n      swap1\n      tag_100\n      jump\t// in\n    tag_99:\n      mload(0x40)\n      dup1\n      swap2\n      sub\n      swap1\n      revert\n    tag_98:\n        /* \"contracts/JobMarketplace.sol\":2815:2819  true */\n      0x01\n        /* \"contracts/JobMarketplace.sol\":2798:2801  job */\n      dup2\n        /* \"contracts/JobMarketplace.sol\":2798:2812  job.isDisputed */\n      0x05\n      add\n      0x01\n        /* \"contracts/JobMarketplace.sol\":2798:2819  job.isDisputed = true */\n      0x0100\n      exp\n      dup2\n      sload\n      dup2\n      0xff\n      mul\n      not\n      and\n      swap1\n      dup4\n      iszero\n      iszero\n      mul\n      or\n      swap1\n      sstore\n      pop\n        /* \"contracts/JobMarketplace.sol\":2837:2869  DisputeRaised(jobId, msg.sender) */\n      0x84a477df8a28a4276ca6dee4458a06c3015f30c477d9c949ede4e13ff8a552b4\n        /* \"contracts/JobMarketplace.sol\":2851:2856  jobId */\n      dup3\n        /* \"contracts/JobMarketplace.sol\":2858:2868  msg.sender */\n      caller\n        /* \"contracts/JobMarketplace.sol\":2837:2869  DisputeRaised(jobId, msg.sender) */\n      mload(0x40)\n      tag_101\n      swap3\n      swap2\n      swap1\n      tag_71\n      jump\t// in\n    tag_101:\n      mload(0x40)\n      dup1\n      swap2\n      sub\n      swap1\n      log1\n        /* \"contracts/JobMarketplace.sol\":2564:2877  {... */\n      pop\n        /* \"contracts/JobMarketplace.sol\":2518:2877  function raiseDispute(uint256 jobId) external {... */\n      pop\n      jump\t// out\n        /* \"#utility.yul\":88:205   */\n    tag_103:\n        /* \"#utility.yul\":197:198   */\n      0x00\n        /* \"#utility.yul\":194:195   */\n      dup1\n        /* \"#utility.yul\":187:199   */\n      revert\n        /* \"#utility.yul\":211:328   */\n    tag_104:\n        /* \"#utility.yul\":320:321   */\n      0x00\n        /* \"#utility.yul\":317:318   */\n      dup1\n        /* \"#utility.yul\":310:322   */\n      revert\n        /* \"#utility.yul\":334:411   */\n    tag_105:\n        /* \"#utility.yul\":371:378   */\n      0x00\n        /* \"#utility.yul\":400:405   */\n      dup2\n        /* \"#utility.yul\":389:405   */\n      swap1\n      pop\n        /* \"#utility.yul\":334:411   */\n      swap2\n      swap1\n      pop\n      jump\t// out\n        /* \"#utility.yul\":417:539   */\n    tag_106:\n        /* \"#utility.yul\":490:514   */\n      tag_173\n        /* \"#utility.yul\":508:513   */\n      dup2\n        /* \"#utility.yul\":490:514   */\n      tag_105\n      jump\t// in\n    tag_173:\n        /* \"#utility.yul\":483:488   */\n      dup2\n        /* \"#utility.yul\":480:515   */\n      eq\n        /* \"#utility.yul\":470:533   */\n      tag_174\n      jumpi\n        /* \"#utility.yul\":529:530   */\n      0x00\n        /* \"#utility.yul\":526:527   */\n      dup1\n        /* \"#utility.yul\":519:531   */\n      revert\n        /* \"#utility.yul\":470:533   */\n    tag_174:\n        /* \"#utility.yul\":417:539   */\n      pop\n      jump\t// out\n        /* \"#utility.yul\":545:684   */\n    tag_107:\n        /* \"#utility.yul\":591:596   */\n      0x00\n        /* \"#utility.yul\":629:635   */\n      dup2\n        /* \"#utility.yul\":616:636   */\n      calldataload\n        /* \"#utility.yul\":607:636   */\n      swap1\n      pop\n        /* \"#utility.yul\":645:678   */\n      tag_176\n        /* \"#utility.yul\":672:677   */\n      dup2\n        /* \"#utility.yul\":645:678   */\n      tag_106\n      jump\t// in\n    tag_176:\n        /* \"#utility.yul\":545:684   */\n      swap3\n      swap2\n      pop\n      pop\n      jump\t// out\n        /* \"#utility.yul\":690:1019   */\n    tag_13:\n        /* \"#utility.yul\":749:755   */\n      0x00\n        /* \"#utility.yul\":798:800   */\n      0x20\n        /* \"#utility.yul\":786:795   */\n      dup3\n        /* \"#utility.yul\":777:784   */\n      dup5\n        /* \"#utility.yul\":773:796   */\n      sub\n        /* \"#utility.yul\":769:801   */\n      slt\n        /* \"#utility.yul\":766:885   */\n      iszero\n      tag_178\n      jumpi\n        /* \"#utility.yul\":804:883   */\n      tag_179\n      tag_103\n      jump\t// in\n    tag_179:\n        /* \"#utility.yul\":766:885   */\n    tag_178:\n        /* \"#utility.yul\":924:925   */\n      0x00\n        /* \"#utility.yul\":949:1002   */\n      tag_180\n        /* \"#utility.yul\":994:1001   */\n      dup5\n        /* \"#utility.yul\":985:991   */\n      dup3\n        /* \"#utility.yul\":974:983   */\n      dup6\n        /* \"#utility.yul\":970:992   */\n      add\n        /* \"#utility.yul\":949:1002   */\n      tag_107\n      jump\t// in\n    tag_180:\n        /* \"#utility.yul\":939:1002   */\n      swap2\n      pop\n        /* \"#utility.yul\":895:1012   */\n      pop\n        /* \"#utility.yul\":690:1019   */\n      swap3\n      swap2\n      pop\n      pop\n      jump\t// out\n        /* \"#utility.yul\":1025:1143   */\n    tag_108:\n        /* \"#utility.yul\":1112:1136   */\n      tag_182\n        /* \"#utility.yul\":1130:1135   */\n      dup2\n        /* \"#utility.yul\":1112:1136   */\n      tag_105\n      jump\t// in\n    tag_182:\n        /* \"#utility.yul\":1107:1110   */\n      dup3\n        /* \"#utility.yul\":1100:1137   */\n      mstore\n        /* \"#utility.yul\":1025:1143   */\n      pop\n      pop\n      jump\t// out\n        /* \"#utility.yul\":1149:1275   */\n    tag_109:\n        /* \"#utility.yul\":1186:1193   */\n      0x00\n        /* \"#utility.yul\":1226:1268   */\n      0xffffffffffffffffffffffffffffffffffffffff\n        /* \"#utility.yul\":1219:1224   */\n      dup3\n        /* \"#utility.yul\":1215:1269   */\n      and\n        /* \"#utility.yul\":1204:1269   */\n      swap1\n      pop\n        /* \"#utility.yul\":1149:1275   */\n      swap2\n      swap1\n      pop\n      jump\t// out\n        /* \"#utility.yul\":1281:1377   */\n    tag_110:\n        /* \"#utility.yul\":1318:1325   */\n      0x00\n        /* \"#utility.yul\":1347:1371   */\n      tag_185\n        /* \"#utility.yul\":1365:1370   */\n      dup3\n        /* \"#utility.yul\":1347:1371   */\n      tag_109\n      jump\t// in\n    tag_185:\n        /* \"#utility.yul\":1336:1371   */\n      swap1\n      pop\n        /* \"#utility.yul\":1281:1377   */\n      swap2\n      swap1\n      pop\n      jump\t// out\n        /* \"#utility.yul\":1383:1501   */\n    tag_111:\n        /* \"#utility.yul\":1470:1494   */\n      tag_187\n        /* \"#utility.yul\":1488:1493   */\n      dup2\n        /* \"#utility.yul\":1470:1494   */\n      tag_110\n      jump\t// in\n    tag_187:\n        /* \"#utility.yul\":1465:1468   */\n      dup3\n        /* \"#utility.yul\":1458:1495   */\n      mstore\n        /* \"#utility.yul\":1383:1501   */\n      pop\n      pop\n      jump\t// out\n        /* \"#utility.yul\":1507:1606   */\n    tag_112:\n        /* \"#utility.yul\":1559:1565   */\n      0x00\n        /* \"#utility.yul\":1593:1598   */\n      dup2\n        /* \"#utility.yul\":1587:1599   */\n      mload\n        /* \"#utility.yul\":1577:1599   */\n      swap1\n      pop\n        /* \"#utility.yul\":1507:1606   */\n      swap2\n      swap1\n      pop\n      jump\t// out\n        /* \"#utility.yul\":1612:1781   */\n    tag_113:\n        /* \"#utility.yul\":1696:1707   */\n      0x00\n        /* \"#utility.yul\":1730:1736   */\n      dup3\n        /* \"#utility.yul\":1725:1728   */\n      dup3\n        /* \"#utility.yul\":1718:1737   */\n      mstore\n        /* \"#utility.yul\":1770:1774   */\n      0x20\n        /* \"#utility.yul\":1765:1768   */\n      dup3\n        /* \"#utility.yul\":1761:1775   */\n      add\n        /* \"#utility.yul\":1746:1775   */\n      swap1\n      pop\n        /* \"#utility.yul\":1612:1781   */\n      swap3\n      swap2\n      pop\n      pop\n      jump\t// out\n        /* \"#utility.yul\":1787:1926   */\n    tag_114:\n        /* \"#utility.yul\":1876:1882   */\n      dup3\n        /* \"#utility.yul\":1871:1874   */\n      dup2\n        /* \"#utility.yul\":1866:1869   */\n      dup4\n        /* \"#utility.yul\":1860:1883   */\n      mcopy\n        /* \"#utility.yul\":1917:1918   */\n      0x00\n        /* \"#utility.yul\":1908:1914   */\n      dup4\n        /* \"#utility.yul\":1903:1906   */\n      dup4\n        /* \"#utility.yul\":1899:1915   */\n      add\n        /* \"#utility.yul\":1892:1919   */\n      mstore\n        /* \"#utility.yul\":1787:1926   */\n      pop\n      pop\n      pop\n      jump\t// out\n        /* \"#utility.yul\":1932:2034   */\n    tag_115:\n        /* \"#utility.yul\":1973:1979   */\n      0x00\n        /* \"#utility.yul\":2024:2026   */\n      0x1f\n        /* \"#utility.yul\":2020:2027   */\n      not\n        /* \"#utility.yul\":2015:2017   */\n      0x1f\n        /* \"#utility.yul\":2008:2013   */\n      dup4\n        /* \"#utility.yul\":2004:2018   */\n      add\n        /* \"#utility.yul\":2000:2028   */\n      and\n        /* \"#utility.yul\":1990:2028   */\n      swap1\n      pop\n        /* \"#utility.yul\":1932:2034   */\n      swap2\n      swap1\n      pop\n      jump\t// out\n        /* \"#utility.yul\":2040:2417   */\n    tag_116:\n        /* \"#utility.yul\":2128:2131   */\n      0x00\n        /* \"#utility.yul\":2156:2195   */\n      tag_193\n        /* \"#utility.yul\":2189:2194   */\n      dup3\n        /* \"#utility.yul\":2156:2195   */\n      tag_112\n      jump\t// in\n    tag_193:\n        /* \"#utility.yul\":2211:2282   */\n      tag_194\n        /* \"#utility.yul\":2275:2281   */\n      dup2\n        /* \"#utility.yul\":2270:2273   */\n      dup6\n        /* \"#utility.yul\":2211:2282   */\n      tag_113\n      jump\t// in\n    tag_194:\n        /* \"#utility.yul\":2204:2282   */\n      swap4\n      pop\n        /* \"#utility.yul\":2291:2356   */\n      tag_195\n        /* \"#utility.yul\":2349:2355   */\n      dup2\n        /* \"#utility.yul\":2344:2347   */\n      dup6\n        /* \"#utility.yul\":2337:2341   */\n      0x20\n        /* \"#utility.yul\":2330:2335   */\n      dup7\n        /* \"#utility.yul\":2326:2342   */\n      add\n        /* \"#utility.yul\":2291:2356   */\n      tag_114\n      jump\t// in\n    tag_195:\n        /* \"#utility.yul\":2381:2410   */\n      tag_196\n        /* \"#utility.yul\":2403:2409   */\n      dup2\n        /* \"#utility.yul\":2381:2410   */\n      tag_115\n      jump\t// in\n    tag_196:\n        /* \"#utility.yul\":2376:2379   */\n      dup5\n        /* \"#utility.yul\":2372:2411   */\n      add\n        /* \"#utility.yul\":2365:2411   */\n      swap2\n      pop\n        /* \"#utility.yul\":2132:2417   */\n      pop\n        /* \"#utility.yul\":2040:2417   */\n      swap3\n      swap2\n      pop\n      pop\n      jump\t// out\n        /* \"#utility.yul\":2423:2513   */\n    tag_117:\n        /* \"#utility.yul\":2457:2464   */\n      0x00\n        /* \"#utility.yul\":2500:2505   */\n      dup2\n        /* \"#utility.yul\":2493:2506   */\n      iszero\n        /* \"#utility.yul\":2486:2507   */\n      iszero\n        /* \"#utility.yul\":2475:2507   */\n      swap1\n      pop\n        /* \"#utility.yul\":2423:2513   */\n      swap2\n      swap1\n      pop\n      jump\t// out\n        /* \"#utility.yul\":2519:2628   */\n    tag_118:\n        /* \"#utility.yul\":2600:2621   */\n      tag_199\n        /* \"#utility.yul\":2615:2620   */\n      dup2\n        /* \"#utility.yul\":2600:2621   */\n      tag_117\n      jump\t// in\n    tag_199:\n        /* \"#utility.yul\":2595:2598   */\n      dup3\n        /* \"#utility.yul\":2588:2622   */\n      mstore\n        /* \"#utility.yul\":2519:2628   */\n      pop\n      pop\n      jump\t// out\n        /* \"#utility.yul\":2634:3587   */\n    tag_16:\n        /* \"#utility.yul\":2903:2907   */\n      0x00\n        /* \"#utility.yul\":2941:2944   */\n      0xe0\n        /* \"#utility.yul\":2930:2939   */\n      dup3\n        /* \"#utility.yul\":2926:2945   */\n      add\n        /* \"#utility.yul\":2918:2945   */\n      swap1\n      pop\n        /* \"#utility.yul\":2955:3026   */\n      tag_201\n        /* \"#utility.yul\":3023:3024   */\n      0x00\n        /* \"#utility.yul\":3012:3021   */\n      dup4\n        /* \"#utility.yul\":3008:3025   */\n      add\n        /* \"#utility.yul\":2999:3005   */\n      dup11\n        /* \"#utility.yul\":2955:3026   */\n      tag_108\n      jump\t// in\n    tag_201:\n        /* \"#utility.yul\":3036:3108   */\n      tag_202\n        /* \"#utility.yul\":3104:3106   */\n      0x20\n        /* \"#utility.yul\":3093:3102   */\n      dup4\n        /* \"#utility.yul\":3089:3107   */\n      add\n        /* \"#utility.yul\":3080:3086   */\n      dup10\n        /* \"#utility.yul\":3036:3108   */\n      tag_111\n      jump\t// in\n    tag_202:\n        /* \"#utility.yul\":3118:3190   */\n      tag_203\n        /* \"#utility.yul\":3186:3188   */\n      0x40\n        /* \"#utility.yul\":3175:3184   */\n      dup4\n        /* \"#utility.yul\":3171:3189   */\n      add\n        /* \"#utility.yul\":3162:3168   */\n      dup9\n        /* \"#utility.yul\":3118:3190   */\n      tag_111\n      jump\t// in\n    tag_203:\n        /* \"#utility.yul\":3200:3272   */\n      tag_204\n        /* \"#utility.yul\":3268:3270   */\n      0x60\n        /* \"#utility.yul\":3257:3266   */\n      dup4\n        /* \"#utility.yul\":3253:3271   */\n      add\n        /* \"#utility.yul\":3244:3250   */\n      dup8\n        /* \"#utility.yul\":3200:3272   */\n      tag_108\n      jump\t// in\n    tag_204:\n        /* \"#utility.yul\":3320:3329   */\n      dup2\n        /* \"#utility.yul\":3314:3318   */\n      dup2\n        /* \"#utility.yul\":3310:3330   */\n      sub\n        /* \"#utility.yul\":3304:3307   */\n      0x80\n        /* \"#utility.yul\":3293:3302   */\n      dup4\n        /* \"#utility.yul\":3289:3308   */\n      add\n        /* \"#utility.yul\":3282:3331   */\n      mstore\n        /* \"#utility.yul\":3348:3426   */\n      tag_205\n        /* \"#utility.yul\":3421:3425   */\n      dup2\n        /* \"#utility.yul\":3412:3418   */\n      dup7\n        /* \"#utility.yul\":3348:3426   */\n      tag_116\n      jump\t// in\n    tag_205:\n        /* \"#utility.yul\":3340:3426   */\n      swap1\n      pop\n        /* \"#utility.yul\":3436:3503   */\n      tag_206\n        /* \"#utility.yul\":3498:3501   */\n      0xa0\n        /* \"#utility.yul\":3487:3496   */\n      dup4\n        /* \"#utility.yul\":3483:3502   */\n      add\n        /* \"#utility.yul\":3474:3480   */\n      dup6\n        /* \"#utility.yul\":3436:3503   */\n      tag_118\n      jump\t// in\n    tag_206:\n        /* \"#utility.yul\":3513:3580   */\n      tag_207\n        /* \"#utility.yul\":3575:3578   */\n      0xc0\n        /* \"#utility.yul\":3564:3573   */\n      dup4\n        /* \"#utility.yul\":3560:3579   */\n      add\n        /* \"#utility.yul\":3551:3557   */\n      dup5\n        /* \"#utility.yul\":3513:3580   */\n      tag_118\n      jump\t// in\n    tag_207:\n        /* \"#utility.yul\":2634:3587   */\n      swap9\n      swap8\n      pop\n      pop\n      pop\n      pop\n      pop\n      pop\n      pop\n      pop\n      jump\t// out\n        /* \"#utility.yul\":3593:3815   */\n    tag_28:\n        /* \"#utility.yul\":3686:3690   */\n      0x00\n        /* \"#utility.yul\":3724:3726   */\n      0x20\n        /* \"#utility.yul\":3713:3722   */\n      dup3\n        /* \"#utility.yul\":3709:3727   */\n      add\n        /* \"#utility.yul\":3701:3727   */\n      swap1\n      pop\n        /* \"#utility.yul\":3737:3808   */\n      tag_209\n        /* \"#utility.yul\":3805:3806   */\n      0x00\n        /* \"#utility.yul\":3794:3803   */\n      dup4\n        /* \"#utility.yul\":3790:3807   */\n      add\n        /* \"#utility.yul\":3781:3787   */\n      dup5\n        /* \"#utility.yul\":3737:3808   */\n      tag_108\n      jump\t// in\n    tag_209:\n        /* \"#utility.yul\":3593:3815   */\n      swap3\n      swap2\n      pop\n      pop\n      jump\t// out\n        /* \"#utility.yul\":3821:3938   */\n    tag_119:\n        /* \"#utility.yul\":3930:3931   */\n      0x00\n        /* \"#utility.yul\":3927:3928   */\n      dup1\n        /* \"#utility.yul\":3920:3932   */\n      revert\n        /* \"#utility.yul\":3944:4061   */\n    tag_120:\n        /* \"#utility.yul\":4053:4054   */\n      0x00\n        /* \"#utility.yul\":4050:4051   */\n      dup1\n        /* \"#utility.yul\":4043:4055   */\n      revert\n        /* \"#utility.yul\":4067:4184   */\n    tag_121:\n        /* \"#utility.yul\":4176:4177   */\n      0x00\n        /* \"#utility.yul\":4173:4174   */\n      dup1\n        /* \"#utility.yul\":4166:4178   */\n      revert\n        /* \"#utility.yul\":4204:4757   */\n    tag_122:\n        /* \"#utility.yul\":4262:4270   */\n      0x00\n        /* \"#utility.yul\":4272:4278   */\n      dup1\n        /* \"#utility.yul\":4322:4325   */\n      dup4\n        /* \"#utility.yul\":4315:4319   */\n      0x1f\n        /* \"#utility.yul\":4307:4313   */\n      dup5\n        /* \"#utility.yul\":4303:4320   */\n      add\n        /* \"#utility.yul\":4299:4326   */\n      slt\n        /* \"#utility.yul\":4289:4411   */\n      tag_214\n      jumpi\n        /* \"#utility.yul\":4330:4409   */\n      tag_215\n      tag_119\n      jump\t// in\n    tag_215:\n        /* \"#utility.yul\":4289:4411   */\n    tag_214:\n        /* \"#utility.yul\":4443:4449   */\n      dup3\n        /* \"#utility.yul\":4430:4450   */\n      calldataload\n        /* \"#utility.yul\":4420:4450   */\n      swap1\n      pop\n        /* \"#utility.yul\":4473:4491   */\n      0xffffffffffffffff\n        /* \"#utility.yul\":4465:4471   */\n      dup2\n        /* \"#utility.yul\":4462:4492   */\n      gt\n        /* \"#utility.yul\":4459:4576   */\n      iszero\n      tag_216\n      jumpi\n        /* \"#utility.yul\":4495:4574   */\n      tag_217\n      tag_120\n      jump\t// in\n    tag_217:\n        /* \"#utility.yul\":4459:4576   */\n    tag_216:\n        /* \"#utility.yul\":4609:4613   */\n      0x20\n        /* \"#utility.yul\":4601:4607   */\n      dup4\n        /* \"#utility.yul\":4597:4614   */\n      add\n        /* \"#utility.yul\":4585:4614   */\n      swap2\n      pop\n        /* \"#utility.yul\":4663:4666   */\n      dup4\n        /* \"#utility.yul\":4655:4659   */\n      0x01\n        /* \"#utility.yul\":4647:4653   */\n      dup3\n        /* \"#utility.yul\":4643:4660   */\n      mul\n        /* \"#utility.yul\":4633:4641   */\n      dup4\n        /* \"#utility.yul\":4629:4661   */\n      add\n        /* \"#utility.yul\":4626:4667   */\n      gt\n        /* \"#utility.yul\":4623:4751   */\n      iszero\n      tag_218\n      jumpi\n        /* \"#utility.yul\":4670:4749   */\n      tag_219\n      tag_121\n      jump\t// in\n    tag_219:\n        /* \"#utility.yul\":4623:4751   */\n    tag_218:\n        /* \"#utility.yul\":4204:4757   */\n      swap3\n      pop\n      swap3\n      swap1\n      pop\n      jump\t// out\n        /* \"#utility.yul\":4763:5437   */\n    tag_32:\n        /* \"#utility.yul\":4843:4849   */\n      0x00\n        /* \"#utility.yul\":4851:4857   */\n      dup1\n        /* \"#utility.yul\":4859:4865   */\n      0x00\n        /* \"#utility.yul\":4908:4910   */\n      0x40\n        /* \"#utility.yul\":4896:4905   */\n      dup5\n        /* \"#utility.yul\":4887:4894   */\n      dup7\n        /* \"#utility.yul\":4883:4906   */\n      sub\n        /* \"#utility.yul\":4879:4911   */\n      slt\n        /* \"#utility.yul\":4876:4995   */\n      iszero\n      tag_221\n      jumpi\n        /* \"#utility.yul\":4914:4993   */\n      tag_222\n      tag_103\n      jump\t// in\n    tag_222:\n        /* \"#utility.yul\":4876:4995   */\n    tag_221:\n        /* \"#utility.yul\":5034:5035   */\n      0x00\n        /* \"#utility.yul\":5059:5112   */\n      tag_223\n        /* \"#utility.yul\":5104:5111   */\n      dup7\n        /* \"#utility.yul\":5095:5101   */\n      dup3\n        /* \"#utility.yul\":5084:5093   */\n      dup8\n        /* \"#utility.yul\":5080:5102   */\n      add\n        /* \"#utility.yul\":5059:5112   */\n      tag_107\n      jump\t// in\n    tag_223:\n        /* \"#utility.yul\":5049:5112   */\n      swap4\n      pop\n        /* \"#utility.yul\":5005:5122   */\n      pop\n        /* \"#utility.yul\":5189:5191   */\n      0x20\n        /* \"#utility.yul\":5178:5187   */\n      dup5\n        /* \"#utility.yul\":5174:5192   */\n      add\n        /* \"#utility.yul\":5161:5193   */\n      calldataload\n        /* \"#utility.yul\":5220:5238   */\n      0xffffffffffffffff\n        /* \"#utility.yul\":5212:5218   */\n      dup2\n        /* \"#utility.yul\":5209:5239   */\n      gt\n        /* \"#utility.yul\":5206:5323   */\n      iszero\n      tag_224\n      jumpi\n        /* \"#utility.yul\":5242:5321   */\n      tag_225\n      tag_104\n      jump\t// in\n    tag_225:\n        /* \"#utility.yul\":5206:5323   */\n    tag_224:\n        /* \"#utility.yul\":5355:5420   */\n      tag_226\n        /* \"#utility.yul\":5412:5419   */\n      dup7\n        /* \"#utility.yul\":5403:5409   */\n      dup3\n        /* \"#utility.yul\":5392:5401   */\n      dup8\n        /* \"#utility.yul\":5388:5410   */\n      add\n        /* \"#utility.yul\":5355:5420   */\n      tag_122\n      jump\t// in\n    tag_226:\n        /* \"#utility.yul\":5337:5420   */\n      swap3\n      pop\n      swap3\n      pop\n        /* \"#utility.yul\":5132:5430   */\n      pop\n        /* \"#utility.yul\":4763:5437   */\n      swap3\n      pop\n      swap3\n      pop\n      swap3\n      jump\t// out\n        /* \"#utility.yul\":5443:5623   */\n    tag_123:\n        /* \"#utility.yul\":5491:5568   */\n      0x4e487b7100000000000000000000000000000000000000000000000000000000\n        /* \"#utility.yul\":5488:5489   */\n      0x00\n        /* \"#utility.yul\":5481:5569   */\n      mstore\n        /* \"#utility.yul\":5588:5592   */\n      0x22\n        /* \"#utility.yul\":5585:5586   */\n      0x04\n        /* \"#utility.yul\":5578:5593   */\n      mstore\n        /* \"#utility.yul\":5612:5616   */\n      0x24\n        /* \"#utility.yul\":5609:5610   */\n      0x00\n        /* \"#utility.yul\":5602:5617   */\n      revert\n        /* \"#utility.yul\":5629:5949   */\n    tag_43:\n        /* \"#utility.yul\":5673:5679   */\n      0x00\n        /* \"#utility.yul\":5710:5711   */\n      0x02\n        /* \"#utility.yul\":5704:5708   */\n      dup3\n        /* \"#utility.yul\":5700:5712   */\n      div\n        /* \"#utility.yul\":5690:5712   */\n      swap1\n      pop\n        /* \"#utility.yul\":5757:5758   */\n      0x01\n        /* \"#utility.yul\":5751:5755   */\n      dup3\n        /* \"#utility.yul\":5747:5759   */\n      and\n        /* \"#utility.yul\":5778:5796   */\n      dup1\n        /* \"#utility.yul\":5768:5849   */\n      tag_229\n      jumpi\n        /* \"#utility.yul\":5834:5838   */\n      0x7f\n        /* \"#utility.yul\":5826:5832   */\n      dup3\n        /* \"#utility.yul\":5822:5839   */\n      and\n        /* \"#utility.yul\":5812:5839   */\n      swap2\n      pop\n        /* \"#utility.yul\":5768:5849   */\n    tag_229:\n        /* \"#utility.yul\":5896:5898   */\n      0x20\n        /* \"#utility.yul\":5888:5894   */\n      dup3\n        /* \"#utility.yul\":5885:5899   */\n      lt\n        /* \"#utility.yul\":5865:5883   */\n      dup2\n        /* \"#utility.yul\":5862:5900   */\n      sub\n        /* \"#utility.yul\":5859:5943   */\n      tag_230\n      jumpi\n        /* \"#utility.yul\":5915:5933   */\n      tag_231\n      tag_123\n      jump\t// in\n    tag_231:\n        /* \"#utility.yul\":5859:5943   */\n    tag_230:\n        /* \"#utility.yul\":5680:5949   */\n      pop\n        /* \"#utility.yul\":5629:5949   */\n      swap2\n      swap1\n      pop\n      jump\t// out\n        /* \"#utility.yul\":5955:6175   */\n    tag_124:\n        /* \"#utility.yul\":6095:6129   */\n      0x4f6e6c792074686520636c69656e742063616e206465706f7369742066756e64\n        /* \"#utility.yul\":6091:6092   */\n      0x00\n        /* \"#utility.yul\":6083:6089   */\n      dup3\n        /* \"#utility.yul\":6079:6093   */\n      add\n        /* \"#utility.yul\":6072:6130   */\n      mstore\n        /* \"#utility.yul\":6164:6167   */\n      0x7300000000000000000000000000000000000000000000000000000000000000\n        /* \"#utility.yul\":6159:6161   */\n      0x20\n        /* \"#utility.yul\":6151:6157   */\n      dup3\n        /* \"#utility.yul\":6147:6162   */\n      add\n        /* \"#utility.yul\":6140:6168   */\n      mstore\n        /* \"#utility.yul\":5955:6175   */\n      pop\n      jump\t// out\n        /* \"#utility.yul\":6181:6547   */\n    tag_125:\n        /* \"#utility.yul\":6323:6326   */\n      0x00\n        /* \"#utility.yul\":6344:6411   */\n      tag_234\n        /* \"#utility.yul\":6408:6410   */\n      0x21\n        /* \"#utility.yul\":6403:6406   */\n      dup4\n        /* \"#utility.yul\":6344:6411   */\n      tag_113\n      jump\t// in\n    tag_234:\n        /* \"#utility.yul\":6337:6411   */\n      swap2\n      pop\n        /* \"#utility.yul\":6420:6513   */\n      tag_235\n        /* \"#utility.yul\":6509:6512   */\n      dup3\n        /* \"#utility.yul\":6420:6513   */\n      tag_124\n      jump\t// in\n    tag_235:\n        /* \"#utility.yul\":6538:6540   */\n      0x40\n        /* \"#utility.yul\":6533:6536   */\n      dup3\n        /* \"#utility.yul\":6529:6541   */\n      add\n        /* \"#utility.yul\":6522:6541   */\n      swap1\n      pop\n        /* \"#utility.yul\":6181:6547   */\n      swap2\n      swap1\n      pop\n      jump\t// out\n        /* \"#utility.yul\":6553:6972   */\n    tag_51:\n        /* \"#utility.yul\":6719:6723   */\n      0x00\n        /* \"#utility.yul\":6757:6759   */\n      0x20\n        /* \"#utility.yul\":6746:6755   */\n      dup3\n        /* \"#utility.yul\":6742:6760   */\n      add\n        /* \"#utility.yul\":6734:6760   */\n      swap1\n      pop\n        /* \"#utility.yul\":6806:6815   */\n      dup2\n        /* \"#utility.yul\":6800:6804   */\n      dup2\n        /* \"#utility.yul\":6796:6816   */\n      sub\n        /* \"#utility.yul\":6792:6793   */\n      0x00\n        /* \"#utility.yul\":6781:6790   */\n      dup4\n        /* \"#utility.yul\":6777:6794   */\n      add\n        /* \"#utility.yul\":6770:6817   */\n      mstore\n        /* \"#utility.yul\":6834:6965   */\n      tag_237\n        /* \"#utility.yul\":6960:6964   */\n      dup2\n        /* \"#utility.yul\":6834:6965   */\n      tag_125\n      jump\t// in\n    tag_237:\n        /* \"#utility.yul\":6826:6965   */\n      swap1\n      pop\n        /* \"#utility.yul\":6553:6972   */\n      swap2\n      swap1\n      pop\n      jump\t// out\n        /* \"#utility.yul\":6978:7152   */\n    tag_126:\n        /* \"#utility.yul\":7118:7144   */\n      0x496e636f7272656374206465706f73697420616d6f756e740000000000000000\n        /* \"#utility.yul\":7114:7115   */\n      0x00\n        /* \"#utility.yul\":7106:7112   */\n      dup3\n        /* \"#utility.yul\":7102:7116   */\n      add\n        /* \"#utility.yul\":7095:7145   */\n      mstore\n        /* \"#utility.yul\":6978:7152   */\n      pop\n      jump\t// out\n        /* \"#utility.yul\":7158:7524   */\n    tag_127:\n        /* \"#utility.yul\":7300:7303   */\n      0x00\n        /* \"#utility.yul\":7321:7388   */\n      tag_240\n        /* \"#utility.yul\":7385:7387   */\n      0x18\n        /* \"#utility.yul\":7380:7383   */\n      dup4\n        /* \"#utility.yul\":7321:7388   */\n      tag_113\n      jump\t// in\n    tag_240:\n        /* \"#utility.yul\":7314:7388   */\n      swap2\n      pop\n        /* \"#utility.yul\":7397:7490   */\n      tag_241\n        /* \"#utility.yul\":7486:7489   */\n      dup3\n        /* \"#utility.yul\":7397:7490   */\n      tag_126\n      jump\t// in\n    tag_241:\n        /* \"#utility.yul\":7515:7517   */\n      0x20\n        /* \"#utility.yul\":7510:7513   */\n      dup3\n        /* \"#utility.yul\":7506:7518   */\n      add\n        /* \"#utility.yul\":7499:7518   */\n      swap1\n      pop\n        /* \"#utility.yul\":7158:7524   */\n      swap2\n      swap1\n      pop\n      jump\t// out\n        /* \"#utility.yul\":7530:7949   */\n    tag_54:\n        /* \"#utility.yul\":7696:7700   */\n      0x00\n        /* \"#utility.yul\":7734:7736   */\n      0x20\n        /* \"#utility.yul\":7723:7732   */\n      dup3\n        /* \"#utility.yul\":7719:7737   */\n      add\n        /* \"#utility.yul\":7711:7737   */\n      swap1\n      pop\n        /* \"#utility.yul\":7783:7792   */\n      dup2\n        /* \"#utility.yul\":7777:7781   */\n      dup2\n        /* \"#utility.yul\":7773:7793   */\n      sub\n        /* \"#utility.yul\":7769:7770   */\n      0x00\n        /* \"#utility.yul\":7758:7767   */\n      dup4\n        /* \"#utility.yul\":7754:7771   */\n      add\n        /* \"#utility.yul\":7747:7794   */\n      mstore\n        /* \"#utility.yul\":7811:7942   */\n      tag_243\n        /* \"#utility.yul\":7937:7941   */\n      dup2\n        /* \"#utility.yul\":7811:7942   */\n      tag_127\n      jump\t// in\n    tag_243:\n        /* \"#utility.yul\":7803:7942   */\n      swap1\n      pop\n        /* \"#utility.yul\":7530:7949   */\n      swap2\n      swap1\n      pop\n      jump\t// out\n        /* \"#utility.yul\":7955:8135   */\n    tag_128:\n        /* \"#utility.yul\":8095:8127   */\n      0x4a6f6220686173206e6f20667265656c616e6365722061737369676e65640000\n        /* \"#utility.yul\":8091:8092   */\n      0x00\n        /* \"#utility.yul\":8083:8089   */\n      dup3\n        /* \"#utility.yul\":8079:8093   */\n      add\n        /* \"#utility.yul\":8072:8128   */\n      mstore\n        /* \"#utility.yul\":7955:8135   */\n      pop\n      jump\t// out\n        /* \"#utility.yul\":8141:8507   */\n    tag_129:\n        /* \"#utility.yul\":8283:8286   */\n      0x00\n        /* \"#utility.yul\":8304:8371   */\n      tag_246\n        /* \"#utility.yul\":8368:8370   */\n      0x1e\n        /* \"#utility.yul\":8363:8366   */\n      dup4\n        /* \"#utility.yul\":8304:8371   */\n      tag_113\n      jump\t// in\n    tag_246:\n        /* \"#utility.yul\":8297:8371   */\n      swap2\n      pop\n        /* \"#utility.yul\":8380:8473   */\n      tag_247\n        /* \"#utility.yul\":8469:8472   */\n      dup3\n        /* \"#utility.yul\":8380:8473   */\n      tag_128\n      jump\t// in\n    tag_247:\n        /* \"#utility.yul\":8498:8500   */\n      0x20\n        /* \"#utility.yul\":8493:8496   */\n      dup3\n        /* \"#utility.yul\":8489:8501   */\n      add\n        /* \"#utility.yul\":8482:8501   */\n      swap1\n      pop\n        /* \"#utility.yul\":8141:8507   */\n      swap2\n      swap1\n      pop\n      jump\t// out\n        /* \"#utility.yul\":8513:8932   */\n    tag_57:\n        /* \"#utility.yul\":8679:8683   */\n      0x00\n        /* \"#utility.yul\":8717:8719   */\n      0x20\n        /* \"#utility.yul\":8706:8715   */\n      dup3\n        /* \"#utility.yul\":8702:8720   */\n      add\n        /* \"#utility.yul\":8694:8720   */\n      swap1\n      pop\n        /* \"#utility.yul\":8766:8775   */\n      dup2\n        /* \"#utility.yul\":8760:8764   */\n      dup2\n        /* \"#utility.yul\":8756:8776   */\n      sub\n        /* \"#utility.yul\":8752:8753   */\n      0x00\n        /* \"#utility.yul\":8741:8750   */\n      dup4\n        /* \"#utility.yul\":8737:8754   */\n      add\n        /* \"#utility.yul\":8730:8777   */\n      mstore\n        /* \"#utility.yul\":8794:8925   */\n      tag_249\n        /* \"#utility.yul\":8920:8924   */\n      dup2\n        /* \"#utility.yul\":8794:8925   */\n      tag_129\n      jump\t// in\n    tag_249:\n        /* \"#utility.yul\":8786:8925   */\n      swap1\n      pop\n        /* \"#utility.yul\":8513:8932   */\n      swap2\n      swap1\n      pop\n      jump\t// out\n        /* \"#utility.yul\":8938:9158   */\n    tag_130:\n        /* \"#utility.yul\":9078:9112   */\n      0x4f6e6c792074686520636c69656e742063616e2072656c656173652066756e64\n        /* \"#utility.yul\":9074:9075   */\n      0x00\n        /* \"#utility.yul\":9066:9072   */\n      dup3\n        /* \"#utility.yul\":9062:9076   */\n      add\n        /* \"#utility.yul\":9055:9113   */\n      mstore\n        /* \"#utility.yul\":9147:9150   */\n      0x7300000000000000000000000000000000000000000000000000000000000000\n        /* \"#utility.yul\":9142:9144   */\n      0x20\n        /* \"#utility.yul\":9134:9140   */\n      dup3\n        /* \"#utility.yul\":9130:9145   */\n      add\n        /* \"#utility.yul\":9123:9151   */\n      mstore\n        /* \"#utility.yul\":8938:9158   */\n      pop\n      jump\t// out\n        /* \"#utility.yul\":9164:9530   */\n    tag_131:\n        /* \"#utility.yul\":9306:9309   */\n      0x00\n        /* \"#utility.yul\":9327:9394   */\n      tag_252\n        /* \"#utility.yul\":9391:9393   */\n      0x21\n        /* \"#utility.yul\":9386:9389   */\n      dup4\n        /* \"#utility.yul\":9327:9394   */\n      tag_113\n      jump\t// in\n    tag_252:\n        /* \"#utility.yul\":9320:9394   */\n      swap2\n      pop\n        /* \"#utility.yul\":9403:9496   */\n      tag_253\n        /* \"#utility.yul\":9492:9495   */\n      dup3\n        /* \"#utility.yul\":9403:9496   */\n      tag_130\n      jump\t// in\n    tag_253:\n        /* \"#utility.yul\":9521:9523   */\n      0x40\n        /* \"#utility.yul\":9516:9519   */\n      dup3\n        /* \"#utility.yul\":9512:9524   */\n      add\n        /* \"#utility.yul\":9505:9524   */\n      swap1\n      pop\n        /* \"#utility.yul\":9164:9530   */\n      swap2\n      swap1\n      pop\n      jump\t// out\n        /* \"#utility.yul\":9536:9955   */\n    tag_61:\n        /* \"#utility.yul\":9702:9706   */\n      0x00\n        /* \"#utility.yul\":9740:9742   */\n      0x20\n        /* \"#utility.yul\":9729:9738   */\n      dup3\n        /* \"#utility.yul\":9725:9743   */\n      add\n        /* \"#utility.yul\":9717:9743   */\n      swap1\n      pop\n        /* \"#utility.yul\":9789:9798   */\n      dup2\n        /* \"#utility.yul\":9783:9787   */\n      dup2\n        /* \"#utility.yul\":9779:9799   */\n      sub\n        /* \"#utility.yul\":9775:9776   */\n      0x00\n        /* \"#utility.yul\":9764:9773   */\n      dup4\n        /* \"#utility.yul\":9760:9777   */\n      add\n        /* \"#utility.yul\":9753:9800   */\n      mstore\n        /* \"#utility.yul\":9817:9948   */\n      tag_255\n        /* \"#utility.yul\":9943:9947   */\n      dup2\n        /* \"#utility.yul\":9817:9948   */\n      tag_131\n      jump\t// in\n    tag_255:\n        /* \"#utility.yul\":9809:9948   */\n      swap1\n      pop\n        /* \"#utility.yul\":9536:9955   */\n      swap2\n      swap1\n      pop\n      jump\t// out\n        /* \"#utility.yul\":9961:10133   */\n    tag_132:\n        /* \"#utility.yul\":10101:10125   */\n      0x46756e647320616c72656164792072656c656173656400000000000000000000\n        /* \"#utility.yul\":10097:10098   */\n      0x00\n        /* \"#utility.yul\":10089:10095   */\n      dup3\n        /* \"#utility.yul\":10085:10099   */\n      add\n        /* \"#utility.yul\":10078:10126   */\n      mstore\n        /* \"#utility.yul\":9961:10133   */\n      pop\n      jump\t// out\n        /* \"#utility.yul\":10139:10505   */\n    tag_133:\n        /* \"#utility.yul\":10281:10284   */\n      0x00\n        /* \"#utility.yul\":10302:10369   */\n      tag_258\n        /* \"#utility.yul\":10366:10368   */\n      0x16\n        /* \"#utility.yul\":10361:10364   */\n      dup4\n        /* \"#utility.yul\":10302:10369   */\n      tag_113\n      jump\t// in\n    tag_258:\n        /* \"#utility.yul\":10295:10369   */\n      swap2\n      pop\n        /* \"#utility.yul\":10378:10471   */\n      tag_259\n        /* \"#utility.yul\":10467:10470   */\n      dup3\n        /* \"#utility.yul\":10378:10471   */\n      tag_132\n      jump\t// in\n    tag_259:\n        /* \"#utility.yul\":10496:10498   */\n      0x20\n        /* \"#utility.yul\":10491:10494   */\n      dup3\n        /* \"#utility.yul\":10487:10499   */\n      add\n        /* \"#utility.yul\":10480:10499   */\n      swap1\n      pop\n        /* \"#utility.yul\":10139:10505   */\n      swap2\n      swap1\n      pop\n      jump\t// out\n        /* \"#utility.yul\":10511:10930   */\n    tag_64:\n        /* \"#utility.yul\":10677:10681   */\n      0x00\n        /* \"#utility.yul\":10715:10717   */\n      0x20\n        /* \"#utility.yul\":10704:10713   */\n      dup3\n        /* \"#utility.yul\":10700:10718   */\n      add\n        /* \"#utility.yul\":10692:10718   */\n      swap1\n      pop\n        /* \"#utility.yul\":10764:10773   */\n      dup2\n        /* \"#utility.yul\":10758:10762   */\n      dup2\n        /* \"#utility.yul\":10754:10774   */\n      sub\n        /* \"#utility.yul\":10750:10751   */\n      0x00\n        /* \"#utility.yul\":10739:10748   */\n      dup4\n        /* \"#utility.yul\":10735:10752   */\n      add\n        /* \"#utility.yul\":10728:10775   */\n      mstore\n        /* \"#utility.yul\":10792:10923   */\n      tag_261\n        /* \"#utility.yul\":10918:10922   */\n      dup2\n        /* \"#utility.yul\":10792:10923   */\n      tag_133\n      jump\t// in\n    tag_261:\n        /* \"#utility.yul\":10784:10923   */\n      swap1\n      pop\n        /* \"#utility.yul\":10511:10930   */\n      swap2\n      swap1\n      pop\n      jump\t// out\n        /* \"#utility.yul\":10936:11101   */\n    tag_134:\n        /* \"#utility.yul\":11076:11093   */\n      0x4a6f622069732064697370757465640000000000000000000000000000000000\n        /* \"#utility.yul\":11072:11073   */\n      0x00\n        /* \"#utility.yul\":11064:11070   */\n      dup3\n        /* \"#utility.yul\":11060:11074   */\n      add\n        /* \"#utility.yul\":11053:11094   */\n      mstore\n        /* \"#utility.yul\":10936:11101   */\n      pop\n      jump\t// out\n        /* \"#utility.yul\":11107:11473   */\n    tag_135:\n        /* \"#utility.yul\":11249:11252   */\n      0x00\n        /* \"#utility.yul\":11270:11337   */\n      tag_264\n        /* \"#utility.yul\":11334:11336   */\n      0x0f\n        /* \"#utility.yul\":11329:11332   */\n      dup4\n        /* \"#utility.yul\":11270:11337   */\n      tag_113\n      jump\t// in\n    tag_264:\n        /* \"#utility.yul\":11263:11337   */\n      swap2\n      pop\n        /* \"#utility.yul\":11346:11439   */\n      tag_265\n        /* \"#utility.yul\":11435:11438   */\n      dup3\n        /* \"#utility.yul\":11346:11439   */\n      tag_134\n      jump\t// in\n    tag_265:\n        /* \"#utility.yul\":11464:11466   */\n      0x20\n        /* \"#utility.yul\":11459:11462   */\n      dup3\n        /* \"#utility.yul\":11455:11467   */\n      add\n        /* \"#utility.yul\":11448:11467   */\n      swap1\n      pop\n        /* \"#utility.yul\":11107:11473   */\n      swap2\n      swap1\n      pop\n      jump\t// out\n        /* \"#utility.yul\":11479:11898   */\n    tag_67:\n        /* \"#utility.yul\":11645:11649   */\n      0x00\n        /* \"#utility.yul\":11683:11685   */\n      0x20\n        /* \"#utility.yul\":11672:11681   */\n      dup3\n        /* \"#utility.yul\":11668:11686   */\n      add\n        /* \"#utility.yul\":11660:11686   */\n      swap1\n      pop\n        /* \"#utility.yul\":11732:11741   */\n      dup2\n        /* \"#utility.yul\":11726:11730   */\n      dup2\n        /* \"#utility.yul\":11722:11742   */\n      sub\n        /* \"#utility.yul\":11718:11719   */\n      0x00\n        /* \"#utility.yul\":11707:11716   */\n      dup4\n        /* \"#utility.yul\":11703:11720   */\n      add\n        /* \"#utility.yul\":11696:11743   */\n      mstore\n        /* \"#utility.yul\":11760:11891   */\n      tag_267\n        /* \"#utility.yul\":11886:11890   */\n      dup2\n        /* \"#utility.yul\":11760:11891   */\n      tag_135\n      jump\t// in\n    tag_267:\n        /* \"#utility.yul\":11752:11891   */\n      swap1\n      pop\n        /* \"#utility.yul\":11479:11898   */\n      swap2\n      swap1\n      pop\n      jump\t// out\n        /* \"#utility.yul\":11904:12236   */\n    tag_71:\n        /* \"#utility.yul\":12025:12029   */\n      0x00\n        /* \"#utility.yul\":12063:12065   */\n      0x40\n        /* \"#utility.yul\":12052:12061   */\n      dup3\n        /* \"#utility.yul\":12048:12066   */\n      add\n        /* \"#utility.yul\":12040:12066   */\n      swap1\n      pop\n        /* \"#utility.yul\":12076:12147   */\n      tag_269\n        /* \"#utility.yul\":12144:12145   */\n      0x00\n        /* \"#utility.yul\":12133:12142   */\n      dup4\n        /* \"#utility.yul\":12129:12146   */\n      add\n        /* \"#utility.yul\":12120:12126   */\n      dup6\n        /* \"#utility.yul\":12076:12147   */\n      tag_108\n      jump\t// in\n    tag_269:\n        /* \"#utility.yul\":12157:12229   */\n      tag_270\n        /* \"#utility.yul\":12225:12227   */\n      0x20\n        /* \"#utility.yul\":12214:12223   */\n      dup4\n        /* \"#utility.yul\":12210:12228   */\n      add\n        /* \"#utility.yul\":12201:12207   */\n      dup5\n        /* \"#utility.yul\":12157:12229   */\n      tag_111\n      jump\t// in\n    tag_270:\n        /* \"#utility.yul\":11904:12236   */\n      swap4\n      swap3\n      pop\n      pop\n      pop\n      jump\t// out\n        /* \"#utility.yul\":12242:12424   */\n    tag_136:\n        /* \"#utility.yul\":12382:12416   */\n      0x427564676574206d7573742062652067726561746572207468616e207a65726f\n        /* \"#utility.yul\":12378:12379   */\n      0x00\n        /* \"#utility.yul\":12370:12376   */\n      dup3\n        /* \"#utility.yul\":12366:12380   */\n      add\n        /* \"#utility.yul\":12359:12417   */\n      mstore\n        /* \"#utility.yul\":12242:12424   */\n      pop\n      jump\t// out\n        /* \"#utility.yul\":12430:12796   */\n    tag_137:\n        /* \"#utility.yul\":12572:12575   */\n      0x00\n        /* \"#utility.yul\":12593:12660   */\n      tag_273\n        /* \"#utility.yul\":12657:12659   */\n      0x20\n        /* \"#utility.yul\":12652:12655   */\n      dup4\n        /* \"#utility.yul\":12593:12660   */\n      tag_113\n      jump\t// in\n    tag_273:\n        /* \"#utility.yul\":12586:12660   */\n      swap2\n      pop\n        /* \"#utility.yul\":12669:12762   */\n      tag_274\n        /* \"#utility.yul\":12758:12761   */\n      dup3\n        /* \"#utility.yul\":12669:12762   */\n      tag_136\n      jump\t// in\n    tag_274:\n        /* \"#utility.yul\":12787:12789   */\n      0x20\n        /* \"#utility.yul\":12782:12785   */\n      dup3\n        /* \"#utility.yul\":12778:12790   */\n      add\n        /* \"#utility.yul\":12771:12790   */\n      swap1\n      pop\n        /* \"#utility.yul\":12430:12796   */\n      swap2\n      swap1\n      pop\n      jump\t// out\n        /* \"#utility.yul\":12802:13221   */\n    tag_75:\n        /* \"#utility.yul\":12968:12972   */\n      0x00\n        /* \"#utility.yul\":13006:13008   */\n      0x20\n        /* \"#utility.yul\":12995:13004   */\n      dup3\n        /* \"#utility.yul\":12991:13009   */\n      add\n        /* \"#utility.yul\":12983:13009   */\n      swap1\n      pop\n        /* \"#utility.yul\":13055:13064   */\n      dup2\n        /* \"#utility.yul\":13049:13053   */\n      dup2\n        /* \"#utility.yul\":13045:13065   */\n      sub\n        /* \"#utility.yul\":13041:13042   */\n      0x00\n        /* \"#utility.yul\":13030:13039   */\n      dup4\n        /* \"#utility.yul\":13026:13043   */\n      add\n        /* \"#utility.yul\":13019:13066   */\n      mstore\n        /* \"#utility.yul\":13083:13214   */\n      tag_276\n        /* \"#utility.yul\":13209:13213   */\n      dup2\n        /* \"#utility.yul\":13083:13214   */\n      tag_137\n      jump\t// in\n    tag_276:\n        /* \"#utility.yul\":13075:13214   */\n      swap1\n      pop\n        /* \"#utility.yul\":12802:13221   */\n      swap2\n      swap1\n      pop\n      jump\t// out\n        /* \"#utility.yul\":13227:13407   */\n    tag_138:\n        /* \"#utility.yul\":13275:13352   */\n      0x4e487b7100000000000000000000000000000000000000000000000000000000\n        /* \"#utility.yul\":13272:13273   */\n      0x00\n        /* \"#utility.yul\":13265:13353   */\n      mstore\n        /* \"#utility.yul\":13372:13376   */\n      0x11\n        /* \"#utility.yul\":13369:13370   */\n      0x04\n        /* \"#utility.yul\":13362:13377   */\n      mstore\n        /* \"#utility.yul\":13396:13400   */\n      0x24\n        /* \"#utility.yul\":13393:13394   */\n      0x00\n        /* \"#utility.yul\":13386:13401   */\n      revert\n        /* \"#utility.yul\":13413:13646   */\n    tag_77:\n        /* \"#utility.yul\":13452:13455   */\n      0x00\n        /* \"#utility.yul\":13475:13499   */\n      tag_279\n        /* \"#utility.yul\":13493:13498   */\n      dup3\n        /* \"#utility.yul\":13475:13499   */\n      tag_105\n      jump\t// in\n    tag_279:\n        /* \"#utility.yul\":13466:13499   */\n      swap2\n      pop\n        /* \"#utility.yul\":13521:13587   */\n      0xffffffffffffffffffffffffffffffffffffffffffffffffffffffffffffffff\n        /* \"#utility.yul\":13514:13519   */\n      dup3\n        /* \"#utility.yul\":13511:13588   */\n      sub\n        /* \"#utility.yul\":13508:13611   */\n      tag_280\n      jumpi\n        /* \"#utility.yul\":13591:13609   */\n      tag_281\n      tag_138\n      jump\t// in\n    tag_281:\n        /* \"#utility.yul\":13508:13611   */\n    tag_280:\n        /* \"#utility.yul\":13638:13639   */\n      0x01\n        /* \"#utility.yul\":13631:13636   */\n      dup3\n        /* \"#utility.yul\":13627:13640   */\n      add\n        /* \"#utility.yul\":13620:13640   */\n      swap1\n      pop\n        /* \"#utility.yul\":13413:13646   */\n      swap2\n      swap1\n      pop\n      jump\t// out\n        /* \"#utility.yul\":13652:13832   */\n    tag_139:\n        /* \"#utility.yul\":13700:13777   */\n      0x4e487b7100000000000000000000000000000000000000000000000000000000\n        /* \"#utility.yul\":13697:13698   */\n      0x00\n        /* \"#utility.yul\":13690:13778   */\n      mstore\n        /* \"#utility.yul\":13797:13801   */\n      0x41\n        /* \"#utility.yul\":13794:13795   */\n      0x04\n        /* \"#utility.yul\":13787:13802   */\n      mstore\n        /* \"#utility.yul\":13821:13825   */\n      0x24\n        /* \"#utility.yul\":13818:13819   */\n      0x00\n        /* \"#utility.yul\":13811:13826   */\n      revert\n        /* \"#utility.yul\":13838:13979   */\n    tag_140:\n        /* \"#utility.yul\":13887:13891   */\n      0x00\n        /* \"#utility.yul\":13910:13913   */\n      dup2\n        /* \"#utility.yul\":13902:13913   */\n      swap1\n      pop\n        /* \"#utility.yul\":13933:13936   */\n      dup2\n        /* \"#utility.yul\":13930:13931   */\n      0x00\n        /* \"#utility.yul\":13923:13937   */\n      mstore\n        /* \"#utility.yul\":13967:13971   */\n      0x20\n        /* \"#utility.yul\":13964:13965   */\n      0x00\n        /* \"#utility.yul\":13954:13972   */\n      keccak256\n        /* \"#utility.yul\":13946:13972   */\n      swap1\n      pop\n        /* \"#utility.yul\":13838:13979   */\n      swap2\n      swap1\n      pop\n      jump\t// out\n        /* \"#utility.yul\":13985:14078   */\n    tag_141:\n        /* \"#utility.yul\":14022:14028   */\n      0x00\n        /* \"#utility.yul\":14069:14071   */\n      0x20\n        /* \"#utility.yul\":14064:14066   */\n      0x1f\n        /* \"#utility.yul\":14057:14062   */\n      dup4\n        /* \"#utility.yul\":14053:14067   */\n      add\n        /* \"#utility.yul\":14049:14072   */\n      div\n        /* \"#utility.yul\":14039:14072   */\n      swap1\n      pop\n        /* \"#utility.yul\":13985:14078   */\n      swap2\n      swap1\n      pop\n      jump\t// out\n        /* \"#utility.yul\":14084:14191   */\n    tag_142:\n        /* \"#utility.yul\":14128:14136   */\n      0x00\n        /* \"#utility.yul\":14178:14183   */\n      dup3\n        /* \"#utility.yul\":14172:14176   */\n      dup3\n        /* \"#utility.yul\":14168:14184   */\n      shl\n        /* \"#utility.yul\":14147:14184   */\n      swap1\n      pop\n        /* \"#utility.yul\":14084:14191   */\n      swap3\n      swap2\n      pop\n      pop\n      jump\t// out\n        /* \"#utility.yul\":14197:14590   */\n    tag_143:\n        /* \"#utility.yul\":14266:14272   */\n      0x00\n        /* \"#utility.yul\":14316:14317   */\n      0x08\n        /* \"#utility.yul\":14304:14314   */\n      dup4\n        /* \"#utility.yul\":14300:14318   */\n      mul\n        /* \"#utility.yul\":14339:14436   */\n      tag_287\n        /* \"#utility.yul\":14369:14435   */\n      0xffffffffffffffffffffffffffffffffffffffffffffffffffffffffffffffff\n        /* \"#utility.yul\":14358:14367   */\n      dup3\n        /* \"#utility.yul\":14339:14436   */\n      tag_142\n      jump\t// in\n    tag_287:\n        /* \"#utility.yul\":14457:14496   */\n      tag_288\n        /* \"#utility.yul\":14487:14495   */\n      dup7\n        /* \"#utility.yul\":14476:14485   */\n      dup4\n        /* \"#utility.yul\":14457:14496   */\n      tag_142\n      jump\t// in\n    tag_288:\n        /* \"#utility.yul\":14445:14496   */\n      swap6\n      pop\n        /* \"#utility.yul\":14529:14533   */\n      dup1\n        /* \"#utility.yul\":14525:14534   */\n      not\n        /* \"#utility.yul\":14518:14523   */\n      dup5\n        /* \"#utility.yul\":14514:14535   */\n      and\n        /* \"#utility.yul\":14505:14535   */\n      swap4\n      pop\n        /* \"#utility.yul\":14578:14582   */\n      dup1\n        /* \"#utility.yul\":14568:14576   */\n      dup7\n        /* \"#utility.yul\":14564:14583   */\n      and\n        /* \"#utility.yul\":14557:14562   */\n      dup5\n        /* \"#utility.yul\":14554:14584   */\n      or\n        /* \"#utility.yul\":14544:14584   */\n      swap3\n      pop\n        /* \"#utility.yul\":14273:14590   */\n      pop\n      pop\n        /* \"#utility.yul\":14197:14590   */\n      swap4\n      swap3\n      pop\n      pop\n      pop\n      jump\t// out\n        /* \"#utility.yul\":14596:14656   */\n    tag_144:\n        /* \"#utility.yul\":14624:14627   */\n      0x00\n        /* \"#utility.yul\":14645:14650   */\n      dup2\n        /* \"#utility.yul\":14638:14650   */\n      swap1\n      pop\n        /* \"#utility.yul\":14596:14656   */\n      swap2\n      swap1\n      pop\n      jump\t// out\n        /* \"#utility.yul\":14662:14804   */\n    tag_145:\n        /* \"#utility.yul\":14712:14721   */\n      0x00\n        /* \"#utility.yul\":14745:14798   */\n      tag_291\n        /* \"#utility.yul\":14763:14797   */\n      tag_292\n        /* \"#utility.yul\":14772:14796   */\n      tag_293\n        /* \"#utility.yul\":14790:14795   */\n      dup5\n        /* \"#utility.yul\":14772:14796   */\n      tag_105\n      jump\t// in\n    tag_293:\n        /* \"#utility.yul\":14763:14797   */\n      tag_144\n      jump\t// in\n    tag_292:\n        /* \"#utility.yul\":14745:14798   */\n      tag_105\n      jump\t// in\n    tag_291:\n        /* \"#utility.yul\":14732:14798   */\n      swap1\n      pop\n        /* \"#utility.yul\":14662:14804   */\n      swap2\n      swap1\n      pop\n      jump\t// out\n        /* \"#utility.yul\":14810:14885   */\n    tag_146:\n        /* \"#utility.yul\":14853:14856   */\n      0x00\n        /* \"#utility.yul\":14874:14879   */\n      dup2\n        /* \"#utility.yul\":14867:14879   */\n      swap1\n      pop\n        /* \"#utility.yul\":14810:14885   */\n      swap2\n      swap1\n      pop\n      jump\t// out\n        /* \"#utility.yul\":14891:15160   */\n    tag_147:\n        /* \"#utility.yul\":15001:15040   */\n      tag_296\n        /* \"#utility.yul\":15032:15039   */\n      dup4\n        /* \"#utility.yul\":15001:15040   */\n      tag_145\n      jump\t// in\n    tag_296:\n        /* \"#utility.yul\":15062:15153   */\n      tag_297\n        /* \"#utility.yul\":15111:15152   */\n      tag_298\n        /* \"#utility.yul\":15135:15151   */\n      dup3\n        /* \"#utility.yul\":15111:15152   */\n      tag_146\n      jump\t// in\n    tag_298:\n        /* \"#utility.yul\":15103:15109   */\n      dup5\n        /* \"#utility.yul\":15096:15100   */\n      dup5\n        /* \"#utility.yul\":15090:15101   */\n      sload\n        /* \"#utility.yul\":15062:15153   */\n      tag_143\n      jump\t// in\n    tag_297:\n        /* \"#utility.yul\":15056:15060   */\n      dup3\n        /* \"#utility.yul\":15049:15154   */\n      sstore\n        /* \"#utility.yul\":14967:15160   */\n      pop\n        /* \"#utility.yul\":14891:15160   */\n      pop\n      pop\n      pop\n      jump\t// out\n        /* \"#utility.yul\":15166:15239   */\n    tag_148:\n        /* \"#utility.yul\":15211:15214   */\n      0x00\n        /* \"#utility.yul\":15166:15239   */\n      swap1\n      jump\t// out\n        /* \"#utility.yul\":15245:15434   */\n    tag_149:\n        /* \"#utility.yul\":15322:15354   */\n      tag_301\n      tag_148\n      jump\t// in\n    tag_301:\n        /* \"#utility.yul\":15363:15428   */\n      tag_302\n        /* \"#utility.yul\":15421:15427   */\n      dup2\n        /* \"#utility.yul\":15413:15419   */\n      dup5\n        /* \"#utility.yul\":15407:15411   */\n      dup5\n        /* \"#utility.yul\":15363:15428   */\n      tag_147\n      jump\t// in\n    tag_302:\n        /* \"#utility.yul\":15298:15434   */\n      pop\n        /* \"#utility.yul\":15245:15434   */\n      pop\n      pop\n      jump\t// out\n        /* \"#utility.yul\":15440:15626   */\n    tag_150:\n        /* \"#utility.yul\":15500:15620   */\n    tag_304:\n        /* \"#utility.yul\":15517:15520   */\n      dup2\n        /* \"#utility.yul\":15510:15515   */\n      dup2\n        /* \"#utility.yul\":15507:15521   */\n      lt\n        /* \"#utility.yul\":15500:15620   */\n      iszero\n      tag_306\n      jumpi\n        /* \"#utility.yul\":15571:15610   */\n      tag_307\n        /* \"#utility.yul\":15608:15609   */\n      0x00\n        /* \"#utility.yul\":15601:15606   */\n      dup3\n        /* \"#utility.yul\":15571:15610   */\n      tag_149\n      jump\t// in\n    tag_307:\n        /* \"#utility.yul\":15544:15545   */\n      0x01\n        /* \"#utility.yul\":15537:15542   */\n      dup2\n        /* \"#utility.yul\":15533:15546   */\n      add\n        /* \"#utility.yul\":15524:15546   */\n      swap1\n      pop\n        /* \"#utility.yul\":15500:15620   */\n      jump(tag_304)\n    tag_306:\n        /* \"#utility.yul\":15440:15626   */\n      pop\n      pop\n      jump\t// out\n        /* \"#utility.yul\":15632:16175   */\n    tag_151:\n        /* \"#utility.yul\":15733:15735   */\n      0x1f\n        /* \"#utility.yul\":15728:15731   */\n      dup3\n        /* \"#utility.yul\":15725:15736   */\n      gt\n        /* \"#utility.yul\":15722:16168   */\n      iszero\n      tag_309\n      jumpi\n        /* \"#utility.yul\":15767:15805   */\n      tag_310\n        /* \"#utility.yul\":15799:15804   */\n      dup2\n        /* \"#utility.yul\":15767:15805   */\n      tag_140\n      jump\t// in\n    tag_310:\n        /* \"#utility.yul\":15851:15880   */\n      tag_311\n        /* \"#utility.yul\":15869:15879   */\n      dup5\n        /* \"#utility.yul\":15851:15880   */\n      tag_141\n      jump\t// in\n    tag_311:\n        /* \"#utility.yul\":15841:15849   */\n      dup2\n        /* \"#utility.yul\":15837:15881   */\n      add\n        /* \"#utility.yul\":16034:16036   */\n      0x20\n        /* \"#utility.yul\":16022:16032   */\n      dup6\n        /* \"#utility.yul\":16019:16037   */\n      lt\n        /* \"#utility.yul\":16016:16065   */\n      iszero\n      tag_312\n      jumpi\n        /* \"#utility.yul\":16055:16063   */\n      dup2\n        /* \"#utility.yul\":16040:16063   */\n      swap1\n      pop\n        /* \"#utility.yul\":16016:16065   */\n    tag_312:\n        /* \"#utility.yul\":16078:16158   */\n      tag_313\n        /* \"#utility.yul\":16134:16156   */\n      tag_314\n        /* \"#utility.yul\":16152:16155   */\n      dup6\n        /* \"#utility.yul\":16134:16156   */\n      tag_141\n      jump\t// in\n    tag_314:\n        /* \"#utility.yul\":16124:16132   */\n      dup4\n        /* \"#utility.yul\":16120:16157   */\n      add\n        /* \"#utility.yul\":16107:16118   */\n      dup3\n        /* \"#utility.yul\":16078:16158   */\n      tag_150\n      jump\t// in\n    tag_313:\n        /* \"#utility.yul\":15737:16168   */\n      pop\n      pop\n        /* \"#utility.yul\":15722:16168   */\n    tag_309:\n        /* \"#utility.yul\":15632:16175   */\n      pop\n      pop\n      pop\n      jump\t// out\n        /* \"#utility.yul\":16181:16298   */\n    tag_152:\n        /* \"#utility.yul\":16235:16243   */\n      0x00\n        /* \"#utility.yul\":16285:16290   */\n      dup3\n        /* \"#utility.yul\":16279:16283   */\n      dup3\n        /* \"#utility.yul\":16275:16291   */\n      shr\n        /* \"#utility.yul\":16254:16291   */\n      swap1\n      pop\n        /* \"#utility.yul\":16181:16298   */\n      swap3\n      swap2\n      pop\n      pop\n      jump\t// out\n        /* \"#utility.yul\":16304:16473   */\n    tag_153:\n        /* \"#utility.yul\":16348:16354   */\n      0x00\n        /* \"#utility.yul\":16381:16432   */\n      tag_317\n        /* \"#utility.yul\":16429:16430   */\n      0x00\n        /* \"#utility.yul\":16425:16431   */\n      not\n        /* \"#utility.yul\":16417:16422   */\n      dup5\n        /* \"#utility.yul\":16414:16415   */\n      0x08\n        /* \"#utility.yul\":16410:16423   */\n      mul\n        /* \"#utility.yul\":16381:16432   */\n      tag_152\n      jump\t// in\n    tag_317:\n        /* \"#utility.yul\":16377:16433   */\n      not\n        /* \"#utility.yul\":16462:16466   */\n      dup1\n        /* \"#utility.yul\":16456:16460   */\n      dup4\n        /* \"#utility.yul\":16452:16467   */\n      and\n        /* \"#utility.yul\":16442:16467   */\n      swap2\n      pop\n        /* \"#utility.yul\":16355:16473   */\n      pop\n        /* \"#utility.yul\":16304:16473   */\n      swap3\n      swap2\n      pop\n      pop\n      jump\t// out\n        /* \"#utility.yul\":16478:16773   */\n    tag_154:\n        /* \"#utility.yul\":16554:16558   */\n      0x00\n        /* \"#utility.yul\":16700:16729   */\n      tag_319\n        /* \"#utility.yul\":16725:16728   */\n      dup4\n        /* \"#utility.yul\":16719:16723   */\n      dup4\n        /* \"#utility.yul\":16700:16729   */\n      tag_153\n      jump\t// in\n    tag_319:\n        /* \"#utility.yul\":16692:16729   */\n      swap2\n      pop\n        /* \"#utility.yul\":16762:16765   */\n      dup3\n        /* \"#utility.yul\":16759:16760   */\n      0x02\n        /* \"#utility.yul\":16755:16766   */\n      mul\n        /* \"#utility.yul\":16749:16753   */\n      dup3\n        /* \"#utility.yul\":16746:16767   */\n      or\n        /* \"#utility.yul\":16738:16767   */\n      swap1\n      pop\n        /* \"#utility.yul\":16478:16773   */\n      swap3\n      swap2\n      pop\n      pop\n      jump\t// out\n        /* \"#utility.yul\":16778:18173   */\n    tag_79:\n        /* \"#utility.yul\":16895:16932   */\n      tag_321\n        /* \"#utility.yul\":16928:16931   */\n      dup3\n        /* \"#utility.yul\":16895:16932   */\n      tag_112\n      jump\t// in\n    tag_321:\n        /* \"#utility.yul\":16997:17015   */\n      0xffffffffffffffff\n        /* \"#utility.yul\":16989:16995   */\n      dup2\n        /* \"#utility.yul\":16986:17016   */\n      gt\n        /* \"#utility.yul\":16983:17039   */\n      iszero\n      tag_322\n      jumpi\n        /* \"#utility.yul\":17019:17037   */\n      tag_323\n      tag_139\n      jump\t// in\n    tag_323:\n        /* \"#utility.yul\":16983:17039   */\n    tag_322:\n        /* \"#utility.yul\":17063:17101   */\n      tag_324\n        /* \"#utility.yul\":17095:17099   */\n      dup3\n        /* \"#utility.yul\":17089:17100   */\n      sload\n        /* \"#utility.yul\":17063:17101   */\n      tag_43\n      jump\t// in\n    tag_324:\n        /* \"#utility.yul\":17148:17215   */\n      tag_325\n        /* \"#utility.yul\":17208:17214   */\n      dup3\n        /* \"#utility.yul\":17200:17206   */\n      dup3\n        /* \"#utility.yul\":17194:17198   */\n      dup6\n        /* \"#utility.yul\":17148:17215   */\n      tag_151\n      jump\t// in\n    tag_325:\n        /* \"#utility.yul\":17242:17243   */\n      0x00\n        /* \"#utility.yul\":17266:17270   */\n      0x20\n        /* \"#utility.yul\":17253:17270   */\n      swap1\n      pop\n        /* \"#utility.yul\":17298:17300   */\n      0x1f\n        /* \"#utility.yul\":17290:17296   */\n      dup4\n        /* \"#utility.yul\":17287:17301   */\n      gt\n        /* \"#utility.yul\":17315:17316   */\n      0x01\n        /* \"#utility.yul\":17310:17928   */\n      dup2\n      eq\n      tag_327\n      jumpi\n        /* \"#utility.yul\":17972:17973   */\n      0x00\n        /* \"#utility.yul\":17989:17995   */\n      dup5\n        /* \"#utility.yul\":17986:18063   */\n      iszero\n      tag_328\n      jumpi\n        /* \"#utility.yul\":18038:18047   */\n      dup3\n        /* \"#utility.yul\":18033:18036   */\n      dup8\n        /* \"#utility.yul\":18029:18048   */\n      add\n        /* \"#utility.yul\":18023:18049   */\n      mload\n        /* \"#utility.yul\":18014:18049   */\n      swap1\n      pop\n        /* \"#utility.yul\":17986:18063   */\n    tag_328:\n        /* \"#utility.yul\":18089:18156   */\n      tag_329\n        /* \"#utility.yul\":18149:18155   */\n      dup6\n        /* \"#utility.yul\":18142:18147   */\n      dup3\n        /* \"#utility.yul\":18089:18156   */\n      tag_154\n      jump\t// in\n    tag_329:\n        /* \"#utility.yul\":18083:18087   */\n      dup7\n        /* \"#utility.yul\":18076:18157   */\n      sstore\n        /* \"#utility.yul\":17945:18167   */\n      pop\n        /* \"#utility.yul\":17280:18167   */\n      jump(tag_326)\n        /* \"#utility.yul\":17310:17928   */\n    tag_327:\n        /* \"#utility.yul\":17362:17366   */\n      0x1f\n        /* \"#utility.yul\":17358:17367   */\n      not\n        /* \"#utility.yul\":17350:17356   */\n      dup5\n        /* \"#utility.yul\":17346:17368   */\n      and\n        /* \"#utility.yul\":17396:17433   */\n      tag_330\n        /* \"#utility.yul\":17428:17432   */\n      dup7\n        /* \"#utility.yul\":17396:17433   */\n      tag_140\n      jump\t// in\n    tag_330:\n        /* \"#utility.yul\":17455:17456   */\n      0x00\n        /* \"#utility.yul\":17469:17677   */\n    tag_331:\n        /* \"#utility.yul\":17483:17490   */\n      dup3\n        /* \"#utility.yul\":17480:17481   */\n      dup2\n        /* \"#utility.yul\":17477:17491   */\n      lt\n        /* \"#utility.yul\":17469:17677   */\n      iszero\n      tag_333\n      jumpi\n        /* \"#utility.yul\":17562:17571   */\n      dup5\n        /* \"#utility.yul\":17557:17560   */\n      dup10\n        /* \"#utility.yul\":17553:17572   */\n      add\n        /* \"#utility.yul\":17547:17573   */\n      mload\n        /* \"#utility.yul\":17539:17545   */\n      dup3\n        /* \"#utility.yul\":17532:17574   */\n      sstore\n        /* \"#utility.yul\":17613:17614   */\n      0x01\n        /* \"#utility.yul\":17605:17611   */\n      dup3\n        /* \"#utility.yul\":17601:17615   */\n      add\n        /* \"#utility.yul\":17591:17615   */\n      swap2\n      pop\n        /* \"#utility.yul\":17660:17662   */\n      0x20\n        /* \"#utility.yul\":17649:17658   */\n      dup6\n        /* \"#utility.yul\":17645:17663   */\n      add\n        /* \"#utility.yul\":17632:17663   */\n      swap5\n      pop\n        /* \"#utility.yul\":17506:17510   */\n      0x20\n        /* \"#utility.yul\":17503:17504   */\n      dup2\n        /* \"#utility.yul\":17499:17511   */\n      add\n        /* \"#utility.yul\":17494:17511   */\n      swap1\n      pop\n        /* \"#utility.yul\":17469:17677   */\n      jump(tag_331)\n    tag_333:\n        /* \"#utility.yul\":17705:17711   */\n      dup7\n        /* \"#utility.yul\":17696:17703   */\n      dup4\n        /* \"#utility.yul\":17693:17712   */\n      lt\n        /* \"#utility.yul\":17690:17869   */\n      iszero\n      tag_334\n      jumpi\n        /* \"#utility.yul\":17763:17772   */\n      dup5\n        /* \"#utility.yul\":17758:17761   */\n      dup10\n        /* \"#utility.yul\":17754:17773   */\n      add\n        /* \"#utility.yul\":17748:17774   */\n      mload\n        /* \"#utility.yul\":17806:17854   */\n      tag_335\n        /* \"#utility.yul\":17848:17852   */\n      0x1f\n        /* \"#utility.yul\":17840:17846   */\n      dup10\n        /* \"#utility.yul\":17836:17853   */\n      and\n        /* \"#utility.yul\":17825:17834   */\n      dup3\n        /* \"#utility.yul\":17806:17854   */\n      tag_153\n      jump\t// in\n    tag_335:\n        /* \"#utility.yul\":17798:17804   */\n      dup4\n        /* \"#utility.yul\":17791:17855   */\n      sstore\n        /* \"#utility.yul\":17713:17869   */\n      pop\n        /* \"#utility.yul\":17690:17869   */\n    tag_334:\n        /* \"#utility.yul\":17915:17916   */\n      0x01\n        /* \"#utility.yul\":17911:17912   */\n      0x02\n        /* \"#utility.yul\":17903:17909   */\n      dup9\n        /* \"#utility.yul\":17899:17913   */\n      mul\n        /* \"#utility.yul\":17895:17917   */\n      add\n        /* \"#utility.yul\":17889:17893   */\n      dup9\n        /* \"#utility.yul\":17882:17918   */\n      sstore\n        /* \"#utility.yul\":17317:17928   */\n      pop\n      pop\n      pop\n        /* \"#utility.yul\":17280:18167   */\n    tag_326:\n      pop\n        /* \"#utility.yul\":16870:18173   */\n      pop\n      pop\n      pop\n        /* \"#utility.yul\":16778:18173   */\n      pop\n      pop\n      jump\t// out\n        /* \"#utility.yul\":18179:18327   */\n    tag_155:\n        /* \"#utility.yul\":18277:18283   */\n      dup3\n        /* \"#utility.yul\":18272:18275   */\n      dup2\n        /* \"#utility.yul\":18267:18270   */\n      dup4\n        /* \"#utility.yul\":18254:18284   */\n      calldatacopy\n        /* \"#utility.yul\":18318:18319   */\n      0x00\n        /* \"#utility.yul\":18309:18315   */\n      dup4\n        /* \"#utility.yul\":18304:18307   */\n      dup4\n        /* \"#utility.yul\":18300:18316   */\n      add\n        /* \"#utility.yul\":18293:18320   */\n      mstore\n        /* \"#utility.yul\":18179:18327   */\n      pop\n      pop\n      pop\n      jump\t// out\n        /* \"#utility.yul\":18357:18674   */\n    tag_156:\n        /* \"#utility.yul\":18455:18458   */\n      0x00\n        /* \"#utility.yul\":18476:18547   */\n      tag_338\n        /* \"#utility.yul\":18540:18546   */\n      dup4\n        /* \"#utility.yul\":18535:18538   */\n      dup6\n        /* \"#utility.yul\":18476:18547   */\n      tag_113\n      jump\t// in\n    tag_338:\n        /* \"#utility.yul\":18469:18547   */\n      swap4\n      pop\n        /* \"#utility.yul\":18557:18613   */\n      tag_339\n        /* \"#utility.yul\":18606:18612   */\n      dup4\n        /* \"#utility.yul\":18601:18604   */\n      dup6\n        /* \"#utility.yul\":18594:18599   */\n      dup5\n        /* \"#utility.yul\":18557:18613   */\n      tag_155\n      jump\t// in\n    tag_339:\n        /* \"#utility.yul\":18638:18667   */\n      tag_340\n        /* \"#utility.yul\":18660:18666   */\n      dup4\n        /* \"#utility.yul\":18638:18667   */\n      tag_115\n      jump\t// in\n    tag_340:\n        /* \"#utility.yul\":18633:18636   */\n      dup5\n        /* \"#utility.yul\":18629:18668   */\n      add\n        /* \"#utility.yul\":18622:18668   */\n      swap1\n      pop\n        /* \"#utility.yul\":18357:18674   */\n      swap4\n      swap3\n      pop\n      pop\n      pop\n      jump\t// out\n        /* \"#utility.yul\":18680:19344   */\n    tag_81:\n        /* \"#utility.yul\":18887:18891   */\n      0x00\n        /* \"#utility.yul\":18925:18928   */\n      0x80\n        /* \"#utility.yul\":18914:18923   */\n      dup3\n        /* \"#utility.yul\":18910:18929   */\n      add\n        /* \"#utility.yul\":18902:18929   */\n      swap1\n      pop\n        /* \"#utility.yul\":18939:19010   */\n      tag_342\n        /* \"#utility.yul\":19007:19008   */\n      0x00\n        /* \"#utility.yul\":18996:19005   */\n      dup4\n        /* \"#utility.yul\":18992:19009   */\n      add\n        /* \"#utility.yul\":18983:18989   */\n      dup9\n        /* \"#utility.yul\":18939:19010   */\n      tag_108\n      jump\t// in\n    tag_342:\n        /* \"#utility.yul\":19020:19092   */\n      tag_343\n        /* \"#utility.yul\":19088:19090   */\n      0x20\n        /* \"#utility.yul\":19077:19086   */\n      dup4\n        /* \"#utility.yul\":19073:19091   */\n      add\n        /* \"#utility.yul\":19064:19070   */\n      dup8\n        /* \"#utility.yul\":19020:19092   */\n      tag_111\n      jump\t// in\n    tag_343:\n        /* \"#utility.yul\":19102:19174   */\n      tag_344\n        /* \"#utility.yul\":19170:19172   */\n      0x40\n        /* \"#utility.yul\":19159:19168   */\n      dup4\n        /* \"#utility.yul\":19155:19173   */\n      add\n        /* \"#utility.yul\":19146:19152   */\n      dup7\n        /* \"#utility.yul\":19102:19174   */\n      tag_108\n      jump\t// in\n    tag_344:\n        /* \"#utility.yul\":19221:19230   */\n      dup2\n        /* \"#utility.yul\":19215:19219   */\n      dup2\n        /* \"#utility.yul\":19211:19231   */\n      sub\n        /* \"#utility.yul\":19206:19208   */\n      0x60\n        /* \"#utility.yul\":19195:19204   */\n      dup4\n        /* \"#utility.yul\":19191:19209   */\n      add\n        /* \"#utility.yul\":19184:19232   */\n      mstore\n        /* \"#utility.yul\":19249:19337   */\n      tag_345\n        /* \"#utility.yul\":19332:19336   */\n      dup2\n        /* \"#utility.yul\":19323:19329   */\n      dup5\n        /* \"#utility.yul\":19315:19321   */\n      dup7\n        /* \"#utility.yul\":19249:19337   */\n      tag_156\n      jump\t// in\n    tag_345:\n        /* \"#utility.yul\":19241:19337   */\n      swap1\n      pop\n        /* \"#utility.yul\":18680:19344   */\n      swap7\n      swap6\n      pop\n      pop\n      pop\n      pop\n      pop\n      pop\n      jump\t// out\n        /* \"#utility.yul\":19350:19518   */\n    tag_157:\n        /* \"#utility.yul\":19490:19510   */\n      0x4a6f6220646f6573206e6f742065786973740000000000000000000000000000\n        /* \"#utility.yul\":19486:19487   */\n      0x00\n        /* \"#utility.yul\":19478:19484   */\n      dup3\n        /* \"#utility.yul\":19474:19488   */\n      add\n        /* \"#utility.yul\":19467:19511   */\n      mstore\n        /* \"#utility.yul\":19350:19518   */\n      pop\n      jump\t// out\n        /* \"#utility.yul\":19524:19890   */\n    tag_158:\n        /* \"#utility.yul\":19666:19669   */\n      0x00\n        /* \"#utility.yul\":19687:19754   */\n      tag_348\n        /* \"#utility.yul\":19751:19753   */\n      0x12\n        /* \"#utility.yul\":19746:19749   */\n      dup4\n        /* \"#utility.yul\":19687:19754   */\n      tag_113\n      jump\t// in\n    tag_348:\n        /* \"#utility.yul\":19680:19754   */\n      swap2\n      pop\n        /* \"#utility.yul\":19763:19856   */\n      tag_349\n        /* \"#utility.yul\":19852:19855   */\n      dup3\n        /* \"#utility.yul\":19763:19856   */\n      tag_157\n      jump\t// in\n    tag_349:\n        /* \"#utility.yul\":19881:19883   */\n      0x20\n        /* \"#utility.yul\":19876:19879   */\n      dup3\n        /* \"#utility.yul\":19872:19884   */\n      add\n        /* \"#utility.yul\":19865:19884   */\n      swap1\n      pop\n        /* \"#utility.yul\":19524:19890   */\n      swap2\n      swap1\n      pop\n      jump\t// out\n        /* \"#utility.yul\":19896:20315   */\n    tag_85:\n        /* \"#utility.yul\":20062:20066   */\n      0x00\n        /* \"#utility.yul\":20100:20102   */\n      0x20\n        /* \"#utility.yul\":20089:20098   */\n      dup3\n        /* \"#utility.yul\":20085:20103   */\n      add\n        /* \"#utility.yul\":20077:20103   */\n      swap1\n      pop\n        /* \"#utility.yul\":20149:20158   */\n      dup2\n        /* \"#utility.yul\":20143:20147   */\n      dup2\n        /* \"#utility.yul\":20139:20159   */\n      sub\n        /* \"#utility.yul\":20135:20136   */\n      0x00\n        /* \"#utility.yul\":20124:20133   */\n      dup4\n        /* \"#utility.yul\":20120:20137   */\n      add\n        /* \"#utility.yul\":20113:20160   */\n      mstore\n        /* \"#utility.yul\":20177:20308   */\n      tag_351\n        /* \"#utility.yul\":20303:20307   */\n      dup2\n        /* \"#utility.yul\":20177:20308   */\n      tag_158\n      jump\t// in\n    tag_351:\n        /* \"#utility.yul\":20169:20308   */\n      swap1\n      pop\n        /* \"#utility.yul\":19896:20315   */\n      swap2\n      swap1\n      pop\n      jump\t// out\n        /* \"#utility.yul\":20321:20491   */\n    tag_159:\n        /* \"#utility.yul\":20461:20483   */\n      0x4a6f6220616c7265616479206163636570746564000000000000000000000000\n        /* \"#utility.yul\":20457:20458   */\n      0x00\n        /* \"#utility.yul\":20449:20455   */\n      dup3\n        /* \"#utility.yul\":20445:20459   */\n      add\n        /* \"#utility.yul\":20438:20484   */\n      mstore\n        /* \"#utility.yul\":20321:20491   */\n      pop\n      jump\t// out\n        /* \"#utility.yul\":20497:20863   */\n    tag_160:\n        /* \"#utility.yul\":20639:20642   */\n      0x00\n        /* \"#utility.yul\":20660:20727   */\n      tag_354\n        /* \"#utility.yul\":20724:20726   */\n      0x14\n        /* \"#utility.yul\":20719:20722   */\n      dup4\n        /* \"#utility.yul\":20660:20727   */\n      tag_113\n      jump\t// in\n    tag_354:\n        /* \"#utility.yul\":20653:20727   */\n      swap2\n      pop\n        /* \"#utility.yul\":20736:20829   */\n      tag_355\n        /* \"#utility.yul\":20825:20828   */\n      dup3\n        /* \"#utility.yul\":20736:20829   */\n      tag_159\n      jump\t// in\n    tag_355:\n        /* \"#utility.yul\":20854:20856   */\n      0x20\n        /* \"#utility.yul\":20849:20852   */\n      dup3\n        /* \"#utility.yul\":20845:20857   */\n      add\n        /* \"#utility.yul\":20838:20857   */\n      swap1\n      pop\n        /* \"#utility.yul\":20497:20863   */\n      swap2\n      swap1\n      pop\n      jump\t// out\n        /* \"#utility.yul\":20869:21288   */\n    tag_88:\n        /* \"#utility.yul\":21035:21039   */\n      0x00\n        /* \"#utility.yul\":21073:21075   */\n      0x20\n        /* \"#utility.yul\":21062:21071   */\n      dup3\n        /* \"#utility.yul\":21058:21076   */\n      add\n        /* \"#utility.yul\":21050:21076   */\n      swap1\n      pop\n        /* \"#utility.yul\":21122:21131   */\n      dup2\n        /* \"#utility.yul\":21116:21120   */\n      dup2\n        /* \"#utility.yul\":21112:21132   */\n      sub\n        /* \"#utility.yul\":21108:21109   */\n      0x00\n        /* \"#utility.yul\":21097:21106   */\n      dup4\n        /* \"#utility.yul\":21093:21110   */\n      add\n        /* \"#utility.yul\":21086:21133   */\n      mstore\n        /* \"#utility.yul\":21150:21281   */\n      tag_357\n        /* \"#utility.yul\":21276:21280   */\n      dup2\n        /* \"#utility.yul\":21150:21281   */\n      tag_160\n      jump\t// in\n    tag_357:\n        /* \"#utility.yul\":21142:21281   */\n      swap1\n      pop\n        /* \"#utility.yul\":20869:21288   */\n      swap2\n      swap1\n      pop\n      jump\t// out\n        /* \"#utility.yul\":21294:21515   */\n    tag_161:\n        /* \"#utility.yul\":21434:21468   */\n      0x436c69656e742063616e6e6f7420616363657074207468656972206f776e206a\n        /* \"#utility.yul\":21430:21431   */\n      0x00\n        /* \"#utility.yul\":21422:21428   */\n      dup3\n        /* \"#utility.yul\":21418:21432   */\n      add\n        /* \"#utility.yul\":21411:21469   */\n      mstore\n        /* \"#utility.yul\":21503:21507   */\n      0x6f62000000000000000000000000000000000000000000000000000000000000\n        /* \"#utility.yul\":21498:21500   */\n      0x20\n        /* \"#utility.yul\":21490:21496   */\n      dup3\n        /* \"#utility.yul\":21486:21501   */\n      add\n        /* \"#utility.yul\":21479:21508   */\n      mstore\n        /* \"#utility.yul\":21294:21515   */\n      pop\n      jump\t// out\n        /* \"#utility.yul\":21521:21887   */\n    tag_162:\n        /* \"#utility.yul\":21663:21666   */\n      0x00\n        /* \"#utility.yul\":21684:21751   */\n      tag_360\n        /* \"#utility.yul\":21748:21750   */\n      0x22\n        /* \"#utility.yul\":21743:21746   */\n      dup4\n        /* \"#utility.yul\":21684:21751   */\n      tag_113\n      jump\t// in\n    tag_360:\n        /* \"#utility.yul\":21677:21751   */\n      swap2\n      pop\n        /* \"#utility.yul\":21760:21853   */\n      tag_361\n        /* \"#utility.yul\":21849:21852   */\n      dup3\n        /* \"#utility.yul\":21760:21853   */\n      tag_161\n      jump\t// in\n    tag_361:\n        /* \"#utility.yul\":21878:21880   */\n      0x40\n        /* \"#utility.yul\":21873:21876   */\n      dup3\n        /* \"#utility.yul\":21869:21881   */\n      add\n        /* \"#utility.yul\":21862:21881   */\n      swap1\n      pop\n        /* \"#utility.yul\":21521:21887   */\n      swap2\n      swap1\n      pop\n      jump\t// out\n        /* \"#utility.yul\":21893:22312   */\n    tag_91:\n        /* \"#utility.yul\":22059:22063   */\n      0x00\n        /* \"#utility.yul\":22097:22099   */\n      0x20\n        /* \"#utility.yul\":22086:22095   */\n      dup3\n        /* \"#utility.yul\":22082:22100   */\n      add\n        /* \"#utility.yul\":22074:22100   */\n      swap1\n      pop\n        /* \"#utility.yul\":22146:22155   */\n      dup2\n        /* \"#utility.yul\":22140:22144   */\n      dup2\n        /* \"#utility.yul\":22136:22156   */\n      sub\n        /* \"#utility.yul\":22132:22133   */\n      0x00\n        /* \"#utility.yul\":22121:22130   */\n      dup4\n        /* \"#utility.yul\":22117:22134   */\n      add\n        /* \"#utility.yul\":22110:22157   */\n      mstore\n        /* \"#utility.yul\":22174:22305   */\n      tag_363\n        /* \"#utility.yul\":22300:22304   */\n      dup2\n        /* \"#utility.yul\":22174:22305   */\n      tag_162\n      jump\t// in\n    tag_363:\n        /* \"#utility.yul\":22166:22305   */\n      swap1\n      pop\n        /* \"#utility.yul\":21893:22312   */\n      swap2\n      swap1\n      pop\n      jump\t// out\n        /* \"#utility.yul\":22318:22545   */\n    tag_163:\n        /* \"#utility.yul\":22458:22492   */\n      0x4f6e6c7920696e766f6c76656420706172746965732063616e20726169736520\n        /* \"#utility.yul\":22454:22455   */\n      0x00\n        /* \"#utility.yul\":22446:22452   */\n      dup3\n        /* \"#utility.yul\":22442:22456   */\n      add\n        /* \"#utility.yul\":22435:22493   */\n      mstore\n        /* \"#utility.yul\":22527:22537   */\n      0x6469737075746573000000000000000000000000000000000000000000000000\n        /* \"#utility.yul\":22522:22524   */\n      0x20\n        /* \"#utility.yul\":22514:22520   */\n      dup3\n        /* \"#utility.yul\":22510:22525   */\n      add\n        /* \"#utility.yul\":22503:22538   */\n      mstore\n        /* \"#utility.yul\":22318:22545   */\n      pop\n      jump\t// out\n        /* \"#utility.yul\":22551:22917   */\n    tag_164:\n        /* \"#utility.yul\":22693:22696   */\n      0x00\n        /* \"#utility.yul\":22714:22781   */\n      tag_366\n        /* \"#utility.yul\":22778:22780   */\n      0x28\n        /* \"#utility.yul\":22773:22776   */\n      dup4\n        /* \"#utility.yul\":22714:22781   */\n      tag_113\n      jump\t// in\n    tag_366:\n        /* \"#utility.yul\":22707:22781   */\n      swap2\n      pop\n        /* \"#utility.yul\":22790:22883   */\n      tag_367\n        /* \"#utility.yul\":22879:22882   */\n      dup3\n        /* \"#utility.yul\":22790:22883   */\n      tag_163\n      jump\t// in\n    tag_367:\n        /* \"#utility.yul\":22908:22910   */\n      0x40\n        /* \"#utility.yul\":22903:22906   */\n      dup3\n        /* \"#utility.yul\":22899:22911   */\n      add\n        /* \"#utility.yul\":22892:22911   */\n      swap1\n      pop\n        /* \"#utility.yul\":22551:22917   */\n      swap2\n      swap1\n      pop\n      jump\t// out\n        /* \"#utility.yul\":22923:23342   */\n    tag_97:\n        /* \"#utility.yul\":23089:23093   */\n      0x00\n        /* \"#utility.yul\":23127:23129   */\n      0x20\n        /* \"#utility.yul\":23116:23125   */\n      dup3\n        /* \"#utility.yul\":23112:23130   */\n      add\n        /* \"#utility.yul\":23104:23130   */\n      swap1\n      pop\n        /* \"#utility.yul\":23176:23185   */\n      dup2\n        /* \"#utility.yul\":23170:23174   */\n      dup2\n        /* \"#utility.yul\":23166:23186   */\n      sub\n        /* \"#utility.yul\":23162:23163   */\n      0x00\n        /* \"#utility.yul\":23151:23160   */\n      dup4\n        /* \"#utility.yul\":23147:23164   */\n      add\n        /* \"#utility.yul\":23140:23187   */\n      mstore\n        /* \"#utility.yul\":23204:23335   */\n      tag_369\n        /* \"#utility.yul\":23330:23334   */\n      dup2\n        /* \"#utility.yul\":23204:23335   */\n      tag_164\n      jump\t// in\n    tag_369:\n        /* \"#utility.yul\":23196:23335   */\n      swap1\n      pop\n        /* \"#utility.yul\":22923:23342   */\n      swap2\n      swap1\n      pop\n      jump\t// out\n        /* \"#utility.yul\":23348:23519   */\n    tag_165:\n        /* \"#utility.yul\":23488:23511   */\n      0x4a6f6220616c726561647920636f6d706c657465640000000000000000000000\n        /* \"#utility.yul\":23484:23485   */\n      0x00\n        /* \"#utility.yul\":23476:23482   */\n      dup3\n        /* \"#utility.yul\":23472:23486   */\n      add\n        /* \"#utility.yul\":23465:23512   */\n      mstore\n        /* \"#utility.yul\":23348:23519   */\n      pop\n      jump\t// out\n        /* \"#utility.yul\":23525:23891   */\n    tag_166:\n        /* \"#utility.yul\":23667:23670   */\n      0x00\n        /* \"#utility.yul\":23688:23755   */\n      tag_372\n        /* \"#utility.yul\":23752:23754   */\n      0x15\n        /* \"#utility.yul\":23747:23750   */\n      dup4\n        /* \"#utility.yul\":23688:23755   */\n      tag_113\n      jump\t// in\n    tag_372:\n        /* \"#utility.yul\":23681:23755   */\n      swap2\n      pop\n        /* \"#utility.yul\":23764:23857   */\n      tag_373\n        /* \"#utility.yul\":23853:23856   */\n      dup3\n        /* \"#utility.yul\":23764:23857   */\n      tag_165\n      jump\t// in\n    tag_373:\n        /* \"#utility.yul\":23882:23884   */\n      0x20\n        /* \"#utility.yul\":23877:23880   */\n      dup3\n        /* \"#utility.yul\":23873:23885   */\n      add\n        /* \"#utility.yul\":23866:23885   */\n      swap1\n      pop\n        /* \"#utility.yul\":23525:23891   */\n      swap2\n      swap1\n      pop\n      jump\t// out\n        /* \"#utility.yul\":23897:24316   */\n    tag_100:\n        /* \"#utility.yul\":24063:24067   */\n      0x00\n        /* \"#utility.yul\":24101:24103   */\n      0x20\n        /* \"#utility.yul\":24090:24099   */\n      dup3\n        /* \"#utility.yul\":24086:24104   */\n      add\n        /* \"#utility.yul\":24078:24104   */\n      swap1\n      pop\n        /* \"#utility.yul\":24150:24159   */\n      dup2\n        /* \"#utility.yul\":24144:24148   */\n      dup2\n        /* \"#utility.yul\":24140:24160   */\n      sub\n        /* \"#utility.yul\":24136:24137   */\n      0x00\n        /* \"#utility.yul\":24125:24134   */\n      dup4\n        /* \"#utility.yul\":24121:24138   */\n      add\n        /* \"#utility.yul\":24114:24161   */\n      mstore\n        /* \"#utility.yul\":24178:24309   */\n      tag_375\n        /* \"#utility.yul\":24304:24308   */\n      dup2\n        /* \"#utility.yul\":24178:24309   */\n      tag_166\n      jump\t// in\n    tag_375:\n        /* \"#utility.yul\":24170:24309   */\n      swap1\n      pop\n        /* \"#utility.yul\":23897:24316   */\n      swap2\n      swap1\n      pop\n      jump\t// out\n\n    auxdata: 0xa264697066735822122039e2a931b3f97d9217f8b2b1374a8d68e8dd1e2951e7a8d9488f2c6bfbe713ee64736f6c634300081a0033\n}\n",
				"bytecode": {
					"linkReferences": {},
					"object": "6080604052348015600e575f80fd5b506118f38061001c5f395ff3fe60806040526004361061006f575f3560e01c806350355d761161004d57806350355d76146100f95780635a0dfe651461012357806363b2f3c91461014b578063a5c1674e146101735761006f565b8063180aedf3146100735780633b76594d146100b55780634d68282f146100d1575b5f80fd5b34801561007e575f80fd5b5061009960048036038101906100949190610ce0565b61019b565b6040516100ac9796959493929190610de3565b60405180910390f35b6100cf60048036038101906100ca9190610ce0565b6102b6565b005b3480156100dc575f80fd5b506100f760048036038101906100f29190610ce0565b610436565b005b348015610104575f80fd5b5061010d610665565b60405161011a9190610e57565b60405180910390f35b34801561012e575f80fd5b5061014960048036038101906101449190610ed1565b61066a565b005b348015610156575f80fd5b50610171600480360381019061016c9190610ce0565b6108b6565b005b34801561017e575f80fd5b5061019960048036038101906101949190610ce0565b610afc565b005b6001602052805f5260405f205f91509050805f015490806001015f9054906101000a900473ffffffffffffffffffffffffffffffffffffffff1690806002015f9054906101000a900473ffffffffffffffffffffffffffffffffffffffff169080600301549080600401805461021090610f5b565b80601f016020809104026020016040519081016040528092919081815260200182805461023c90610f5b565b80156102875780601f1061025e57610100808354040283529160200191610287565b820191905f5260205f20905b81548152906001019060200180831161026a57829003601f168201915b505050505090806005015f9054906101000a900460ff16908060050160019054906101000a900460ff16905087565b5f60015f8381526020019081526020015f2090503373ffffffffffffffffffffffffffffffffffffffff16816001015f9054906101000a900473ffffffffffffffffffffffffffffffffffffffff1673ffffffffffffffffffffffffffffffffffffffff161461035b576040517f08c379a000000000000000000000000000000000000000000000000000000000815260040161035290610ffb565b60405180910390fd5b806003015434146103a1576040517f08c379a000000000000000000000000000000000000000000000000000000000815260040161039890611063565b60405180910390fd5b5f73ffffffffffffffffffffffffffffffffffffffff16816002015f9054906101000a900473ffffffffffffffffffffffffffffffffffffffff1673ffffffffffffffffffffffffffffffffffffffff1603610432576040517f08c379a0000000000000000000000000000000000000000000000000000000008152600401610429906110cb565b60405180910390fd5b5050565b5f60015f8381526020019081526020015f209050806001015f9054906101000a900473ffffffffffffffffffffffffffffffffffffffff1673ffffffffffffffffffffffffffffffffffffffff163373ffffffffffffffffffffffffffffffffffffffff16146104db576040517f08c379a00000000000000000000000000000000000000000000000000000000081526004016104d290611159565b60405180910390fd5b806005015f9054906101000a900460ff161561052c576040517f08c379a0000000000000000000000000000000000000000000000000000000008152600401610523906111c1565b60405180910390fd5b8060050160019054906101000a900460ff161561057e576040517f08c379a000000000000000000000000000000000000000000000000000000000815260040161057590611229565b60405180910390fd5b6001816005015f6101000a81548160ff021916908315150217905550806002015f9054906101000a900473ffffffffffffffffffffffffffffffffffffffff1673ffffffffffffffffffffffffffffffffffffffff166108fc826003015490811502906040515f60405180830381858888f19350505050158015610604573d5f803e3d5ffd5b507f8f5073d0a7a22ba450e278541077e181af457be74bea91e61f1f99e6bb40748e82826002015f9054906101000a900473ffffffffffffffffffffffffffffffffffffffff16604051610659929190611247565b60405180910390a15050565b5f5481565b5f83116106ac576040517f08c379a00000000000000000000000000000000000000000000000000000000081526004016106a3906112b8565b60405180910390fd5b5f808154809291906106bd90611303565b91905055506040518060e001604052805f5481526020013373ffffffffffffffffffffffffffffffffffffffff1681526020015f73ffffffffffffffffffffffffffffffffffffffff16815260200184815260200183838080601f0160208091040260200160405190810160405280939291908181526020018383808284375f81840152601f19601f8201169050808301925050505050505081526020015f151581526020015f151581525060015f805481526020019081526020015f205f820151815f01556020820151816001015f6101000a81548173ffffffffffffffffffffffffffffffffffffffff021916908373ffffffffffffffffffffffffffffffffffffffff1602179055506040820151816002015f6101000a81548173ffffffffffffffffffffffffffffffffffffffff021916908373ffffffffffffffffffffffffffffffffffffffff16021790555060608201518160030155608082015181600401908161082e9190611514565b5060a0820151816005015f6101000a81548160ff02191690831515021790555060c08201518160050160016101000a81548160ff0219169083151502179055509050507f54dd462f26b55b6aa0065c74835da2df2d0328b4132a21efa6dd25b911e274a75f54338585856040516108a995949392919061161d565b60405180910390a1505050565b5f60015f8381526020019081526020015f2090505f73ffffffffffffffffffffffffffffffffffffffff16816001015f9054906101000a900473ffffffffffffffffffffffffffffffffffffffff1673ffffffffffffffffffffffffffffffffffffffff160361095b576040517f08c379a0000000000000000000000000000000000000000000000000000000008152600401610952906116b3565b60405180910390fd5b5f73ffffffffffffffffffffffffffffffffffffffff16816002015f9054906101000a900473ffffffffffffffffffffffffffffffffffffffff1673ffffffffffffffffffffffffffffffffffffffff16146109ec576040517f08c379a00000000000000000000000000000000000000000000000000000000081526004016109e39061171b565b60405180910390fd5b806001015f9054906101000a900473ffffffffffffffffffffffffffffffffffffffff1673ffffffffffffffffffffffffffffffffffffffff163373ffffffffffffffffffffffffffffffffffffffff1603610a7d576040517f08c379a0000000000000000000000000000000000000000000000000000000008152600401610a74906117a9565b60405180910390fd5b33816002015f6101000a81548173ffffffffffffffffffffffffffffffffffffffff021916908373ffffffffffffffffffffffffffffffffffffffff1602179055507f4426e4a90a9570c8f678a263b11785eaaade8b79d76d18c43d4d8e00062e4f838233604051610af0929190611247565b60405180910390a15050565b5f60015f8381526020019081526020015f209050806001015f9054906101000a900473ffffffffffffffffffffffffffffffffffffffff1673ffffffffffffffffffffffffffffffffffffffff163373ffffffffffffffffffffffffffffffffffffffff161480610bbb5750806002015f9054906101000a900473ffffffffffffffffffffffffffffffffffffffff1673ffffffffffffffffffffffffffffffffffffffff163373ffffffffffffffffffffffffffffffffffffffff16145b610bfa576040517f08c379a0000000000000000000000000000000000000000000000000000000008152600401610bf190611837565b60405180910390fd5b806005015f9054906101000a900460ff1615610c4b576040517f08c379a0000000000000000000000000000000000000000000000000000000008152600401610c429061189f565b60405180910390fd5b60018160050160016101000a81548160ff0219169083151502179055507f84a477df8a28a4276ca6dee4458a06c3015f30c477d9c949ede4e13ff8a552b48233604051610c99929190611247565b60405180910390a15050565b5f80fd5b5f80fd5b5f819050919050565b610cbf81610cad565b8114610cc9575f80fd5b50565b5f81359050610cda81610cb6565b92915050565b5f60208284031215610cf557610cf4610ca5565b5b5f610d0284828501610ccc565b91505092915050565b610d1481610cad565b82525050565b5f73ffffffffffffffffffffffffffffffffffffffff82169050919050565b5f610d4382610d1a565b9050919050565b610d5381610d39565b82525050565b5f81519050919050565b5f82825260208201905092915050565b8281835e5f83830152505050565b5f601f19601f8301169050919050565b5f610d9b82610d59565b610da58185610d63565b9350610db5818560208601610d73565b610dbe81610d81565b840191505092915050565b5f8115159050919050565b610ddd81610dc9565b82525050565b5f60e082019050610df65f83018a610d0b565b610e036020830189610d4a565b610e106040830188610d4a565b610e1d6060830187610d0b565b8181036080830152610e2f8186610d91565b9050610e3e60a0830185610dd4565b610e4b60c0830184610dd4565b98975050505050505050565b5f602082019050610e6a5f830184610d0b565b92915050565b5f80fd5b5f80fd5b5f80fd5b5f8083601f840112610e9157610e90610e70565b5b8235905067ffffffffffffffff811115610eae57610ead610e74565b5b602083019150836001820283011115610eca57610ec9610e78565b5b9250929050565b5f805f60408486031215610ee857610ee7610ca5565b5b5f610ef586828701610ccc565b935050602084013567ffffffffffffffff811115610f1657610f15610ca9565b5b610f2286828701610e7c565b92509250509250925092565b7f4e487b71000000000000000000000000000000000000000000000000000000005f52602260045260245ffd5b5f6002820490506001821680610f7257607f821691505b602082108103610f8557610f84610f2e565b5b50919050565b7f4f6e6c792074686520636c69656e742063616e206465706f7369742066756e645f8201527f7300000000000000000000000000000000000000000000000000000000000000602082015250565b5f610fe5602183610d63565b9150610ff082610f8b565b604082019050919050565b5f6020820190508181035f83015261101281610fd9565b9050919050565b7f496e636f7272656374206465706f73697420616d6f756e7400000000000000005f82015250565b5f61104d601883610d63565b915061105882611019565b602082019050919050565b5f6020820190508181035f83015261107a81611041565b9050919050565b7f4a6f6220686173206e6f20667265656c616e6365722061737369676e656400005f82015250565b5f6110b5601e83610d63565b91506110c082611081565b602082019050919050565b5f6020820190508181035f8301526110e2816110a9565b9050919050565b7f4f6e6c792074686520636c69656e742063616e2072656c656173652066756e645f8201527f7300000000000000000000000000000000000000000000000000000000000000602082015250565b5f611143602183610d63565b915061114e826110e9565b604082019050919050565b5f6020820190508181035f83015261117081611137565b9050919050565b7f46756e647320616c72656164792072656c6561736564000000000000000000005f82015250565b5f6111ab601683610d63565b91506111b682611177565b602082019050919050565b5f6020820190508181035f8301526111d88161119f565b9050919050565b7f4a6f6220697320646973707574656400000000000000000000000000000000005f82015250565b5f611213600f83610d63565b915061121e826111df565b602082019050919050565b5f6020820190508181035f83015261124081611207565b9050919050565b5f60408201905061125a5f830185610d0b565b6112676020830184610d4a565b9392505050565b7f427564676574206d7573742062652067726561746572207468616e207a65726f5f82015250565b5f6112a2602083610d63565b91506112ad8261126e565b602082019050919050565b5f6020820190508181035f8301526112cf81611296565b9050919050565b7f4e487b71000000000000000000000000000000000000000000000000000000005f52601160045260245ffd5b5f61130d82610cad565b91507fffffffffffffffffffffffffffffffffffffffffffffffffffffffffffffffff820361133f5761133e6112d6565b5b600182019050919050565b7f4e487b71000000000000000000000000000000000000000000000000000000005f52604160045260245ffd5b5f819050815f5260205f209050919050565b5f6020601f8301049050919050565b5f82821b905092915050565b5f600883026113d37fffffffffffffffffffffffffffffffffffffffffffffffffffffffffffffffff82611398565b6113dd8683611398565b95508019841693508086168417925050509392505050565b5f819050919050565b5f61141861141361140e84610cad565b6113f5565b610cad565b9050919050565b5f819050919050565b611431836113fe565b61144561143d8261141f565b8484546113a4565b825550505050565b5f90565b61145961144d565b611464818484611428565b505050565b5b818110156114875761147c5f82611451565b60018101905061146a565b5050565b601f8211156114cc5761149d81611377565b6114a684611389565b810160208510156114b5578190505b6114c96114c185611389565b830182611469565b50505b505050565b5f82821c905092915050565b5f6114ec5f19846008026114d1565b1980831691505092915050565b5f61150483836114dd565b9150826002028217905092915050565b61151d82610d59565b67ffffffffffffffff8111156115365761153561134a565b5b6115408254610f5b565b61154b82828561148b565b5f60209050601f83116001811461157c575f841561156a578287015190505b61157485826114f9565b8655506115db565b601f19841661158a86611377565b5f5b828110156115b15784890151825560018201915060208501945060208101905061158c565b868310156115ce57848901516115ca601f8916826114dd565b8355505b6001600288020188555050505b505050505050565b828183375f83830152505050565b5f6115fc8385610d63565b93506116098385846115e3565b61161283610d81565b840190509392505050565b5f6080820190506116305f830188610d0b565b61163d6020830187610d4a565b61164a6040830186610d0b565b818103606083015261165d8184866115f1565b90509695505050505050565b7f4a6f6220646f6573206e6f7420657869737400000000000000000000000000005f82015250565b5f61169d601283610d63565b91506116a882611669565b602082019050919050565b5f6020820190508181035f8301526116ca81611691565b9050919050565b7f4a6f6220616c72656164792061636365707465640000000000000000000000005f82015250565b5f611705601483610d63565b9150611710826116d1565b602082019050919050565b5f6020820190508181035f830152611732816116f9565b9050919050565b7f436c69656e742063616e6e6f7420616363657074207468656972206f776e206a5f8201527f6f62000000000000000000000000000000000000000000000000000000000000602082015250565b5f611793602283610d63565b915061179e82611739565b604082019050919050565b5f6020820190508181035f8301526117c081611787565b9050919050565b7f4f6e6c7920696e766f6c76656420706172746965732063616e207261697365205f8201527f6469737075746573000000000000000000000000000000000000000000000000602082015250565b5f611821602883610d63565b915061182c826117c7565b604082019050919050565b5f6020820190508181035f83015261184e81611815565b9050919050565b7f4a6f6220616c726561647920636f6d706c6574656400000000000000000000005f82015250565b5f611889601583610d63565b915061189482611855565b602082019050919050565b5f6020820190508181035f8301526118b68161187d565b905091905056fea264697066735822122039e2a931b3f97d9217f8b2b1374a8d68e8dd1e2951e7a8d9488f2c6bfbe713ee64736f6c634300081a0033",
					"opcodes": "PUSH1 0x80 PUSH1 0x40 MSTORE CALLVALUE DUP1 ISZERO PUSH1 0xE JUMPI PUSH0 DUP1 REVERT JUMPDEST POP PUSH2 0x18F3 DUP1 PUSH2 0x1C PUSH0 CODECOPY PUSH0 RETURN INVALID PUSH1 0x80 PUSH1 0x40 MSTORE PUSH1 0x4 CALLDATASIZE LT PUSH2 0x6F JUMPI PUSH0 CALLDATALOAD PUSH1 0xE0 SHR DUP1 PUSH4 0x50355D76 GT PUSH2 0x4D JUMPI DUP1 PUSH4 0x50355D76 EQ PUSH2 0xF9 JUMPI DUP1 PUSH4 0x5A0DFE65 EQ PUSH2 0x123 JUMPI DUP1 PUSH4 0x63B2F3C9 EQ PUSH2 0x14B JUMPI DUP1 PUSH4 0xA5C1674E EQ PUSH2 0x173 JUMPI PUSH2 0x6F JUMP JUMPDEST DUP1 PUSH4 0x180AEDF3 EQ PUSH2 0x73 JUMPI DUP1 PUSH4 0x3B76594D EQ PUSH2 0xB5 JUMPI DUP1 PUSH4 0x4D68282F EQ PUSH2 0xD1 JUMPI JUMPDEST PUSH0 DUP1 REVERT JUMPDEST CALLVALUE DUP1 ISZERO PUSH2 0x7E JUMPI PUSH0 DUP1 REVERT JUMPDEST POP PUSH2 0x99 PUSH1 0x4 DUP1 CALLDATASIZE SUB DUP2 ADD SWAP1 PUSH2 0x94 SWAP2 SWAP1 PUSH2 0xCE0 JUMP JUMPDEST PUSH2 0x19B JUMP JUMPDEST PUSH1 0x40 MLOAD PUSH2 0xAC SWAP8 SWAP7 SWAP6 SWAP5 SWAP4 SWAP3 SWAP2 SWAP1 PUSH2 0xDE3 JUMP JUMPDEST PUSH1 0x40 MLOAD DUP1 SWAP2 SUB SWAP1 RETURN JUMPDEST PUSH2 0xCF PUSH1 0x4 DUP1 CALLDATASIZE SUB DUP2 ADD SWAP1 PUSH2 0xCA SWAP2 SWAP1 PUSH2 0xCE0 JUMP JUMPDEST PUSH2 0x2B6 JUMP JUMPDEST STOP JUMPDEST CALLVALUE DUP1 ISZERO PUSH2 0xDC JUMPI PUSH0 DUP1 REVERT JUMPDEST POP PUSH2 0xF7 PUSH1 0x4 DUP1 CALLDATASIZE SUB DUP2 ADD SWAP1 PUSH2 0xF2 SWAP2 SWAP1 PUSH2 0xCE0 JUMP JUMPDEST PUSH2 0x436 JUMP JUMPDEST STOP JUMPDEST CALLVALUE DUP1 ISZERO PUSH2 0x104 JUMPI PUSH0 DUP1 REVERT JUMPDEST POP PUSH2 0x10D PUSH2 0x665 JUMP JUMPDEST PUSH1 0x40 MLOAD PUSH2 0x11A SWAP2 SWAP1 PUSH2 0xE57 JUMP JUMPDEST PUSH1 0x40 MLOAD DUP1 SWAP2 SUB SWAP1 RETURN JUMPDEST CALLVALUE DUP1 ISZERO PUSH2 0x12E JUMPI PUSH0 DUP1 REVERT JUMPDEST POP PUSH2 0x149 PUSH1 0x4 DUP1 CALLDATASIZE SUB DUP2 ADD SWAP1 PUSH2 0x144 SWAP2 SWAP1 PUSH2 0xED1 JUMP JUMPDEST PUSH2 0x66A JUMP JUMPDEST STOP JUMPDEST CALLVALUE DUP1 ISZERO PUSH2 0x156 JUMPI PUSH0 DUP1 REVERT JUMPDEST POP PUSH2 0x171 PUSH1 0x4 DUP1 CALLDATASIZE SUB DUP2 ADD SWAP1 PUSH2 0x16C SWAP2 SWAP1 PUSH2 0xCE0 JUMP JUMPDEST PUSH2 0x8B6 JUMP JUMPDEST STOP JUMPDEST CALLVALUE DUP1 ISZERO PUSH2 0x17E JUMPI PUSH0 DUP1 REVERT JUMPDEST POP PUSH2 0x199 PUSH1 0x4 DUP1 CALLDATASIZE SUB DUP2 ADD SWAP1 PUSH2 0x194 SWAP2 SWAP1 PUSH2 0xCE0 JUMP JUMPDEST PUSH2 0xAFC JUMP JUMPDEST STOP JUMPDEST PUSH1 0x1 PUSH1 0x20 MSTORE DUP1 PUSH0 MSTORE PUSH1 0x40 PUSH0 KECCAK256 PUSH0 SWAP2 POP SWAP1 POP DUP1 PUSH0 ADD SLOAD SWAP1 DUP1 PUSH1 0x1 ADD PUSH0 SWAP1 SLOAD SWAP1 PUSH2 0x100 EXP SWAP1 DIV PUSH20 0xFFFFFFFFFFFFFFFFFFFFFFFFFFFFFFFFFFFFFFFF AND SWAP1 DUP1 PUSH1 0x2 ADD PUSH0 SWAP1 SLOAD SWAP1 PUSH2 0x100 EXP SWAP1 DIV PUSH20 0xFFFFFFFFFFFFFFFFFFFFFFFFFFFFFFFFFFFFFFFF AND SWAP1 DUP1 PUSH1 0x3 ADD SLOAD SWAP1 DUP1 PUSH1 0x4 ADD DUP1 SLOAD PUSH2 0x210 SWAP1 PUSH2 0xF5B JUMP JUMPDEST DUP1 PUSH1 0x1F ADD PUSH1 0x20 DUP1 SWAP2 DIV MUL PUSH1 0x20 ADD PUSH1 0x40 MLOAD SWAP1 DUP2 ADD PUSH1 0x40 MSTORE DUP1 SWAP3 SWAP2 SWAP1 DUP2 DUP2 MSTORE PUSH1 0x20 ADD DUP3 DUP1 SLOAD PUSH2 0x23C SWAP1 PUSH2 0xF5B JUMP JUMPDEST DUP1 ISZERO PUSH2 0x287 JUMPI DUP1 PUSH1 0x1F LT PUSH2 0x25E JUMPI PUSH2 0x100 DUP1 DUP4 SLOAD DIV MUL DUP4 MSTORE SWAP2 PUSH1 0x20 ADD SWAP2 PUSH2 0x287 JUMP JUMPDEST DUP3 ADD SWAP2 SWAP1 PUSH0 MSTORE PUSH1 0x20 PUSH0 KECCAK256 SWAP1 JUMPDEST DUP2 SLOAD DUP2 MSTORE SWAP1 PUSH1 0x1 ADD SWAP1 PUSH1 0x20 ADD DUP1 DUP4 GT PUSH2 0x26A JUMPI DUP3 SWAP1 SUB PUSH1 0x1F AND DUP3 ADD SWAP2 JUMPDEST POP POP POP POP POP SWAP1 DUP1 PUSH1 0x5 ADD PUSH0 SWAP1 SLOAD SWAP1 PUSH2 0x100 EXP SWAP1 DIV PUSH1 0xFF AND SWAP1 DUP1 PUSH1 0x5 ADD PUSH1 0x1 SWAP1 SLOAD SWAP1 PUSH2 0x100 EXP SWAP1 DIV PUSH1 0xFF AND SWAP1 POP DUP8 JUMP JUMPDEST PUSH0 PUSH1 0x1 PUSH0 DUP4 DUP2 MSTORE PUSH1 0x20 ADD SWAP1 DUP2 MSTORE PUSH1 0x20 ADD PUSH0 KECCAK256 SWAP1 POP CALLER PUSH20 0xFFFFFFFFFFFFFFFFFFFFFFFFFFFFFFFFFFFFFFFF AND DUP2 PUSH1 0x1 ADD PUSH0 SWAP1 SLOAD SWAP1 PUSH2 0x100 EXP SWAP1 DIV PUSH20 0xFFFFFFFFFFFFFFFFFFFFFFFFFFFFFFFFFFFFFFFF AND PUSH20 0xFFFFFFFFFFFFFFFFFFFFFFFFFFFFFFFFFFFFFFFF AND EQ PUSH2 0x35B JUMPI PUSH1 0x40 MLOAD PUSH32 0x8C379A000000000000000000000000000000000000000000000000000000000 DUP2 MSTORE PUSH1 0x4 ADD PUSH2 0x352 SWAP1 PUSH2 0xFFB JUMP JUMPDEST PUSH1 0x40 MLOAD DUP1 SWAP2 SUB SWAP1 REVERT JUMPDEST DUP1 PUSH1 0x3 ADD SLOAD CALLVALUE EQ PUSH2 0x3A1 JUMPI PUSH1 0x40 MLOAD PUSH32 0x8C379A000000000000000000000000000000000000000000000000000000000 DUP2 MSTORE PUSH1 0x4 ADD PUSH2 0x398 SWAP1 PUSH2 0x1063 JUMP JUMPDEST PUSH1 0x40 MLOAD DUP1 SWAP2 SUB SWAP1 REVERT JUMPDEST PUSH0 PUSH20 0xFFFFFFFFFFFFFFFFFFFFFFFFFFFFFFFFFFFFFFFF AND DUP2 PUSH1 0x2 ADD PUSH0 SWAP1 SLOAD SWAP1 PUSH2 0x100 EXP SWAP1 DIV PUSH20 0xFFFFFFFFFFFFFFFFFFFFFFFFFFFFFFFFFFFFFFFF AND PUSH20 0xFFFFFFFFFFFFFFFFFFFFFFFFFFFFFFFFFFFFFFFF AND SUB PUSH2 0x432 JUMPI PUSH1 0x40 MLOAD PUSH32 0x8C379A000000000000000000000000000000000000000000000000000000000 DUP2 MSTORE PUSH1 0x4 ADD PUSH2 0x429 SWAP1 PUSH2 0x10CB JUMP JUMPDEST PUSH1 0x40 MLOAD DUP1 SWAP2 SUB SWAP1 REVERT JUMPDEST POP POP JUMP JUMPDEST PUSH0 PUSH1 0x1 PUSH0 DUP4 DUP2 MSTORE PUSH1 0x20 ADD SWAP1 DUP2 MSTORE PUSH1 0x20 ADD PUSH0 KECCAK256 SWAP1 POP DUP1 PUSH1 0x1 ADD PUSH0 SWAP1 SLOAD SWAP1 PUSH2 0x100 EXP SWAP1 DIV PUSH20 0xFFFFFFFFFFFFFFFFFFFFFFFFFFFFFFFFFFFFFFFF AND PUSH20 0xFFFFFFFFFFFFFFFFFFFFFFFFFFFFFFFFFFFFFFFF AND CALLER PUSH20 0xFFFFFFFFFFFFFFFFFFFFFFFFFFFFFFFFFFFFFFFF AND EQ PUSH2 0x4DB JUMPI PUSH1 0x40 MLOAD PUSH32 0x8C379A000000000000000000000000000000000000000000000000000000000 DUP2 MSTORE PUSH1 0x4 ADD PUSH2 0x4D2 SWAP1 PUSH2 0x1159 JUMP JUMPDEST PUSH1 0x40 MLOAD DUP1 SWAP2 SUB SWAP1 REVERT JUMPDEST DUP1 PUSH1 0x5 ADD PUSH0 SWAP1 SLOAD SWAP1 PUSH2 0x100 EXP SWAP1 DIV PUSH1 0xFF AND ISZERO PUSH2 0x52C JUMPI PUSH1 0x40 MLOAD PUSH32 0x8C379A000000000000000000000000000000000000000000000000000000000 DUP2 MSTORE PUSH1 0x4 ADD PUSH2 0x523 SWAP1 PUSH2 0x11C1 JUMP JUMPDEST PUSH1 0x40 MLOAD DUP1 SWAP2 SUB SWAP1 REVERT JUMPDEST DUP1 PUSH1 0x5 ADD PUSH1 0x1 SWAP1 SLOAD SWAP1 PUSH2 0x100 EXP SWAP1 DIV PUSH1 0xFF AND ISZERO PUSH2 0x57E JUMPI PUSH1 0x40 MLOAD PUSH32 0x8C379A000000000000000000000000000000000000000000000000000000000 DUP2 MSTORE PUSH1 0x4 ADD PUSH2 0x575 SWAP1 PUSH2 0x1229 JUMP JUMPDEST PUSH1 0x40 MLOAD DUP1 SWAP2 SUB SWAP1 REVERT JUMPDEST PUSH1 0x1 DUP2 PUSH1 0x5 ADD PUSH0 PUSH2 0x100 EXP DUP2 SLOAD DUP2 PUSH1 0xFF MUL NOT AND SWAP1 DUP4 ISZERO ISZERO MUL OR SWAP1 SSTORE POP DUP1 PUSH1 0x2 ADD PUSH0 SWAP1 SLOAD SWAP1 PUSH2 0x100 EXP SWAP1 DIV PUSH20 0xFFFFFFFFFFFFFFFFFFFFFFFFFFFFFFFFFFFFFFFF AND PUSH20 0xFFFFFFFFFFFFFFFFFFFFFFFFFFFFFFFFFFFFFFFF AND PUSH2 0x8FC DUP3 PUSH1 0x3 ADD SLOAD SWAP1 DUP2 ISZERO MUL SWAP1 PUSH1 0x40 MLOAD PUSH0 PUSH1 0x40 MLOAD DUP1 DUP4 SUB DUP2 DUP6 DUP9 DUP9 CALL SWAP4 POP POP POP POP ISZERO DUP1 ISZERO PUSH2 0x604 JUMPI RETURNDATASIZE PUSH0 DUP1 RETURNDATACOPY RETURNDATASIZE PUSH0 REVERT JUMPDEST POP PUSH32 0x8F5073D0A7A22BA450E278541077E181AF457BE74BEA91E61F1F99E6BB40748E DUP3 DUP3 PUSH1 0x2 ADD PUSH0 SWAP1 SLOAD SWAP1 PUSH2 0x100 EXP SWAP1 DIV PUSH20 0xFFFFFFFFFFFFFFFFFFFFFFFFFFFFFFFFFFFFFFFF AND PUSH1 0x40 MLOAD PUSH2 0x659 SWAP3 SWAP2 SWAP1 PUSH2 0x1247 JUMP JUMPDEST PUSH1 0x40 MLOAD DUP1 SWAP2 SUB SWAP1 LOG1 POP POP JUMP JUMPDEST PUSH0 SLOAD DUP2 JUMP JUMPDEST PUSH0 DUP4 GT PUSH2 0x6AC JUMPI PUSH1 0x40 MLOAD PUSH32 0x8C379A000000000000000000000000000000000000000000000000000000000 DUP2 MSTORE PUSH1 0x4 ADD PUSH2 0x6A3 SWAP1 PUSH2 0x12B8 JUMP JUMPDEST PUSH1 0x40 MLOAD DUP1 SWAP2 SUB SWAP1 REVERT JUMPDEST PUSH0 DUP1 DUP2 SLOAD DUP1 SWAP3 SWAP2 SWAP1 PUSH2 0x6BD SWAP1 PUSH2 0x1303 JUMP JUMPDEST SWAP2 SWAP1 POP SSTORE POP PUSH1 0x40 MLOAD DUP1 PUSH1 0xE0 ADD PUSH1 0x40 MSTORE DUP1 PUSH0 SLOAD DUP2 MSTORE PUSH1 0x20 ADD CALLER PUSH20 0xFFFFFFFFFFFFFFFFFFFFFFFFFFFFFFFFFFFFFFFF AND DUP2 MSTORE PUSH1 0x20 ADD PUSH0 PUSH20 0xFFFFFFFFFFFFFFFFFFFFFFFFFFFFFFFFFFFFFFFF AND DUP2 MSTORE PUSH1 0x20 ADD DUP5 DUP2 MSTORE PUSH1 0x20 ADD DUP4 DUP4 DUP1 DUP1 PUSH1 0x1F ADD PUSH1 0x20 DUP1 SWAP2 DIV MUL PUSH1 0x20 ADD PUSH1 0x40 MLOAD SWAP1 DUP2 ADD PUSH1 0x40 MSTORE DUP1 SWAP4 SWAP3 SWAP2 SWAP1 DUP2 DUP2 MSTORE PUSH1 0x20 ADD DUP4 DUP4 DUP1 DUP3 DUP5 CALLDATACOPY PUSH0 DUP2 DUP5 ADD MSTORE PUSH1 0x1F NOT PUSH1 0x1F DUP3 ADD AND SWAP1 POP DUP1 DUP4 ADD SWAP3 POP POP POP POP POP POP POP DUP2 MSTORE PUSH1 0x20 ADD PUSH0 ISZERO ISZERO DUP2 MSTORE PUSH1 0x20 ADD PUSH0 ISZERO ISZERO DUP2 MSTORE POP PUSH1 0x1 PUSH0 DUP1 SLOAD DUP2 MSTORE PUSH1 0x20 ADD SWAP1 DUP2 MSTORE PUSH1 0x20 ADD PUSH0 KECCAK256 PUSH0 DUP3 ADD MLOAD DUP2 PUSH0 ADD SSTORE PUSH1 0x20 DUP3 ADD MLOAD DUP2 PUSH1 0x1 ADD PUSH0 PUSH2 0x100 EXP DUP2 SLOAD DUP2 PUSH20 0xFFFFFFFFFFFFFFFFFFFFFFFFFFFFFFFFFFFFFFFF MUL NOT AND SWAP1 DUP4 PUSH20 0xFFFFFFFFFFFFFFFFFFFFFFFFFFFFFFFFFFFFFFFF AND MUL OR SWAP1 SSTORE POP PUSH1 0x40 DUP3 ADD MLOAD DUP2 PUSH1 0x2 ADD PUSH0 PUSH2 0x100 EXP DUP2 SLOAD DUP2 PUSH20 0xFFFFFFFFFFFFFFFFFFFFFFFFFFFFFFFFFFFFFFFF MUL NOT AND SWAP1 DUP4 PUSH20 0xFFFFFFFFFFFFFFFFFFFFFFFFFFFFFFFFFFFFFFFF AND MUL OR SWAP1 SSTORE POP PUSH1 0x60 DUP3 ADD MLOAD DUP2 PUSH1 0x3 ADD SSTORE PUSH1 0x80 DUP3 ADD MLOAD DUP2 PUSH1 0x4 ADD SWAP1 DUP2 PUSH2 0x82E SWAP2 SWAP1 PUSH2 0x1514 JUMP JUMPDEST POP PUSH1 0xA0 DUP3 ADD MLOAD DUP2 PUSH1 0x5 ADD PUSH0 PUSH2 0x100 EXP DUP2 SLOAD DUP2 PUSH1 0xFF MUL NOT AND SWAP1 DUP4 ISZERO ISZERO MUL OR SWAP1 SSTORE POP PUSH1 0xC0 DUP3 ADD MLOAD DUP2 PUSH1 0x5 ADD PUSH1 0x1 PUSH2 0x100 EXP DUP2 SLOAD DUP2 PUSH1 0xFF MUL NOT AND SWAP1 DUP4 ISZERO ISZERO MUL OR SWAP1 SSTORE POP SWAP1 POP POP PUSH32 0x54DD462F26B55B6AA0065C74835DA2DF2D0328B4132A21EFA6DD25B911E274A7 PUSH0 SLOAD CALLER DUP6 DUP6 DUP6 PUSH1 0x40 MLOAD PUSH2 0x8A9 SWAP6 SWAP5 SWAP4 SWAP3 SWAP2 SWAP1 PUSH2 0x161D JUMP JUMPDEST PUSH1 0x40 MLOAD DUP1 SWAP2 SUB SWAP1 LOG1 POP POP POP JUMP JUMPDEST PUSH0 PUSH1 0x1 PUSH0 DUP4 DUP2 MSTORE PUSH1 0x20 ADD SWAP1 DUP2 MSTORE PUSH1 0x20 ADD PUSH0 KECCAK256 SWAP1 POP PUSH0 PUSH20 0xFFFFFFFFFFFFFFFFFFFFFFFFFFFFFFFFFFFFFFFF AND DUP2 PUSH1 0x1 ADD PUSH0 SWAP1 SLOAD SWAP1 PUSH2 0x100 EXP SWAP1 DIV PUSH20 0xFFFFFFFFFFFFFFFFFFFFFFFFFFFFFFFFFFFFFFFF AND PUSH20 0xFFFFFFFFFFFFFFFFFFFFFFFFFFFFFFFFFFFFFFFF AND SUB PUSH2 0x95B JUMPI PUSH1 0x40 MLOAD PUSH32 0x8C379A000000000000000000000000000000000000000000000000000000000 DUP2 MSTORE PUSH1 0x4 ADD PUSH2 0x952 SWAP1 PUSH2 0x16B3 JUMP JUMPDEST PUSH1 0x40 MLOAD DUP1 SWAP2 SUB SWAP1 REVERT JUMPDEST PUSH0 PUSH20 0xFFFFFFFFFFFFFFFFFFFFFFFFFFFFFFFFFFFFFFFF AND DUP2 PUSH1 0x2 ADD PUSH0 SWAP1 SLOAD SWAP1 PUSH2 0x100 EXP SWAP1 DIV PUSH20 0xFFFFFFFFFFFFFFFFFFFFFFFFFFFFFFFFFFFFFFFF AND PUSH20 0xFFFFFFFFFFFFFFFFFFFFFFFFFFFFFFFFFFFFFFFF AND EQ PUSH2 0x9EC JUMPI PUSH1 0x40 MLOAD PUSH32 0x8C379A000000000000000000000000000000000000000000000000000000000 DUP2 MSTORE PUSH1 0x4 ADD PUSH2 0x9E3 SWAP1 PUSH2 0x171B JUMP JUMPDEST PUSH1 0x40 MLOAD DUP1 SWAP2 SUB SWAP1 REVERT JUMPDEST DUP1 PUSH1 0x1 ADD PUSH0 SWAP1 SLOAD SWAP1 PUSH2 0x100 EXP SWAP1 DIV PUSH20 0xFFFFFFFFFFFFFFFFFFFFFFFFFFFFFFFFFFFFFFFF AND PUSH20 0xFFFFFFFFFFFFFFFFFFFFFFFFFFFFFFFFFFFFFFFF AND CALLER PUSH20 0xFFFFFFFFFFFFFFFFFFFFFFFFFFFFFFFFFFFFFFFF AND SUB PUSH2 0xA7D JUMPI PUSH1 0x40 MLOAD PUSH32 0x8C379A000000000000000000000000000000000000000000000000000000000 DUP2 MSTORE PUSH1 0x4 ADD PUSH2 0xA74 SWAP1 PUSH2 0x17A9 JUMP JUMPDEST PUSH1 0x40 MLOAD DUP1 SWAP2 SUB SWAP1 REVERT JUMPDEST CALLER DUP2 PUSH1 0x2 ADD PUSH0 PUSH2 0x100 EXP DUP2 SLOAD DUP2 PUSH20 0xFFFFFFFFFFFFFFFFFFFFFFFFFFFFFFFFFFFFFFFF MUL NOT AND SWAP1 DUP4 PUSH20 0xFFFFFFFFFFFFFFFFFFFFFFFFFFFFFFFFFFFFFFFF AND MUL OR SWAP1 SSTORE POP PUSH32 0x4426E4A90A9570C8F678A263B11785EAAADE8B79D76D18C43D4D8E00062E4F83 DUP3 CALLER PUSH1 0x40 MLOAD PUSH2 0xAF0 SWAP3 SWAP2 SWAP1 PUSH2 0x1247 JUMP JUMPDEST PUSH1 0x40 MLOAD DUP1 SWAP2 SUB SWAP1 LOG1 POP POP JUMP JUMPDEST PUSH0 PUSH1 0x1 PUSH0 DUP4 DUP2 MSTORE PUSH1 0x20 ADD SWAP1 DUP2 MSTORE PUSH1 0x20 ADD PUSH0 KECCAK256 SWAP1 POP DUP1 PUSH1 0x1 ADD PUSH0 SWAP1 SLOAD SWAP1 PUSH2 0x100 EXP SWAP1 DIV PUSH20 0xFFFFFFFFFFFFFFFFFFFFFFFFFFFFFFFFFFFFFFFF AND PUSH20 0xFFFFFFFFFFFFFFFFFFFFFFFFFFFFFFFFFFFFFFFF AND CALLER PUSH20 0xFFFFFFFFFFFFFFFFFFFFFFFFFFFFFFFFFFFFFFFF AND EQ DUP1 PUSH2 0xBBB JUMPI POP DUP1 PUSH1 0x2 ADD PUSH0 SWAP1 SLOAD SWAP1 PUSH2 0x100 EXP SWAP1 DIV PUSH20 0xFFFFFFFFFFFFFFFFFFFFFFFFFFFFFFFFFFFFFFFF AND PUSH20 0xFFFFFFFFFFFFFFFFFFFFFFFFFFFFFFFFFFFFFFFF AND CALLER PUSH20 0xFFFFFFFFFFFFFFFFFFFFFFFFFFFFFFFFFFFFFFFF AND EQ JUMPDEST PUSH2 0xBFA JUMPI PUSH1 0x40 MLOAD PUSH32 0x8C379A000000000000000000000000000000000000000000000000000000000 DUP2 MSTORE PUSH1 0x4 ADD PUSH2 0xBF1 SWAP1 PUSH2 0x1837 JUMP JUMPDEST PUSH1 0x40 MLOAD DUP1 SWAP2 SUB SWAP1 REVERT JUMPDEST DUP1 PUSH1 0x5 ADD PUSH0 SWAP1 SLOAD SWAP1 PUSH2 0x100 EXP SWAP1 DIV PUSH1 0xFF AND ISZERO PUSH2 0xC4B JUMPI PUSH1 0x40 MLOAD PUSH32 0x8C379A000000000000000000000000000000000000000000000000000000000 DUP2 MSTORE PUSH1 0x4 ADD PUSH2 0xC42 SWAP1 PUSH2 0x189F JUMP JUMPDEST PUSH1 0x40 MLOAD DUP1 SWAP2 SUB SWAP1 REVERT JUMPDEST PUSH1 0x1 DUP2 PUSH1 0x5 ADD PUSH1 0x1 PUSH2 0x100 EXP DUP2 SLOAD DUP2 PUSH1 0xFF MUL NOT AND SWAP1 DUP4 ISZERO ISZERO MUL OR SWAP1 SSTORE POP PUSH32 0x84A477DF8A28A4276CA6DEE4458A06C3015F30C477D9C949EDE4E13FF8A552B4 DUP3 CALLER PUSH1 0x40 MLOAD PUSH2 0xC99 SWAP3 SWAP2 SWAP1 PUSH2 0x1247 JUMP JUMPDEST PUSH1 0x40 MLOAD DUP1 SWAP2 SUB SWAP1 LOG1 POP POP JUMP JUMPDEST PUSH0 DUP1 REVERT JUMPDEST PUSH0 DUP1 REVERT JUMPDEST PUSH0 DUP2 SWAP1 POP SWAP2 SWAP1 POP JUMP JUMPDEST PUSH2 0xCBF DUP2 PUSH2 0xCAD JUMP JUMPDEST DUP2 EQ PUSH2 0xCC9 JUMPI PUSH0 DUP1 REVERT JUMPDEST POP JUMP JUMPDEST PUSH0 DUP2 CALLDATALOAD SWAP1 POP PUSH2 0xCDA DUP2 PUSH2 0xCB6 JUMP JUMPDEST SWAP3 SWAP2 POP POP JUMP JUMPDEST PUSH0 PUSH1 0x20 DUP3 DUP5 SUB SLT ISZERO PUSH2 0xCF5 JUMPI PUSH2 0xCF4 PUSH2 0xCA5 JUMP JUMPDEST JUMPDEST PUSH0 PUSH2 0xD02 DUP5 DUP3 DUP6 ADD PUSH2 0xCCC JUMP JUMPDEST SWAP2 POP POP SWAP3 SWAP2 POP POP JUMP JUMPDEST PUSH2 0xD14 DUP2 PUSH2 0xCAD JUMP JUMPDEST DUP3 MSTORE POP POP JUMP JUMPDEST PUSH0 PUSH20 0xFFFFFFFFFFFFFFFFFFFFFFFFFFFFFFFFFFFFFFFF DUP3 AND SWAP1 POP SWAP2 SWAP1 POP JUMP JUMPDEST PUSH0 PUSH2 0xD43 DUP3 PUSH2 0xD1A JUMP JUMPDEST SWAP1 POP SWAP2 SWAP1 POP JUMP JUMPDEST PUSH2 0xD53 DUP2 PUSH2 0xD39 JUMP JUMPDEST DUP3 MSTORE POP POP JUMP JUMPDEST PUSH0 DUP2 MLOAD SWAP1 POP SWAP2 SWAP1 POP JUMP JUMPDEST PUSH0 DUP3 DUP3 MSTORE PUSH1 0x20 DUP3 ADD SWAP1 POP SWAP3 SWAP2 POP POP JUMP JUMPDEST DUP3 DUP2 DUP4 MCOPY PUSH0 DUP4 DUP4 ADD MSTORE POP POP POP JUMP JUMPDEST PUSH0 PUSH1 0x1F NOT PUSH1 0x1F DUP4 ADD AND SWAP1 POP SWAP2 SWAP1 POP JUMP JUMPDEST PUSH0 PUSH2 0xD9B DUP3 PUSH2 0xD59 JUMP JUMPDEST PUSH2 0xDA5 DUP2 DUP6 PUSH2 0xD63 JUMP JUMPDEST SWAP4 POP PUSH2 0xDB5 DUP2 DUP6 PUSH1 0x20 DUP7 ADD PUSH2 0xD73 JUMP JUMPDEST PUSH2 0xDBE DUP2 PUSH2 0xD81 JUMP JUMPDEST DUP5 ADD SWAP2 POP POP SWAP3 SWAP2 POP POP JUMP JUMPDEST PUSH0 DUP2 ISZERO ISZERO SWAP1 POP SWAP2 SWAP1 POP JUMP JUMPDEST PUSH2 0xDDD DUP2 PUSH2 0xDC9 JUMP JUMPDEST DUP3 MSTORE POP POP JUMP JUMPDEST PUSH0 PUSH1 0xE0 DUP3 ADD SWAP1 POP PUSH2 0xDF6 PUSH0 DUP4 ADD DUP11 PUSH2 0xD0B JUMP JUMPDEST PUSH2 0xE03 PUSH1 0x20 DUP4 ADD DUP10 PUSH2 0xD4A JUMP JUMPDEST PUSH2 0xE10 PUSH1 0x40 DUP4 ADD DUP9 PUSH2 0xD4A JUMP JUMPDEST PUSH2 0xE1D PUSH1 0x60 DUP4 ADD DUP8 PUSH2 0xD0B JUMP JUMPDEST DUP2 DUP2 SUB PUSH1 0x80 DUP4 ADD MSTORE PUSH2 0xE2F DUP2 DUP7 PUSH2 0xD91 JUMP JUMPDEST SWAP1 POP PUSH2 0xE3E PUSH1 0xA0 DUP4 ADD DUP6 PUSH2 0xDD4 JUMP JUMPDEST PUSH2 0xE4B PUSH1 0xC0 DUP4 ADD DUP5 PUSH2 0xDD4 JUMP JUMPDEST SWAP9 SWAP8 POP POP POP POP POP POP POP POP JUMP JUMPDEST PUSH0 PUSH1 0x20 DUP3 ADD SWAP1 POP PUSH2 0xE6A PUSH0 DUP4 ADD DUP5 PUSH2 0xD0B JUMP JUMPDEST SWAP3 SWAP2 POP POP JUMP JUMPDEST PUSH0 DUP1 REVERT JUMPDEST PUSH0 DUP1 REVERT JUMPDEST PUSH0 DUP1 REVERT JUMPDEST PUSH0 DUP1 DUP4 PUSH1 0x1F DUP5 ADD SLT PUSH2 0xE91 JUMPI PUSH2 0xE90 PUSH2 0xE70 JUMP JUMPDEST JUMPDEST DUP3 CALLDATALOAD SWAP1 POP PUSH8 0xFFFFFFFFFFFFFFFF DUP2 GT ISZERO PUSH2 0xEAE JUMPI PUSH2 0xEAD PUSH2 0xE74 JUMP JUMPDEST JUMPDEST PUSH1 0x20 DUP4 ADD SWAP2 POP DUP4 PUSH1 0x1 DUP3 MUL DUP4 ADD GT ISZERO PUSH2 0xECA JUMPI PUSH2 0xEC9 PUSH2 0xE78 JUMP JUMPDEST JUMPDEST SWAP3 POP SWAP3 SWAP1 POP JUMP JUMPDEST PUSH0 DUP1 PUSH0 PUSH1 0x40 DUP5 DUP7 SUB SLT ISZERO PUSH2 0xEE8 JUMPI PUSH2 0xEE7 PUSH2 0xCA5 JUMP JUMPDEST JUMPDEST PUSH0 PUSH2 0xEF5 DUP7 DUP3 DUP8 ADD PUSH2 0xCCC JUMP JUMPDEST SWAP4 POP POP PUSH1 0x20 DUP5 ADD CALLDATALOAD PUSH8 0xFFFFFFFFFFFFFFFF DUP2 GT ISZERO PUSH2 0xF16 JUMPI PUSH2 0xF15 PUSH2 0xCA9 JUMP JUMPDEST JUMPDEST PUSH2 0xF22 DUP7 DUP3 DUP8 ADD PUSH2 0xE7C JUMP JUMPDEST SWAP3 POP SWAP3 POP POP SWAP3 POP SWAP3 POP SWAP3 JUMP JUMPDEST PUSH32 0x4E487B7100000000000000000000000000000000000000000000000000000000 PUSH0 MSTORE PUSH1 0x22 PUSH1 0x4 MSTORE PUSH1 0x24 PUSH0 REVERT JUMPDEST PUSH0 PUSH1 0x2 DUP3 DIV SWAP1 POP PUSH1 0x1 DUP3 AND DUP1 PUSH2 0xF72 JUMPI PUSH1 0x7F DUP3 AND SWAP2 POP JUMPDEST PUSH1 0x20 DUP3 LT DUP2 SUB PUSH2 0xF85 JUMPI PUSH2 0xF84 PUSH2 0xF2E JUMP JUMPDEST JUMPDEST POP SWAP2 SWAP1 POP JUMP JUMPDEST PUSH32 0x4F6E6C792074686520636C69656E742063616E206465706F7369742066756E64 PUSH0 DUP3 ADD MSTORE PUSH32 0x7300000000000000000000000000000000000000000000000000000000000000 PUSH1 0x20 DUP3 ADD MSTORE POP JUMP JUMPDEST PUSH0 PUSH2 0xFE5 PUSH1 0x21 DUP4 PUSH2 0xD63 JUMP JUMPDEST SWAP2 POP PUSH2 0xFF0 DUP3 PUSH2 0xF8B JUMP JUMPDEST PUSH1 0x40 DUP3 ADD SWAP1 POP SWAP2 SWAP1 POP JUMP JUMPDEST PUSH0 PUSH1 0x20 DUP3 ADD SWAP1 POP DUP2 DUP2 SUB PUSH0 DUP4 ADD MSTORE PUSH2 0x1012 DUP2 PUSH2 0xFD9 JUMP JUMPDEST SWAP1 POP SWAP2 SWAP1 POP JUMP JUMPDEST PUSH32 0x496E636F7272656374206465706F73697420616D6F756E740000000000000000 PUSH0 DUP3 ADD MSTORE POP JUMP JUMPDEST PUSH0 PUSH2 0x104D PUSH1 0x18 DUP4 PUSH2 0xD63 JUMP JUMPDEST SWAP2 POP PUSH2 0x1058 DUP3 PUSH2 0x1019 JUMP JUMPDEST PUSH1 0x20 DUP3 ADD SWAP1 POP SWAP2 SWAP1 POP JUMP JUMPDEST PUSH0 PUSH1 0x20 DUP3 ADD SWAP1 POP DUP2 DUP2 SUB PUSH0 DUP4 ADD MSTORE PUSH2 0x107A DUP2 PUSH2 0x1041 JUMP JUMPDEST SWAP1 POP SWAP2 SWAP1 POP JUMP JUMPDEST PUSH32 0x4A6F6220686173206E6F20667265656C616E6365722061737369676E65640000 PUSH0 DUP3 ADD MSTORE POP JUMP JUMPDEST PUSH0 PUSH2 0x10B5 PUSH1 0x1E DUP4 PUSH2 0xD63 JUMP JUMPDEST SWAP2 POP PUSH2 0x10C0 DUP3 PUSH2 0x1081 JUMP JUMPDEST PUSH1 0x20 DUP3 ADD SWAP1 POP SWAP2 SWAP1 POP JUMP JUMPDEST PUSH0 PUSH1 0x20 DUP3 ADD SWAP1 POP DUP2 DUP2 SUB PUSH0 DUP4 ADD MSTORE PUSH2 0x10E2 DUP2 PUSH2 0x10A9 JUMP JUMPDEST SWAP1 POP SWAP2 SWAP1 POP JUMP JUMPDEST PUSH32 0x4F6E6C792074686520636C69656E742063616E2072656C656173652066756E64 PUSH0 DUP3 ADD MSTORE PUSH32 0x7300000000000000000000000000000000000000000000000000000000000000 PUSH1 0x20 DUP3 ADD MSTORE POP JUMP JUMPDEST PUSH0 PUSH2 0x1143 PUSH1 0x21 DUP4 PUSH2 0xD63 JUMP JUMPDEST SWAP2 POP PUSH2 0x114E DUP3 PUSH2 0x10E9 JUMP JUMPDEST PUSH1 0x40 DUP3 ADD SWAP1 POP SWAP2 SWAP1 POP JUMP JUMPDEST PUSH0 PUSH1 0x20 DUP3 ADD SWAP1 POP DUP2 DUP2 SUB PUSH0 DUP4 ADD MSTORE PUSH2 0x1170 DUP2 PUSH2 0x1137 JUMP JUMPDEST SWAP1 POP SWAP2 SWAP1 POP JUMP JUMPDEST PUSH32 0x46756E647320616C72656164792072656C656173656400000000000000000000 PUSH0 DUP3 ADD MSTORE POP JUMP JUMPDEST PUSH0 PUSH2 0x11AB PUSH1 0x16 DUP4 PUSH2 0xD63 JUMP JUMPDEST SWAP2 POP PUSH2 0x11B6 DUP3 PUSH2 0x1177 JUMP JUMPDEST PUSH1 0x20 DUP3 ADD SWAP1 POP SWAP2 SWAP1 POP JUMP JUMPDEST PUSH0 PUSH1 0x20 DUP3 ADD SWAP1 POP DUP2 DUP2 SUB PUSH0 DUP4 ADD MSTORE PUSH2 0x11D8 DUP2 PUSH2 0x119F JUMP JUMPDEST SWAP1 POP SWAP2 SWAP1 POP JUMP JUMPDEST PUSH32 0x4A6F622069732064697370757465640000000000000000000000000000000000 PUSH0 DUP3 ADD MSTORE POP JUMP JUMPDEST PUSH0 PUSH2 0x1213 PUSH1 0xF DUP4 PUSH2 0xD63 JUMP JUMPDEST SWAP2 POP PUSH2 0x121E DUP3 PUSH2 0x11DF JUMP JUMPDEST PUSH1 0x20 DUP3 ADD SWAP1 POP SWAP2 SWAP1 POP JUMP JUMPDEST PUSH0 PUSH1 0x20 DUP3 ADD SWAP1 POP DUP2 DUP2 SUB PUSH0 DUP4 ADD MSTORE PUSH2 0x1240 DUP2 PUSH2 0x1207 JUMP JUMPDEST SWAP1 POP SWAP2 SWAP1 POP JUMP JUMPDEST PUSH0 PUSH1 0x40 DUP3 ADD SWAP1 POP PUSH2 0x125A PUSH0 DUP4 ADD DUP6 PUSH2 0xD0B JUMP JUMPDEST PUSH2 0x1267 PUSH1 0x20 DUP4 ADD DUP5 PUSH2 0xD4A JUMP JUMPDEST SWAP4 SWAP3 POP POP POP JUMP JUMPDEST PUSH32 0x427564676574206D7573742062652067726561746572207468616E207A65726F PUSH0 DUP3 ADD MSTORE POP JUMP JUMPDEST PUSH0 PUSH2 0x12A2 PUSH1 0x20 DUP4 PUSH2 0xD63 JUMP JUMPDEST SWAP2 POP PUSH2 0x12AD DUP3 PUSH2 0x126E JUMP JUMPDEST PUSH1 0x20 DUP3 ADD SWAP1 POP SWAP2 SWAP1 POP JUMP JUMPDEST PUSH0 PUSH1 0x20 DUP3 ADD SWAP1 POP DUP2 DUP2 SUB PUSH0 DUP4 ADD MSTORE PUSH2 0x12CF DUP2 PUSH2 0x1296 JUMP JUMPDEST SWAP1 POP SWAP2 SWAP1 POP JUMP JUMPDEST PUSH32 0x4E487B7100000000000000000000000000000000000000000000000000000000 PUSH0 MSTORE PUSH1 0x11 PUSH1 0x4 MSTORE PUSH1 0x24 PUSH0 REVERT JUMPDEST PUSH0 PUSH2 0x130D DUP3 PUSH2 0xCAD JUMP JUMPDEST SWAP2 POP PUSH32 0xFFFFFFFFFFFFFFFFFFFFFFFFFFFFFFFFFFFFFFFFFFFFFFFFFFFFFFFFFFFFFFFF DUP3 SUB PUSH2 0x133F JUMPI PUSH2 0x133E PUSH2 0x12D6 JUMP JUMPDEST JUMPDEST PUSH1 0x1 DUP3 ADD SWAP1 POP SWAP2 SWAP1 POP JUMP JUMPDEST PUSH32 0x4E487B7100000000000000000000000000000000000000000000000000000000 PUSH0 MSTORE PUSH1 0x41 PUSH1 0x4 MSTORE PUSH1 0x24 PUSH0 REVERT JUMPDEST PUSH0 DUP2 SWAP1 POP DUP2 PUSH0 MSTORE PUSH1 0x20 PUSH0 KECCAK256 SWAP1 POP SWAP2 SWAP1 POP JUMP JUMPDEST PUSH0 PUSH1 0x20 PUSH1 0x1F DUP4 ADD DIV SWAP1 POP SWAP2 SWAP1 POP JUMP JUMPDEST PUSH0 DUP3 DUP3 SHL SWAP1 POP SWAP3 SWAP2 POP POP JUMP JUMPDEST PUSH0 PUSH1 0x8 DUP4 MUL PUSH2 0x13D3 PUSH32 0xFFFFFFFFFFFFFFFFFFFFFFFFFFFFFFFFFFFFFFFFFFFFFFFFFFFFFFFFFFFFFFFF DUP3 PUSH2 0x1398 JUMP JUMPDEST PUSH2 0x13DD DUP7 DUP4 PUSH2 0x1398 JUMP JUMPDEST SWAP6 POP DUP1 NOT DUP5 AND SWAP4 POP DUP1 DUP7 AND DUP5 OR SWAP3 POP POP POP SWAP4 SWAP3 POP POP POP JUMP JUMPDEST PUSH0 DUP2 SWAP1 POP SWAP2 SWAP1 POP JUMP JUMPDEST PUSH0 PUSH2 0x1418 PUSH2 0x1413 PUSH2 0x140E DUP5 PUSH2 0xCAD JUMP JUMPDEST PUSH2 0x13F5 JUMP JUMPDEST PUSH2 0xCAD JUMP JUMPDEST SWAP1 POP SWAP2 SWAP1 POP JUMP JUMPDEST PUSH0 DUP2 SWAP1 POP SWAP2 SWAP1 POP JUMP JUMPDEST PUSH2 0x1431 DUP4 PUSH2 0x13FE JUMP JUMPDEST PUSH2 0x1445 PUSH2 0x143D DUP3 PUSH2 0x141F JUMP JUMPDEST DUP5 DUP5 SLOAD PUSH2 0x13A4 JUMP JUMPDEST DUP3 SSTORE POP POP POP POP JUMP JUMPDEST PUSH0 SWAP1 JUMP JUMPDEST PUSH2 0x1459 PUSH2 0x144D JUMP JUMPDEST PUSH2 0x1464 DUP2 DUP5 DUP5 PUSH2 0x1428 JUMP JUMPDEST POP POP POP JUMP JUMPDEST JUMPDEST DUP2 DUP2 LT ISZERO PUSH2 0x1487 JUMPI PUSH2 0x147C PUSH0 DUP3 PUSH2 0x1451 JUMP JUMPDEST PUSH1 0x1 DUP2 ADD SWAP1 POP PUSH2 0x146A JUMP JUMPDEST POP POP JUMP JUMPDEST PUSH1 0x1F DUP3 GT ISZERO PUSH2 0x14CC JUMPI PUSH2 0x149D DUP2 PUSH2 0x1377 JUMP JUMPDEST PUSH2 0x14A6 DUP5 PUSH2 0x1389 JUMP JUMPDEST DUP2 ADD PUSH1 0x20 DUP6 LT ISZERO PUSH2 0x14B5 JUMPI DUP2 SWAP1 POP JUMPDEST PUSH2 0x14C9 PUSH2 0x14C1 DUP6 PUSH2 0x1389 JUMP JUMPDEST DUP4 ADD DUP3 PUSH2 0x1469 JUMP JUMPDEST POP POP JUMPDEST POP POP POP JUMP JUMPDEST PUSH0 DUP3 DUP3 SHR SWAP1 POP SWAP3 SWAP2 POP POP JUMP JUMPDEST PUSH0 PUSH2 0x14EC PUSH0 NOT DUP5 PUSH1 0x8 MUL PUSH2 0x14D1 JUMP JUMPDEST NOT DUP1 DUP4 AND SWAP2 POP POP SWAP3 SWAP2 POP POP JUMP JUMPDEST PUSH0 PUSH2 0x1504 DUP4 DUP4 PUSH2 0x14DD JUMP JUMPDEST SWAP2 POP DUP3 PUSH1 0x2 MUL DUP3 OR SWAP1 POP SWAP3 SWAP2 POP POP JUMP JUMPDEST PUSH2 0x151D DUP3 PUSH2 0xD59 JUMP JUMPDEST PUSH8 0xFFFFFFFFFFFFFFFF DUP2 GT ISZERO PUSH2 0x1536 JUMPI PUSH2 0x1535 PUSH2 0x134A JUMP JUMPDEST JUMPDEST PUSH2 0x1540 DUP3 SLOAD PUSH2 0xF5B JUMP JUMPDEST PUSH2 0x154B DUP3 DUP3 DUP6 PUSH2 0x148B JUMP JUMPDEST PUSH0 PUSH1 0x20 SWAP1 POP PUSH1 0x1F DUP4 GT PUSH1 0x1 DUP2 EQ PUSH2 0x157C JUMPI PUSH0 DUP5 ISZERO PUSH2 0x156A JUMPI DUP3 DUP8 ADD MLOAD SWAP1 POP JUMPDEST PUSH2 0x1574 DUP6 DUP3 PUSH2 0x14F9 JUMP JUMPDEST DUP7 SSTORE POP PUSH2 0x15DB JUMP JUMPDEST PUSH1 0x1F NOT DUP5 AND PUSH2 0x158A DUP7 PUSH2 0x1377 JUMP JUMPDEST PUSH0 JUMPDEST DUP3 DUP2 LT ISZERO PUSH2 0x15B1 JUMPI DUP5 DUP10 ADD MLOAD DUP3 SSTORE PUSH1 0x1 DUP3 ADD SWAP2 POP PUSH1 0x20 DUP6 ADD SWAP5 POP PUSH1 0x20 DUP2 ADD SWAP1 POP PUSH2 0x158C JUMP JUMPDEST DUP7 DUP4 LT ISZERO PUSH2 0x15CE JUMPI DUP5 DUP10 ADD MLOAD PUSH2 0x15CA PUSH1 0x1F DUP10 AND DUP3 PUSH2 0x14DD JUMP JUMPDEST DUP4 SSTORE POP JUMPDEST PUSH1 0x1 PUSH1 0x2 DUP9 MUL ADD DUP9 SSTORE POP POP POP JUMPDEST POP POP POP POP POP POP JUMP JUMPDEST DUP3 DUP2 DUP4 CALLDATACOPY PUSH0 DUP4 DUP4 ADD MSTORE POP POP POP JUMP JUMPDEST PUSH0 PUSH2 0x15FC DUP4 DUP6 PUSH2 0xD63 JUMP JUMPDEST SWAP4 POP PUSH2 0x1609 DUP4 DUP6 DUP5 PUSH2 0x15E3 JUMP JUMPDEST PUSH2 0x1612 DUP4 PUSH2 0xD81 JUMP JUMPDEST DUP5 ADD SWAP1 POP SWAP4 SWAP3 POP POP POP JUMP JUMPDEST PUSH0 PUSH1 0x80 DUP3 ADD SWAP1 POP PUSH2 0x1630 PUSH0 DUP4 ADD DUP9 PUSH2 0xD0B JUMP JUMPDEST PUSH2 0x163D PUSH1 0x20 DUP4 ADD DUP8 PUSH2 0xD4A JUMP JUMPDEST PUSH2 0x164A PUSH1 0x40 DUP4 ADD DUP7 PUSH2 0xD0B JUMP JUMPDEST DUP2 DUP2 SUB PUSH1 0x60 DUP4 ADD MSTORE PUSH2 0x165D DUP2 DUP5 DUP7 PUSH2 0x15F1 JUMP JUMPDEST SWAP1 POP SWAP7 SWAP6 POP POP POP POP POP POP JUMP JUMPDEST PUSH32 0x4A6F6220646F6573206E6F742065786973740000000000000000000000000000 PUSH0 DUP3 ADD MSTORE POP JUMP JUMPDEST PUSH0 PUSH2 0x169D PUSH1 0x12 DUP4 PUSH2 0xD63 JUMP JUMPDEST SWAP2 POP PUSH2 0x16A8 DUP3 PUSH2 0x1669 JUMP JUMPDEST PUSH1 0x20 DUP3 ADD SWAP1 POP SWAP2 SWAP1 POP JUMP JUMPDEST PUSH0 PUSH1 0x20 DUP3 ADD SWAP1 POP DUP2 DUP2 SUB PUSH0 DUP4 ADD MSTORE PUSH2 0x16CA DUP2 PUSH2 0x1691 JUMP JUMPDEST SWAP1 POP SWAP2 SWAP1 POP JUMP JUMPDEST PUSH32 0x4A6F6220616C7265616479206163636570746564000000000000000000000000 PUSH0 DUP3 ADD MSTORE POP JUMP JUMPDEST PUSH0 PUSH2 0x1705 PUSH1 0x14 DUP4 PUSH2 0xD63 JUMP JUMPDEST SWAP2 POP PUSH2 0x1710 DUP3 PUSH2 0x16D1 JUMP JUMPDEST PUSH1 0x20 DUP3 ADD SWAP1 POP SWAP2 SWAP1 POP JUMP JUMPDEST PUSH0 PUSH1 0x20 DUP3 ADD SWAP1 POP DUP2 DUP2 SUB PUSH0 DUP4 ADD MSTORE PUSH2 0x1732 DUP2 PUSH2 0x16F9 JUMP JUMPDEST SWAP1 POP SWAP2 SWAP1 POP JUMP JUMPDEST PUSH32 0x436C69656E742063616E6E6F7420616363657074207468656972206F776E206A PUSH0 DUP3 ADD MSTORE PUSH32 0x6F62000000000000000000000000000000000000000000000000000000000000 PUSH1 0x20 DUP3 ADD MSTORE POP JUMP JUMPDEST PUSH0 PUSH2 0x1793 PUSH1 0x22 DUP4 PUSH2 0xD63 JUMP JUMPDEST SWAP2 POP PUSH2 0x179E DUP3 PUSH2 0x1739 JUMP JUMPDEST PUSH1 0x40 DUP3 ADD SWAP1 POP SWAP2 SWAP1 POP JUMP JUMPDEST PUSH0 PUSH1 0x20 DUP3 ADD SWAP1 POP DUP2 DUP2 SUB PUSH0 DUP4 ADD MSTORE PUSH2 0x17C0 DUP2 PUSH2 0x1787 JUMP JUMPDEST SWAP1 POP SWAP2 SWAP1 POP JUMP JUMPDEST PUSH32 0x4F6E6C7920696E766F6C76656420706172746965732063616E20726169736520 PUSH0 DUP3 ADD MSTORE PUSH32 0x6469737075746573000000000000000000000000000000000000000000000000 PUSH1 0x20 DUP3 ADD MSTORE POP JUMP JUMPDEST PUSH0 PUSH2 0x1821 PUSH1 0x28 DUP4 PUSH2 0xD63 JUMP JUMPDEST SWAP2 POP PUSH2 0x182C DUP3 PUSH2 0x17C7 JUMP JUMPDEST PUSH1 0x40 DUP3 ADD SWAP1 POP SWAP2 SWAP1 POP JUMP JUMPDEST PUSH0 PUSH1 0x20 DUP3 ADD SWAP1 POP DUP2 DUP2 SUB PUSH0 DUP4 ADD MSTORE PUSH2 0x184E DUP2 PUSH2 0x1815 JUMP JUMPDEST SWAP1 POP SWAP2 SWAP1 POP JUMP JUMPDEST PUSH32 0x4A6F6220616C726561647920636F6D706C657465640000000000000000000000 PUSH0 DUP3 ADD MSTORE POP JUMP JUMPDEST PUSH0 PUSH2 0x1889 PUSH1 0x15 DUP4 PUSH2 0xD63 JUMP JUMPDEST SWAP2 POP PUSH2 0x1894 DUP3 PUSH2 0x1855 JUMP JUMPDEST PUSH1 0x20 DUP3 ADD SWAP1 POP SWAP2 SWAP1 POP JUMP JUMPDEST PUSH0 PUSH1 0x20 DUP3 ADD SWAP1 POP DUP2 DUP2 SUB PUSH0 DUP4 ADD MSTORE PUSH2 0x18B6 DUP2 PUSH2 0x187D JUMP JUMPDEST SWAP1 POP SWAP2 SWAP1 POP JUMP INVALID LOG2 PUSH5 0x6970667358 0x22 SLT KECCAK256 CODECOPY 0xE2 0xA9 BALANCE 0xB3 0xF9 PUSH30 0x9217F8B2B1374A8D68E8DD1E2951E7A8D9488F2C6BFBE713EE64736F6C63 NUMBER STOP ADDMOD BYTE STOP CALLER "
				},
				"gasEstimates": {
					"creation": {
						"codeDepositCost": "1277400",
						"executionCost": "1327",
						"totalCost": "1278727"
					},
					"external": {
						"acceptJob(uint256)": "infinite",
						"depositFunds(uint256)": "7246",
						"jobCounter()": "2424",
						"jobs(uint256)": "infinite",
						"postJob(uint256,string)": "infinite",
						"raiseDispute(uint256)": "infinite",
						"releaseFunds(uint256)": "infinite"
					}
				},
				"methodIdentifiers": {
					"acceptJob(uint256)": "63b2f3c9",
					"depositFunds(uint256)": "3b76594d",
					"jobCounter()": "50355d76",
					"jobs(uint256)": "180aedf3",
					"postJob(uint256,string)": "5a0dfe65",
					"raiseDispute(uint256)": "a5c1674e",
					"releaseFunds(uint256)": "4d68282f"
				}
			},
			"storageLayout": {
				"storage": [
					{
						"astId": 18,
						"contract": "contracts/JobMarketplace.sol:JobMarketplace",
						"label": "jobCounter",
						"offset": 0,
						"slot": "0",
						"type": "t_uint256"
					},
					{
						"astId": 23,
						"contract": "contracts/JobMarketplace.sol:JobMarketplace",
						"label": "jobs",
						"offset": 0,
						"slot": "1",
						"type": "t_mapping(t_uint256,t_struct(Job)16_storage)"
					}
				],
				"types": {
					"t_address": {
						"encoding": "inplace",
						"label": "address",
						"numberOfBytes": "20"
					},
					"t_bool": {
						"encoding": "inplace",
						"label": "bool",
						"numberOfBytes": "1"
					},
					"t_mapping(t_uint256,t_struct(Job)16_storage)": {
						"encoding": "mapping",
						"key": "t_uint256",
						"label": "mapping(uint256 => struct JobMarketplace.Job)",
						"numberOfBytes": "32",
						"value": "t_struct(Job)16_storage"
					},
					"t_string_storage": {
						"encoding": "bytes",
						"label": "string",
						"numberOfBytes": "32"
					},
					"t_struct(Job)16_storage": {
						"encoding": "inplace",
						"label": "struct JobMarketplace.Job",
						"members": [
							{
								"astId": 3,
								"contract": "contracts/JobMarketplace.sol:JobMarketplace",
								"label": "id",
								"offset": 0,
								"slot": "0",
								"type": "t_uint256"
							},
							{
								"astId": 5,
								"contract": "contracts/JobMarketplace.sol:JobMarketplace",
								"label": "client",
								"offset": 0,
								"slot": "1",
								"type": "t_address"
							},
							{
								"astId": 7,
								"contract": "contracts/JobMarketplace.sol:JobMarketplace",
								"label": "freelancer",
								"offset": 0,
								"slot": "2",
								"type": "t_address"
							},
							{
								"astId": 9,
								"contract": "contracts/JobMarketplace.sol:JobMarketplace",
								"label": "budget",
								"offset": 0,
								"slot": "3",
								"type": "t_uint256"
							},
							{
								"astId": 11,
								"contract": "contracts/JobMarketplace.sol:JobMarketplace",
								"label": "description",
								"offset": 0,
								"slot": "4",
								"type": "t_string_storage"
							},
							{
								"astId": 13,
								"contract": "contracts/JobMarketplace.sol:JobMarketplace",
								"label": "isCompleted",
								"offset": 0,
								"slot": "5",
								"type": "t_bool"
							},
							{
								"astId": 15,
								"contract": "contracts/JobMarketplace.sol:JobMarketplace",
								"label": "isDisputed",
								"offset": 1,
								"slot": "5",
								"type": "t_bool"
							}
						],
						"numberOfBytes": "192"
					},
					"t_uint256": {
						"encoding": "inplace",
						"label": "uint256",
						"numberOfBytes": "32"
					}
				}
			},
			"userdoc": {
				"kind": "user",
				"methods": {},
				"version": 1
			}
		}
	}
}