{
	"contracts/JobMarketplace2.0.sol": {
		"JobMarketplace": {
			"abi": [
				{
					"anonymous": false,
					"inputs": [
						{
							"indexed": false,
							"internalType": "uint256",
							"name": "jobId",
							"type": "uint256"
						},
						{
							"indexed": false,
							"internalType": "address",
							"name": "to",
							"type": "address"
						}
					],
					"name": "FundsReleased",
					"type": "event"
				},
				{
					"anonymous": false,
					"inputs": [
						{
							"indexed": false,
							"internalType": "uint256",
							"name": "jobId",
							"type": "uint256"
						},
						{
							"indexed": false,
							"internalType": "address",
							"name": "freelancer",
							"type": "address"
						}
					],
					"name": "JobAccepted",
					"type": "event"
				},
				{
					"anonymous": false,
					"inputs": [
						{
							"indexed": false,
							"internalType": "uint256",
							"name": "jobId",
							"type": "uint256"
						},
						{
							"indexed": false,
							"internalType": "address",
							"name": "client",
							"type": "address"
						},
						{
							"indexed": false,
							"internalType": "uint256",
							"name": "budget",
							"type": "uint256"
						},
						{
							"indexed": false,
							"internalType": "string",
							"name": "title",
							"type": "string"
						},
						{
							"indexed": false,
							"internalType": "string",
							"name": "description",
							"type": "string"
						}
					],
					"name": "JobPosted",
					"type": "event"
				},
				{
					"anonymous": false,
					"inputs": [
						{
							"indexed": false,
							"internalType": "uint256",
							"name": "jobId",
							"type": "uint256"
						},
						{
							"indexed": false,
							"internalType": "address",
							"name": "to",
							"type": "address"
						},
						{
							"indexed": false,
							"internalType": "string",
							"name": "reason",
							"type": "string"
						}
					],
					"name": "TransferFailed",
					"type": "event"
				},
				{
					"inputs": [
						{
							"internalType": "uint256",
							"name": "jobId",
							"type": "uint256"
						}
					],
					"name": "acceptJob",
					"outputs": [],
					"stateMutability": "nonpayable",
					"type": "function"
				},
				{
					"inputs": [
						{
							"internalType": "uint256",
							"name": "jobId",
							"type": "uint256"
						}
					],
					"name": "depositFunds",
					"outputs": [],
					"stateMutability": "payable",
					"type": "function"
				},
				{
					"inputs": [],
					"name": "jobCounter",
					"outputs": [
						{
							"internalType": "uint256",
							"name": "",
							"type": "uint256"
						}
					],
					"stateMutability": "view",
					"type": "function"
				},
				{
					"inputs": [
						{
							"internalType": "uint256",
							"name": "",
							"type": "uint256"
						}
					],
					"name": "jobs",
					"outputs": [
						{
							"internalType": "uint256",
							"name": "id",
							"type": "uint256"
						},
						{
							"internalType": "address",
							"name": "client",
							"type": "address"
						},
						{
							"internalType": "address",
							"name": "freelancer",
							"type": "address"
						},
						{
							"internalType": "uint256",
							"name": "budget",
							"type": "uint256"
						},
						{
							"internalType": "string",
							"name": "title",
							"type": "string"
						},
						{
							"internalType": "string",
							"name": "description",
							"type": "string"
						},
						{
							"internalType": "bool",
							"name": "isCompleted",
							"type": "bool"
						}
					],
					"stateMutability": "view",
					"type": "function"
				},
				{
					"inputs": [
						{
							"internalType": "uint256",
							"name": "budget",
							"type": "uint256"
						},
						{
							"internalType": "string",
							"name": "title",
							"type": "string"
						},
						{
							"internalType": "string",
							"name": "description",
							"type": "string"
						}
					],
					"name": "postJob",
					"outputs": [],
					"stateMutability": "nonpayable",
					"type": "function"
				},
				{
					"inputs": [
						{
							"internalType": "uint256",
							"name": "jobId",
							"type": "uint256"
						}
					],
					"name": "releaseFunds",
					"outputs": [],
					"stateMutability": "nonpayable",
					"type": "function"
				}
			],
			"devdoc": {
				"custom:dev-run-script": "./scripts/deploy_with_ethers.ts",
				"details": "Job Marketplace for Freelance Solidity Developers",
				"kind": "dev",
				"methods": {},
				"title": "JobMarketplace",
				"version": 1
			},
			"evm": {
				"assembly": "    /* \"contracts/JobMarketplace2.0.sol\":262:3641  contract JobMarketplace { ... */\n  mstore(0x40, 0x80)\n  callvalue\n  dup1\n  iszero\n  tag_1\n  jumpi\n  0x00\n  dup1\n  revert\ntag_1:\n  pop\n  dataSize(sub_0)\n  dup1\n  dataOffset(sub_0)\n  0x00\n  codecopy\n  0x00\n  return\nstop\n\nsub_0: assembly {\n        /* \"contracts/JobMarketplace2.0.sol\":262:3641  contract JobMarketplace { ... */\n      mstore(0x40, 0x80)\n      jumpi(tag_1, lt(calldatasize, 0x04))\n      shr(0xe0, calldataload(0x00))\n      dup1\n      0x180aedf3\n      eq\n      tag_2\n      jumpi\n      dup1\n      0x2a240c7f\n      eq\n      tag_3\n      jumpi\n      dup1\n      0x3b76594d\n      eq\n      tag_4\n      jumpi\n      dup1\n      0x4d68282f\n      eq\n      tag_5\n      jumpi\n      dup1\n      0x50355d76\n      eq\n      tag_6\n      jumpi\n      dup1\n      0x63b2f3c9\n      eq\n      tag_7\n      jumpi\n    tag_1:\n      0x00\n      dup1\n      revert\n        /* \"contracts/JobMarketplace2.0.sol\":826:861  mapping(uint256 => Job) public jobs */\n    tag_2:\n      callvalue\n      dup1\n      iszero\n      tag_8\n      jumpi\n      0x00\n      dup1\n      revert\n    tag_8:\n      pop\n      tag_9\n      0x04\n      dup1\n      calldatasize\n      sub\n      dup2\n      add\n      swap1\n      tag_10\n      swap2\n      swap1\n      tag_11\n      jump\t// in\n    tag_10:\n      tag_12\n      jump\t// in\n    tag_9:\n      mload(0x40)\n      tag_13\n      swap8\n      swap7\n      swap6\n      swap5\n      swap4\n      swap3\n      swap2\n      swap1\n      tag_14\n      jump\t// in\n    tag_13:\n      mload(0x40)\n      dup1\n      swap2\n      sub\n      swap1\n      return\n        /* \"contracts/JobMarketplace2.0.sol\":1393:2005  function postJob(uint256 budget, string calldata title, string calldata description) external { // external type... */\n    tag_3:\n      callvalue\n      dup1\n      iszero\n      tag_15\n      jumpi\n      0x00\n      dup1\n      revert\n    tag_15:\n      pop\n      tag_16\n      0x04\n      dup1\n      calldatasize\n      sub\n      dup2\n      add\n      swap1\n      tag_17\n      swap2\n      swap1\n      tag_18\n      jump\t// in\n    tag_17:\n      tag_19\n      jump\t// in\n    tag_16:\n      stop\n        /* \"contracts/JobMarketplace2.0.sol\":2516:2869  function depositFunds(uint256 jobId) external payable { // external type... */\n    tag_4:\n      tag_20\n      0x04\n      dup1\n      calldatasize\n      sub\n      dup2\n      add\n      swap1\n      tag_21\n      swap2\n      swap1\n      tag_11\n      jump\t// in\n    tag_21:\n      tag_22\n      jump\t// in\n    tag_20:\n      stop\n        /* \"contracts/JobMarketplace2.0.sol\":2938:3638  function releaseFunds(uint256 jobId) external { // external type... */\n    tag_5:\n      callvalue\n      dup1\n      iszero\n      tag_23\n      jumpi\n      0x00\n      dup1\n      revert\n    tag_23:\n      pop\n      tag_24\n      0x04\n      dup1\n      calldatasize\n      sub\n      dup2\n      add\n      swap1\n      tag_25\n      swap2\n      swap1\n      tag_11\n      jump\t// in\n    tag_25:\n      tag_26\n      jump\t// in\n    tag_24:\n      stop\n        /* \"contracts/JobMarketplace2.0.sol\":763:788  uint256 public jobCounter */\n    tag_6:\n      callvalue\n      dup1\n      iszero\n      tag_27\n      jumpi\n      0x00\n      dup1\n      revert\n    tag_27:\n      pop\n      tag_28\n      tag_29\n      jump\t// in\n    tag_28:\n      mload(0x40)\n      tag_30\n      swap2\n      swap1\n      tag_31\n      jump\t// in\n    tag_30:\n      mload(0x40)\n      dup1\n      swap2\n      sub\n      swap1\n      return\n        /* \"contracts/JobMarketplace2.0.sol\":2050:2466  function acceptJob(uint256 jobId) external { // external type... */\n    tag_7:\n      callvalue\n      dup1\n      iszero\n      tag_32\n      jumpi\n      0x00\n      dup1\n      revert\n    tag_32:\n      pop\n      tag_33\n      0x04\n      dup1\n      calldatasize\n      sub\n      dup2\n      add\n      swap1\n      tag_34\n      swap2\n      swap1\n      tag_11\n      jump\t// in\n    tag_34:\n      tag_35\n      jump\t// in\n    tag_33:\n      stop\n        /* \"contracts/JobMarketplace2.0.sol\":826:861  mapping(uint256 => Job) public jobs */\n    tag_12:\n      mstore(0x20, 0x01)\n      dup1\n      0x00\n      mstore\n      keccak256(0x00, 0x40)\n      0x00\n      swap2\n      pop\n      swap1\n      pop\n      dup1\n      0x00\n      add\n      sload\n      swap1\n      dup1\n      0x01\n      add\n      0x00\n      swap1\n      sload\n      swap1\n      0x0100\n      exp\n      swap1\n      div\n      0xffffffffffffffffffffffffffffffffffffffff\n      and\n      swap1\n      dup1\n      0x02\n      add\n      0x00\n      swap1\n      sload\n      swap1\n      0x0100\n      exp\n      swap1\n      div\n      0xffffffffffffffffffffffffffffffffffffffff\n      and\n      swap1\n      dup1\n      0x03\n      add\n      sload\n      swap1\n      dup1\n      0x04\n      add\n      dup1\n      sload\n      tag_36\n      swap1\n      tag_37\n      jump\t// in\n    tag_36:\n      dup1\n      0x1f\n      add\n      0x20\n      dup1\n      swap2\n      div\n      mul\n      0x20\n      add\n      mload(0x40)\n      swap1\n      dup2\n      add\n      0x40\n      mstore\n      dup1\n      swap3\n      swap2\n      swap1\n      dup2\n      dup2\n      mstore\n      0x20\n      add\n      dup3\n      dup1\n      sload\n      tag_38\n      swap1\n      tag_37\n      jump\t// in\n    tag_38:\n      dup1\n      iszero\n      tag_39\n      jumpi\n      dup1\n      0x1f\n      lt\n      tag_40\n      jumpi\n      0x0100\n      dup1\n      dup4\n      sload\n      div\n      mul\n      dup4\n      mstore\n      swap2\n      0x20\n      add\n      swap2\n      jump(tag_39)\n    tag_40:\n      dup3\n      add\n      swap2\n      swap1\n      0x00\n      mstore\n      keccak256(0x00, 0x20)\n      swap1\n    tag_41:\n      dup2\n      sload\n      dup2\n      mstore\n      swap1\n      0x01\n      add\n      swap1\n      0x20\n      add\n      dup1\n      dup4\n      gt\n      tag_41\n      jumpi\n      dup3\n      swap1\n      sub\n      0x1f\n      and\n      dup3\n      add\n      swap2\n    tag_39:\n      pop\n      pop\n      pop\n      pop\n      pop\n      swap1\n      dup1\n      0x05\n      add\n      dup1\n      sload\n      tag_42\n      swap1\n      tag_37\n      jump\t// in\n    tag_42:\n      dup1\n      0x1f\n      add\n      0x20\n      dup1\n      swap2\n      div\n      mul\n      0x20\n      add\n      mload(0x40)\n      swap1\n      dup2\n      add\n      0x40\n      mstore\n      dup1\n      swap3\n      swap2\n      swap1\n      dup2\n      dup2\n      mstore\n      0x20\n      add\n      dup3\n      dup1\n      sload\n      tag_43\n      swap1\n      tag_37\n      jump\t// in\n    tag_43:\n      dup1\n      iszero\n      tag_44\n      jumpi\n      dup1\n      0x1f\n      lt\n      tag_45\n      jumpi\n      0x0100\n      dup1\n      dup4\n      sload\n      div\n      mul\n      dup4\n      mstore\n      swap2\n      0x20\n      add\n      swap2\n      jump(tag_44)\n    tag_45:\n      dup3\n      add\n      swap2\n      swap1\n      0x00\n      mstore\n      keccak256(0x00, 0x20)\n      swap1\n    tag_46:\n      dup2\n      sload\n      dup2\n      mstore\n      swap1\n      0x01\n      add\n      swap1\n      0x20\n      add\n      dup1\n      dup4\n      gt\n      tag_46\n      jumpi\n      dup3\n      swap1\n      sub\n      0x1f\n      and\n      dup3\n      add\n      swap2\n    tag_44:\n      pop\n      pop\n      pop\n      pop\n      pop\n      swap1\n      dup1\n      0x06\n      add\n      0x00\n      swap1\n      sload\n      swap1\n      0x0100\n      exp\n      swap1\n      div\n      0xff\n      and\n      swap1\n      pop\n      dup8\n      jump\t// out\n        /* \"contracts/JobMarketplace2.0.sol\":1393:2005  function postJob(uint256 budget, string calldata title, string calldata description) external { // external type... */\n    tag_19:\n        /* \"contracts/JobMarketplace2.0.sol\":1532:1533  0 */\n      0x00\n        /* \"contracts/JobMarketplace2.0.sol\":1523:1529  budget */\n      dup6\n        /* \"contracts/JobMarketplace2.0.sol\":1523:1533  budget > 0 */\n      gt\n        /* \"contracts/JobMarketplace2.0.sol\":1515:1570  require(budget > 0, \"Budget must be greater than zero\") */\n      tag_48\n      jumpi\n      mload(0x40)\n      0x08c379a000000000000000000000000000000000000000000000000000000000\n      dup2\n      mstore\n      0x04\n      add\n      tag_49\n      swap1\n      tag_50\n      jump\t// in\n    tag_49:\n      mload(0x40)\n      dup1\n      swap2\n      sub\n      swap1\n      revert\n    tag_48:\n        /* \"contracts/JobMarketplace2.0.sol\":1611:1612  0 */\n      0x00\n        /* \"contracts/JobMarketplace2.0.sol\":1595:1600  title */\n      dup5\n      dup5\n        /* \"contracts/JobMarketplace2.0.sol\":1589:1608  bytes(title).length */\n      swap1\n      pop\n        /* \"contracts/JobMarketplace2.0.sol\":1589:1612  bytes(title).length > 0 */\n      gt\n        /* \"contracts/JobMarketplace2.0.sol\":1581:1634  require(bytes(title).length > 0, \"Title is required\") */\n      tag_51\n      jumpi\n      mload(0x40)\n      0x08c379a000000000000000000000000000000000000000000000000000000000\n      dup2\n      mstore\n      0x04\n      add\n      tag_52\n      swap1\n      tag_53\n      jump\t// in\n    tag_52:\n      mload(0x40)\n      dup1\n      swap2\n      sub\n      swap1\n      revert\n    tag_51:\n        /* \"contracts/JobMarketplace2.0.sol\":1647:1657  jobCounter */\n      0x00\n      dup1\n        /* \"contracts/JobMarketplace2.0.sol\":1647:1659  jobCounter++ */\n      dup2\n      sload\n      dup1\n      swap3\n      swap2\n      swap1\n      tag_54\n      swap1\n      tag_55\n      jump\t// in\n    tag_54:\n      swap2\n      swap1\n      pop\n      sstore\n      pop\n        /* \"contracts/JobMarketplace2.0.sol\":1720:1918  Job( // struct used in map... */\n      mload(0x40)\n      dup1\n      0xe0\n      add\n      0x40\n      mstore\n      dup1\n        /* \"contracts/JobMarketplace2.0.sol\":1760:1770  jobCounter */\n      sload(0x00)\n        /* \"contracts/JobMarketplace2.0.sol\":1720:1918  Job( // struct used in map... */\n      dup2\n      mstore\n      0x20\n      add\n        /* \"contracts/JobMarketplace2.0.sol\":1785:1795  msg.sender */\n      caller\n        /* \"contracts/JobMarketplace2.0.sol\":1720:1918  Job( // struct used in map... */\n      0xffffffffffffffffffffffffffffffffffffffff\n      and\n      dup2\n      mstore\n      0x20\n      add\n        /* \"contracts/JobMarketplace2.0.sol\":1818:1819  0 */\n      0x00\n        /* \"contracts/JobMarketplace2.0.sol\":1720:1918  Job( // struct used in map... */\n      0xffffffffffffffffffffffffffffffffffffffff\n      and\n      dup2\n      mstore\n      0x20\n      add\n        /* \"contracts/JobMarketplace2.0.sol\":1835:1841  budget */\n      dup7\n        /* \"contracts/JobMarketplace2.0.sol\":1720:1918  Job( // struct used in map... */\n      dup2\n      mstore\n      0x20\n      add\n        /* \"contracts/JobMarketplace2.0.sol\":1856:1861  title */\n      dup6\n      dup6\n        /* \"contracts/JobMarketplace2.0.sol\":1720:1918  Job( // struct used in map... */\n      dup1\n      dup1\n      0x1f\n      add\n      0x20\n      dup1\n      swap2\n      div\n      mul\n      0x20\n      add\n      mload(0x40)\n      swap1\n      dup2\n      add\n      0x40\n      mstore\n      dup1\n      swap4\n      swap3\n      swap2\n      swap1\n      dup2\n      dup2\n      mstore\n      0x20\n      add\n      dup4\n      dup4\n      dup1\n      dup3\n      dup5\n      calldatacopy\n      0x00\n      dup2\n      dup5\n      add\n      mstore\n      not(0x1f)\n      0x1f\n      dup3\n      add\n      and\n      swap1\n      pop\n      dup1\n      dup4\n      add\n      swap3\n      pop\n      pop\n      pop\n      pop\n      pop\n      pop\n      pop\n      dup2\n      mstore\n      0x20\n      add\n        /* \"contracts/JobMarketplace2.0.sol\":1876:1887  description */\n      dup4\n      dup4\n        /* \"contracts/JobMarketplace2.0.sol\":1720:1918  Job( // struct used in map... */\n      dup1\n      dup1\n      0x1f\n      add\n      0x20\n      dup1\n      swap2\n      div\n      mul\n      0x20\n      add\n      mload(0x40)\n      swap1\n      dup2\n      add\n      0x40\n      mstore\n      dup1\n      swap4\n      swap3\n      swap2\n      swap1\n      dup2\n      dup2\n      mstore\n      0x20\n      add\n      dup4\n      dup4\n      dup1\n      dup3\n      dup5\n      calldatacopy\n      0x00\n      dup2\n      dup5\n      add\n      mstore\n      not(0x1f)\n      0x1f\n      dup3\n      add\n      and\n      swap1\n      pop\n      dup1\n      dup4\n      add\n      swap3\n      pop\n      pop\n      pop\n      pop\n      pop\n      pop\n      pop\n      dup2\n      mstore\n      0x20\n      add\n        /* \"contracts/JobMarketplace2.0.sol\":1902:1907  false */\n      0x00\n        /* \"contracts/JobMarketplace2.0.sol\":1720:1918  Job( // struct used in map... */\n      iszero\n      iszero\n      dup2\n      mstore\n      pop\n        /* \"contracts/JobMarketplace2.0.sol\":1701:1705  jobs */\n      0x01\n        /* \"contracts/JobMarketplace2.0.sol\":1701:1717  jobs[jobCounter] */\n      0x00\n        /* \"contracts/JobMarketplace2.0.sol\":1706:1716  jobCounter */\n      dup1\n      sload\n        /* \"contracts/JobMarketplace2.0.sol\":1701:1717  jobs[jobCounter] */\n      dup2\n      mstore\n      0x20\n      add\n      swap1\n      dup2\n      mstore\n      0x20\n      add\n      0x00\n      keccak256\n        /* \"contracts/JobMarketplace2.0.sol\":1701:1918  jobs[jobCounter] = Job( // struct used in map... */\n      0x00\n      dup3\n      add\n      mload\n      dup2\n      0x00\n      add\n      sstore\n      0x20\n      dup3\n      add\n      mload\n      dup2\n      0x01\n      add\n      exp(0x0100, 0x00)\n      dup2\n      sload\n      dup2\n      0xffffffffffffffffffffffffffffffffffffffff\n      mul\n      not\n      and\n      swap1\n      dup4\n      0xffffffffffffffffffffffffffffffffffffffff\n      and\n      mul\n      or\n      swap1\n      sstore\n      pop\n      0x40\n      dup3\n      add\n      mload\n      dup2\n      0x02\n      add\n      exp(0x0100, 0x00)\n      dup2\n      sload\n      dup2\n      0xffffffffffffffffffffffffffffffffffffffff\n      mul\n      not\n      and\n      swap1\n      dup4\n      0xffffffffffffffffffffffffffffffffffffffff\n      and\n      mul\n      or\n      swap1\n      sstore\n      pop\n      0x60\n      dup3\n      add\n      mload\n      dup2\n      0x03\n      add\n      sstore\n      0x80\n      dup3\n      add\n      mload\n      dup2\n      0x04\n      add\n      swap1\n      dup2\n      tag_56\n      swap2\n      swap1\n      tag_57\n      jump\t// in\n    tag_56:\n      pop\n      0xa0\n      dup3\n      add\n      mload\n      dup2\n      0x05\n      add\n      swap1\n      dup2\n      tag_58\n      swap2\n      swap1\n      tag_57\n      jump\t// in\n    tag_58:\n      pop\n      0xc0\n      dup3\n      add\n      mload\n      dup2\n      0x06\n      add\n      exp(0x0100, 0x00)\n      dup2\n      sload\n      dup2\n      0xff\n      mul\n      not\n      and\n      swap1\n      dup4\n      iszero\n      iszero\n      mul\n      or\n      swap1\n      sstore\n      pop\n      swap1\n      pop\n      pop\n        /* \"contracts/JobMarketplace2.0.sol\":1936:1997  JobPosted(jobCounter, msg.sender, budget, title, description) */\n      0x2ef6e44516c8fbdb66063bce9f07343790986232b32468d3c44239b3f1b14de2\n        /* \"contracts/JobMarketplace2.0.sol\":1946:1956  jobCounter */\n      sload(0x00)\n        /* \"contracts/JobMarketplace2.0.sol\":1958:1968  msg.sender */\n      caller\n        /* \"contracts/JobMarketplace2.0.sol\":1970:1976  budget */\n      dup8\n        /* \"contracts/JobMarketplace2.0.sol\":1978:1983  title */\n      dup8\n      dup8\n        /* \"contracts/JobMarketplace2.0.sol\":1985:1996  description */\n      dup8\n      dup8\n        /* \"contracts/JobMarketplace2.0.sol\":1936:1997  JobPosted(jobCounter, msg.sender, budget, title, description) */\n      mload(0x40)\n      tag_59\n      swap8\n      swap7\n      swap6\n      swap5\n      swap4\n      swap3\n      swap2\n      swap1\n      tag_60\n      jump\t// in\n    tag_59:\n      mload(0x40)\n      dup1\n      swap2\n      sub\n      swap1\n      log1\n        /* \"contracts/JobMarketplace2.0.sol\":1393:2005  function postJob(uint256 budget, string calldata title, string calldata description) external { // external type... */\n      pop\n      pop\n      pop\n      pop\n      pop\n      jump\t// out\n        /* \"contracts/JobMarketplace2.0.sol\":2516:2869  function depositFunds(uint256 jobId) external payable { // external type... */\n    tag_22:\n        /* \"contracts/JobMarketplace2.0.sol\":2598:2613  Job storage job */\n      0x00\n        /* \"contracts/JobMarketplace2.0.sol\":2616:2620  jobs */\n      0x01\n        /* \"contracts/JobMarketplace2.0.sol\":2616:2627  jobs[jobId] */\n      0x00\n        /* \"contracts/JobMarketplace2.0.sol\":2621:2626  jobId */\n      dup4\n        /* \"contracts/JobMarketplace2.0.sol\":2616:2627  jobs[jobId] */\n      dup2\n      mstore\n      0x20\n      add\n      swap1\n      dup2\n      mstore\n      0x20\n      add\n      0x00\n      keccak256\n        /* \"contracts/JobMarketplace2.0.sol\":2598:2627  Job storage job = jobs[jobId] */\n      swap1\n      pop\n        /* \"contracts/JobMarketplace2.0.sol\":2660:2670  msg.sender */\n      caller\n        /* \"contracts/JobMarketplace2.0.sol\":2646:2670  job.client == msg.sender */\n      0xffffffffffffffffffffffffffffffffffffffff\n      and\n        /* \"contracts/JobMarketplace2.0.sol\":2646:2649  job */\n      dup2\n        /* \"contracts/JobMarketplace2.0.sol\":2646:2656  job.client */\n      0x01\n      add\n      0x00\n      swap1\n      sload\n      swap1\n      0x0100\n      exp\n      swap1\n      div\n      0xffffffffffffffffffffffffffffffffffffffff\n      and\n        /* \"contracts/JobMarketplace2.0.sol\":2646:2670  job.client == msg.sender */\n      0xffffffffffffffffffffffffffffffffffffffff\n      and\n      eq\n        /* \"contracts/JobMarketplace2.0.sol\":2638:2708  require(job.client == msg.sender, \"Only the client can deposit funds\") */\n      tag_62\n      jumpi\n      mload(0x40)\n      0x08c379a000000000000000000000000000000000000000000000000000000000\n      dup2\n      mstore\n      0x04\n      add\n      tag_63\n      swap1\n      tag_64\n      jump\t// in\n    tag_63:\n      mload(0x40)\n      dup1\n      swap2\n      sub\n      swap1\n      revert\n    tag_62:\n        /* \"contracts/JobMarketplace2.0.sol\":2740:2743  job */\n      dup1\n        /* \"contracts/JobMarketplace2.0.sol\":2740:2750  job.budget */\n      0x03\n      add\n      sload\n        /* \"contracts/JobMarketplace2.0.sol\":2727:2736  msg.value */\n      callvalue\n        /* \"contracts/JobMarketplace2.0.sol\":2727:2750  msg.value == job.budget */\n      eq\n        /* \"contracts/JobMarketplace2.0.sol\":2719:2779  require(msg.value == job.budget, \"Incorrect deposit amount\") */\n      tag_65\n      jumpi\n      mload(0x40)\n      0x08c379a000000000000000000000000000000000000000000000000000000000\n      dup2\n      mstore\n      0x04\n      add\n      tag_66\n      swap1\n      tag_67\n      jump\t// in\n    tag_66:\n      mload(0x40)\n      dup1\n      swap2\n      sub\n      swap1\n      revert\n    tag_65:\n        /* \"contracts/JobMarketplace2.0.sol\":2824:2825  0 */\n      0x00\n        /* \"contracts/JobMarketplace2.0.sol\":2798:2826  job.freelancer != address(0) */\n      0xffffffffffffffffffffffffffffffffffffffff\n      and\n        /* \"contracts/JobMarketplace2.0.sol\":2798:2801  job */\n      dup2\n        /* \"contracts/JobMarketplace2.0.sol\":2798:2812  job.freelancer */\n      0x02\n      add\n      0x00\n      swap1\n      sload\n      swap1\n      0x0100\n      exp\n      swap1\n      div\n      0xffffffffffffffffffffffffffffffffffffffff\n      and\n        /* \"contracts/JobMarketplace2.0.sol\":2798:2826  job.freelancer != address(0) */\n      0xffffffffffffffffffffffffffffffffffffffff\n      and\n      sub\n        /* \"contracts/JobMarketplace2.0.sol\":2790:2861  require(job.freelancer != address(0), \"Job has no freelancer assigned\") */\n      tag_68\n      jumpi\n      mload(0x40)\n      0x08c379a000000000000000000000000000000000000000000000000000000000\n      dup2\n      mstore\n      0x04\n      add\n      tag_69\n      swap1\n      tag_70\n      jump\t// in\n    tag_69:\n      mload(0x40)\n      dup1\n      swap2\n      sub\n      swap1\n      revert\n    tag_68:\n        /* \"contracts/JobMarketplace2.0.sol\":2570:2869  { // external type... */\n      pop\n        /* \"contracts/JobMarketplace2.0.sol\":2516:2869  function depositFunds(uint256 jobId) external payable { // external type... */\n      pop\n      jump\t// out\n        /* \"contracts/JobMarketplace2.0.sol\":2938:3638  function releaseFunds(uint256 jobId) external { // external type... */\n    tag_26:\n        /* \"contracts/JobMarketplace2.0.sol\":3012:3027  Job storage job */\n      0x00\n        /* \"contracts/JobMarketplace2.0.sol\":3030:3034  jobs */\n      0x01\n        /* \"contracts/JobMarketplace2.0.sol\":3030:3041  jobs[jobId] */\n      0x00\n        /* \"contracts/JobMarketplace2.0.sol\":3035:3040  jobId */\n      dup4\n        /* \"contracts/JobMarketplace2.0.sol\":3030:3041  jobs[jobId] */\n      dup2\n      mstore\n      0x20\n      add\n      swap1\n      dup2\n      mstore\n      0x20\n      add\n      0x00\n      keccak256\n        /* \"contracts/JobMarketplace2.0.sol\":3012:3041  Job storage job = jobs[jobId] */\n      swap1\n      pop\n        /* \"contracts/JobMarketplace2.0.sol\":3074:3077  job */\n      dup1\n        /* \"contracts/JobMarketplace2.0.sol\":3074:3084  job.client */\n      0x01\n      add\n      0x00\n      swap1\n      sload\n      swap1\n      0x0100\n      exp\n      swap1\n      div\n      0xffffffffffffffffffffffffffffffffffffffff\n      and\n        /* \"contracts/JobMarketplace2.0.sol\":3060:3084  msg.sender == job.client */\n      0xffffffffffffffffffffffffffffffffffffffff\n      and\n        /* \"contracts/JobMarketplace2.0.sol\":3060:3070  msg.sender */\n      caller\n        /* \"contracts/JobMarketplace2.0.sol\":3060:3084  msg.sender == job.client */\n      0xffffffffffffffffffffffffffffffffffffffff\n      and\n      eq\n        /* \"contracts/JobMarketplace2.0.sol\":3052:3122  require(msg.sender == job.client, \"Only the client can release funds\") */\n      tag_72\n      jumpi\n      mload(0x40)\n      0x08c379a000000000000000000000000000000000000000000000000000000000\n      dup2\n      mstore\n      0x04\n      add\n      tag_73\n      swap1\n      tag_74\n      jump\t// in\n    tag_73:\n      mload(0x40)\n      dup1\n      swap2\n      sub\n      swap1\n      revert\n    tag_72:\n        /* \"contracts/JobMarketplace2.0.sol\":3142:3145  job */\n      dup1\n        /* \"contracts/JobMarketplace2.0.sol\":3142:3157  job.isCompleted */\n      0x06\n      add\n      0x00\n      swap1\n      sload\n      swap1\n      0x0100\n      exp\n      swap1\n      div\n      0xff\n      and\n        /* \"contracts/JobMarketplace2.0.sol\":3141:3157  !job.isCompleted */\n      iszero\n        /* \"contracts/JobMarketplace2.0.sol\":3133:3184  require(!job.isCompleted, \"Funds already released\") */\n      tag_75\n      jumpi\n      mload(0x40)\n      0x08c379a000000000000000000000000000000000000000000000000000000000\n      dup2\n      mstore\n      0x04\n      add\n      tag_76\n      swap1\n      tag_77\n      jump\t// in\n    tag_76:\n      mload(0x40)\n      dup1\n      swap2\n      sub\n      swap1\n      revert\n    tag_75:\n        /* \"contracts/JobMarketplace2.0.sol\":3215:3219  true */\n      0x01\n        /* \"contracts/JobMarketplace2.0.sol\":3197:3200  job */\n      dup2\n        /* \"contracts/JobMarketplace2.0.sol\":3197:3212  job.isCompleted */\n      0x06\n      add\n      0x00\n        /* \"contracts/JobMarketplace2.0.sol\":3197:3219  job.isCompleted = true */\n      0x0100\n      exp\n      dup2\n      sload\n      dup2\n      0xff\n      mul\n      not\n      and\n      swap1\n      dup4\n      iszero\n      iszero\n      mul\n      or\n      swap1\n      sstore\n      pop\n        /* \"contracts/JobMarketplace2.0.sol\":3297:3309  bool success */\n      0x00\n        /* \"contracts/JobMarketplace2.0.sol\":3323:3326  job */\n      dup2\n        /* \"contracts/JobMarketplace2.0.sol\":3323:3337  job.freelancer */\n      0x02\n      add\n      0x00\n      swap1\n      sload\n      swap1\n      0x0100\n      exp\n      swap1\n      div\n      0xffffffffffffffffffffffffffffffffffffffff\n      and\n        /* \"contracts/JobMarketplace2.0.sol\":3315:3343  payable(job.freelancer).call */\n      0xffffffffffffffffffffffffffffffffffffffff\n      and\n        /* \"contracts/JobMarketplace2.0.sol\":3351:3354  job */\n      dup3\n        /* \"contracts/JobMarketplace2.0.sol\":3351:3361  job.budget */\n      0x03\n      add\n      sload\n        /* \"contracts/JobMarketplace2.0.sol\":3315:3366  payable(job.freelancer).call{value: job.budget}(\"\") */\n      mload(0x40)\n      tag_78\n      swap1\n      tag_79\n      jump\t// in\n    tag_78:\n      0x00\n      mload(0x40)\n      dup1\n      dup4\n      sub\n      dup2\n      dup6\n      dup8\n      gas\n      call\n      swap3\n      pop\n      pop\n      pop\n      returndatasize\n      dup1\n      0x00\n      dup2\n      eq\n      tag_82\n      jumpi\n      mload(0x40)\n      swap2\n      pop\n      and(add(returndatasize, 0x3f), not(0x1f))\n      dup3\n      add\n      0x40\n      mstore\n      returndatasize\n      dup3\n      mstore\n      returndatasize\n      0x00\n      0x20\n      dup5\n      add\n      returndatacopy\n      jump(tag_81)\n    tag_82:\n      0x60\n      swap2\n      pop\n    tag_81:\n      pop\n        /* \"contracts/JobMarketplace2.0.sol\":3296:3366  (bool success, ) = payable(job.freelancer).call{value: job.budget}(\"\") */\n      pop\n      swap1\n      pop\n        /* \"contracts/JobMarketplace2.0.sol\":3383:3390  success */\n      dup1\n        /* \"contracts/JobMarketplace2.0.sol\":3379:3631  if (success) {... */\n      iszero\n      tag_83\n      jumpi\n        /* \"contracts/JobMarketplace2.0.sol\":3412:3448  FundsReleased(jobId, job.freelancer) */\n      0x8f5073d0a7a22ba450e278541077e181af457be74bea91e61f1f99e6bb40748e\n        /* \"contracts/JobMarketplace2.0.sol\":3426:3431  jobId */\n      dup4\n        /* \"contracts/JobMarketplace2.0.sol\":3433:3436  job */\n      dup4\n        /* \"contracts/JobMarketplace2.0.sol\":3433:3447  job.freelancer */\n      0x02\n      add\n      0x00\n      swap1\n      sload\n      swap1\n      0x0100\n      exp\n      swap1\n      div\n      0xffffffffffffffffffffffffffffffffffffffff\n      and\n        /* \"contracts/JobMarketplace2.0.sol\":3412:3448  FundsReleased(jobId, job.freelancer) */\n      mload(0x40)\n      tag_84\n      swap3\n      swap2\n      swap1\n      tag_85\n      jump\t// in\n    tag_84:\n      mload(0x40)\n      dup1\n      swap2\n      sub\n      swap1\n      log1\n        /* \"contracts/JobMarketplace2.0.sol\":3379:3631  if (success) {... */\n      jump(tag_86)\n    tag_83:\n        /* \"contracts/JobMarketplace2.0.sol\":3499:3504  false */\n      0x00\n        /* \"contracts/JobMarketplace2.0.sol\":3481:3484  job */\n      dup3\n        /* \"contracts/JobMarketplace2.0.sol\":3481:3496  job.isCompleted */\n      0x06\n      add\n      0x00\n        /* \"contracts/JobMarketplace2.0.sol\":3481:3504  job.isCompleted = false */\n      0x0100\n      exp\n      dup2\n      sload\n      dup2\n      0xff\n      mul\n      not\n      and\n      swap1\n      dup4\n      iszero\n      iszero\n      mul\n      or\n      swap1\n      sstore\n      pop\n        /* \"contracts/JobMarketplace2.0.sol\":3563:3619  TransferFailed(jobId, job.freelancer, \"Transfer failed\") */\n      0x83deb24faa7754b454fa82047ea1d7bf3a027868213eb8632b142cb1679828f0\n        /* \"contracts/JobMarketplace2.0.sol\":3578:3583  jobId */\n      dup4\n        /* \"contracts/JobMarketplace2.0.sol\":3585:3588  job */\n      dup4\n        /* \"contracts/JobMarketplace2.0.sol\":3585:3599  job.freelancer */\n      0x02\n      add\n      0x00\n      swap1\n      sload\n      swap1\n      0x0100\n      exp\n      swap1\n      div\n      0xffffffffffffffffffffffffffffffffffffffff\n      and\n        /* \"contracts/JobMarketplace2.0.sol\":3563:3619  TransferFailed(jobId, job.freelancer, \"Transfer failed\") */\n      mload(0x40)\n      tag_87\n      swap3\n      swap2\n      swap1\n      tag_88\n      jump\t// in\n    tag_87:\n      mload(0x40)\n      dup1\n      swap2\n      sub\n      swap1\n      log1\n        /* \"contracts/JobMarketplace2.0.sol\":3379:3631  if (success) {... */\n    tag_86:\n        /* \"contracts/JobMarketplace2.0.sol\":2984:3638  { // external type... */\n      pop\n      pop\n        /* \"contracts/JobMarketplace2.0.sol\":2938:3638  function releaseFunds(uint256 jobId) external { // external type... */\n      pop\n      jump\t// out\n        /* \"contracts/JobMarketplace2.0.sol\":763:788  uint256 public jobCounter */\n    tag_29:\n      sload(0x00)\n      dup2\n      jump\t// out\n        /* \"contracts/JobMarketplace2.0.sol\":2050:2466  function acceptJob(uint256 jobId) external { // external type... */\n    tag_35:\n        /* \"contracts/JobMarketplace2.0.sol\":2121:2136  Job storage job */\n      0x00\n        /* \"contracts/JobMarketplace2.0.sol\":2139:2143  jobs */\n      0x01\n        /* \"contracts/JobMarketplace2.0.sol\":2139:2150  jobs[jobId] */\n      0x00\n        /* \"contracts/JobMarketplace2.0.sol\":2144:2149  jobId */\n      dup4\n        /* \"contracts/JobMarketplace2.0.sol\":2139:2150  jobs[jobId] */\n      dup2\n      mstore\n      0x20\n      add\n      swap1\n      dup2\n      mstore\n      0x20\n      add\n      0x00\n      keccak256\n        /* \"contracts/JobMarketplace2.0.sol\":2121:2150  Job storage job = jobs[jobId] */\n      swap1\n      pop\n        /* \"contracts/JobMarketplace2.0.sol\":2191:2192  0 */\n      0x00\n        /* \"contracts/JobMarketplace2.0.sol\":2169:2193  job.client != address(0) */\n      0xffffffffffffffffffffffffffffffffffffffff\n      and\n        /* \"contracts/JobMarketplace2.0.sol\":2169:2172  job */\n      dup2\n        /* \"contracts/JobMarketplace2.0.sol\":2169:2179  job.client */\n      0x01\n      add\n      0x00\n      swap1\n      sload\n      swap1\n      0x0100\n      exp\n      swap1\n      div\n      0xffffffffffffffffffffffffffffffffffffffff\n      and\n        /* \"contracts/JobMarketplace2.0.sol\":2169:2193  job.client != address(0) */\n      0xffffffffffffffffffffffffffffffffffffffff\n      and\n      sub\n        /* \"contracts/JobMarketplace2.0.sol\":2161:2216  require(job.client != address(0), \"Job does not exist\") */\n      tag_90\n      jumpi\n      mload(0x40)\n      0x08c379a000000000000000000000000000000000000000000000000000000000\n      dup2\n      mstore\n      0x04\n      add\n      tag_91\n      swap1\n      tag_92\n      jump\t// in\n    tag_91:\n      mload(0x40)\n      dup1\n      swap2\n      sub\n      swap1\n      revert\n    tag_90:\n        /* \"contracts/JobMarketplace2.0.sol\":2261:2262  0 */\n      0x00\n        /* \"contracts/JobMarketplace2.0.sol\":2235:2263  job.freelancer == address(0) */\n      0xffffffffffffffffffffffffffffffffffffffff\n      and\n        /* \"contracts/JobMarketplace2.0.sol\":2235:2238  job */\n      dup2\n        /* \"contracts/JobMarketplace2.0.sol\":2235:2249  job.freelancer */\n      0x02\n      add\n      0x00\n      swap1\n      sload\n      swap1\n      0x0100\n      exp\n      swap1\n      div\n      0xffffffffffffffffffffffffffffffffffffffff\n      and\n        /* \"contracts/JobMarketplace2.0.sol\":2235:2263  job.freelancer == address(0) */\n      0xffffffffffffffffffffffffffffffffffffffff\n      and\n      eq\n        /* \"contracts/JobMarketplace2.0.sol\":2227:2288  require(job.freelancer == address(0), \"Job already accepted\") */\n      tag_93\n      jumpi\n      mload(0x40)\n      0x08c379a000000000000000000000000000000000000000000000000000000000\n      dup2\n      mstore\n      0x04\n      add\n      tag_94\n      swap1\n      tag_95\n      jump\t// in\n    tag_94:\n      mload(0x40)\n      dup1\n      swap2\n      sub\n      swap1\n      revert\n    tag_93:\n        /* \"contracts/JobMarketplace2.0.sol\":2321:2324  job */\n      dup1\n        /* \"contracts/JobMarketplace2.0.sol\":2321:2331  job.client */\n      0x01\n      add\n      0x00\n      swap1\n      sload\n      swap1\n      0x0100\n      exp\n      swap1\n      div\n      0xffffffffffffffffffffffffffffffffffffffff\n      and\n        /* \"contracts/JobMarketplace2.0.sol\":2307:2331  msg.sender != job.client */\n      0xffffffffffffffffffffffffffffffffffffffff\n      and\n        /* \"contracts/JobMarketplace2.0.sol\":2307:2317  msg.sender */\n      caller\n        /* \"contracts/JobMarketplace2.0.sol\":2307:2331  msg.sender != job.client */\n      0xffffffffffffffffffffffffffffffffffffffff\n      and\n      sub\n        /* \"contracts/JobMarketplace2.0.sol\":2299:2370  require(msg.sender != job.client, \"Client cannot accept their own job\") */\n      tag_96\n      jumpi\n      mload(0x40)\n      0x08c379a000000000000000000000000000000000000000000000000000000000\n      dup2\n      mstore\n      0x04\n      add\n      tag_97\n      swap1\n      tag_98\n      jump\t// in\n    tag_97:\n      mload(0x40)\n      dup1\n      swap2\n      sub\n      swap1\n      revert\n    tag_96:\n        /* \"contracts/JobMarketplace2.0.sol\":2400:2410  msg.sender */\n      caller\n        /* \"contracts/JobMarketplace2.0.sol\":2383:2386  job */\n      dup2\n        /* \"contracts/JobMarketplace2.0.sol\":2383:2397  job.freelancer */\n      0x02\n      add\n      0x00\n        /* \"contracts/JobMarketplace2.0.sol\":2383:2410  job.freelancer = msg.sender */\n      0x0100\n      exp\n      dup2\n      sload\n      dup2\n      0xffffffffffffffffffffffffffffffffffffffff\n      mul\n      not\n      and\n      swap1\n      dup4\n      0xffffffffffffffffffffffffffffffffffffffff\n      and\n      mul\n      or\n      swap1\n      sstore\n      pop\n        /* \"contracts/JobMarketplace2.0.sol\":2428:2458  JobAccepted(jobId, msg.sender) */\n      0x4426e4a90a9570c8f678a263b11785eaaade8b79d76d18c43d4d8e00062e4f83\n        /* \"contracts/JobMarketplace2.0.sol\":2440:2445  jobId */\n      dup3\n        /* \"contracts/JobMarketplace2.0.sol\":2447:2457  msg.sender */\n      caller\n        /* \"contracts/JobMarketplace2.0.sol\":2428:2458  JobAccepted(jobId, msg.sender) */\n      mload(0x40)\n      tag_99\n      swap3\n      swap2\n      swap1\n      tag_85\n      jump\t// in\n    tag_99:\n      mload(0x40)\n      dup1\n      swap2\n      sub\n      swap1\n      log1\n        /* \"contracts/JobMarketplace2.0.sol\":2093:2466  { // external type... */\n      pop\n        /* \"contracts/JobMarketplace2.0.sol\":2050:2466  function acceptJob(uint256 jobId) external { // external type... */\n      pop\n      jump\t// out\n        /* \"#utility.yul\":88:205   */\n    tag_101:\n        /* \"#utility.yul\":197:198   */\n      0x00\n        /* \"#utility.yul\":194:195   */\n      dup1\n        /* \"#utility.yul\":187:199   */\n      revert\n        /* \"#utility.yul\":211:328   */\n    tag_102:\n        /* \"#utility.yul\":320:321   */\n      0x00\n        /* \"#utility.yul\":317:318   */\n      dup1\n        /* \"#utility.yul\":310:322   */\n      revert\n        /* \"#utility.yul\":334:411   */\n    tag_103:\n        /* \"#utility.yul\":371:378   */\n      0x00\n        /* \"#utility.yul\":400:405   */\n      dup2\n        /* \"#utility.yul\":389:405   */\n      swap1\n      pop\n        /* \"#utility.yul\":334:411   */\n      swap2\n      swap1\n      pop\n      jump\t// out\n        /* \"#utility.yul\":417:539   */\n    tag_104:\n        /* \"#utility.yul\":490:514   */\n      tag_172\n        /* \"#utility.yul\":508:513   */\n      dup2\n        /* \"#utility.yul\":490:514   */\n      tag_103\n      jump\t// in\n    tag_172:\n        /* \"#utility.yul\":483:488   */\n      dup2\n        /* \"#utility.yul\":480:515   */\n      eq\n        /* \"#utility.yul\":470:533   */\n      tag_173\n      jumpi\n        /* \"#utility.yul\":529:530   */\n      0x00\n        /* \"#utility.yul\":526:527   */\n      dup1\n        /* \"#utility.yul\":519:531   */\n      revert\n        /* \"#utility.yul\":470:533   */\n    tag_173:\n        /* \"#utility.yul\":417:539   */\n      pop\n      jump\t// out\n        /* \"#utility.yul\":545:684   */\n    tag_105:\n        /* \"#utility.yul\":591:596   */\n      0x00\n        /* \"#utility.yul\":629:635   */\n      dup2\n        /* \"#utility.yul\":616:636   */\n      calldataload\n        /* \"#utility.yul\":607:636   */\n      swap1\n      pop\n        /* \"#utility.yul\":645:678   */\n      tag_175\n        /* \"#utility.yul\":672:677   */\n      dup2\n        /* \"#utility.yul\":645:678   */\n      tag_104\n      jump\t// in\n    tag_175:\n        /* \"#utility.yul\":545:684   */\n      swap3\n      swap2\n      pop\n      pop\n      jump\t// out\n        /* \"#utility.yul\":690:1019   */\n    tag_11:\n        /* \"#utility.yul\":749:755   */\n      0x00\n        /* \"#utility.yul\":798:800   */\n      0x20\n        /* \"#utility.yul\":786:795   */\n      dup3\n        /* \"#utility.yul\":777:784   */\n      dup5\n        /* \"#utility.yul\":773:796   */\n      sub\n        /* \"#utility.yul\":769:801   */\n      slt\n        /* \"#utility.yul\":766:885   */\n      iszero\n      tag_177\n      jumpi\n        /* \"#utility.yul\":804:883   */\n      tag_178\n      tag_101\n      jump\t// in\n    tag_178:\n        /* \"#utility.yul\":766:885   */\n    tag_177:\n        /* \"#utility.yul\":924:925   */\n      0x00\n        /* \"#utility.yul\":949:1002   */\n      tag_179\n        /* \"#utility.yul\":994:1001   */\n      dup5\n        /* \"#utility.yul\":985:991   */\n      dup3\n        /* \"#utility.yul\":974:983   */\n      dup6\n        /* \"#utility.yul\":970:992   */\n      add\n        /* \"#utility.yul\":949:1002   */\n      tag_105\n      jump\t// in\n    tag_179:\n        /* \"#utility.yul\":939:1002   */\n      swap2\n      pop\n        /* \"#utility.yul\":895:1012   */\n      pop\n        /* \"#utility.yul\":690:1019   */\n      swap3\n      swap2\n      pop\n      pop\n      jump\t// out\n        /* \"#utility.yul\":1025:1143   */\n    tag_106:\n        /* \"#utility.yul\":1112:1136   */\n      tag_181\n        /* \"#utility.yul\":1130:1135   */\n      dup2\n        /* \"#utility.yul\":1112:1136   */\n      tag_103\n      jump\t// in\n    tag_181:\n        /* \"#utility.yul\":1107:1110   */\n      dup3\n        /* \"#utility.yul\":1100:1137   */\n      mstore\n        /* \"#utility.yul\":1025:1143   */\n      pop\n      pop\n      jump\t// out\n        /* \"#utility.yul\":1149:1275   */\n    tag_107:\n        /* \"#utility.yul\":1186:1193   */\n      0x00\n        /* \"#utility.yul\":1226:1268   */\n      0xffffffffffffffffffffffffffffffffffffffff\n        /* \"#utility.yul\":1219:1224   */\n      dup3\n        /* \"#utility.yul\":1215:1269   */\n      and\n        /* \"#utility.yul\":1204:1269   */\n      swap1\n      pop\n        /* \"#utility.yul\":1149:1275   */\n      swap2\n      swap1\n      pop\n      jump\t// out\n        /* \"#utility.yul\":1281:1377   */\n    tag_108:\n        /* \"#utility.yul\":1318:1325   */\n      0x00\n        /* \"#utility.yul\":1347:1371   */\n      tag_184\n        /* \"#utility.yul\":1365:1370   */\n      dup3\n        /* \"#utility.yul\":1347:1371   */\n      tag_107\n      jump\t// in\n    tag_184:\n        /* \"#utility.yul\":1336:1371   */\n      swap1\n      pop\n        /* \"#utility.yul\":1281:1377   */\n      swap2\n      swap1\n      pop\n      jump\t// out\n        /* \"#utility.yul\":1383:1501   */\n    tag_109:\n        /* \"#utility.yul\":1470:1494   */\n      tag_186\n        /* \"#utility.yul\":1488:1493   */\n      dup2\n        /* \"#utility.yul\":1470:1494   */\n      tag_108\n      jump\t// in\n    tag_186:\n        /* \"#utility.yul\":1465:1468   */\n      dup3\n        /* \"#utility.yul\":1458:1495   */\n      mstore\n        /* \"#utility.yul\":1383:1501   */\n      pop\n      pop\n      jump\t// out\n        /* \"#utility.yul\":1507:1606   */\n    tag_110:\n        /* \"#utility.yul\":1559:1565   */\n      0x00\n        /* \"#utility.yul\":1593:1598   */\n      dup2\n        /* \"#utility.yul\":1587:1599   */\n      mload\n        /* \"#utility.yul\":1577:1599   */\n      swap1\n      pop\n        /* \"#utility.yul\":1507:1606   */\n      swap2\n      swap1\n      pop\n      jump\t// out\n        /* \"#utility.yul\":1612:1781   */\n    tag_111:\n        /* \"#utility.yul\":1696:1707   */\n      0x00\n        /* \"#utility.yul\":1730:1736   */\n      dup3\n        /* \"#utility.yul\":1725:1728   */\n      dup3\n        /* \"#utility.yul\":1718:1737   */\n      mstore\n        /* \"#utility.yul\":1770:1774   */\n      0x20\n        /* \"#utility.yul\":1765:1768   */\n      dup3\n        /* \"#utility.yul\":1761:1775   */\n      add\n        /* \"#utility.yul\":1746:1775   */\n      swap1\n      pop\n        /* \"#utility.yul\":1612:1781   */\n      swap3\n      swap2\n      pop\n      pop\n      jump\t// out\n        /* \"#utility.yul\":1787:1926   */\n    tag_112:\n        /* \"#utility.yul\":1876:1882   */\n      dup3\n        /* \"#utility.yul\":1871:1874   */\n      dup2\n        /* \"#utility.yul\":1866:1869   */\n      dup4\n        /* \"#utility.yul\":1860:1883   */\n      mcopy\n        /* \"#utility.yul\":1917:1918   */\n      0x00\n        /* \"#utility.yul\":1908:1914   */\n      dup4\n        /* \"#utility.yul\":1903:1906   */\n      dup4\n        /* \"#utility.yul\":1899:1915   */\n      add\n        /* \"#utility.yul\":1892:1919   */\n      mstore\n        /* \"#utility.yul\":1787:1926   */\n      pop\n      pop\n      pop\n      jump\t// out\n        /* \"#utility.yul\":1932:2034   */\n    tag_113:\n        /* \"#utility.yul\":1973:1979   */\n      0x00\n        /* \"#utility.yul\":2024:2026   */\n      0x1f\n        /* \"#utility.yul\":2020:2027   */\n      not\n        /* \"#utility.yul\":2015:2017   */\n      0x1f\n        /* \"#utility.yul\":2008:2013   */\n      dup4\n        /* \"#utility.yul\":2004:2018   */\n      add\n        /* \"#utility.yul\":2000:2028   */\n      and\n        /* \"#utility.yul\":1990:2028   */\n      swap1\n      pop\n        /* \"#utility.yul\":1932:2034   */\n      swap2\n      swap1\n      pop\n      jump\t// out\n        /* \"#utility.yul\":2040:2417   */\n    tag_114:\n        /* \"#utility.yul\":2128:2131   */\n      0x00\n        /* \"#utility.yul\":2156:2195   */\n      tag_192\n        /* \"#utility.yul\":2189:2194   */\n      dup3\n        /* \"#utility.yul\":2156:2195   */\n      tag_110\n      jump\t// in\n    tag_192:\n        /* \"#utility.yul\":2211:2282   */\n      tag_193\n        /* \"#utility.yul\":2275:2281   */\n      dup2\n        /* \"#utility.yul\":2270:2273   */\n      dup6\n        /* \"#utility.yul\":2211:2282   */\n      tag_111\n      jump\t// in\n    tag_193:\n        /* \"#utility.yul\":2204:2282   */\n      swap4\n      pop\n        /* \"#utility.yul\":2291:2356   */\n      tag_194\n        /* \"#utility.yul\":2349:2355   */\n      dup2\n        /* \"#utility.yul\":2344:2347   */\n      dup6\n        /* \"#utility.yul\":2337:2341   */\n      0x20\n        /* \"#utility.yul\":2330:2335   */\n      dup7\n        /* \"#utility.yul\":2326:2342   */\n      add\n        /* \"#utility.yul\":2291:2356   */\n      tag_112\n      jump\t// in\n    tag_194:\n        /* \"#utility.yul\":2381:2410   */\n      tag_195\n        /* \"#utility.yul\":2403:2409   */\n      dup2\n        /* \"#utility.yul\":2381:2410   */\n      tag_113\n      jump\t// in\n    tag_195:\n        /* \"#utility.yul\":2376:2379   */\n      dup5\n        /* \"#utility.yul\":2372:2411   */\n      add\n        /* \"#utility.yul\":2365:2411   */\n      swap2\n      pop\n        /* \"#utility.yul\":2132:2417   */\n      pop\n        /* \"#utility.yul\":2040:2417   */\n      swap3\n      swap2\n      pop\n      pop\n      jump\t// out\n        /* \"#utility.yul\":2423:2513   */\n    tag_115:\n        /* \"#utility.yul\":2457:2464   */\n      0x00\n        /* \"#utility.yul\":2500:2505   */\n      dup2\n        /* \"#utility.yul\":2493:2506   */\n      iszero\n        /* \"#utility.yul\":2486:2507   */\n      iszero\n        /* \"#utility.yul\":2475:2507   */\n      swap1\n      pop\n        /* \"#utility.yul\":2423:2513   */\n      swap2\n      swap1\n      pop\n      jump\t// out\n        /* \"#utility.yul\":2519:2628   */\n    tag_116:\n        /* \"#utility.yul\":2600:2621   */\n      tag_198\n        /* \"#utility.yul\":2615:2620   */\n      dup2\n        /* \"#utility.yul\":2600:2621   */\n      tag_115\n      jump\t// in\n    tag_198:\n        /* \"#utility.yul\":2595:2598   */\n      dup3\n        /* \"#utility.yul\":2588:2622   */\n      mstore\n        /* \"#utility.yul\":2519:2628   */\n      pop\n      pop\n      jump\t// out\n        /* \"#utility.yul\":2634:3690   */\n    tag_14:\n        /* \"#utility.yul\":2929:2933   */\n      0x00\n        /* \"#utility.yul\":2967:2970   */\n      0xe0\n        /* \"#utility.yul\":2956:2965   */\n      dup3\n        /* \"#utility.yul\":2952:2971   */\n      add\n        /* \"#utility.yul\":2944:2971   */\n      swap1\n      pop\n        /* \"#utility.yul\":2981:3052   */\n      tag_200\n        /* \"#utility.yul\":3049:3050   */\n      0x00\n        /* \"#utility.yul\":3038:3047   */\n      dup4\n        /* \"#utility.yul\":3034:3051   */\n      add\n        /* \"#utility.yul\":3025:3031   */\n      dup11\n        /* \"#utility.yul\":2981:3052   */\n      tag_106\n      jump\t// in\n    tag_200:\n        /* \"#utility.yul\":3062:3134   */\n      tag_201\n        /* \"#utility.yul\":3130:3132   */\n      0x20\n        /* \"#utility.yul\":3119:3128   */\n      dup4\n        /* \"#utility.yul\":3115:3133   */\n      add\n        /* \"#utility.yul\":3106:3112   */\n      dup10\n        /* \"#utility.yul\":3062:3134   */\n      tag_109\n      jump\t// in\n    tag_201:\n        /* \"#utility.yul\":3144:3216   */\n      tag_202\n        /* \"#utility.yul\":3212:3214   */\n      0x40\n        /* \"#utility.yul\":3201:3210   */\n      dup4\n        /* \"#utility.yul\":3197:3215   */\n      add\n        /* \"#utility.yul\":3188:3194   */\n      dup9\n        /* \"#utility.yul\":3144:3216   */\n      tag_109\n      jump\t// in\n    tag_202:\n        /* \"#utility.yul\":3226:3298   */\n      tag_203\n        /* \"#utility.yul\":3294:3296   */\n      0x60\n        /* \"#utility.yul\":3283:3292   */\n      dup4\n        /* \"#utility.yul\":3279:3297   */\n      add\n        /* \"#utility.yul\":3270:3276   */\n      dup8\n        /* \"#utility.yul\":3226:3298   */\n      tag_106\n      jump\t// in\n    tag_203:\n        /* \"#utility.yul\":3346:3355   */\n      dup2\n        /* \"#utility.yul\":3340:3344   */\n      dup2\n        /* \"#utility.yul\":3336:3356   */\n      sub\n        /* \"#utility.yul\":3330:3333   */\n      0x80\n        /* \"#utility.yul\":3319:3328   */\n      dup4\n        /* \"#utility.yul\":3315:3334   */\n      add\n        /* \"#utility.yul\":3308:3357   */\n      mstore\n        /* \"#utility.yul\":3374:3452   */\n      tag_204\n        /* \"#utility.yul\":3447:3451   */\n      dup2\n        /* \"#utility.yul\":3438:3444   */\n      dup7\n        /* \"#utility.yul\":3374:3452   */\n      tag_114\n      jump\t// in\n    tag_204:\n        /* \"#utility.yul\":3366:3452   */\n      swap1\n      pop\n        /* \"#utility.yul\":3500:3509   */\n      dup2\n        /* \"#utility.yul\":3494:3498   */\n      dup2\n        /* \"#utility.yul\":3490:3510   */\n      sub\n        /* \"#utility.yul\":3484:3487   */\n      0xa0\n        /* \"#utility.yul\":3473:3482   */\n      dup4\n        /* \"#utility.yul\":3469:3488   */\n      add\n        /* \"#utility.yul\":3462:3511   */\n      mstore\n        /* \"#utility.yul\":3528:3606   */\n      tag_205\n        /* \"#utility.yul\":3601:3605   */\n      dup2\n        /* \"#utility.yul\":3592:3598   */\n      dup6\n        /* \"#utility.yul\":3528:3606   */\n      tag_114\n      jump\t// in\n    tag_205:\n        /* \"#utility.yul\":3520:3606   */\n      swap1\n      pop\n        /* \"#utility.yul\":3616:3683   */\n      tag_206\n        /* \"#utility.yul\":3678:3681   */\n      0xc0\n        /* \"#utility.yul\":3667:3676   */\n      dup4\n        /* \"#utility.yul\":3663:3682   */\n      add\n        /* \"#utility.yul\":3654:3660   */\n      dup5\n        /* \"#utility.yul\":3616:3683   */\n      tag_116\n      jump\t// in\n    tag_206:\n        /* \"#utility.yul\":2634:3690   */\n      swap9\n      swap8\n      pop\n      pop\n      pop\n      pop\n      pop\n      pop\n      pop\n      pop\n      jump\t// out\n        /* \"#utility.yul\":3696:3813   */\n    tag_117:\n        /* \"#utility.yul\":3805:3806   */\n      0x00\n        /* \"#utility.yul\":3802:3803   */\n      dup1\n        /* \"#utility.yul\":3795:3807   */\n      revert\n        /* \"#utility.yul\":3819:3936   */\n    tag_118:\n        /* \"#utility.yul\":3928:3929   */\n      0x00\n        /* \"#utility.yul\":3925:3926   */\n      dup1\n        /* \"#utility.yul\":3918:3930   */\n      revert\n        /* \"#utility.yul\":3942:4059   */\n    tag_119:\n        /* \"#utility.yul\":4051:4052   */\n      0x00\n        /* \"#utility.yul\":4048:4049   */\n      dup1\n        /* \"#utility.yul\":4041:4053   */\n      revert\n        /* \"#utility.yul\":4079:4632   */\n    tag_120:\n        /* \"#utility.yul\":4137:4145   */\n      0x00\n        /* \"#utility.yul\":4147:4153   */\n      dup1\n        /* \"#utility.yul\":4197:4200   */\n      dup4\n        /* \"#utility.yul\":4190:4194   */\n      0x1f\n        /* \"#utility.yul\":4182:4188   */\n      dup5\n        /* \"#utility.yul\":4178:4195   */\n      add\n        /* \"#utility.yul\":4174:4201   */\n      slt\n        /* \"#utility.yul\":4164:4286   */\n      tag_211\n      jumpi\n        /* \"#utility.yul\":4205:4284   */\n      tag_212\n      tag_117\n      jump\t// in\n    tag_212:\n        /* \"#utility.yul\":4164:4286   */\n    tag_211:\n        /* \"#utility.yul\":4318:4324   */\n      dup3\n        /* \"#utility.yul\":4305:4325   */\n      calldataload\n        /* \"#utility.yul\":4295:4325   */\n      swap1\n      pop\n        /* \"#utility.yul\":4348:4366   */\n      0xffffffffffffffff\n        /* \"#utility.yul\":4340:4346   */\n      dup2\n        /* \"#utility.yul\":4337:4367   */\n      gt\n        /* \"#utility.yul\":4334:4451   */\n      iszero\n      tag_213\n      jumpi\n        /* \"#utility.yul\":4370:4449   */\n      tag_214\n      tag_118\n      jump\t// in\n    tag_214:\n        /* \"#utility.yul\":4334:4451   */\n    tag_213:\n        /* \"#utility.yul\":4484:4488   */\n      0x20\n        /* \"#utility.yul\":4476:4482   */\n      dup4\n        /* \"#utility.yul\":4472:4489   */\n      add\n        /* \"#utility.yul\":4460:4489   */\n      swap2\n      pop\n        /* \"#utility.yul\":4538:4541   */\n      dup4\n        /* \"#utility.yul\":4530:4534   */\n      0x01\n        /* \"#utility.yul\":4522:4528   */\n      dup3\n        /* \"#utility.yul\":4518:4535   */\n      mul\n        /* \"#utility.yul\":4508:4516   */\n      dup4\n        /* \"#utility.yul\":4504:4536   */\n      add\n        /* \"#utility.yul\":4501:4542   */\n      gt\n        /* \"#utility.yul\":4498:4626   */\n      iszero\n      tag_215\n      jumpi\n        /* \"#utility.yul\":4545:4624   */\n      tag_216\n      tag_119\n      jump\t// in\n    tag_216:\n        /* \"#utility.yul\":4498:4626   */\n    tag_215:\n        /* \"#utility.yul\":4079:4632   */\n      swap3\n      pop\n      swap3\n      swap1\n      pop\n      jump\t// out\n        /* \"#utility.yul\":4638:5657   */\n    tag_18:\n        /* \"#utility.yul\":4739:4745   */\n      0x00\n        /* \"#utility.yul\":4747:4753   */\n      dup1\n        /* \"#utility.yul\":4755:4761   */\n      0x00\n        /* \"#utility.yul\":4763:4769   */\n      dup1\n        /* \"#utility.yul\":4771:4777   */\n      0x00\n        /* \"#utility.yul\":4820:4822   */\n      0x60\n        /* \"#utility.yul\":4808:4817   */\n      dup7\n        /* \"#utility.yul\":4799:4806   */\n      dup9\n        /* \"#utility.yul\":4795:4818   */\n      sub\n        /* \"#utility.yul\":4791:4823   */\n      slt\n        /* \"#utility.yul\":4788:4907   */\n      iszero\n      tag_218\n      jumpi\n        /* \"#utility.yul\":4826:4905   */\n      tag_219\n      tag_101\n      jump\t// in\n    tag_219:\n        /* \"#utility.yul\":4788:4907   */\n    tag_218:\n        /* \"#utility.yul\":4946:4947   */\n      0x00\n        /* \"#utility.yul\":4971:5024   */\n      tag_220\n        /* \"#utility.yul\":5016:5023   */\n      dup9\n        /* \"#utility.yul\":5007:5013   */\n      dup3\n        /* \"#utility.yul\":4996:5005   */\n      dup10\n        /* \"#utility.yul\":4992:5014   */\n      add\n        /* \"#utility.yul\":4971:5024   */\n      tag_105\n      jump\t// in\n    tag_220:\n        /* \"#utility.yul\":4961:5024   */\n      swap6\n      pop\n        /* \"#utility.yul\":4917:5034   */\n      pop\n        /* \"#utility.yul\":5101:5103   */\n      0x20\n        /* \"#utility.yul\":5090:5099   */\n      dup7\n        /* \"#utility.yul\":5086:5104   */\n      add\n        /* \"#utility.yul\":5073:5105   */\n      calldataload\n        /* \"#utility.yul\":5132:5150   */\n      0xffffffffffffffff\n        /* \"#utility.yul\":5124:5130   */\n      dup2\n        /* \"#utility.yul\":5121:5151   */\n      gt\n        /* \"#utility.yul\":5118:5235   */\n      iszero\n      tag_221\n      jumpi\n        /* \"#utility.yul\":5154:5233   */\n      tag_222\n      tag_102\n      jump\t// in\n    tag_222:\n        /* \"#utility.yul\":5118:5235   */\n    tag_221:\n        /* \"#utility.yul\":5267:5332   */\n      tag_223\n        /* \"#utility.yul\":5324:5331   */\n      dup9\n        /* \"#utility.yul\":5315:5321   */\n      dup3\n        /* \"#utility.yul\":5304:5313   */\n      dup10\n        /* \"#utility.yul\":5300:5322   */\n      add\n        /* \"#utility.yul\":5267:5332   */\n      tag_120\n      jump\t// in\n    tag_223:\n        /* \"#utility.yul\":5249:5332   */\n      swap5\n      pop\n      swap5\n      pop\n        /* \"#utility.yul\":5044:5342   */\n      pop\n        /* \"#utility.yul\":5409:5411   */\n      0x40\n        /* \"#utility.yul\":5398:5407   */\n      dup7\n        /* \"#utility.yul\":5394:5412   */\n      add\n        /* \"#utility.yul\":5381:5413   */\n      calldataload\n        /* \"#utility.yul\":5440:5458   */\n      0xffffffffffffffff\n        /* \"#utility.yul\":5432:5438   */\n      dup2\n        /* \"#utility.yul\":5429:5459   */\n      gt\n        /* \"#utility.yul\":5426:5543   */\n      iszero\n      tag_224\n      jumpi\n        /* \"#utility.yul\":5462:5541   */\n      tag_225\n      tag_102\n      jump\t// in\n    tag_225:\n        /* \"#utility.yul\":5426:5543   */\n    tag_224:\n        /* \"#utility.yul\":5575:5640   */\n      tag_226\n        /* \"#utility.yul\":5632:5639   */\n      dup9\n        /* \"#utility.yul\":5623:5629   */\n      dup3\n        /* \"#utility.yul\":5612:5621   */\n      dup10\n        /* \"#utility.yul\":5608:5630   */\n      add\n        /* \"#utility.yul\":5575:5640   */\n      tag_120\n      jump\t// in\n    tag_226:\n        /* \"#utility.yul\":5557:5640   */\n      swap3\n      pop\n      swap3\n      pop\n        /* \"#utility.yul\":5352:5650   */\n      pop\n        /* \"#utility.yul\":4638:5657   */\n      swap3\n      swap6\n      pop\n      swap3\n      swap6\n      swap1\n      swap4\n      pop\n      jump\t// out\n        /* \"#utility.yul\":5663:5885   */\n    tag_31:\n        /* \"#utility.yul\":5756:5760   */\n      0x00\n        /* \"#utility.yul\":5794:5796   */\n      0x20\n        /* \"#utility.yul\":5783:5792   */\n      dup3\n        /* \"#utility.yul\":5779:5797   */\n      add\n        /* \"#utility.yul\":5771:5797   */\n      swap1\n      pop\n        /* \"#utility.yul\":5807:5878   */\n      tag_228\n        /* \"#utility.yul\":5875:5876   */\n      0x00\n        /* \"#utility.yul\":5864:5873   */\n      dup4\n        /* \"#utility.yul\":5860:5877   */\n      add\n        /* \"#utility.yul\":5851:5857   */\n      dup5\n        /* \"#utility.yul\":5807:5878   */\n      tag_106\n      jump\t// in\n    tag_228:\n        /* \"#utility.yul\":5663:5885   */\n      swap3\n      swap2\n      pop\n      pop\n      jump\t// out\n        /* \"#utility.yul\":5891:6071   */\n    tag_121:\n        /* \"#utility.yul\":5939:6016   */\n      0x4e487b7100000000000000000000000000000000000000000000000000000000\n        /* \"#utility.yul\":5936:5937   */\n      0x00\n        /* \"#utility.yul\":5929:6017   */\n      mstore\n        /* \"#utility.yul\":6036:6040   */\n      0x22\n        /* \"#utility.yul\":6033:6034   */\n      0x04\n        /* \"#utility.yul\":6026:6041   */\n      mstore\n        /* \"#utility.yul\":6060:6064   */\n      0x24\n        /* \"#utility.yul\":6057:6058   */\n      0x00\n        /* \"#utility.yul\":6050:6065   */\n      revert\n        /* \"#utility.yul\":6077:6397   */\n    tag_37:\n        /* \"#utility.yul\":6121:6127   */\n      0x00\n        /* \"#utility.yul\":6158:6159   */\n      0x02\n        /* \"#utility.yul\":6152:6156   */\n      dup3\n        /* \"#utility.yul\":6148:6160   */\n      div\n        /* \"#utility.yul\":6138:6160   */\n      swap1\n      pop\n        /* \"#utility.yul\":6205:6206   */\n      0x01\n        /* \"#utility.yul\":6199:6203   */\n      dup3\n        /* \"#utility.yul\":6195:6207   */\n      and\n        /* \"#utility.yul\":6226:6244   */\n      dup1\n        /* \"#utility.yul\":6216:6297   */\n      tag_231\n      jumpi\n        /* \"#utility.yul\":6282:6286   */\n      0x7f\n        /* \"#utility.yul\":6274:6280   */\n      dup3\n        /* \"#utility.yul\":6270:6287   */\n      and\n        /* \"#utility.yul\":6260:6287   */\n      swap2\n      pop\n        /* \"#utility.yul\":6216:6297   */\n    tag_231:\n        /* \"#utility.yul\":6344:6346   */\n      0x20\n        /* \"#utility.yul\":6336:6342   */\n      dup3\n        /* \"#utility.yul\":6333:6347   */\n      lt\n        /* \"#utility.yul\":6313:6331   */\n      dup2\n        /* \"#utility.yul\":6310:6348   */\n      sub\n        /* \"#utility.yul\":6307:6391   */\n      tag_232\n      jumpi\n        /* \"#utility.yul\":6363:6381   */\n      tag_233\n      tag_121\n      jump\t// in\n    tag_233:\n        /* \"#utility.yul\":6307:6391   */\n    tag_232:\n        /* \"#utility.yul\":6128:6397   */\n      pop\n        /* \"#utility.yul\":6077:6397   */\n      swap2\n      swap1\n      pop\n      jump\t// out\n        /* \"#utility.yul\":6403:6585   */\n    tag_122:\n        /* \"#utility.yul\":6543:6577   */\n      0x427564676574206d7573742062652067726561746572207468616e207a65726f\n        /* \"#utility.yul\":6539:6540   */\n      0x00\n        /* \"#utility.yul\":6531:6537   */\n      dup3\n        /* \"#utility.yul\":6527:6541   */\n      add\n        /* \"#utility.yul\":6520:6578   */\n      mstore\n        /* \"#utility.yul\":6403:6585   */\n      pop\n      jump\t// out\n        /* \"#utility.yul\":6591:6957   */\n    tag_123:\n        /* \"#utility.yul\":6733:6736   */\n      0x00\n        /* \"#utility.yul\":6754:6821   */\n      tag_236\n        /* \"#utility.yul\":6818:6820   */\n      0x20\n        /* \"#utility.yul\":6813:6816   */\n      dup4\n        /* \"#utility.yul\":6754:6821   */\n      tag_111\n      jump\t// in\n    tag_236:\n        /* \"#utility.yul\":6747:6821   */\n      swap2\n      pop\n        /* \"#utility.yul\":6830:6923   */\n      tag_237\n        /* \"#utility.yul\":6919:6922   */\n      dup3\n        /* \"#utility.yul\":6830:6923   */\n      tag_122\n      jump\t// in\n    tag_237:\n        /* \"#utility.yul\":6948:6950   */\n      0x20\n        /* \"#utility.yul\":6943:6946   */\n      dup3\n        /* \"#utility.yul\":6939:6951   */\n      add\n        /* \"#utility.yul\":6932:6951   */\n      swap1\n      pop\n        /* \"#utility.yul\":6591:6957   */\n      swap2\n      swap1\n      pop\n      jump\t// out\n        /* \"#utility.yul\":6963:7382   */\n    tag_50:\n        /* \"#utility.yul\":7129:7133   */\n      0x00\n        /* \"#utility.yul\":7167:7169   */\n      0x20\n        /* \"#utility.yul\":7156:7165   */\n      dup3\n        /* \"#utility.yul\":7152:7170   */\n      add\n        /* \"#utility.yul\":7144:7170   */\n      swap1\n      pop\n        /* \"#utility.yul\":7216:7225   */\n      dup2\n        /* \"#utility.yul\":7210:7214   */\n      dup2\n        /* \"#utility.yul\":7206:7226   */\n      sub\n        /* \"#utility.yul\":7202:7203   */\n      0x00\n        /* \"#utility.yul\":7191:7200   */\n      dup4\n        /* \"#utility.yul\":7187:7204   */\n      add\n        /* \"#utility.yul\":7180:7227   */\n      mstore\n        /* \"#utility.yul\":7244:7375   */\n      tag_239\n        /* \"#utility.yul\":7370:7374   */\n      dup2\n        /* \"#utility.yul\":7244:7375   */\n      tag_123\n      jump\t// in\n    tag_239:\n        /* \"#utility.yul\":7236:7375   */\n      swap1\n      pop\n        /* \"#utility.yul\":6963:7382   */\n      swap2\n      swap1\n      pop\n      jump\t// out\n        /* \"#utility.yul\":7388:7555   */\n    tag_124:\n        /* \"#utility.yul\":7528:7547   */\n      0x5469746c65206973207265717569726564000000000000000000000000000000\n        /* \"#utility.yul\":7524:7525   */\n      0x00\n        /* \"#utility.yul\":7516:7522   */\n      dup3\n        /* \"#utility.yul\":7512:7526   */\n      add\n        /* \"#utility.yul\":7505:7548   */\n      mstore\n        /* \"#utility.yul\":7388:7555   */\n      pop\n      jump\t// out\n        /* \"#utility.yul\":7561:7927   */\n    tag_125:\n        /* \"#utility.yul\":7703:7706   */\n      0x00\n        /* \"#utility.yul\":7724:7791   */\n      tag_242\n        /* \"#utility.yul\":7788:7790   */\n      0x11\n        /* \"#utility.yul\":7783:7786   */\n      dup4\n        /* \"#utility.yul\":7724:7791   */\n      tag_111\n      jump\t// in\n    tag_242:\n        /* \"#utility.yul\":7717:7791   */\n      swap2\n      pop\n        /* \"#utility.yul\":7800:7893   */\n      tag_243\n        /* \"#utility.yul\":7889:7892   */\n      dup3\n        /* \"#utility.yul\":7800:7893   */\n      tag_124\n      jump\t// in\n    tag_243:\n        /* \"#utility.yul\":7918:7920   */\n      0x20\n        /* \"#utility.yul\":7913:7916   */\n      dup3\n        /* \"#utility.yul\":7909:7921   */\n      add\n        /* \"#utility.yul\":7902:7921   */\n      swap1\n      pop\n        /* \"#utility.yul\":7561:7927   */\n      swap2\n      swap1\n      pop\n      jump\t// out\n        /* \"#utility.yul\":7933:8352   */\n    tag_53:\n        /* \"#utility.yul\":8099:8103   */\n      0x00\n        /* \"#utility.yul\":8137:8139   */\n      0x20\n        /* \"#utility.yul\":8126:8135   */\n      dup3\n        /* \"#utility.yul\":8122:8140   */\n      add\n        /* \"#utility.yul\":8114:8140   */\n      swap1\n      pop\n        /* \"#utility.yul\":8186:8195   */\n      dup2\n        /* \"#utility.yul\":8180:8184   */\n      dup2\n        /* \"#utility.yul\":8176:8196   */\n      sub\n        /* \"#utility.yul\":8172:8173   */\n      0x00\n        /* \"#utility.yul\":8161:8170   */\n      dup4\n        /* \"#utility.yul\":8157:8174   */\n      add\n        /* \"#utility.yul\":8150:8197   */\n      mstore\n        /* \"#utility.yul\":8214:8345   */\n      tag_245\n        /* \"#utility.yul\":8340:8344   */\n      dup2\n        /* \"#utility.yul\":8214:8345   */\n      tag_125\n      jump\t// in\n    tag_245:\n        /* \"#utility.yul\":8206:8345   */\n      swap1\n      pop\n        /* \"#utility.yul\":7933:8352   */\n      swap2\n      swap1\n      pop\n      jump\t// out\n        /* \"#utility.yul\":8358:8538   */\n    tag_126:\n        /* \"#utility.yul\":8406:8483   */\n      0x4e487b7100000000000000000000000000000000000000000000000000000000\n        /* \"#utility.yul\":8403:8404   */\n      0x00\n        /* \"#utility.yul\":8396:8484   */\n      mstore\n        /* \"#utility.yul\":8503:8507   */\n      0x11\n        /* \"#utility.yul\":8500:8501   */\n      0x04\n        /* \"#utility.yul\":8493:8508   */\n      mstore\n        /* \"#utility.yul\":8527:8531   */\n      0x24\n        /* \"#utility.yul\":8524:8525   */\n      0x00\n        /* \"#utility.yul\":8517:8532   */\n      revert\n        /* \"#utility.yul\":8544:8777   */\n    tag_55:\n        /* \"#utility.yul\":8583:8586   */\n      0x00\n        /* \"#utility.yul\":8606:8630   */\n      tag_248\n        /* \"#utility.yul\":8624:8629   */\n      dup3\n        /* \"#utility.yul\":8606:8630   */\n      tag_103\n      jump\t// in\n    tag_248:\n        /* \"#utility.yul\":8597:8630   */\n      swap2\n      pop\n        /* \"#utility.yul\":8652:8718   */\n      0xffffffffffffffffffffffffffffffffffffffffffffffffffffffffffffffff\n        /* \"#utility.yul\":8645:8650   */\n      dup3\n        /* \"#utility.yul\":8642:8719   */\n      sub\n        /* \"#utility.yul\":8639:8742   */\n      tag_249\n      jumpi\n        /* \"#utility.yul\":8722:8740   */\n      tag_250\n      tag_126\n      jump\t// in\n    tag_250:\n        /* \"#utility.yul\":8639:8742   */\n    tag_249:\n        /* \"#utility.yul\":8769:8770   */\n      0x01\n        /* \"#utility.yul\":8762:8767   */\n      dup3\n        /* \"#utility.yul\":8758:8771   */\n      add\n        /* \"#utility.yul\":8751:8771   */\n      swap1\n      pop\n        /* \"#utility.yul\":8544:8777   */\n      swap2\n      swap1\n      pop\n      jump\t// out\n        /* \"#utility.yul\":8783:8963   */\n    tag_127:\n        /* \"#utility.yul\":8831:8908   */\n      0x4e487b7100000000000000000000000000000000000000000000000000000000\n        /* \"#utility.yul\":8828:8829   */\n      0x00\n        /* \"#utility.yul\":8821:8909   */\n      mstore\n        /* \"#utility.yul\":8928:8932   */\n      0x41\n        /* \"#utility.yul\":8925:8926   */\n      0x04\n        /* \"#utility.yul\":8918:8933   */\n      mstore\n        /* \"#utility.yul\":8952:8956   */\n      0x24\n        /* \"#utility.yul\":8949:8950   */\n      0x00\n        /* \"#utility.yul\":8942:8957   */\n      revert\n        /* \"#utility.yul\":8969:9110   */\n    tag_128:\n        /* \"#utility.yul\":9018:9022   */\n      0x00\n        /* \"#utility.yul\":9041:9044   */\n      dup2\n        /* \"#utility.yul\":9033:9044   */\n      swap1\n      pop\n        /* \"#utility.yul\":9064:9067   */\n      dup2\n        /* \"#utility.yul\":9061:9062   */\n      0x00\n        /* \"#utility.yul\":9054:9068   */\n      mstore\n        /* \"#utility.yul\":9098:9102   */\n      0x20\n        /* \"#utility.yul\":9095:9096   */\n      0x00\n        /* \"#utility.yul\":9085:9103   */\n      keccak256\n        /* \"#utility.yul\":9077:9103   */\n      swap1\n      pop\n        /* \"#utility.yul\":8969:9110   */\n      swap2\n      swap1\n      pop\n      jump\t// out\n        /* \"#utility.yul\":9116:9209   */\n    tag_129:\n        /* \"#utility.yul\":9153:9159   */\n      0x00\n        /* \"#utility.yul\":9200:9202   */\n      0x20\n        /* \"#utility.yul\":9195:9197   */\n      0x1f\n        /* \"#utility.yul\":9188:9193   */\n      dup4\n        /* \"#utility.yul\":9184:9198   */\n      add\n        /* \"#utility.yul\":9180:9203   */\n      div\n        /* \"#utility.yul\":9170:9203   */\n      swap1\n      pop\n        /* \"#utility.yul\":9116:9209   */\n      swap2\n      swap1\n      pop\n      jump\t// out\n        /* \"#utility.yul\":9215:9322   */\n    tag_130:\n        /* \"#utility.yul\":9259:9267   */\n      0x00\n        /* \"#utility.yul\":9309:9314   */\n      dup3\n        /* \"#utility.yul\":9303:9307   */\n      dup3\n        /* \"#utility.yul\":9299:9315   */\n      shl\n        /* \"#utility.yul\":9278:9315   */\n      swap1\n      pop\n        /* \"#utility.yul\":9215:9322   */\n      swap3\n      swap2\n      pop\n      pop\n      jump\t// out\n        /* \"#utility.yul\":9328:9721   */\n    tag_131:\n        /* \"#utility.yul\":9397:9403   */\n      0x00\n        /* \"#utility.yul\":9447:9448   */\n      0x08\n        /* \"#utility.yul\":9435:9445   */\n      dup4\n        /* \"#utility.yul\":9431:9449   */\n      mul\n        /* \"#utility.yul\":9470:9567   */\n      tag_256\n        /* \"#utility.yul\":9500:9566   */\n      0xffffffffffffffffffffffffffffffffffffffffffffffffffffffffffffffff\n        /* \"#utility.yul\":9489:9498   */\n      dup3\n        /* \"#utility.yul\":9470:9567   */\n      tag_130\n      jump\t// in\n    tag_256:\n        /* \"#utility.yul\":9588:9627   */\n      tag_257\n        /* \"#utility.yul\":9618:9626   */\n      dup7\n        /* \"#utility.yul\":9607:9616   */\n      dup4\n        /* \"#utility.yul\":9588:9627   */\n      tag_130\n      jump\t// in\n    tag_257:\n        /* \"#utility.yul\":9576:9627   */\n      swap6\n      pop\n        /* \"#utility.yul\":9660:9664   */\n      dup1\n        /* \"#utility.yul\":9656:9665   */\n      not\n        /* \"#utility.yul\":9649:9654   */\n      dup5\n        /* \"#utility.yul\":9645:9666   */\n      and\n        /* \"#utility.yul\":9636:9666   */\n      swap4\n      pop\n        /* \"#utility.yul\":9709:9713   */\n      dup1\n        /* \"#utility.yul\":9699:9707   */\n      dup7\n        /* \"#utility.yul\":9695:9714   */\n      and\n        /* \"#utility.yul\":9688:9693   */\n      dup5\n        /* \"#utility.yul\":9685:9715   */\n      or\n        /* \"#utility.yul\":9675:9715   */\n      swap3\n      pop\n        /* \"#utility.yul\":9404:9721   */\n      pop\n      pop\n        /* \"#utility.yul\":9328:9721   */\n      swap4\n      swap3\n      pop\n      pop\n      pop\n      jump\t// out\n        /* \"#utility.yul\":9727:9787   */\n    tag_132:\n        /* \"#utility.yul\":9755:9758   */\n      0x00\n        /* \"#utility.yul\":9776:9781   */\n      dup2\n        /* \"#utility.yul\":9769:9781   */\n      swap1\n      pop\n        /* \"#utility.yul\":9727:9787   */\n      swap2\n      swap1\n      pop\n      jump\t// out\n        /* \"#utility.yul\":9793:9935   */\n    tag_133:\n        /* \"#utility.yul\":9843:9852   */\n      0x00\n        /* \"#utility.yul\":9876:9929   */\n      tag_260\n        /* \"#utility.yul\":9894:9928   */\n      tag_261\n        /* \"#utility.yul\":9903:9927   */\n      tag_262\n        /* \"#utility.yul\":9921:9926   */\n      dup5\n        /* \"#utility.yul\":9903:9927   */\n      tag_103\n      jump\t// in\n    tag_262:\n        /* \"#utility.yul\":9894:9928   */\n      tag_132\n      jump\t// in\n    tag_261:\n        /* \"#utility.yul\":9876:9929   */\n      tag_103\n      jump\t// in\n    tag_260:\n        /* \"#utility.yul\":9863:9929   */\n      swap1\n      pop\n        /* \"#utility.yul\":9793:9935   */\n      swap2\n      swap1\n      pop\n      jump\t// out\n        /* \"#utility.yul\":9941:10016   */\n    tag_134:\n        /* \"#utility.yul\":9984:9987   */\n      0x00\n        /* \"#utility.yul\":10005:10010   */\n      dup2\n        /* \"#utility.yul\":9998:10010   */\n      swap1\n      pop\n        /* \"#utility.yul\":9941:10016   */\n      swap2\n      swap1\n      pop\n      jump\t// out\n        /* \"#utility.yul\":10022:10291   */\n    tag_135:\n        /* \"#utility.yul\":10132:10171   */\n      tag_265\n        /* \"#utility.yul\":10163:10170   */\n      dup4\n        /* \"#utility.yul\":10132:10171   */\n      tag_133\n      jump\t// in\n    tag_265:\n        /* \"#utility.yul\":10193:10284   */\n      tag_266\n        /* \"#utility.yul\":10242:10283   */\n      tag_267\n        /* \"#utility.yul\":10266:10282   */\n      dup3\n        /* \"#utility.yul\":10242:10283   */\n      tag_134\n      jump\t// in\n    tag_267:\n        /* \"#utility.yul\":10234:10240   */\n      dup5\n        /* \"#utility.yul\":10227:10231   */\n      dup5\n        /* \"#utility.yul\":10221:10232   */\n      sload\n        /* \"#utility.yul\":10193:10284   */\n      tag_131\n      jump\t// in\n    tag_266:\n        /* \"#utility.yul\":10187:10191   */\n      dup3\n        /* \"#utility.yul\":10180:10285   */\n      sstore\n        /* \"#utility.yul\":10098:10291   */\n      pop\n        /* \"#utility.yul\":10022:10291   */\n      pop\n      pop\n      pop\n      jump\t// out\n        /* \"#utility.yul\":10297:10370   */\n    tag_136:\n        /* \"#utility.yul\":10342:10345   */\n      0x00\n        /* \"#utility.yul\":10297:10370   */\n      swap1\n      jump\t// out\n        /* \"#utility.yul\":10376:10565   */\n    tag_137:\n        /* \"#utility.yul\":10453:10485   */\n      tag_270\n      tag_136\n      jump\t// in\n    tag_270:\n        /* \"#utility.yul\":10494:10559   */\n      tag_271\n        /* \"#utility.yul\":10552:10558   */\n      dup2\n        /* \"#utility.yul\":10544:10550   */\n      dup5\n        /* \"#utility.yul\":10538:10542   */\n      dup5\n        /* \"#utility.yul\":10494:10559   */\n      tag_135\n      jump\t// in\n    tag_271:\n        /* \"#utility.yul\":10429:10565   */\n      pop\n        /* \"#utility.yul\":10376:10565   */\n      pop\n      pop\n      jump\t// out\n        /* \"#utility.yul\":10571:10757   */\n    tag_138:\n        /* \"#utility.yul\":10631:10751   */\n    tag_273:\n        /* \"#utility.yul\":10648:10651   */\n      dup2\n        /* \"#utility.yul\":10641:10646   */\n      dup2\n        /* \"#utility.yul\":10638:10652   */\n      lt\n        /* \"#utility.yul\":10631:10751   */\n      iszero\n      tag_275\n      jumpi\n        /* \"#utility.yul\":10702:10741   */\n      tag_276\n        /* \"#utility.yul\":10739:10740   */\n      0x00\n        /* \"#utility.yul\":10732:10737   */\n      dup3\n        /* \"#utility.yul\":10702:10741   */\n      tag_137\n      jump\t// in\n    tag_276:\n        /* \"#utility.yul\":10675:10676   */\n      0x01\n        /* \"#utility.yul\":10668:10673   */\n      dup2\n        /* \"#utility.yul\":10664:10677   */\n      add\n        /* \"#utility.yul\":10655:10677   */\n      swap1\n      pop\n        /* \"#utility.yul\":10631:10751   */\n      jump(tag_273)\n    tag_275:\n        /* \"#utility.yul\":10571:10757   */\n      pop\n      pop\n      jump\t// out\n        /* \"#utility.yul\":10763:11306   */\n    tag_139:\n        /* \"#utility.yul\":10864:10866   */\n      0x1f\n        /* \"#utility.yul\":10859:10862   */\n      dup3\n        /* \"#utility.yul\":10856:10867   */\n      gt\n        /* \"#utility.yul\":10853:11299   */\n      iszero\n      tag_278\n      jumpi\n        /* \"#utility.yul\":10898:10936   */\n      tag_279\n        /* \"#utility.yul\":10930:10935   */\n      dup2\n        /* \"#utility.yul\":10898:10936   */\n      tag_128\n      jump\t// in\n    tag_279:\n        /* \"#utility.yul\":10982:11011   */\n      tag_280\n        /* \"#utility.yul\":11000:11010   */\n      dup5\n        /* \"#utility.yul\":10982:11011   */\n      tag_129\n      jump\t// in\n    tag_280:\n        /* \"#utility.yul\":10972:10980   */\n      dup2\n        /* \"#utility.yul\":10968:11012   */\n      add\n        /* \"#utility.yul\":11165:11167   */\n      0x20\n        /* \"#utility.yul\":11153:11163   */\n      dup6\n        /* \"#utility.yul\":11150:11168   */\n      lt\n        /* \"#utility.yul\":11147:11196   */\n      iszero\n      tag_281\n      jumpi\n        /* \"#utility.yul\":11186:11194   */\n      dup2\n        /* \"#utility.yul\":11171:11194   */\n      swap1\n      pop\n        /* \"#utility.yul\":11147:11196   */\n    tag_281:\n        /* \"#utility.yul\":11209:11289   */\n      tag_282\n        /* \"#utility.yul\":11265:11287   */\n      tag_283\n        /* \"#utility.yul\":11283:11286   */\n      dup6\n        /* \"#utility.yul\":11265:11287   */\n      tag_129\n      jump\t// in\n    tag_283:\n        /* \"#utility.yul\":11255:11263   */\n      dup4\n        /* \"#utility.yul\":11251:11288   */\n      add\n        /* \"#utility.yul\":11238:11249   */\n      dup3\n        /* \"#utility.yul\":11209:11289   */\n      tag_138\n      jump\t// in\n    tag_282:\n        /* \"#utility.yul\":10868:11299   */\n      pop\n      pop\n        /* \"#utility.yul\":10853:11299   */\n    tag_278:\n        /* \"#utility.yul\":10763:11306   */\n      pop\n      pop\n      pop\n      jump\t// out\n        /* \"#utility.yul\":11312:11429   */\n    tag_140:\n        /* \"#utility.yul\":11366:11374   */\n      0x00\n        /* \"#utility.yul\":11416:11421   */\n      dup3\n        /* \"#utility.yul\":11410:11414   */\n      dup3\n        /* \"#utility.yul\":11406:11422   */\n      shr\n        /* \"#utility.yul\":11385:11422   */\n      swap1\n      pop\n        /* \"#utility.yul\":11312:11429   */\n      swap3\n      swap2\n      pop\n      pop\n      jump\t// out\n        /* \"#utility.yul\":11435:11604   */\n    tag_141:\n        /* \"#utility.yul\":11479:11485   */\n      0x00\n        /* \"#utility.yul\":11512:11563   */\n      tag_286\n        /* \"#utility.yul\":11560:11561   */\n      0x00\n        /* \"#utility.yul\":11556:11562   */\n      not\n        /* \"#utility.yul\":11548:11553   */\n      dup5\n        /* \"#utility.yul\":11545:11546   */\n      0x08\n        /* \"#utility.yul\":11541:11554   */\n      mul\n        /* \"#utility.yul\":11512:11563   */\n      tag_140\n      jump\t// in\n    tag_286:\n        /* \"#utility.yul\":11508:11564   */\n      not\n        /* \"#utility.yul\":11593:11597   */\n      dup1\n        /* \"#utility.yul\":11587:11591   */\n      dup4\n        /* \"#utility.yul\":11583:11598   */\n      and\n        /* \"#utility.yul\":11573:11598   */\n      swap2\n      pop\n        /* \"#utility.yul\":11486:11604   */\n      pop\n        /* \"#utility.yul\":11435:11604   */\n      swap3\n      swap2\n      pop\n      pop\n      jump\t// out\n        /* \"#utility.yul\":11609:11904   */\n    tag_142:\n        /* \"#utility.yul\":11685:11689   */\n      0x00\n        /* \"#utility.yul\":11831:11860   */\n      tag_288\n        /* \"#utility.yul\":11856:11859   */\n      dup4\n        /* \"#utility.yul\":11850:11854   */\n      dup4\n        /* \"#utility.yul\":11831:11860   */\n      tag_141\n      jump\t// in\n    tag_288:\n        /* \"#utility.yul\":11823:11860   */\n      swap2\n      pop\n        /* \"#utility.yul\":11893:11896   */\n      dup3\n        /* \"#utility.yul\":11890:11891   */\n      0x02\n        /* \"#utility.yul\":11886:11897   */\n      mul\n        /* \"#utility.yul\":11880:11884   */\n      dup3\n        /* \"#utility.yul\":11877:11898   */\n      or\n        /* \"#utility.yul\":11869:11898   */\n      swap1\n      pop\n        /* \"#utility.yul\":11609:11904   */\n      swap3\n      swap2\n      pop\n      pop\n      jump\t// out\n        /* \"#utility.yul\":11909:13304   */\n    tag_57:\n        /* \"#utility.yul\":12026:12063   */\n      tag_290\n        /* \"#utility.yul\":12059:12062   */\n      dup3\n        /* \"#utility.yul\":12026:12063   */\n      tag_110\n      jump\t// in\n    tag_290:\n        /* \"#utility.yul\":12128:12146   */\n      0xffffffffffffffff\n        /* \"#utility.yul\":12120:12126   */\n      dup2\n        /* \"#utility.yul\":12117:12147   */\n      gt\n        /* \"#utility.yul\":12114:12170   */\n      iszero\n      tag_291\n      jumpi\n        /* \"#utility.yul\":12150:12168   */\n      tag_292\n      tag_127\n      jump\t// in\n    tag_292:\n        /* \"#utility.yul\":12114:12170   */\n    tag_291:\n        /* \"#utility.yul\":12194:12232   */\n      tag_293\n        /* \"#utility.yul\":12226:12230   */\n      dup3\n        /* \"#utility.yul\":12220:12231   */\n      sload\n        /* \"#utility.yul\":12194:12232   */\n      tag_37\n      jump\t// in\n    tag_293:\n        /* \"#utility.yul\":12279:12346   */\n      tag_294\n        /* \"#utility.yul\":12339:12345   */\n      dup3\n        /* \"#utility.yul\":12331:12337   */\n      dup3\n        /* \"#utility.yul\":12325:12329   */\n      dup6\n        /* \"#utility.yul\":12279:12346   */\n      tag_139\n      jump\t// in\n    tag_294:\n        /* \"#utility.yul\":12373:12374   */\n      0x00\n        /* \"#utility.yul\":12397:12401   */\n      0x20\n        /* \"#utility.yul\":12384:12401   */\n      swap1\n      pop\n        /* \"#utility.yul\":12429:12431   */\n      0x1f\n        /* \"#utility.yul\":12421:12427   */\n      dup4\n        /* \"#utility.yul\":12418:12432   */\n      gt\n        /* \"#utility.yul\":12446:12447   */\n      0x01\n        /* \"#utility.yul\":12441:13059   */\n      dup2\n      eq\n      tag_296\n      jumpi\n        /* \"#utility.yul\":13103:13104   */\n      0x00\n        /* \"#utility.yul\":13120:13126   */\n      dup5\n        /* \"#utility.yul\":13117:13194   */\n      iszero\n      tag_297\n      jumpi\n        /* \"#utility.yul\":13169:13178   */\n      dup3\n        /* \"#utility.yul\":13164:13167   */\n      dup8\n        /* \"#utility.yul\":13160:13179   */\n      add\n        /* \"#utility.yul\":13154:13180   */\n      mload\n        /* \"#utility.yul\":13145:13180   */\n      swap1\n      pop\n        /* \"#utility.yul\":13117:13194   */\n    tag_297:\n        /* \"#utility.yul\":13220:13287   */\n      tag_298\n        /* \"#utility.yul\":13280:13286   */\n      dup6\n        /* \"#utility.yul\":13273:13278   */\n      dup3\n        /* \"#utility.yul\":13220:13287   */\n      tag_142\n      jump\t// in\n    tag_298:\n        /* \"#utility.yul\":13214:13218   */\n      dup7\n        /* \"#utility.yul\":13207:13288   */\n      sstore\n        /* \"#utility.yul\":13076:13298   */\n      pop\n        /* \"#utility.yul\":12411:13298   */\n      jump(tag_295)\n        /* \"#utility.yul\":12441:13059   */\n    tag_296:\n        /* \"#utility.yul\":12493:12497   */\n      0x1f\n        /* \"#utility.yul\":12489:12498   */\n      not\n        /* \"#utility.yul\":12481:12487   */\n      dup5\n        /* \"#utility.yul\":12477:12499   */\n      and\n        /* \"#utility.yul\":12527:12564   */\n      tag_299\n        /* \"#utility.yul\":12559:12563   */\n      dup7\n        /* \"#utility.yul\":12527:12564   */\n      tag_128\n      jump\t// in\n    tag_299:\n        /* \"#utility.yul\":12586:12587   */\n      0x00\n        /* \"#utility.yul\":12600:12808   */\n    tag_300:\n        /* \"#utility.yul\":12614:12621   */\n      dup3\n        /* \"#utility.yul\":12611:12612   */\n      dup2\n        /* \"#utility.yul\":12608:12622   */\n      lt\n        /* \"#utility.yul\":12600:12808   */\n      iszero\n      tag_302\n      jumpi\n        /* \"#utility.yul\":12693:12702   */\n      dup5\n        /* \"#utility.yul\":12688:12691   */\n      dup10\n        /* \"#utility.yul\":12684:12703   */\n      add\n        /* \"#utility.yul\":12678:12704   */\n      mload\n        /* \"#utility.yul\":12670:12676   */\n      dup3\n        /* \"#utility.yul\":12663:12705   */\n      sstore\n        /* \"#utility.yul\":12744:12745   */\n      0x01\n        /* \"#utility.yul\":12736:12742   */\n      dup3\n        /* \"#utility.yul\":12732:12746   */\n      add\n        /* \"#utility.yul\":12722:12746   */\n      swap2\n      pop\n        /* \"#utility.yul\":12791:12793   */\n      0x20\n        /* \"#utility.yul\":12780:12789   */\n      dup6\n        /* \"#utility.yul\":12776:12794   */\n      add\n        /* \"#utility.yul\":12763:12794   */\n      swap5\n      pop\n        /* \"#utility.yul\":12637:12641   */\n      0x20\n        /* \"#utility.yul\":12634:12635   */\n      dup2\n        /* \"#utility.yul\":12630:12642   */\n      add\n        /* \"#utility.yul\":12625:12642   */\n      swap1\n      pop\n        /* \"#utility.yul\":12600:12808   */\n      jump(tag_300)\n    tag_302:\n        /* \"#utility.yul\":12836:12842   */\n      dup7\n        /* \"#utility.yul\":12827:12834   */\n      dup4\n        /* \"#utility.yul\":12824:12843   */\n      lt\n        /* \"#utility.yul\":12821:13000   */\n      iszero\n      tag_303\n      jumpi\n        /* \"#utility.yul\":12894:12903   */\n      dup5\n        /* \"#utility.yul\":12889:12892   */\n      dup10\n        /* \"#utility.yul\":12885:12904   */\n      add\n        /* \"#utility.yul\":12879:12905   */\n      mload\n        /* \"#utility.yul\":12937:12985   */\n      tag_304\n        /* \"#utility.yul\":12979:12983   */\n      0x1f\n        /* \"#utility.yul\":12971:12977   */\n      dup10\n        /* \"#utility.yul\":12967:12984   */\n      and\n        /* \"#utility.yul\":12956:12965   */\n      dup3\n        /* \"#utility.yul\":12937:12985   */\n      tag_141\n      jump\t// in\n    tag_304:\n        /* \"#utility.yul\":12929:12935   */\n      dup4\n        /* \"#utility.yul\":12922:12986   */\n      sstore\n        /* \"#utility.yul\":12844:13000   */\n      pop\n        /* \"#utility.yul\":12821:13000   */\n    tag_303:\n        /* \"#utility.yul\":13046:13047   */\n      0x01\n        /* \"#utility.yul\":13042:13043   */\n      0x02\n        /* \"#utility.yul\":13034:13040   */\n      dup9\n        /* \"#utility.yul\":13030:13044   */\n      mul\n        /* \"#utility.yul\":13026:13048   */\n      add\n        /* \"#utility.yul\":13020:13024   */\n      dup9\n        /* \"#utility.yul\":13013:13049   */\n      sstore\n        /* \"#utility.yul\":12448:13059   */\n      pop\n      pop\n      pop\n        /* \"#utility.yul\":12411:13298   */\n    tag_295:\n      pop\n        /* \"#utility.yul\":12001:13304   */\n      pop\n      pop\n      pop\n        /* \"#utility.yul\":11909:13304   */\n      pop\n      pop\n      jump\t// out\n        /* \"#utility.yul\":13310:13458   */\n    tag_143:\n        /* \"#utility.yul\":13408:13414   */\n      dup3\n        /* \"#utility.yul\":13403:13406   */\n      dup2\n        /* \"#utility.yul\":13398:13401   */\n      dup4\n        /* \"#utility.yul\":13385:13415   */\n      calldatacopy\n        /* \"#utility.yul\":13449:13450   */\n      0x00\n        /* \"#utility.yul\":13440:13446   */\n      dup4\n        /* \"#utility.yul\":13435:13438   */\n      dup4\n        /* \"#utility.yul\":13431:13447   */\n      add\n        /* \"#utility.yul\":13424:13451   */\n      mstore\n        /* \"#utility.yul\":13310:13458   */\n      pop\n      pop\n      pop\n      jump\t// out\n        /* \"#utility.yul\":13488:13805   */\n    tag_144:\n        /* \"#utility.yul\":13586:13589   */\n      0x00\n        /* \"#utility.yul\":13607:13678   */\n      tag_307\n        /* \"#utility.yul\":13671:13677   */\n      dup4\n        /* \"#utility.yul\":13666:13669   */\n      dup6\n        /* \"#utility.yul\":13607:13678   */\n      tag_111\n      jump\t// in\n    tag_307:\n        /* \"#utility.yul\":13600:13678   */\n      swap4\n      pop\n        /* \"#utility.yul\":13688:13744   */\n      tag_308\n        /* \"#utility.yul\":13737:13743   */\n      dup4\n        /* \"#utility.yul\":13732:13735   */\n      dup6\n        /* \"#utility.yul\":13725:13730   */\n      dup5\n        /* \"#utility.yul\":13688:13744   */\n      tag_143\n      jump\t// in\n    tag_308:\n        /* \"#utility.yul\":13769:13798   */\n      tag_309\n        /* \"#utility.yul\":13791:13797   */\n      dup4\n        /* \"#utility.yul\":13769:13798   */\n      tag_113\n      jump\t// in\n    tag_309:\n        /* \"#utility.yul\":13764:13767   */\n      dup5\n        /* \"#utility.yul\":13760:13799   */\n      add\n        /* \"#utility.yul\":13753:13799   */\n      swap1\n      pop\n        /* \"#utility.yul\":13488:13805   */\n      swap4\n      swap3\n      pop\n      pop\n      pop\n      jump\t// out\n        /* \"#utility.yul\":13811:14697   */\n    tag_60:\n        /* \"#utility.yul\":14076:14080   */\n      0x00\n        /* \"#utility.yul\":14114:14117   */\n      0xa0\n        /* \"#utility.yul\":14103:14112   */\n      dup3\n        /* \"#utility.yul\":14099:14118   */\n      add\n        /* \"#utility.yul\":14091:14118   */\n      swap1\n      pop\n        /* \"#utility.yul\":14128:14199   */\n      tag_311\n        /* \"#utility.yul\":14196:14197   */\n      0x00\n        /* \"#utility.yul\":14185:14194   */\n      dup4\n        /* \"#utility.yul\":14181:14198   */\n      add\n        /* \"#utility.yul\":14172:14178   */\n      dup11\n        /* \"#utility.yul\":14128:14199   */\n      tag_106\n      jump\t// in\n    tag_311:\n        /* \"#utility.yul\":14209:14281   */\n      tag_312\n        /* \"#utility.yul\":14277:14279   */\n      0x20\n        /* \"#utility.yul\":14266:14275   */\n      dup4\n        /* \"#utility.yul\":14262:14280   */\n      add\n        /* \"#utility.yul\":14253:14259   */\n      dup10\n        /* \"#utility.yul\":14209:14281   */\n      tag_109\n      jump\t// in\n    tag_312:\n        /* \"#utility.yul\":14291:14363   */\n      tag_313\n        /* \"#utility.yul\":14359:14361   */\n      0x40\n        /* \"#utility.yul\":14348:14357   */\n      dup4\n        /* \"#utility.yul\":14344:14362   */\n      add\n        /* \"#utility.yul\":14335:14341   */\n      dup9\n        /* \"#utility.yul\":14291:14363   */\n      tag_106\n      jump\t// in\n    tag_313:\n        /* \"#utility.yul\":14410:14419   */\n      dup2\n        /* \"#utility.yul\":14404:14408   */\n      dup2\n        /* \"#utility.yul\":14400:14420   */\n      sub\n        /* \"#utility.yul\":14395:14397   */\n      0x60\n        /* \"#utility.yul\":14384:14393   */\n      dup4\n        /* \"#utility.yul\":14380:14398   */\n      add\n        /* \"#utility.yul\":14373:14421   */\n      mstore\n        /* \"#utility.yul\":14438:14526   */\n      tag_314\n        /* \"#utility.yul\":14521:14525   */\n      dup2\n        /* \"#utility.yul\":14512:14518   */\n      dup7\n        /* \"#utility.yul\":14504:14510   */\n      dup9\n        /* \"#utility.yul\":14438:14526   */\n      tag_144\n      jump\t// in\n    tag_314:\n        /* \"#utility.yul\":14430:14526   */\n      swap1\n      pop\n        /* \"#utility.yul\":14574:14583   */\n      dup2\n        /* \"#utility.yul\":14568:14572   */\n      dup2\n        /* \"#utility.yul\":14564:14584   */\n      sub\n        /* \"#utility.yul\":14558:14561   */\n      0x80\n        /* \"#utility.yul\":14547:14556   */\n      dup4\n        /* \"#utility.yul\":14543:14562   */\n      add\n        /* \"#utility.yul\":14536:14585   */\n      mstore\n        /* \"#utility.yul\":14602:14690   */\n      tag_315\n        /* \"#utility.yul\":14685:14689   */\n      dup2\n        /* \"#utility.yul\":14676:14682   */\n      dup5\n        /* \"#utility.yul\":14668:14674   */\n      dup7\n        /* \"#utility.yul\":14602:14690   */\n      tag_144\n      jump\t// in\n    tag_315:\n        /* \"#utility.yul\":14594:14690   */\n      swap1\n      pop\n        /* \"#utility.yul\":13811:14697   */\n      swap9\n      swap8\n      pop\n      pop\n      pop\n      pop\n      pop\n      pop\n      pop\n      pop\n      jump\t// out\n        /* \"#utility.yul\":14703:14923   */\n    tag_145:\n        /* \"#utility.yul\":14843:14877   */\n      0x4f6e6c792074686520636c69656e742063616e206465706f7369742066756e64\n        /* \"#utility.yul\":14839:14840   */\n      0x00\n        /* \"#utility.yul\":14831:14837   */\n      dup3\n        /* \"#utility.yul\":14827:14841   */\n      add\n        /* \"#utility.yul\":14820:14878   */\n      mstore\n        /* \"#utility.yul\":14912:14915   */\n      0x7300000000000000000000000000000000000000000000000000000000000000\n        /* \"#utility.yul\":14907:14909   */\n      0x20\n        /* \"#utility.yul\":14899:14905   */\n      dup3\n        /* \"#utility.yul\":14895:14910   */\n      add\n        /* \"#utility.yul\":14888:14916   */\n      mstore\n        /* \"#utility.yul\":14703:14923   */\n      pop\n      jump\t// out\n        /* \"#utility.yul\":14929:15295   */\n    tag_146:\n        /* \"#utility.yul\":15071:15074   */\n      0x00\n        /* \"#utility.yul\":15092:15159   */\n      tag_318\n        /* \"#utility.yul\":15156:15158   */\n      0x21\n        /* \"#utility.yul\":15151:15154   */\n      dup4\n        /* \"#utility.yul\":15092:15159   */\n      tag_111\n      jump\t// in\n    tag_318:\n        /* \"#utility.yul\":15085:15159   */\n      swap2\n      pop\n        /* \"#utility.yul\":15168:15261   */\n      tag_319\n        /* \"#utility.yul\":15257:15260   */\n      dup3\n        /* \"#utility.yul\":15168:15261   */\n      tag_145\n      jump\t// in\n    tag_319:\n        /* \"#utility.yul\":15286:15288   */\n      0x40\n        /* \"#utility.yul\":15281:15284   */\n      dup3\n        /* \"#utility.yul\":15277:15289   */\n      add\n        /* \"#utility.yul\":15270:15289   */\n      swap1\n      pop\n        /* \"#utility.yul\":14929:15295   */\n      swap2\n      swap1\n      pop\n      jump\t// out\n        /* \"#utility.yul\":15301:15720   */\n    tag_64:\n        /* \"#utility.yul\":15467:15471   */\n      0x00\n        /* \"#utility.yul\":15505:15507   */\n      0x20\n        /* \"#utility.yul\":15494:15503   */\n      dup3\n        /* \"#utility.yul\":15490:15508   */\n      add\n        /* \"#utility.yul\":15482:15508   */\n      swap1\n      pop\n        /* \"#utility.yul\":15554:15563   */\n      dup2\n        /* \"#utility.yul\":15548:15552   */\n      dup2\n        /* \"#utility.yul\":15544:15564   */\n      sub\n        /* \"#utility.yul\":15540:15541   */\n      0x00\n        /* \"#utility.yul\":15529:15538   */\n      dup4\n        /* \"#utility.yul\":15525:15542   */\n      add\n        /* \"#utility.yul\":15518:15565   */\n      mstore\n        /* \"#utility.yul\":15582:15713   */\n      tag_321\n        /* \"#utility.yul\":15708:15712   */\n      dup2\n        /* \"#utility.yul\":15582:15713   */\n      tag_146\n      jump\t// in\n    tag_321:\n        /* \"#utility.yul\":15574:15713   */\n      swap1\n      pop\n        /* \"#utility.yul\":15301:15720   */\n      swap2\n      swap1\n      pop\n      jump\t// out\n        /* \"#utility.yul\":15726:15900   */\n    tag_147:\n        /* \"#utility.yul\":15866:15892   */\n      0x496e636f7272656374206465706f73697420616d6f756e740000000000000000\n        /* \"#utility.yul\":15862:15863   */\n      0x00\n        /* \"#utility.yul\":15854:15860   */\n      dup3\n        /* \"#utility.yul\":15850:15864   */\n      add\n        /* \"#utility.yul\":15843:15893   */\n      mstore\n        /* \"#utility.yul\":15726:15900   */\n      pop\n      jump\t// out\n        /* \"#utility.yul\":15906:16272   */\n    tag_148:\n        /* \"#utility.yul\":16048:16051   */\n      0x00\n        /* \"#utility.yul\":16069:16136   */\n      tag_324\n        /* \"#utility.yul\":16133:16135   */\n      0x18\n        /* \"#utility.yul\":16128:16131   */\n      dup4\n        /* \"#utility.yul\":16069:16136   */\n      tag_111\n      jump\t// in\n    tag_324:\n        /* \"#utility.yul\":16062:16136   */\n      swap2\n      pop\n        /* \"#utility.yul\":16145:16238   */\n      tag_325\n        /* \"#utility.yul\":16234:16237   */\n      dup3\n        /* \"#utility.yul\":16145:16238   */\n      tag_147\n      jump\t// in\n    tag_325:\n        /* \"#utility.yul\":16263:16265   */\n      0x20\n        /* \"#utility.yul\":16258:16261   */\n      dup3\n        /* \"#utility.yul\":16254:16266   */\n      add\n        /* \"#utility.yul\":16247:16266   */\n      swap1\n      pop\n        /* \"#utility.yul\":15906:16272   */\n      swap2\n      swap1\n      pop\n      jump\t// out\n        /* \"#utility.yul\":16278:16697   */\n    tag_67:\n        /* \"#utility.yul\":16444:16448   */\n      0x00\n        /* \"#utility.yul\":16482:16484   */\n      0x20\n        /* \"#utility.yul\":16471:16480   */\n      dup3\n        /* \"#utility.yul\":16467:16485   */\n      add\n        /* \"#utility.yul\":16459:16485   */\n      swap1\n      pop\n        /* \"#utility.yul\":16531:16540   */\n      dup2\n        /* \"#utility.yul\":16525:16529   */\n      dup2\n        /* \"#utility.yul\":16521:16541   */\n      sub\n        /* \"#utility.yul\":16517:16518   */\n      0x00\n        /* \"#utility.yul\":16506:16515   */\n      dup4\n        /* \"#utility.yul\":16502:16519   */\n      add\n        /* \"#utility.yul\":16495:16542   */\n      mstore\n        /* \"#utility.yul\":16559:16690   */\n      tag_327\n        /* \"#utility.yul\":16685:16689   */\n      dup2\n        /* \"#utility.yul\":16559:16690   */\n      tag_148\n      jump\t// in\n    tag_327:\n        /* \"#utility.yul\":16551:16690   */\n      swap1\n      pop\n        /* \"#utility.yul\":16278:16697   */\n      swap2\n      swap1\n      pop\n      jump\t// out\n        /* \"#utility.yul\":16703:16883   */\n    tag_149:\n        /* \"#utility.yul\":16843:16875   */\n      0x4a6f6220686173206e6f20667265656c616e6365722061737369676e65640000\n        /* \"#utility.yul\":16839:16840   */\n      0x00\n        /* \"#utility.yul\":16831:16837   */\n      dup3\n        /* \"#utility.yul\":16827:16841   */\n      add\n        /* \"#utility.yul\":16820:16876   */\n      mstore\n        /* \"#utility.yul\":16703:16883   */\n      pop\n      jump\t// out\n        /* \"#utility.yul\":16889:17255   */\n    tag_150:\n        /* \"#utility.yul\":17031:17034   */\n      0x00\n        /* \"#utility.yul\":17052:17119   */\n      tag_330\n        /* \"#utility.yul\":17116:17118   */\n      0x1e\n        /* \"#utility.yul\":17111:17114   */\n      dup4\n        /* \"#utility.yul\":17052:17119   */\n      tag_111\n      jump\t// in\n    tag_330:\n        /* \"#utility.yul\":17045:17119   */\n      swap2\n      pop\n        /* \"#utility.yul\":17128:17221   */\n      tag_331\n        /* \"#utility.yul\":17217:17220   */\n      dup3\n        /* \"#utility.yul\":17128:17221   */\n      tag_149\n      jump\t// in\n    tag_331:\n        /* \"#utility.yul\":17246:17248   */\n      0x20\n        /* \"#utility.yul\":17241:17244   */\n      dup3\n        /* \"#utility.yul\":17237:17249   */\n      add\n        /* \"#utility.yul\":17230:17249   */\n      swap1\n      pop\n        /* \"#utility.yul\":16889:17255   */\n      swap2\n      swap1\n      pop\n      jump\t// out\n        /* \"#utility.yul\":17261:17680   */\n    tag_70:\n        /* \"#utility.yul\":17427:17431   */\n      0x00\n        /* \"#utility.yul\":17465:17467   */\n      0x20\n        /* \"#utility.yul\":17454:17463   */\n      dup3\n        /* \"#utility.yul\":17450:17468   */\n      add\n        /* \"#utility.yul\":17442:17468   */\n      swap1\n      pop\n        /* \"#utility.yul\":17514:17523   */\n      dup2\n        /* \"#utility.yul\":17508:17512   */\n      dup2\n        /* \"#utility.yul\":17504:17524   */\n      sub\n        /* \"#utility.yul\":17500:17501   */\n      0x00\n        /* \"#utility.yul\":17489:17498   */\n      dup4\n        /* \"#utility.yul\":17485:17502   */\n      add\n        /* \"#utility.yul\":17478:17525   */\n      mstore\n        /* \"#utility.yul\":17542:17673   */\n      tag_333\n        /* \"#utility.yul\":17668:17672   */\n      dup2\n        /* \"#utility.yul\":17542:17673   */\n      tag_150\n      jump\t// in\n    tag_333:\n        /* \"#utility.yul\":17534:17673   */\n      swap1\n      pop\n        /* \"#utility.yul\":17261:17680   */\n      swap2\n      swap1\n      pop\n      jump\t// out\n        /* \"#utility.yul\":17686:17906   */\n    tag_151:\n        /* \"#utility.yul\":17826:17860   */\n      0x4f6e6c792074686520636c69656e742063616e2072656c656173652066756e64\n        /* \"#utility.yul\":17822:17823   */\n      0x00\n        /* \"#utility.yul\":17814:17820   */\n      dup3\n        /* \"#utility.yul\":17810:17824   */\n      add\n        /* \"#utility.yul\":17803:17861   */\n      mstore\n        /* \"#utility.yul\":17895:17898   */\n      0x7300000000000000000000000000000000000000000000000000000000000000\n        /* \"#utility.yul\":17890:17892   */\n      0x20\n        /* \"#utility.yul\":17882:17888   */\n      dup3\n        /* \"#utility.yul\":17878:17893   */\n      add\n        /* \"#utility.yul\":17871:17899   */\n      mstore\n        /* \"#utility.yul\":17686:17906   */\n      pop\n      jump\t// out\n        /* \"#utility.yul\":17912:18278   */\n    tag_152:\n        /* \"#utility.yul\":18054:18057   */\n      0x00\n        /* \"#utility.yul\":18075:18142   */\n      tag_336\n        /* \"#utility.yul\":18139:18141   */\n      0x21\n        /* \"#utility.yul\":18134:18137   */\n      dup4\n        /* \"#utility.yul\":18075:18142   */\n      tag_111\n      jump\t// in\n    tag_336:\n        /* \"#utility.yul\":18068:18142   */\n      swap2\n      pop\n        /* \"#utility.yul\":18151:18244   */\n      tag_337\n        /* \"#utility.yul\":18240:18243   */\n      dup3\n        /* \"#utility.yul\":18151:18244   */\n      tag_151\n      jump\t// in\n    tag_337:\n        /* \"#utility.yul\":18269:18271   */\n      0x40\n        /* \"#utility.yul\":18264:18267   */\n      dup3\n        /* \"#utility.yul\":18260:18272   */\n      add\n        /* \"#utility.yul\":18253:18272   */\n      swap1\n      pop\n        /* \"#utility.yul\":17912:18278   */\n      swap2\n      swap1\n      pop\n      jump\t// out\n        /* \"#utility.yul\":18284:18703   */\n    tag_74:\n        /* \"#utility.yul\":18450:18454   */\n      0x00\n        /* \"#utility.yul\":18488:18490   */\n      0x20\n        /* \"#utility.yul\":18477:18486   */\n      dup3\n        /* \"#utility.yul\":18473:18491   */\n      add\n        /* \"#utility.yul\":18465:18491   */\n      swap1\n      pop\n        /* \"#utility.yul\":18537:18546   */\n      dup2\n        /* \"#utility.yul\":18531:18535   */\n      dup2\n        /* \"#utility.yul\":18527:18547   */\n      sub\n        /* \"#utility.yul\":18523:18524   */\n      0x00\n        /* \"#utility.yul\":18512:18521   */\n      dup4\n        /* \"#utility.yul\":18508:18525   */\n      add\n        /* \"#utility.yul\":18501:18548   */\n      mstore\n        /* \"#utility.yul\":18565:18696   */\n      tag_339\n        /* \"#utility.yul\":18691:18695   */\n      dup2\n        /* \"#utility.yul\":18565:18696   */\n      tag_152\n      jump\t// in\n    tag_339:\n        /* \"#utility.yul\":18557:18696   */\n      swap1\n      pop\n        /* \"#utility.yul\":18284:18703   */\n      swap2\n      swap1\n      pop\n      jump\t// out\n        /* \"#utility.yul\":18709:18881   */\n    tag_153:\n        /* \"#utility.yul\":18849:18873   */\n      0x46756e647320616c72656164792072656c656173656400000000000000000000\n        /* \"#utility.yul\":18845:18846   */\n      0x00\n        /* \"#utility.yul\":18837:18843   */\n      dup3\n        /* \"#utility.yul\":18833:18847   */\n      add\n        /* \"#utility.yul\":18826:18874   */\n      mstore\n        /* \"#utility.yul\":18709:18881   */\n      pop\n      jump\t// out\n        /* \"#utility.yul\":18887:19253   */\n    tag_154:\n        /* \"#utility.yul\":19029:19032   */\n      0x00\n        /* \"#utility.yul\":19050:19117   */\n      tag_342\n        /* \"#utility.yul\":19114:19116   */\n      0x16\n        /* \"#utility.yul\":19109:19112   */\n      dup4\n        /* \"#utility.yul\":19050:19117   */\n      tag_111\n      jump\t// in\n    tag_342:\n        /* \"#utility.yul\":19043:19117   */\n      swap2\n      pop\n        /* \"#utility.yul\":19126:19219   */\n      tag_343\n        /* \"#utility.yul\":19215:19218   */\n      dup3\n        /* \"#utility.yul\":19126:19219   */\n      tag_153\n      jump\t// in\n    tag_343:\n        /* \"#utility.yul\":19244:19246   */\n      0x20\n        /* \"#utility.yul\":19239:19242   */\n      dup3\n        /* \"#utility.yul\":19235:19247   */\n      add\n        /* \"#utility.yul\":19228:19247   */\n      swap1\n      pop\n        /* \"#utility.yul\":18887:19253   */\n      swap2\n      swap1\n      pop\n      jump\t// out\n        /* \"#utility.yul\":19259:19678   */\n    tag_77:\n        /* \"#utility.yul\":19425:19429   */\n      0x00\n        /* \"#utility.yul\":19463:19465   */\n      0x20\n        /* \"#utility.yul\":19452:19461   */\n      dup3\n        /* \"#utility.yul\":19448:19466   */\n      add\n        /* \"#utility.yul\":19440:19466   */\n      swap1\n      pop\n        /* \"#utility.yul\":19512:19521   */\n      dup2\n        /* \"#utility.yul\":19506:19510   */\n      dup2\n        /* \"#utility.yul\":19502:19522   */\n      sub\n        /* \"#utility.yul\":19498:19499   */\n      0x00\n        /* \"#utility.yul\":19487:19496   */\n      dup4\n        /* \"#utility.yul\":19483:19500   */\n      add\n        /* \"#utility.yul\":19476:19523   */\n      mstore\n        /* \"#utility.yul\":19540:19671   */\n      tag_345\n        /* \"#utility.yul\":19666:19670   */\n      dup2\n        /* \"#utility.yul\":19540:19671   */\n      tag_154\n      jump\t// in\n    tag_345:\n        /* \"#utility.yul\":19532:19671   */\n      swap1\n      pop\n        /* \"#utility.yul\":19259:19678   */\n      swap2\n      swap1\n      pop\n      jump\t// out\n        /* \"#utility.yul\":19684:19831   */\n    tag_155:\n        /* \"#utility.yul\":19785:19796   */\n      0x00\n        /* \"#utility.yul\":19822:19825   */\n      dup2\n        /* \"#utility.yul\":19807:19825   */\n      swap1\n      pop\n        /* \"#utility.yul\":19684:19831   */\n      swap3\n      swap2\n      pop\n      pop\n      jump\t// out\n        /* \"#utility.yul\":19837:19951   */\n    tag_156:\n      pop\n      jump\t// out\n        /* \"#utility.yul\":19957:20355   */\n    tag_157:\n        /* \"#utility.yul\":20116:20119   */\n      0x00\n        /* \"#utility.yul\":20137:20220   */\n      tag_349\n        /* \"#utility.yul\":20218:20219   */\n      0x00\n        /* \"#utility.yul\":20213:20216   */\n      dup4\n        /* \"#utility.yul\":20137:20220   */\n      tag_155\n      jump\t// in\n    tag_349:\n        /* \"#utility.yul\":20130:20220   */\n      swap2\n      pop\n        /* \"#utility.yul\":20229:20322   */\n      tag_350\n        /* \"#utility.yul\":20318:20321   */\n      dup3\n        /* \"#utility.yul\":20229:20322   */\n      tag_156\n      jump\t// in\n    tag_350:\n        /* \"#utility.yul\":20347:20348   */\n      0x00\n        /* \"#utility.yul\":20342:20345   */\n      dup3\n        /* \"#utility.yul\":20338:20349   */\n      add\n        /* \"#utility.yul\":20331:20349   */\n      swap1\n      pop\n        /* \"#utility.yul\":19957:20355   */\n      swap2\n      swap1\n      pop\n      jump\t// out\n        /* \"#utility.yul\":20361:20740   */\n    tag_79:\n        /* \"#utility.yul\":20545:20548   */\n      0x00\n        /* \"#utility.yul\":20567:20714   */\n      tag_352\n        /* \"#utility.yul\":20710:20713   */\n      dup3\n        /* \"#utility.yul\":20567:20714   */\n      tag_157\n      jump\t// in\n    tag_352:\n        /* \"#utility.yul\":20560:20714   */\n      swap2\n      pop\n        /* \"#utility.yul\":20731:20734   */\n      dup2\n        /* \"#utility.yul\":20724:20734   */\n      swap1\n      pop\n        /* \"#utility.yul\":20361:20740   */\n      swap2\n      swap1\n      pop\n      jump\t// out\n        /* \"#utility.yul\":20746:21078   */\n    tag_85:\n        /* \"#utility.yul\":20867:20871   */\n      0x00\n        /* \"#utility.yul\":20905:20907   */\n      0x40\n        /* \"#utility.yul\":20894:20903   */\n      dup3\n        /* \"#utility.yul\":20890:20908   */\n      add\n        /* \"#utility.yul\":20882:20908   */\n      swap1\n      pop\n        /* \"#utility.yul\":20918:20989   */\n      tag_354\n        /* \"#utility.yul\":20986:20987   */\n      0x00\n        /* \"#utility.yul\":20975:20984   */\n      dup4\n        /* \"#utility.yul\":20971:20988   */\n      add\n        /* \"#utility.yul\":20962:20968   */\n      dup6\n        /* \"#utility.yul\":20918:20989   */\n      tag_106\n      jump\t// in\n    tag_354:\n        /* \"#utility.yul\":20999:21071   */\n      tag_355\n        /* \"#utility.yul\":21067:21069   */\n      0x20\n        /* \"#utility.yul\":21056:21065   */\n      dup4\n        /* \"#utility.yul\":21052:21070   */\n      add\n        /* \"#utility.yul\":21043:21049   */\n      dup5\n        /* \"#utility.yul\":20999:21071   */\n      tag_109\n      jump\t// in\n    tag_355:\n        /* \"#utility.yul\":20746:21078   */\n      swap4\n      swap3\n      pop\n      pop\n      pop\n      jump\t// out\n        /* \"#utility.yul\":21084:21249   */\n    tag_158:\n        /* \"#utility.yul\":21224:21241   */\n      0x5472616e73666572206661696c65640000000000000000000000000000000000\n        /* \"#utility.yul\":21220:21221   */\n      0x00\n        /* \"#utility.yul\":21212:21218   */\n      dup3\n        /* \"#utility.yul\":21208:21222   */\n      add\n        /* \"#utility.yul\":21201:21242   */\n      mstore\n        /* \"#utility.yul\":21084:21249   */\n      pop\n      jump\t// out\n        /* \"#utility.yul\":21255:21621   */\n    tag_159:\n        /* \"#utility.yul\":21397:21400   */\n      0x00\n        /* \"#utility.yul\":21418:21485   */\n      tag_358\n        /* \"#utility.yul\":21482:21484   */\n      0x0f\n        /* \"#utility.yul\":21477:21480   */\n      dup4\n        /* \"#utility.yul\":21418:21485   */\n      tag_111\n      jump\t// in\n    tag_358:\n        /* \"#utility.yul\":21411:21485   */\n      swap2\n      pop\n        /* \"#utility.yul\":21494:21587   */\n      tag_359\n        /* \"#utility.yul\":21583:21586   */\n      dup3\n        /* \"#utility.yul\":21494:21587   */\n      tag_158\n      jump\t// in\n    tag_359:\n        /* \"#utility.yul\":21612:21614   */\n      0x20\n        /* \"#utility.yul\":21607:21610   */\n      dup3\n        /* \"#utility.yul\":21603:21615   */\n      add\n        /* \"#utility.yul\":21596:21615   */\n      swap1\n      pop\n        /* \"#utility.yul\":21255:21621   */\n      swap2\n      swap1\n      pop\n      jump\t// out\n        /* \"#utility.yul\":21627:22266   */\n    tag_88:\n        /* \"#utility.yul\":21849:21853   */\n      0x00\n        /* \"#utility.yul\":21887:21889   */\n      0x60\n        /* \"#utility.yul\":21876:21885   */\n      dup3\n        /* \"#utility.yul\":21872:21890   */\n      add\n        /* \"#utility.yul\":21864:21890   */\n      swap1\n      pop\n        /* \"#utility.yul\":21900:21971   */\n      tag_361\n        /* \"#utility.yul\":21968:21969   */\n      0x00\n        /* \"#utility.yul\":21957:21966   */\n      dup4\n        /* \"#utility.yul\":21953:21970   */\n      add\n        /* \"#utility.yul\":21944:21950   */\n      dup6\n        /* \"#utility.yul\":21900:21971   */\n      tag_106\n      jump\t// in\n    tag_361:\n        /* \"#utility.yul\":21981:22053   */\n      tag_362\n        /* \"#utility.yul\":22049:22051   */\n      0x20\n        /* \"#utility.yul\":22038:22047   */\n      dup4\n        /* \"#utility.yul\":22034:22052   */\n      add\n        /* \"#utility.yul\":22025:22031   */\n      dup5\n        /* \"#utility.yul\":21981:22053   */\n      tag_109\n      jump\t// in\n    tag_362:\n        /* \"#utility.yul\":22100:22109   */\n      dup2\n        /* \"#utility.yul\":22094:22098   */\n      dup2\n        /* \"#utility.yul\":22090:22110   */\n      sub\n        /* \"#utility.yul\":22085:22087   */\n      0x40\n        /* \"#utility.yul\":22074:22083   */\n      dup4\n        /* \"#utility.yul\":22070:22088   */\n      add\n        /* \"#utility.yul\":22063:22111   */\n      mstore\n        /* \"#utility.yul\":22128:22259   */\n      tag_363\n        /* \"#utility.yul\":22254:22258   */\n      dup2\n        /* \"#utility.yul\":22128:22259   */\n      tag_159\n      jump\t// in\n    tag_363:\n        /* \"#utility.yul\":22120:22259   */\n      swap1\n      pop\n        /* \"#utility.yul\":21627:22266   */\n      swap4\n      swap3\n      pop\n      pop\n      pop\n      jump\t// out\n        /* \"#utility.yul\":22272:22440   */\n    tag_160:\n        /* \"#utility.yul\":22412:22432   */\n      0x4a6f6220646f6573206e6f742065786973740000000000000000000000000000\n        /* \"#utility.yul\":22408:22409   */\n      0x00\n        /* \"#utility.yul\":22400:22406   */\n      dup3\n        /* \"#utility.yul\":22396:22410   */\n      add\n        /* \"#utility.yul\":22389:22433   */\n      mstore\n        /* \"#utility.yul\":22272:22440   */\n      pop\n      jump\t// out\n        /* \"#utility.yul\":22446:22812   */\n    tag_161:\n        /* \"#utility.yul\":22588:22591   */\n      0x00\n        /* \"#utility.yul\":22609:22676   */\n      tag_366\n        /* \"#utility.yul\":22673:22675   */\n      0x12\n        /* \"#utility.yul\":22668:22671   */\n      dup4\n        /* \"#utility.yul\":22609:22676   */\n      tag_111\n      jump\t// in\n    tag_366:\n        /* \"#utility.yul\":22602:22676   */\n      swap2\n      pop\n        /* \"#utility.yul\":22685:22778   */\n      tag_367\n        /* \"#utility.yul\":22774:22777   */\n      dup3\n        /* \"#utility.yul\":22685:22778   */\n      tag_160\n      jump\t// in\n    tag_367:\n        /* \"#utility.yul\":22803:22805   */\n      0x20\n        /* \"#utility.yul\":22798:22801   */\n      dup3\n        /* \"#utility.yul\":22794:22806   */\n      add\n        /* \"#utility.yul\":22787:22806   */\n      swap1\n      pop\n        /* \"#utility.yul\":22446:22812   */\n      swap2\n      swap1\n      pop\n      jump\t// out\n        /* \"#utility.yul\":22818:23237   */\n    tag_92:\n        /* \"#utility.yul\":22984:22988   */\n      0x00\n        /* \"#utility.yul\":23022:23024   */\n      0x20\n        /* \"#utility.yul\":23011:23020   */\n      dup3\n        /* \"#utility.yul\":23007:23025   */\n      add\n        /* \"#utility.yul\":22999:23025   */\n      swap1\n      pop\n        /* \"#utility.yul\":23071:23080   */\n      dup2\n        /* \"#utility.yul\":23065:23069   */\n      dup2\n        /* \"#utility.yul\":23061:23081   */\n      sub\n        /* \"#utility.yul\":23057:23058   */\n      0x00\n        /* \"#utility.yul\":23046:23055   */\n      dup4\n        /* \"#utility.yul\":23042:23059   */\n      add\n        /* \"#utility.yul\":23035:23082   */\n      mstore\n        /* \"#utility.yul\":23099:23230   */\n      tag_369\n        /* \"#utility.yul\":23225:23229   */\n      dup2\n        /* \"#utility.yul\":23099:23230   */\n      tag_161\n      jump\t// in\n    tag_369:\n        /* \"#utility.yul\":23091:23230   */\n      swap1\n      pop\n        /* \"#utility.yul\":22818:23237   */\n      swap2\n      swap1\n      pop\n      jump\t// out\n        /* \"#utility.yul\":23243:23413   */\n    tag_162:\n        /* \"#utility.yul\":23383:23405   */\n      0x4a6f6220616c7265616479206163636570746564000000000000000000000000\n        /* \"#utility.yul\":23379:23380   */\n      0x00\n        /* \"#utility.yul\":23371:23377   */\n      dup3\n        /* \"#utility.yul\":23367:23381   */\n      add\n        /* \"#utility.yul\":23360:23406   */\n      mstore\n        /* \"#utility.yul\":23243:23413   */\n      pop\n      jump\t// out\n        /* \"#utility.yul\":23419:23785   */\n    tag_163:\n        /* \"#utility.yul\":23561:23564   */\n      0x00\n        /* \"#utility.yul\":23582:23649   */\n      tag_372\n        /* \"#utility.yul\":23646:23648   */\n      0x14\n        /* \"#utility.yul\":23641:23644   */\n      dup4\n        /* \"#utility.yul\":23582:23649   */\n      tag_111\n      jump\t// in\n    tag_372:\n        /* \"#utility.yul\":23575:23649   */\n      swap2\n      pop\n        /* \"#utility.yul\":23658:23751   */\n      tag_373\n        /* \"#utility.yul\":23747:23750   */\n      dup3\n        /* \"#utility.yul\":23658:23751   */\n      tag_162\n      jump\t// in\n    tag_373:\n        /* \"#utility.yul\":23776:23778   */\n      0x20\n        /* \"#utility.yul\":23771:23774   */\n      dup3\n        /* \"#utility.yul\":23767:23779   */\n      add\n        /* \"#utility.yul\":23760:23779   */\n      swap1\n      pop\n        /* \"#utility.yul\":23419:23785   */\n      swap2\n      swap1\n      pop\n      jump\t// out\n        /* \"#utility.yul\":23791:24210   */\n    tag_95:\n        /* \"#utility.yul\":23957:23961   */\n      0x00\n        /* \"#utility.yul\":23995:23997   */\n      0x20\n        /* \"#utility.yul\":23984:23993   */\n      dup3\n        /* \"#utility.yul\":23980:23998   */\n      add\n        /* \"#utility.yul\":23972:23998   */\n      swap1\n      pop\n        /* \"#utility.yul\":24044:24053   */\n      dup2\n        /* \"#utility.yul\":24038:24042   */\n      dup2\n        /* \"#utility.yul\":24034:24054   */\n      sub\n        /* \"#utility.yul\":24030:24031   */\n      0x00\n        /* \"#utility.yul\":24019:24028   */\n      dup4\n        /* \"#utility.yul\":24015:24032   */\n      add\n        /* \"#utility.yul\":24008:24055   */\n      mstore\n        /* \"#utility.yul\":24072:24203   */\n      tag_375\n        /* \"#utility.yul\":24198:24202   */\n      dup2\n        /* \"#utility.yul\":24072:24203   */\n      tag_163\n      jump\t// in\n    tag_375:\n        /* \"#utility.yul\":24064:24203   */\n      swap1\n      pop\n        /* \"#utility.yul\":23791:24210   */\n      swap2\n      swap1\n      pop\n      jump\t// out\n        /* \"#utility.yul\":24216:24437   */\n    tag_164:\n        /* \"#utility.yul\":24356:24390   */\n      0x436c69656e742063616e6e6f7420616363657074207468656972206f776e206a\n        /* \"#utility.yul\":24352:24353   */\n      0x00\n        /* \"#utility.yul\":24344:24350   */\n      dup3\n        /* \"#utility.yul\":24340:24354   */\n      add\n        /* \"#utility.yul\":24333:24391   */\n      mstore\n        /* \"#utility.yul\":24425:24429   */\n      0x6f62000000000000000000000000000000000000000000000000000000000000\n        /* \"#utility.yul\":24420:24422   */\n      0x20\n        /* \"#utility.yul\":24412:24418   */\n      dup3\n        /* \"#utility.yul\":24408:24423   */\n      add\n        /* \"#utility.yul\":24401:24430   */\n      mstore\n        /* \"#utility.yul\":24216:24437   */\n      pop\n      jump\t// out\n        /* \"#utility.yul\":24443:24809   */\n    tag_165:\n        /* \"#utility.yul\":24585:24588   */\n      0x00\n        /* \"#utility.yul\":24606:24673   */\n      tag_378\n        /* \"#utility.yul\":24670:24672   */\n      0x22\n        /* \"#utility.yul\":24665:24668   */\n      dup4\n        /* \"#utility.yul\":24606:24673   */\n      tag_111\n      jump\t// in\n    tag_378:\n        /* \"#utility.yul\":24599:24673   */\n      swap2\n      pop\n        /* \"#utility.yul\":24682:24775   */\n      tag_379\n        /* \"#utility.yul\":24771:24774   */\n      dup3\n        /* \"#utility.yul\":24682:24775   */\n      tag_164\n      jump\t// in\n    tag_379:\n        /* \"#utility.yul\":24800:24802   */\n      0x40\n        /* \"#utility.yul\":24795:24798   */\n      dup3\n        /* \"#utility.yul\":24791:24803   */\n      add\n        /* \"#utility.yul\":24784:24803   */\n      swap1\n      pop\n        /* \"#utility.yul\":24443:24809   */\n      swap2\n      swap1\n      pop\n      jump\t// out\n        /* \"#utility.yul\":24815:25234   */\n    tag_98:\n        /* \"#utility.yul\":24981:24985   */\n      0x00\n        /* \"#utility.yul\":25019:25021   */\n      0x20\n        /* \"#utility.yul\":25008:25017   */\n      dup3\n        /* \"#utility.yul\":25004:25022   */\n      add\n        /* \"#utility.yul\":24996:25022   */\n      swap1\n      pop\n        /* \"#utility.yul\":25068:25077   */\n      dup2\n        /* \"#utility.yul\":25062:25066   */\n      dup2\n        /* \"#utility.yul\":25058:25078   */\n      sub\n        /* \"#utility.yul\":25054:25055   */\n      0x00\n        /* \"#utility.yul\":25043:25052   */\n      dup4\n        /* \"#utility.yul\":25039:25056   */\n      add\n        /* \"#utility.yul\":25032:25079   */\n      mstore\n        /* \"#utility.yul\":25096:25227   */\n      tag_381\n        /* \"#utility.yul\":25222:25226   */\n      dup2\n        /* \"#utility.yul\":25096:25227   */\n      tag_165\n      jump\t// in\n    tag_381:\n        /* \"#utility.yul\":25088:25227   */\n      swap1\n      pop\n        /* \"#utility.yul\":24815:25234   */\n      swap2\n      swap1\n      pop\n      jump\t// out\n\n    auxdata: 0xa2646970667358221220d2daf5322948fad8b13ab5f4e89405be63bdb3d0a1d3b079433c289c44628d4064736f6c634300081a0033\n}\n",
				"bytecode": {
					"linkReferences": {},
					"object": "6080604052348015600e575f80fd5b506118798061001c5f395ff3fe608060405260043610610054575f3560e01c8063180aedf3146100585780632a240c7f1461009a5780633b76594d146100c25780634d68282f146100de57806350355d761461010657806363b2f3c914610130575b5f80fd5b348015610063575f80fd5b5061007e60048036038101906100799190610c45565b610158565b6040516100919796959493929190610d48565b60405180910390f35b3480156100a5575f80fd5b506100c060048036038101906100bb9190610e24565b6102ec565b005b6100dc60048036038101906100d79190610c45565b6105ba565b005b3480156100e9575f80fd5b5061010460048036038101906100ff9190610c45565b61073a565b005b348015610111575f80fd5b5061011a6109bf565b6040516101279190610eb5565b60405180910390f35b34801561013b575f80fd5b5061015660048036038101906101519190610c45565b6109c4565b005b6001602052805f5260405f205f91509050805f015490806001015f9054906101000a900473ffffffffffffffffffffffffffffffffffffffff1690806002015f9054906101000a900473ffffffffffffffffffffffffffffffffffffffff16908060030154908060040180546101cd90610efb565b80601f01602080910402602001604051908101604052809291908181526020018280546101f990610efb565b80156102445780601f1061021b57610100808354040283529160200191610244565b820191905f5260205f20905b81548152906001019060200180831161022757829003601f168201915b50505050509080600501805461025990610efb565b80601f016020809104026020016040519081016040528092919081815260200182805461028590610efb565b80156102d05780601f106102a7576101008083540402835291602001916102d0565b820191905f5260205f20905b8154815290600101906020018083116102b357829003601f168201915b505050505090806006015f9054906101000a900460ff16905087565b5f851161032e576040517f08c379a000000000000000000000000000000000000000000000000000000000815260040161032590610f75565b60405180910390fd5b5f8484905011610373576040517f08c379a000000000000000000000000000000000000000000000000000000000815260040161036a90610fdd565b60405180910390fd5b5f8081548092919061038490611028565b91905055506040518060e001604052805f5481526020013373ffffffffffffffffffffffffffffffffffffffff1681526020015f73ffffffffffffffffffffffffffffffffffffffff16815260200186815260200185858080601f0160208091040260200160405190810160405280939291908181526020018383808284375f81840152601f19601f82011690508083019250505050505050815260200183838080601f0160208091040260200160405190810160405280939291908181526020018383808284375f81840152601f19601f8201169050808301925050505050505081526020015f151581525060015f805481526020019081526020015f205f820151815f01556020820151816001015f6101000a81548173ffffffffffffffffffffffffffffffffffffffff021916908373ffffffffffffffffffffffffffffffffffffffff1602179055506040820151816002015f6101000a81548173ffffffffffffffffffffffffffffffffffffffff021916908373ffffffffffffffffffffffffffffffffffffffff1602179055506060820151816003015560808201518160040190816105369190611239565b5060a082015181600501908161054c9190611239565b5060c0820151816006015f6101000a81548160ff0219169083151502179055509050507f2ef6e44516c8fbdb66063bce9f07343790986232b32468d3c44239b3f1b14de25f543387878787876040516105ab9796959493929190611342565b60405180910390a15050505050565b5f60015f8381526020019081526020015f2090503373ffffffffffffffffffffffffffffffffffffffff16816001015f9054906101000a900473ffffffffffffffffffffffffffffffffffffffff1673ffffffffffffffffffffffffffffffffffffffff161461065f576040517f08c379a000000000000000000000000000000000000000000000000000000000815260040161065690611415565b60405180910390fd5b806003015434146106a5576040517f08c379a000000000000000000000000000000000000000000000000000000000815260040161069c9061147d565b60405180910390fd5b5f73ffffffffffffffffffffffffffffffffffffffff16816002015f9054906101000a900473ffffffffffffffffffffffffffffffffffffffff1673ffffffffffffffffffffffffffffffffffffffff1603610736576040517f08c379a000000000000000000000000000000000000000000000000000000000815260040161072d906114e5565b60405180910390fd5b5050565b5f60015f8381526020019081526020015f209050806001015f9054906101000a900473ffffffffffffffffffffffffffffffffffffffff1673ffffffffffffffffffffffffffffffffffffffff163373ffffffffffffffffffffffffffffffffffffffff16146107df576040517f08c379a00000000000000000000000000000000000000000000000000000000081526004016107d690611573565b60405180910390fd5b806006015f9054906101000a900460ff1615610830576040517f08c379a0000000000000000000000000000000000000000000000000000000008152600401610827906115db565b60405180910390fd5b6001816006015f6101000a81548160ff0219169083151502179055505f816002015f9054906101000a900473ffffffffffffffffffffffffffffffffffffffff1673ffffffffffffffffffffffffffffffffffffffff16826003015460405161089890611626565b5f6040518083038185875af1925050503d805f81146108d2576040519150601f19603f3d011682016040523d82523d5f602084013e6108d7565b606091505b505090508015610942577f8f5073d0a7a22ba450e278541077e181af457be74bea91e61f1f99e6bb40748e83836002015f9054906101000a900473ffffffffffffffffffffffffffffffffffffffff1660405161093592919061163a565b60405180910390a16109ba565b5f826006015f6101000a81548160ff0219169083151502179055507f83deb24faa7754b454fa82047ea1d7bf3a027868213eb8632b142cb1679828f083836002015f9054906101000a900473ffffffffffffffffffffffffffffffffffffffff166040516109b19291906116ab565b60405180910390a15b505050565b5f5481565b5f60015f8381526020019081526020015f2090505f73ffffffffffffffffffffffffffffffffffffffff16816001015f9054906101000a900473ffffffffffffffffffffffffffffffffffffffff1673ffffffffffffffffffffffffffffffffffffffff1603610a69576040517f08c379a0000000000000000000000000000000000000000000000000000000008152600401610a609061172f565b60405180910390fd5b5f73ffffffffffffffffffffffffffffffffffffffff16816002015f9054906101000a900473ffffffffffffffffffffffffffffffffffffffff1673ffffffffffffffffffffffffffffffffffffffff1614610afa576040517f08c379a0000000000000000000000000000000000000000000000000000000008152600401610af190611797565b60405180910390fd5b806001015f9054906101000a900473ffffffffffffffffffffffffffffffffffffffff1673ffffffffffffffffffffffffffffffffffffffff163373ffffffffffffffffffffffffffffffffffffffff1603610b8b576040517f08c379a0000000000000000000000000000000000000000000000000000000008152600401610b8290611825565b60405180910390fd5b33816002015f6101000a81548173ffffffffffffffffffffffffffffffffffffffff021916908373ffffffffffffffffffffffffffffffffffffffff1602179055507f4426e4a90a9570c8f678a263b11785eaaade8b79d76d18c43d4d8e00062e4f838233604051610bfe92919061163a565b60405180910390a15050565b5f80fd5b5f80fd5b5f819050919050565b610c2481610c12565b8114610c2e575f80fd5b50565b5f81359050610c3f81610c1b565b92915050565b5f60208284031215610c5a57610c59610c0a565b5b5f610c6784828501610c31565b91505092915050565b610c7981610c12565b82525050565b5f73ffffffffffffffffffffffffffffffffffffffff82169050919050565b5f610ca882610c7f565b9050919050565b610cb881610c9e565b82525050565b5f81519050919050565b5f82825260208201905092915050565b8281835e5f83830152505050565b5f601f19601f8301169050919050565b5f610d0082610cbe565b610d0a8185610cc8565b9350610d1a818560208601610cd8565b610d2381610ce6565b840191505092915050565b5f8115159050919050565b610d4281610d2e565b82525050565b5f60e082019050610d5b5f83018a610c70565b610d686020830189610caf565b610d756040830188610caf565b610d826060830187610c70565b8181036080830152610d948186610cf6565b905081810360a0830152610da88185610cf6565b9050610db760c0830184610d39565b98975050505050505050565b5f80fd5b5f80fd5b5f80fd5b5f8083601f840112610de457610de3610dc3565b5b8235905067ffffffffffffffff811115610e0157610e00610dc7565b5b602083019150836001820283011115610e1d57610e1c610dcb565b5b9250929050565b5f805f805f60608688031215610e3d57610e3c610c0a565b5b5f610e4a88828901610c31565b955050602086013567ffffffffffffffff811115610e6b57610e6a610c0e565b5b610e7788828901610dcf565b9450945050604086013567ffffffffffffffff811115610e9a57610e99610c0e565b5b610ea688828901610dcf565b92509250509295509295909350565b5f602082019050610ec85f830184610c70565b92915050565b7f4e487b71000000000000000000000000000000000000000000000000000000005f52602260045260245ffd5b5f6002820490506001821680610f1257607f821691505b602082108103610f2557610f24610ece565b5b50919050565b7f427564676574206d7573742062652067726561746572207468616e207a65726f5f82015250565b5f610f5f602083610cc8565b9150610f6a82610f2b565b602082019050919050565b5f6020820190508181035f830152610f8c81610f53565b9050919050565b7f5469746c652069732072657175697265640000000000000000000000000000005f82015250565b5f610fc7601183610cc8565b9150610fd282610f93565b602082019050919050565b5f6020820190508181035f830152610ff481610fbb565b9050919050565b7f4e487b71000000000000000000000000000000000000000000000000000000005f52601160045260245ffd5b5f61103282610c12565b91507fffffffffffffffffffffffffffffffffffffffffffffffffffffffffffffffff820361106457611063610ffb565b5b600182019050919050565b7f4e487b71000000000000000000000000000000000000000000000000000000005f52604160045260245ffd5b5f819050815f5260205f209050919050565b5f6020601f8301049050919050565b5f82821b905092915050565b5f600883026110f87fffffffffffffffffffffffffffffffffffffffffffffffffffffffffffffffff826110bd565b61110286836110bd565b95508019841693508086168417925050509392505050565b5f819050919050565b5f61113d61113861113384610c12565b61111a565b610c12565b9050919050565b5f819050919050565b61115683611123565b61116a61116282611144565b8484546110c9565b825550505050565b5f90565b61117e611172565b61118981848461114d565b505050565b5b818110156111ac576111a15f82611176565b60018101905061118f565b5050565b601f8211156111f1576111c28161109c565b6111cb846110ae565b810160208510156111da578190505b6111ee6111e6856110ae565b83018261118e565b50505b505050565b5f82821c905092915050565b5f6112115f19846008026111f6565b1980831691505092915050565b5f6112298383611202565b9150826002028217905092915050565b61124282610cbe565b67ffffffffffffffff81111561125b5761125a61106f565b5b6112658254610efb565b6112708282856111b0565b5f60209050601f8311600181146112a1575f841561128f578287015190505b611299858261121e565b865550611300565b601f1984166112af8661109c565b5f5b828110156112d6578489015182556001820191506020850194506020810190506112b1565b868310156112f357848901516112ef601f891682611202565b8355505b6001600288020188555050505b505050505050565b828183375f83830152505050565b5f6113218385610cc8565b935061132e838584611308565b61133783610ce6565b840190509392505050565b5f60a0820190506113555f83018a610c70565b6113626020830189610caf565b61136f6040830188610c70565b8181036060830152611382818688611316565b90508181036080830152611397818486611316565b905098975050505050505050565b7f4f6e6c792074686520636c69656e742063616e206465706f7369742066756e645f8201527f7300000000000000000000000000000000000000000000000000000000000000602082015250565b5f6113ff602183610cc8565b915061140a826113a5565b604082019050919050565b5f6020820190508181035f83015261142c816113f3565b9050919050565b7f496e636f7272656374206465706f73697420616d6f756e7400000000000000005f82015250565b5f611467601883610cc8565b915061147282611433565b602082019050919050565b5f6020820190508181035f8301526114948161145b565b9050919050565b7f4a6f6220686173206e6f20667265656c616e6365722061737369676e656400005f82015250565b5f6114cf601e83610cc8565b91506114da8261149b565b602082019050919050565b5f6020820190508181035f8301526114fc816114c3565b9050919050565b7f4f6e6c792074686520636c69656e742063616e2072656c656173652066756e645f8201527f7300000000000000000000000000000000000000000000000000000000000000602082015250565b5f61155d602183610cc8565b915061156882611503565b604082019050919050565b5f6020820190508181035f83015261158a81611551565b9050919050565b7f46756e647320616c72656164792072656c6561736564000000000000000000005f82015250565b5f6115c5601683610cc8565b91506115d082611591565b602082019050919050565b5f6020820190508181035f8301526115f2816115b9565b9050919050565b5f81905092915050565b50565b5f6116115f836115f9565b915061161c82611603565b5f82019050919050565b5f61163082611606565b9150819050919050565b5f60408201905061164d5f830185610c70565b61165a6020830184610caf565b9392505050565b7f5472616e73666572206661696c656400000000000000000000000000000000005f82015250565b5f611695600f83610cc8565b91506116a082611661565b602082019050919050565b5f6060820190506116be5f830185610c70565b6116cb6020830184610caf565b81810360408301526116dc81611689565b90509392505050565b7f4a6f6220646f6573206e6f7420657869737400000000000000000000000000005f82015250565b5f611719601283610cc8565b9150611724826116e5565b602082019050919050565b5f6020820190508181035f8301526117468161170d565b9050919050565b7f4a6f6220616c72656164792061636365707465640000000000000000000000005f82015250565b5f611781601483610cc8565b915061178c8261174d565b602082019050919050565b5f6020820190508181035f8301526117ae81611775565b9050919050565b7f436c69656e742063616e6e6f7420616363657074207468656972206f776e206a5f8201527f6f62000000000000000000000000000000000000000000000000000000000000602082015250565b5f61180f602283610cc8565b915061181a826117b5565b604082019050919050565b5f6020820190508181035f83015261183c81611803565b905091905056fea2646970667358221220d2daf5322948fad8b13ab5f4e89405be63bdb3d0a1d3b079433c289c44628d4064736f6c634300081a0033",
					"opcodes": "PUSH1 0x80 PUSH1 0x40 MSTORE CALLVALUE DUP1 ISZERO PUSH1 0xE JUMPI PUSH0 DUP1 REVERT JUMPDEST POP PUSH2 0x1879 DUP1 PUSH2 0x1C PUSH0 CODECOPY PUSH0 RETURN INVALID PUSH1 0x80 PUSH1 0x40 MSTORE PUSH1 0x4 CALLDATASIZE LT PUSH2 0x54 JUMPI PUSH0 CALLDATALOAD PUSH1 0xE0 SHR DUP1 PUSH4 0x180AEDF3 EQ PUSH2 0x58 JUMPI DUP1 PUSH4 0x2A240C7F EQ PUSH2 0x9A JUMPI DUP1 PUSH4 0x3B76594D EQ PUSH2 0xC2 JUMPI DUP1 PUSH4 0x4D68282F EQ PUSH2 0xDE JUMPI DUP1 PUSH4 0x50355D76 EQ PUSH2 0x106 JUMPI DUP1 PUSH4 0x63B2F3C9 EQ PUSH2 0x130 JUMPI JUMPDEST PUSH0 DUP1 REVERT JUMPDEST CALLVALUE DUP1 ISZERO PUSH2 0x63 JUMPI PUSH0 DUP1 REVERT JUMPDEST POP PUSH2 0x7E PUSH1 0x4 DUP1 CALLDATASIZE SUB DUP2 ADD SWAP1 PUSH2 0x79 SWAP2 SWAP1 PUSH2 0xC45 JUMP JUMPDEST PUSH2 0x158 JUMP JUMPDEST PUSH1 0x40 MLOAD PUSH2 0x91 SWAP8 SWAP7 SWAP6 SWAP5 SWAP4 SWAP3 SWAP2 SWAP1 PUSH2 0xD48 JUMP JUMPDEST PUSH1 0x40 MLOAD DUP1 SWAP2 SUB SWAP1 RETURN JUMPDEST CALLVALUE DUP1 ISZERO PUSH2 0xA5 JUMPI PUSH0 DUP1 REVERT JUMPDEST POP PUSH2 0xC0 PUSH1 0x4 DUP1 CALLDATASIZE SUB DUP2 ADD SWAP1 PUSH2 0xBB SWAP2 SWAP1 PUSH2 0xE24 JUMP JUMPDEST PUSH2 0x2EC JUMP JUMPDEST STOP JUMPDEST PUSH2 0xDC PUSH1 0x4 DUP1 CALLDATASIZE SUB DUP2 ADD SWAP1 PUSH2 0xD7 SWAP2 SWAP1 PUSH2 0xC45 JUMP JUMPDEST PUSH2 0x5BA JUMP JUMPDEST STOP JUMPDEST CALLVALUE DUP1 ISZERO PUSH2 0xE9 JUMPI PUSH0 DUP1 REVERT JUMPDEST POP PUSH2 0x104 PUSH1 0x4 DUP1 CALLDATASIZE SUB DUP2 ADD SWAP1 PUSH2 0xFF SWAP2 SWAP1 PUSH2 0xC45 JUMP JUMPDEST PUSH2 0x73A JUMP JUMPDEST STOP JUMPDEST CALLVALUE DUP1 ISZERO PUSH2 0x111 JUMPI PUSH0 DUP1 REVERT JUMPDEST POP PUSH2 0x11A PUSH2 0x9BF JUMP JUMPDEST PUSH1 0x40 MLOAD PUSH2 0x127 SWAP2 SWAP1 PUSH2 0xEB5 JUMP JUMPDEST PUSH1 0x40 MLOAD DUP1 SWAP2 SUB SWAP1 RETURN JUMPDEST CALLVALUE DUP1 ISZERO PUSH2 0x13B JUMPI PUSH0 DUP1 REVERT JUMPDEST POP PUSH2 0x156 PUSH1 0x4 DUP1 CALLDATASIZE SUB DUP2 ADD SWAP1 PUSH2 0x151 SWAP2 SWAP1 PUSH2 0xC45 JUMP JUMPDEST PUSH2 0x9C4 JUMP JUMPDEST STOP JUMPDEST PUSH1 0x1 PUSH1 0x20 MSTORE DUP1 PUSH0 MSTORE PUSH1 0x40 PUSH0 KECCAK256 PUSH0 SWAP2 POP SWAP1 POP DUP1 PUSH0 ADD SLOAD SWAP1 DUP1 PUSH1 0x1 ADD PUSH0 SWAP1 SLOAD SWAP1 PUSH2 0x100 EXP SWAP1 DIV PUSH20 0xFFFFFFFFFFFFFFFFFFFFFFFFFFFFFFFFFFFFFFFF AND SWAP1 DUP1 PUSH1 0x2 ADD PUSH0 SWAP1 SLOAD SWAP1 PUSH2 0x100 EXP SWAP1 DIV PUSH20 0xFFFFFFFFFFFFFFFFFFFFFFFFFFFFFFFFFFFFFFFF AND SWAP1 DUP1 PUSH1 0x3 ADD SLOAD SWAP1 DUP1 PUSH1 0x4 ADD DUP1 SLOAD PUSH2 0x1CD SWAP1 PUSH2 0xEFB JUMP JUMPDEST DUP1 PUSH1 0x1F ADD PUSH1 0x20 DUP1 SWAP2 DIV MUL PUSH1 0x20 ADD PUSH1 0x40 MLOAD SWAP1 DUP2 ADD PUSH1 0x40 MSTORE DUP1 SWAP3 SWAP2 SWAP1 DUP2 DUP2 MSTORE PUSH1 0x20 ADD DUP3 DUP1 SLOAD PUSH2 0x1F9 SWAP1 PUSH2 0xEFB JUMP JUMPDEST DUP1 ISZERO PUSH2 0x244 JUMPI DUP1 PUSH1 0x1F LT PUSH2 0x21B JUMPI PUSH2 0x100 DUP1 DUP4 SLOAD DIV MUL DUP4 MSTORE SWAP2 PUSH1 0x20 ADD SWAP2 PUSH2 0x244 JUMP JUMPDEST DUP3 ADD SWAP2 SWAP1 PUSH0 MSTORE PUSH1 0x20 PUSH0 KECCAK256 SWAP1 JUMPDEST DUP2 SLOAD DUP2 MSTORE SWAP1 PUSH1 0x1 ADD SWAP1 PUSH1 0x20 ADD DUP1 DUP4 GT PUSH2 0x227 JUMPI DUP3 SWAP1 SUB PUSH1 0x1F AND DUP3 ADD SWAP2 JUMPDEST POP POP POP POP POP SWAP1 DUP1 PUSH1 0x5 ADD DUP1 SLOAD PUSH2 0x259 SWAP1 PUSH2 0xEFB JUMP JUMPDEST DUP1 PUSH1 0x1F ADD PUSH1 0x20 DUP1 SWAP2 DIV MUL PUSH1 0x20 ADD PUSH1 0x40 MLOAD SWAP1 DUP2 ADD PUSH1 0x40 MSTORE DUP1 SWAP3 SWAP2 SWAP1 DUP2 DUP2 MSTORE PUSH1 0x20 ADD DUP3 DUP1 SLOAD PUSH2 0x285 SWAP1 PUSH2 0xEFB JUMP JUMPDEST DUP1 ISZERO PUSH2 0x2D0 JUMPI DUP1 PUSH1 0x1F LT PUSH2 0x2A7 JUMPI PUSH2 0x100 DUP1 DUP4 SLOAD DIV MUL DUP4 MSTORE SWAP2 PUSH1 0x20 ADD SWAP2 PUSH2 0x2D0 JUMP JUMPDEST DUP3 ADD SWAP2 SWAP1 PUSH0 MSTORE PUSH1 0x20 PUSH0 KECCAK256 SWAP1 JUMPDEST DUP2 SLOAD DUP2 MSTORE SWAP1 PUSH1 0x1 ADD SWAP1 PUSH1 0x20 ADD DUP1 DUP4 GT PUSH2 0x2B3 JUMPI DUP3 SWAP1 SUB PUSH1 0x1F AND DUP3 ADD SWAP2 JUMPDEST POP POP POP POP POP SWAP1 DUP1 PUSH1 0x6 ADD PUSH0 SWAP1 SLOAD SWAP1 PUSH2 0x100 EXP SWAP1 DIV PUSH1 0xFF AND SWAP1 POP DUP8 JUMP JUMPDEST PUSH0 DUP6 GT PUSH2 0x32E JUMPI PUSH1 0x40 MLOAD PUSH32 0x8C379A000000000000000000000000000000000000000000000000000000000 DUP2 MSTORE PUSH1 0x4 ADD PUSH2 0x325 SWAP1 PUSH2 0xF75 JUMP JUMPDEST PUSH1 0x40 MLOAD DUP1 SWAP2 SUB SWAP1 REVERT JUMPDEST PUSH0 DUP5 DUP5 SWAP1 POP GT PUSH2 0x373 JUMPI PUSH1 0x40 MLOAD PUSH32 0x8C379A000000000000000000000000000000000000000000000000000000000 DUP2 MSTORE PUSH1 0x4 ADD PUSH2 0x36A SWAP1 PUSH2 0xFDD JUMP JUMPDEST PUSH1 0x40 MLOAD DUP1 SWAP2 SUB SWAP1 REVERT JUMPDEST PUSH0 DUP1 DUP2 SLOAD DUP1 SWAP3 SWAP2 SWAP1 PUSH2 0x384 SWAP1 PUSH2 0x1028 JUMP JUMPDEST SWAP2 SWAP1 POP SSTORE POP PUSH1 0x40 MLOAD DUP1 PUSH1 0xE0 ADD PUSH1 0x40 MSTORE DUP1 PUSH0 SLOAD DUP2 MSTORE PUSH1 0x20 ADD CALLER PUSH20 0xFFFFFFFFFFFFFFFFFFFFFFFFFFFFFFFFFFFFFFFF AND DUP2 MSTORE PUSH1 0x20 ADD PUSH0 PUSH20 0xFFFFFFFFFFFFFFFFFFFFFFFFFFFFFFFFFFFFFFFF AND DUP2 MSTORE PUSH1 0x20 ADD DUP7 DUP2 MSTORE PUSH1 0x20 ADD DUP6 DUP6 DUP1 DUP1 PUSH1 0x1F ADD PUSH1 0x20 DUP1 SWAP2 DIV MUL PUSH1 0x20 ADD PUSH1 0x40 MLOAD SWAP1 DUP2 ADD PUSH1 0x40 MSTORE DUP1 SWAP4 SWAP3 SWAP2 SWAP1 DUP2 DUP2 MSTORE PUSH1 0x20 ADD DUP4 DUP4 DUP1 DUP3 DUP5 CALLDATACOPY PUSH0 DUP2 DUP5 ADD MSTORE PUSH1 0x1F NOT PUSH1 0x1F DUP3 ADD AND SWAP1 POP DUP1 DUP4 ADD SWAP3 POP POP POP POP POP POP POP DUP2 MSTORE PUSH1 0x20 ADD DUP4 DUP4 DUP1 DUP1 PUSH1 0x1F ADD PUSH1 0x20 DUP1 SWAP2 DIV MUL PUSH1 0x20 ADD PUSH1 0x40 MLOAD SWAP1 DUP2 ADD PUSH1 0x40 MSTORE DUP1 SWAP4 SWAP3 SWAP2 SWAP1 DUP2 DUP2 MSTORE PUSH1 0x20 ADD DUP4 DUP4 DUP1 DUP3 DUP5 CALLDATACOPY PUSH0 DUP2 DUP5 ADD MSTORE PUSH1 0x1F NOT PUSH1 0x1F DUP3 ADD AND SWAP1 POP DUP1 DUP4 ADD SWAP3 POP POP POP POP POP POP POP DUP2 MSTORE PUSH1 0x20 ADD PUSH0 ISZERO ISZERO DUP2 MSTORE POP PUSH1 0x1 PUSH0 DUP1 SLOAD DUP2 MSTORE PUSH1 0x20 ADD SWAP1 DUP2 MSTORE PUSH1 0x20 ADD PUSH0 KECCAK256 PUSH0 DUP3 ADD MLOAD DUP2 PUSH0 ADD SSTORE PUSH1 0x20 DUP3 ADD MLOAD DUP2 PUSH1 0x1 ADD PUSH0 PUSH2 0x100 EXP DUP2 SLOAD DUP2 PUSH20 0xFFFFFFFFFFFFFFFFFFFFFFFFFFFFFFFFFFFFFFFF MUL NOT AND SWAP1 DUP4 PUSH20 0xFFFFFFFFFFFFFFFFFFFFFFFFFFFFFFFFFFFFFFFF AND MUL OR SWAP1 SSTORE POP PUSH1 0x40 DUP3 ADD MLOAD DUP2 PUSH1 0x2 ADD PUSH0 PUSH2 0x100 EXP DUP2 SLOAD DUP2 PUSH20 0xFFFFFFFFFFFFFFFFFFFFFFFFFFFFFFFFFFFFFFFF MUL NOT AND SWAP1 DUP4 PUSH20 0xFFFFFFFFFFFFFFFFFFFFFFFFFFFFFFFFFFFFFFFF AND MUL OR SWAP1 SSTORE POP PUSH1 0x60 DUP3 ADD MLOAD DUP2 PUSH1 0x3 ADD SSTORE PUSH1 0x80 DUP3 ADD MLOAD DUP2 PUSH1 0x4 ADD SWAP1 DUP2 PUSH2 0x536 SWAP2 SWAP1 PUSH2 0x1239 JUMP JUMPDEST POP PUSH1 0xA0 DUP3 ADD MLOAD DUP2 PUSH1 0x5 ADD SWAP1 DUP2 PUSH2 0x54C SWAP2 SWAP1 PUSH2 0x1239 JUMP JUMPDEST POP PUSH1 0xC0 DUP3 ADD MLOAD DUP2 PUSH1 0x6 ADD PUSH0 PUSH2 0x100 EXP DUP2 SLOAD DUP2 PUSH1 0xFF MUL NOT AND SWAP1 DUP4 ISZERO ISZERO MUL OR SWAP1 SSTORE POP SWAP1 POP POP PUSH32 0x2EF6E44516C8FBDB66063BCE9F07343790986232B32468D3C44239B3F1B14DE2 PUSH0 SLOAD CALLER DUP8 DUP8 DUP8 DUP8 DUP8 PUSH1 0x40 MLOAD PUSH2 0x5AB SWAP8 SWAP7 SWAP6 SWAP5 SWAP4 SWAP3 SWAP2 SWAP1 PUSH2 0x1342 JUMP JUMPDEST PUSH1 0x40 MLOAD DUP1 SWAP2 SUB SWAP1 LOG1 POP POP POP POP POP JUMP JUMPDEST PUSH0 PUSH1 0x1 PUSH0 DUP4 DUP2 MSTORE PUSH1 0x20 ADD SWAP1 DUP2 MSTORE PUSH1 0x20 ADD PUSH0 KECCAK256 SWAP1 POP CALLER PUSH20 0xFFFFFFFFFFFFFFFFFFFFFFFFFFFFFFFFFFFFFFFF AND DUP2 PUSH1 0x1 ADD PUSH0 SWAP1 SLOAD SWAP1 PUSH2 0x100 EXP SWAP1 DIV PUSH20 0xFFFFFFFFFFFFFFFFFFFFFFFFFFFFFFFFFFFFFFFF AND PUSH20 0xFFFFFFFFFFFFFFFFFFFFFFFFFFFFFFFFFFFFFFFF AND EQ PUSH2 0x65F JUMPI PUSH1 0x40 MLOAD PUSH32 0x8C379A000000000000000000000000000000000000000000000000000000000 DUP2 MSTORE PUSH1 0x4 ADD PUSH2 0x656 SWAP1 PUSH2 0x1415 JUMP JUMPDEST PUSH1 0x40 MLOAD DUP1 SWAP2 SUB SWAP1 REVERT JUMPDEST DUP1 PUSH1 0x3 ADD SLOAD CALLVALUE EQ PUSH2 0x6A5 JUMPI PUSH1 0x40 MLOAD PUSH32 0x8C379A000000000000000000000000000000000000000000000000000000000 DUP2 MSTORE PUSH1 0x4 ADD PUSH2 0x69C SWAP1 PUSH2 0x147D JUMP JUMPDEST PUSH1 0x40 MLOAD DUP1 SWAP2 SUB SWAP1 REVERT JUMPDEST PUSH0 PUSH20 0xFFFFFFFFFFFFFFFFFFFFFFFFFFFFFFFFFFFFFFFF AND DUP2 PUSH1 0x2 ADD PUSH0 SWAP1 SLOAD SWAP1 PUSH2 0x100 EXP SWAP1 DIV PUSH20 0xFFFFFFFFFFFFFFFFFFFFFFFFFFFFFFFFFFFFFFFF AND PUSH20 0xFFFFFFFFFFFFFFFFFFFFFFFFFFFFFFFFFFFFFFFF AND SUB PUSH2 0x736 JUMPI PUSH1 0x40 MLOAD PUSH32 0x8C379A000000000000000000000000000000000000000000000000000000000 DUP2 MSTORE PUSH1 0x4 ADD PUSH2 0x72D SWAP1 PUSH2 0x14E5 JUMP JUMPDEST PUSH1 0x40 MLOAD DUP1 SWAP2 SUB SWAP1 REVERT JUMPDEST POP POP JUMP JUMPDEST PUSH0 PUSH1 0x1 PUSH0 DUP4 DUP2 MSTORE PUSH1 0x20 ADD SWAP1 DUP2 MSTORE PUSH1 0x20 ADD PUSH0 KECCAK256 SWAP1 POP DUP1 PUSH1 0x1 ADD PUSH0 SWAP1 SLOAD SWAP1 PUSH2 0x100 EXP SWAP1 DIV PUSH20 0xFFFFFFFFFFFFFFFFFFFFFFFFFFFFFFFFFFFFFFFF AND PUSH20 0xFFFFFFFFFFFFFFFFFFFFFFFFFFFFFFFFFFFFFFFF AND CALLER PUSH20 0xFFFFFFFFFFFFFFFFFFFFFFFFFFFFFFFFFFFFFFFF AND EQ PUSH2 0x7DF JUMPI PUSH1 0x40 MLOAD PUSH32 0x8C379A000000000000000000000000000000000000000000000000000000000 DUP2 MSTORE PUSH1 0x4 ADD PUSH2 0x7D6 SWAP1 PUSH2 0x1573 JUMP JUMPDEST PUSH1 0x40 MLOAD DUP1 SWAP2 SUB SWAP1 REVERT JUMPDEST DUP1 PUSH1 0x6 ADD PUSH0 SWAP1 SLOAD SWAP1 PUSH2 0x100 EXP SWAP1 DIV PUSH1 0xFF AND ISZERO PUSH2 0x830 JUMPI PUSH1 0x40 MLOAD PUSH32 0x8C379A000000000000000000000000000000000000000000000000000000000 DUP2 MSTORE PUSH1 0x4 ADD PUSH2 0x827 SWAP1 PUSH2 0x15DB JUMP JUMPDEST PUSH1 0x40 MLOAD DUP1 SWAP2 SUB SWAP1 REVERT JUMPDEST PUSH1 0x1 DUP2 PUSH1 0x6 ADD PUSH0 PUSH2 0x100 EXP DUP2 SLOAD DUP2 PUSH1 0xFF MUL NOT AND SWAP1 DUP4 ISZERO ISZERO MUL OR SWAP1 SSTORE POP PUSH0 DUP2 PUSH1 0x2 ADD PUSH0 SWAP1 SLOAD SWAP1 PUSH2 0x100 EXP SWAP1 DIV PUSH20 0xFFFFFFFFFFFFFFFFFFFFFFFFFFFFFFFFFFFFFFFF AND PUSH20 0xFFFFFFFFFFFFFFFFFFFFFFFFFFFFFFFFFFFFFFFF AND DUP3 PUSH1 0x3 ADD SLOAD PUSH1 0x40 MLOAD PUSH2 0x898 SWAP1 PUSH2 0x1626 JUMP JUMPDEST PUSH0 PUSH1 0x40 MLOAD DUP1 DUP4 SUB DUP2 DUP6 DUP8 GAS CALL SWAP3 POP POP POP RETURNDATASIZE DUP1 PUSH0 DUP2 EQ PUSH2 0x8D2 JUMPI PUSH1 0x40 MLOAD SWAP2 POP PUSH1 0x1F NOT PUSH1 0x3F RETURNDATASIZE ADD AND DUP3 ADD PUSH1 0x40 MSTORE RETURNDATASIZE DUP3 MSTORE RETURNDATASIZE PUSH0 PUSH1 0x20 DUP5 ADD RETURNDATACOPY PUSH2 0x8D7 JUMP JUMPDEST PUSH1 0x60 SWAP2 POP JUMPDEST POP POP SWAP1 POP DUP1 ISZERO PUSH2 0x942 JUMPI PUSH32 0x8F5073D0A7A22BA450E278541077E181AF457BE74BEA91E61F1F99E6BB40748E DUP4 DUP4 PUSH1 0x2 ADD PUSH0 SWAP1 SLOAD SWAP1 PUSH2 0x100 EXP SWAP1 DIV PUSH20 0xFFFFFFFFFFFFFFFFFFFFFFFFFFFFFFFFFFFFFFFF AND PUSH1 0x40 MLOAD PUSH2 0x935 SWAP3 SWAP2 SWAP1 PUSH2 0x163A JUMP JUMPDEST PUSH1 0x40 MLOAD DUP1 SWAP2 SUB SWAP1 LOG1 PUSH2 0x9BA JUMP JUMPDEST PUSH0 DUP3 PUSH1 0x6 ADD PUSH0 PUSH2 0x100 EXP DUP2 SLOAD DUP2 PUSH1 0xFF MUL NOT AND SWAP1 DUP4 ISZERO ISZERO MUL OR SWAP1 SSTORE POP PUSH32 0x83DEB24FAA7754B454FA82047EA1D7BF3A027868213EB8632B142CB1679828F0 DUP4 DUP4 PUSH1 0x2 ADD PUSH0 SWAP1 SLOAD SWAP1 PUSH2 0x100 EXP SWAP1 DIV PUSH20 0xFFFFFFFFFFFFFFFFFFFFFFFFFFFFFFFFFFFFFFFF AND PUSH1 0x40 MLOAD PUSH2 0x9B1 SWAP3 SWAP2 SWAP1 PUSH2 0x16AB JUMP JUMPDEST PUSH1 0x40 MLOAD DUP1 SWAP2 SUB SWAP1 LOG1 JUMPDEST POP POP POP JUMP JUMPDEST PUSH0 SLOAD DUP2 JUMP JUMPDEST PUSH0 PUSH1 0x1 PUSH0 DUP4 DUP2 MSTORE PUSH1 0x20 ADD SWAP1 DUP2 MSTORE PUSH1 0x20 ADD PUSH0 KECCAK256 SWAP1 POP PUSH0 PUSH20 0xFFFFFFFFFFFFFFFFFFFFFFFFFFFFFFFFFFFFFFFF AND DUP2 PUSH1 0x1 ADD PUSH0 SWAP1 SLOAD SWAP1 PUSH2 0x100 EXP SWAP1 DIV PUSH20 0xFFFFFFFFFFFFFFFFFFFFFFFFFFFFFFFFFFFFFFFF AND PUSH20 0xFFFFFFFFFFFFFFFFFFFFFFFFFFFFFFFFFFFFFFFF AND SUB PUSH2 0xA69 JUMPI PUSH1 0x40 MLOAD PUSH32 0x8C379A000000000000000000000000000000000000000000000000000000000 DUP2 MSTORE PUSH1 0x4 ADD PUSH2 0xA60 SWAP1 PUSH2 0x172F JUMP JUMPDEST PUSH1 0x40 MLOAD DUP1 SWAP2 SUB SWAP1 REVERT JUMPDEST PUSH0 PUSH20 0xFFFFFFFFFFFFFFFFFFFFFFFFFFFFFFFFFFFFFFFF AND DUP2 PUSH1 0x2 ADD PUSH0 SWAP1 SLOAD SWAP1 PUSH2 0x100 EXP SWAP1 DIV PUSH20 0xFFFFFFFFFFFFFFFFFFFFFFFFFFFFFFFFFFFFFFFF AND PUSH20 0xFFFFFFFFFFFFFFFFFFFFFFFFFFFFFFFFFFFFFFFF AND EQ PUSH2 0xAFA JUMPI PUSH1 0x40 MLOAD PUSH32 0x8C379A000000000000000000000000000000000000000000000000000000000 DUP2 MSTORE PUSH1 0x4 ADD PUSH2 0xAF1 SWAP1 PUSH2 0x1797 JUMP JUMPDEST PUSH1 0x40 MLOAD DUP1 SWAP2 SUB SWAP1 REVERT JUMPDEST DUP1 PUSH1 0x1 ADD PUSH0 SWAP1 SLOAD SWAP1 PUSH2 0x100 EXP SWAP1 DIV PUSH20 0xFFFFFFFFFFFFFFFFFFFFFFFFFFFFFFFFFFFFFFFF AND PUSH20 0xFFFFFFFFFFFFFFFFFFFFFFFFFFFFFFFFFFFFFFFF AND CALLER PUSH20 0xFFFFFFFFFFFFFFFFFFFFFFFFFFFFFFFFFFFFFFFF AND SUB PUSH2 0xB8B JUMPI PUSH1 0x40 MLOAD PUSH32 0x8C379A000000000000000000000000000000000000000000000000000000000 DUP2 MSTORE PUSH1 0x4 ADD PUSH2 0xB82 SWAP1 PUSH2 0x1825 JUMP JUMPDEST PUSH1 0x40 MLOAD DUP1 SWAP2 SUB SWAP1 REVERT JUMPDEST CALLER DUP2 PUSH1 0x2 ADD PUSH0 PUSH2 0x100 EXP DUP2 SLOAD DUP2 PUSH20 0xFFFFFFFFFFFFFFFFFFFFFFFFFFFFFFFFFFFFFFFF MUL NOT AND SWAP1 DUP4 PUSH20 0xFFFFFFFFFFFFFFFFFFFFFFFFFFFFFFFFFFFFFFFF AND MUL OR SWAP1 SSTORE POP PUSH32 0x4426E4A90A9570C8F678A263B11785EAAADE8B79D76D18C43D4D8E00062E4F83 DUP3 CALLER PUSH1 0x40 MLOAD PUSH2 0xBFE SWAP3 SWAP2 SWAP1 PUSH2 0x163A JUMP JUMPDEST PUSH1 0x40 MLOAD DUP1 SWAP2 SUB SWAP1 LOG1 POP POP JUMP JUMPDEST PUSH0 DUP1 REVERT JUMPDEST PUSH0 DUP1 REVERT JUMPDEST PUSH0 DUP2 SWAP1 POP SWAP2 SWAP1 POP JUMP JUMPDEST PUSH2 0xC24 DUP2 PUSH2 0xC12 JUMP JUMPDEST DUP2 EQ PUSH2 0xC2E JUMPI PUSH0 DUP1 REVERT JUMPDEST POP JUMP JUMPDEST PUSH0 DUP2 CALLDATALOAD SWAP1 POP PUSH2 0xC3F DUP2 PUSH2 0xC1B JUMP JUMPDEST SWAP3 SWAP2 POP POP JUMP JUMPDEST PUSH0 PUSH1 0x20 DUP3 DUP5 SUB SLT ISZERO PUSH2 0xC5A JUMPI PUSH2 0xC59 PUSH2 0xC0A JUMP JUMPDEST JUMPDEST PUSH0 PUSH2 0xC67 DUP5 DUP3 DUP6 ADD PUSH2 0xC31 JUMP JUMPDEST SWAP2 POP POP SWAP3 SWAP2 POP POP JUMP JUMPDEST PUSH2 0xC79 DUP2 PUSH2 0xC12 JUMP JUMPDEST DUP3 MSTORE POP POP JUMP JUMPDEST PUSH0 PUSH20 0xFFFFFFFFFFFFFFFFFFFFFFFFFFFFFFFFFFFFFFFF DUP3 AND SWAP1 POP SWAP2 SWAP1 POP JUMP JUMPDEST PUSH0 PUSH2 0xCA8 DUP3 PUSH2 0xC7F JUMP JUMPDEST SWAP1 POP SWAP2 SWAP1 POP JUMP JUMPDEST PUSH2 0xCB8 DUP2 PUSH2 0xC9E JUMP JUMPDEST DUP3 MSTORE POP POP JUMP JUMPDEST PUSH0 DUP2 MLOAD SWAP1 POP SWAP2 SWAP1 POP JUMP JUMPDEST PUSH0 DUP3 DUP3 MSTORE PUSH1 0x20 DUP3 ADD SWAP1 POP SWAP3 SWAP2 POP POP JUMP JUMPDEST DUP3 DUP2 DUP4 MCOPY PUSH0 DUP4 DUP4 ADD MSTORE POP POP POP JUMP JUMPDEST PUSH0 PUSH1 0x1F NOT PUSH1 0x1F DUP4 ADD AND SWAP1 POP SWAP2 SWAP1 POP JUMP JUMPDEST PUSH0 PUSH2 0xD00 DUP3 PUSH2 0xCBE JUMP JUMPDEST PUSH2 0xD0A DUP2 DUP6 PUSH2 0xCC8 JUMP JUMPDEST SWAP4 POP PUSH2 0xD1A DUP2 DUP6 PUSH1 0x20 DUP7 ADD PUSH2 0xCD8 JUMP JUMPDEST PUSH2 0xD23 DUP2 PUSH2 0xCE6 JUMP JUMPDEST DUP5 ADD SWAP2 POP POP SWAP3 SWAP2 POP POP JUMP JUMPDEST PUSH0 DUP2 ISZERO ISZERO SWAP1 POP SWAP2 SWAP1 POP JUMP JUMPDEST PUSH2 0xD42 DUP2 PUSH2 0xD2E JUMP JUMPDEST DUP3 MSTORE POP POP JUMP JUMPDEST PUSH0 PUSH1 0xE0 DUP3 ADD SWAP1 POP PUSH2 0xD5B PUSH0 DUP4 ADD DUP11 PUSH2 0xC70 JUMP JUMPDEST PUSH2 0xD68 PUSH1 0x20 DUP4 ADD DUP10 PUSH2 0xCAF JUMP JUMPDEST PUSH2 0xD75 PUSH1 0x40 DUP4 ADD DUP9 PUSH2 0xCAF JUMP JUMPDEST PUSH2 0xD82 PUSH1 0x60 DUP4 ADD DUP8 PUSH2 0xC70 JUMP JUMPDEST DUP2 DUP2 SUB PUSH1 0x80 DUP4 ADD MSTORE PUSH2 0xD94 DUP2 DUP7 PUSH2 0xCF6 JUMP JUMPDEST SWAP1 POP DUP2 DUP2 SUB PUSH1 0xA0 DUP4 ADD MSTORE PUSH2 0xDA8 DUP2 DUP6 PUSH2 0xCF6 JUMP JUMPDEST SWAP1 POP PUSH2 0xDB7 PUSH1 0xC0 DUP4 ADD DUP5 PUSH2 0xD39 JUMP JUMPDEST SWAP9 SWAP8 POP POP POP POP POP POP POP POP JUMP JUMPDEST PUSH0 DUP1 REVERT JUMPDEST PUSH0 DUP1 REVERT JUMPDEST PUSH0 DUP1 REVERT JUMPDEST PUSH0 DUP1 DUP4 PUSH1 0x1F DUP5 ADD SLT PUSH2 0xDE4 JUMPI PUSH2 0xDE3 PUSH2 0xDC3 JUMP JUMPDEST JUMPDEST DUP3 CALLDATALOAD SWAP1 POP PUSH8 0xFFFFFFFFFFFFFFFF DUP2 GT ISZERO PUSH2 0xE01 JUMPI PUSH2 0xE00 PUSH2 0xDC7 JUMP JUMPDEST JUMPDEST PUSH1 0x20 DUP4 ADD SWAP2 POP DUP4 PUSH1 0x1 DUP3 MUL DUP4 ADD GT ISZERO PUSH2 0xE1D JUMPI PUSH2 0xE1C PUSH2 0xDCB JUMP JUMPDEST JUMPDEST SWAP3 POP SWAP3 SWAP1 POP JUMP JUMPDEST PUSH0 DUP1 PUSH0 DUP1 PUSH0 PUSH1 0x60 DUP7 DUP9 SUB SLT ISZERO PUSH2 0xE3D JUMPI PUSH2 0xE3C PUSH2 0xC0A JUMP JUMPDEST JUMPDEST PUSH0 PUSH2 0xE4A DUP9 DUP3 DUP10 ADD PUSH2 0xC31 JUMP JUMPDEST SWAP6 POP POP PUSH1 0x20 DUP7 ADD CALLDATALOAD PUSH8 0xFFFFFFFFFFFFFFFF DUP2 GT ISZERO PUSH2 0xE6B JUMPI PUSH2 0xE6A PUSH2 0xC0E JUMP JUMPDEST JUMPDEST PUSH2 0xE77 DUP9 DUP3 DUP10 ADD PUSH2 0xDCF JUMP JUMPDEST SWAP5 POP SWAP5 POP POP PUSH1 0x40 DUP7 ADD CALLDATALOAD PUSH8 0xFFFFFFFFFFFFFFFF DUP2 GT ISZERO PUSH2 0xE9A JUMPI PUSH2 0xE99 PUSH2 0xC0E JUMP JUMPDEST JUMPDEST PUSH2 0xEA6 DUP9 DUP3 DUP10 ADD PUSH2 0xDCF JUMP JUMPDEST SWAP3 POP SWAP3 POP POP SWAP3 SWAP6 POP SWAP3 SWAP6 SWAP1 SWAP4 POP JUMP JUMPDEST PUSH0 PUSH1 0x20 DUP3 ADD SWAP1 POP PUSH2 0xEC8 PUSH0 DUP4 ADD DUP5 PUSH2 0xC70 JUMP JUMPDEST SWAP3 SWAP2 POP POP JUMP JUMPDEST PUSH32 0x4E487B7100000000000000000000000000000000000000000000000000000000 PUSH0 MSTORE PUSH1 0x22 PUSH1 0x4 MSTORE PUSH1 0x24 PUSH0 REVERT JUMPDEST PUSH0 PUSH1 0x2 DUP3 DIV SWAP1 POP PUSH1 0x1 DUP3 AND DUP1 PUSH2 0xF12 JUMPI PUSH1 0x7F DUP3 AND SWAP2 POP JUMPDEST PUSH1 0x20 DUP3 LT DUP2 SUB PUSH2 0xF25 JUMPI PUSH2 0xF24 PUSH2 0xECE JUMP JUMPDEST JUMPDEST POP SWAP2 SWAP1 POP JUMP JUMPDEST PUSH32 0x427564676574206D7573742062652067726561746572207468616E207A65726F PUSH0 DUP3 ADD MSTORE POP JUMP JUMPDEST PUSH0 PUSH2 0xF5F PUSH1 0x20 DUP4 PUSH2 0xCC8 JUMP JUMPDEST SWAP2 POP PUSH2 0xF6A DUP3 PUSH2 0xF2B JUMP JUMPDEST PUSH1 0x20 DUP3 ADD SWAP1 POP SWAP2 SWAP1 POP JUMP JUMPDEST PUSH0 PUSH1 0x20 DUP3 ADD SWAP1 POP DUP2 DUP2 SUB PUSH0 DUP4 ADD MSTORE PUSH2 0xF8C DUP2 PUSH2 0xF53 JUMP JUMPDEST SWAP1 POP SWAP2 SWAP1 POP JUMP JUMPDEST PUSH32 0x5469746C65206973207265717569726564000000000000000000000000000000 PUSH0 DUP3 ADD MSTORE POP JUMP JUMPDEST PUSH0 PUSH2 0xFC7 PUSH1 0x11 DUP4 PUSH2 0xCC8 JUMP JUMPDEST SWAP2 POP PUSH2 0xFD2 DUP3 PUSH2 0xF93 JUMP JUMPDEST PUSH1 0x20 DUP3 ADD SWAP1 POP SWAP2 SWAP1 POP JUMP JUMPDEST PUSH0 PUSH1 0x20 DUP3 ADD SWAP1 POP DUP2 DUP2 SUB PUSH0 DUP4 ADD MSTORE PUSH2 0xFF4 DUP2 PUSH2 0xFBB JUMP JUMPDEST SWAP1 POP SWAP2 SWAP1 POP JUMP JUMPDEST PUSH32 0x4E487B7100000000000000000000000000000000000000000000000000000000 PUSH0 MSTORE PUSH1 0x11 PUSH1 0x4 MSTORE PUSH1 0x24 PUSH0 REVERT JUMPDEST PUSH0 PUSH2 0x1032 DUP3 PUSH2 0xC12 JUMP JUMPDEST SWAP2 POP PUSH32 0xFFFFFFFFFFFFFFFFFFFFFFFFFFFFFFFFFFFFFFFFFFFFFFFFFFFFFFFFFFFFFFFF DUP3 SUB PUSH2 0x1064 JUMPI PUSH2 0x1063 PUSH2 0xFFB JUMP JUMPDEST JUMPDEST PUSH1 0x1 DUP3 ADD SWAP1 POP SWAP2 SWAP1 POP JUMP JUMPDEST PUSH32 0x4E487B7100000000000000000000000000000000000000000000000000000000 PUSH0 MSTORE PUSH1 0x41 PUSH1 0x4 MSTORE PUSH1 0x24 PUSH0 REVERT JUMPDEST PUSH0 DUP2 SWAP1 POP DUP2 PUSH0 MSTORE PUSH1 0x20 PUSH0 KECCAK256 SWAP1 POP SWAP2 SWAP1 POP JUMP JUMPDEST PUSH0 PUSH1 0x20 PUSH1 0x1F DUP4 ADD DIV SWAP1 POP SWAP2 SWAP1 POP JUMP JUMPDEST PUSH0 DUP3 DUP3 SHL SWAP1 POP SWAP3 SWAP2 POP POP JUMP JUMPDEST PUSH0 PUSH1 0x8 DUP4 MUL PUSH2 0x10F8 PUSH32 0xFFFFFFFFFFFFFFFFFFFFFFFFFFFFFFFFFFFFFFFFFFFFFFFFFFFFFFFFFFFFFFFF DUP3 PUSH2 0x10BD JUMP JUMPDEST PUSH2 0x1102 DUP7 DUP4 PUSH2 0x10BD JUMP JUMPDEST SWAP6 POP DUP1 NOT DUP5 AND SWAP4 POP DUP1 DUP7 AND DUP5 OR SWAP3 POP POP POP SWAP4 SWAP3 POP POP POP JUMP JUMPDEST PUSH0 DUP2 SWAP1 POP SWAP2 SWAP1 POP JUMP JUMPDEST PUSH0 PUSH2 0x113D PUSH2 0x1138 PUSH2 0x1133 DUP5 PUSH2 0xC12 JUMP JUMPDEST PUSH2 0x111A JUMP JUMPDEST PUSH2 0xC12 JUMP JUMPDEST SWAP1 POP SWAP2 SWAP1 POP JUMP JUMPDEST PUSH0 DUP2 SWAP1 POP SWAP2 SWAP1 POP JUMP JUMPDEST PUSH2 0x1156 DUP4 PUSH2 0x1123 JUMP JUMPDEST PUSH2 0x116A PUSH2 0x1162 DUP3 PUSH2 0x1144 JUMP JUMPDEST DUP5 DUP5 SLOAD PUSH2 0x10C9 JUMP JUMPDEST DUP3 SSTORE POP POP POP POP JUMP JUMPDEST PUSH0 SWAP1 JUMP JUMPDEST PUSH2 0x117E PUSH2 0x1172 JUMP JUMPDEST PUSH2 0x1189 DUP2 DUP5 DUP5 PUSH2 0x114D JUMP JUMPDEST POP POP POP JUMP JUMPDEST JUMPDEST DUP2 DUP2 LT ISZERO PUSH2 0x11AC JUMPI PUSH2 0x11A1 PUSH0 DUP3 PUSH2 0x1176 JUMP JUMPDEST PUSH1 0x1 DUP2 ADD SWAP1 POP PUSH2 0x118F JUMP JUMPDEST POP POP JUMP JUMPDEST PUSH1 0x1F DUP3 GT ISZERO PUSH2 0x11F1 JUMPI PUSH2 0x11C2 DUP2 PUSH2 0x109C JUMP JUMPDEST PUSH2 0x11CB DUP5 PUSH2 0x10AE JUMP JUMPDEST DUP2 ADD PUSH1 0x20 DUP6 LT ISZERO PUSH2 0x11DA JUMPI DUP2 SWAP1 POP JUMPDEST PUSH2 0x11EE PUSH2 0x11E6 DUP6 PUSH2 0x10AE JUMP JUMPDEST DUP4 ADD DUP3 PUSH2 0x118E JUMP JUMPDEST POP POP JUMPDEST POP POP POP JUMP JUMPDEST PUSH0 DUP3 DUP3 SHR SWAP1 POP SWAP3 SWAP2 POP POP JUMP JUMPDEST PUSH0 PUSH2 0x1211 PUSH0 NOT DUP5 PUSH1 0x8 MUL PUSH2 0x11F6 JUMP JUMPDEST NOT DUP1 DUP4 AND SWAP2 POP POP SWAP3 SWAP2 POP POP JUMP JUMPDEST PUSH0 PUSH2 0x1229 DUP4 DUP4 PUSH2 0x1202 JUMP JUMPDEST SWAP2 POP DUP3 PUSH1 0x2 MUL DUP3 OR SWAP1 POP SWAP3 SWAP2 POP POP JUMP JUMPDEST PUSH2 0x1242 DUP3 PUSH2 0xCBE JUMP JUMPDEST PUSH8 0xFFFFFFFFFFFFFFFF DUP2 GT ISZERO PUSH2 0x125B JUMPI PUSH2 0x125A PUSH2 0x106F JUMP JUMPDEST JUMPDEST PUSH2 0x1265 DUP3 SLOAD PUSH2 0xEFB JUMP JUMPDEST PUSH2 0x1270 DUP3 DUP3 DUP6 PUSH2 0x11B0 JUMP JUMPDEST PUSH0 PUSH1 0x20 SWAP1 POP PUSH1 0x1F DUP4 GT PUSH1 0x1 DUP2 EQ PUSH2 0x12A1 JUMPI PUSH0 DUP5 ISZERO PUSH2 0x128F JUMPI DUP3 DUP8 ADD MLOAD SWAP1 POP JUMPDEST PUSH2 0x1299 DUP6 DUP3 PUSH2 0x121E JUMP JUMPDEST DUP7 SSTORE POP PUSH2 0x1300 JUMP JUMPDEST PUSH1 0x1F NOT DUP5 AND PUSH2 0x12AF DUP7 PUSH2 0x109C JUMP JUMPDEST PUSH0 JUMPDEST DUP3 DUP2 LT ISZERO PUSH2 0x12D6 JUMPI DUP5 DUP10 ADD MLOAD DUP3 SSTORE PUSH1 0x1 DUP3 ADD SWAP2 POP PUSH1 0x20 DUP6 ADD SWAP5 POP PUSH1 0x20 DUP2 ADD SWAP1 POP PUSH2 0x12B1 JUMP JUMPDEST DUP7 DUP4 LT ISZERO PUSH2 0x12F3 JUMPI DUP5 DUP10 ADD MLOAD PUSH2 0x12EF PUSH1 0x1F DUP10 AND DUP3 PUSH2 0x1202 JUMP JUMPDEST DUP4 SSTORE POP JUMPDEST PUSH1 0x1 PUSH1 0x2 DUP9 MUL ADD DUP9 SSTORE POP POP POP JUMPDEST POP POP POP POP POP POP JUMP JUMPDEST DUP3 DUP2 DUP4 CALLDATACOPY PUSH0 DUP4 DUP4 ADD MSTORE POP POP POP JUMP JUMPDEST PUSH0 PUSH2 0x1321 DUP4 DUP6 PUSH2 0xCC8 JUMP JUMPDEST SWAP4 POP PUSH2 0x132E DUP4 DUP6 DUP5 PUSH2 0x1308 JUMP JUMPDEST PUSH2 0x1337 DUP4 PUSH2 0xCE6 JUMP JUMPDEST DUP5 ADD SWAP1 POP SWAP4 SWAP3 POP POP POP JUMP JUMPDEST PUSH0 PUSH1 0xA0 DUP3 ADD SWAP1 POP PUSH2 0x1355 PUSH0 DUP4 ADD DUP11 PUSH2 0xC70 JUMP JUMPDEST PUSH2 0x1362 PUSH1 0x20 DUP4 ADD DUP10 PUSH2 0xCAF JUMP JUMPDEST PUSH2 0x136F PUSH1 0x40 DUP4 ADD DUP9 PUSH2 0xC70 JUMP JUMPDEST DUP2 DUP2 SUB PUSH1 0x60 DUP4 ADD MSTORE PUSH2 0x1382 DUP2 DUP7 DUP9 PUSH2 0x1316 JUMP JUMPDEST SWAP1 POP DUP2 DUP2 SUB PUSH1 0x80 DUP4 ADD MSTORE PUSH2 0x1397 DUP2 DUP5 DUP7 PUSH2 0x1316 JUMP JUMPDEST SWAP1 POP SWAP9 SWAP8 POP POP POP POP POP POP POP POP JUMP JUMPDEST PUSH32 0x4F6E6C792074686520636C69656E742063616E206465706F7369742066756E64 PUSH0 DUP3 ADD MSTORE PUSH32 0x7300000000000000000000000000000000000000000000000000000000000000 PUSH1 0x20 DUP3 ADD MSTORE POP JUMP JUMPDEST PUSH0 PUSH2 0x13FF PUSH1 0x21 DUP4 PUSH2 0xCC8 JUMP JUMPDEST SWAP2 POP PUSH2 0x140A DUP3 PUSH2 0x13A5 JUMP JUMPDEST PUSH1 0x40 DUP3 ADD SWAP1 POP SWAP2 SWAP1 POP JUMP JUMPDEST PUSH0 PUSH1 0x20 DUP3 ADD SWAP1 POP DUP2 DUP2 SUB PUSH0 DUP4 ADD MSTORE PUSH2 0x142C DUP2 PUSH2 0x13F3 JUMP JUMPDEST SWAP1 POP SWAP2 SWAP1 POP JUMP JUMPDEST PUSH32 0x496E636F7272656374206465706F73697420616D6F756E740000000000000000 PUSH0 DUP3 ADD MSTORE POP JUMP JUMPDEST PUSH0 PUSH2 0x1467 PUSH1 0x18 DUP4 PUSH2 0xCC8 JUMP JUMPDEST SWAP2 POP PUSH2 0x1472 DUP3 PUSH2 0x1433 JUMP JUMPDEST PUSH1 0x20 DUP3 ADD SWAP1 POP SWAP2 SWAP1 POP JUMP JUMPDEST PUSH0 PUSH1 0x20 DUP3 ADD SWAP1 POP DUP2 DUP2 SUB PUSH0 DUP4 ADD MSTORE PUSH2 0x1494 DUP2 PUSH2 0x145B JUMP JUMPDEST SWAP1 POP SWAP2 SWAP1 POP JUMP JUMPDEST PUSH32 0x4A6F6220686173206E6F20667265656C616E6365722061737369676E65640000 PUSH0 DUP3 ADD MSTORE POP JUMP JUMPDEST PUSH0 PUSH2 0x14CF PUSH1 0x1E DUP4 PUSH2 0xCC8 JUMP JUMPDEST SWAP2 POP PUSH2 0x14DA DUP3 PUSH2 0x149B JUMP JUMPDEST PUSH1 0x20 DUP3 ADD SWAP1 POP SWAP2 SWAP1 POP JUMP JUMPDEST PUSH0 PUSH1 0x20 DUP3 ADD SWAP1 POP DUP2 DUP2 SUB PUSH0 DUP4 ADD MSTORE PUSH2 0x14FC DUP2 PUSH2 0x14C3 JUMP JUMPDEST SWAP1 POP SWAP2 SWAP1 POP JUMP JUMPDEST PUSH32 0x4F6E6C792074686520636C69656E742063616E2072656C656173652066756E64 PUSH0 DUP3 ADD MSTORE PUSH32 0x7300000000000000000000000000000000000000000000000000000000000000 PUSH1 0x20 DUP3 ADD MSTORE POP JUMP JUMPDEST PUSH0 PUSH2 0x155D PUSH1 0x21 DUP4 PUSH2 0xCC8 JUMP JUMPDEST SWAP2 POP PUSH2 0x1568 DUP3 PUSH2 0x1503 JUMP JUMPDEST PUSH1 0x40 DUP3 ADD SWAP1 POP SWAP2 SWAP1 POP JUMP JUMPDEST PUSH0 PUSH1 0x20 DUP3 ADD SWAP1 POP DUP2 DUP2 SUB PUSH0 DUP4 ADD MSTORE PUSH2 0x158A DUP2 PUSH2 0x1551 JUMP JUMPDEST SWAP1 POP SWAP2 SWAP1 POP JUMP JUMPDEST PUSH32 0x46756E647320616C72656164792072656C656173656400000000000000000000 PUSH0 DUP3 ADD MSTORE POP JUMP JUMPDEST PUSH0 PUSH2 0x15C5 PUSH1 0x16 DUP4 PUSH2 0xCC8 JUMP JUMPDEST SWAP2 POP PUSH2 0x15D0 DUP3 PUSH2 0x1591 JUMP JUMPDEST PUSH1 0x20 DUP3 ADD SWAP1 POP SWAP2 SWAP1 POP JUMP JUMPDEST PUSH0 PUSH1 0x20 DUP3 ADD SWAP1 POP DUP2 DUP2 SUB PUSH0 DUP4 ADD MSTORE PUSH2 0x15F2 DUP2 PUSH2 0x15B9 JUMP JUMPDEST SWAP1 POP SWAP2 SWAP1 POP JUMP JUMPDEST PUSH0 DUP2 SWAP1 POP SWAP3 SWAP2 POP POP JUMP JUMPDEST POP JUMP JUMPDEST PUSH0 PUSH2 0x1611 PUSH0 DUP4 PUSH2 0x15F9 JUMP JUMPDEST SWAP2 POP PUSH2 0x161C DUP3 PUSH2 0x1603 JUMP JUMPDEST PUSH0 DUP3 ADD SWAP1 POP SWAP2 SWAP1 POP JUMP JUMPDEST PUSH0 PUSH2 0x1630 DUP3 PUSH2 0x1606 JUMP JUMPDEST SWAP2 POP DUP2 SWAP1 POP SWAP2 SWAP1 POP JUMP JUMPDEST PUSH0 PUSH1 0x40 DUP3 ADD SWAP1 POP PUSH2 0x164D PUSH0 DUP4 ADD DUP6 PUSH2 0xC70 JUMP JUMPDEST PUSH2 0x165A PUSH1 0x20 DUP4 ADD DUP5 PUSH2 0xCAF JUMP JUMPDEST SWAP4 SWAP3 POP POP POP JUMP JUMPDEST PUSH32 0x5472616E73666572206661696C65640000000000000000000000000000000000 PUSH0 DUP3 ADD MSTORE POP JUMP JUMPDEST PUSH0 PUSH2 0x1695 PUSH1 0xF DUP4 PUSH2 0xCC8 JUMP JUMPDEST SWAP2 POP PUSH2 0x16A0 DUP3 PUSH2 0x1661 JUMP JUMPDEST PUSH1 0x20 DUP3 ADD SWAP1 POP SWAP2 SWAP1 POP JUMP JUMPDEST PUSH0 PUSH1 0x60 DUP3 ADD SWAP1 POP PUSH2 0x16BE PUSH0 DUP4 ADD DUP6 PUSH2 0xC70 JUMP JUMPDEST PUSH2 0x16CB PUSH1 0x20 DUP4 ADD DUP5 PUSH2 0xCAF JUMP JUMPDEST DUP2 DUP2 SUB PUSH1 0x40 DUP4 ADD MSTORE PUSH2 0x16DC DUP2 PUSH2 0x1689 JUMP JUMPDEST SWAP1 POP SWAP4 SWAP3 POP POP POP JUMP JUMPDEST PUSH32 0x4A6F6220646F6573206E6F742065786973740000000000000000000000000000 PUSH0 DUP3 ADD MSTORE POP JUMP JUMPDEST PUSH0 PUSH2 0x1719 PUSH1 0x12 DUP4 PUSH2 0xCC8 JUMP JUMPDEST SWAP2 POP PUSH2 0x1724 DUP3 PUSH2 0x16E5 JUMP JUMPDEST PUSH1 0x20 DUP3 ADD SWAP1 POP SWAP2 SWAP1 POP JUMP JUMPDEST PUSH0 PUSH1 0x20 DUP3 ADD SWAP1 POP DUP2 DUP2 SUB PUSH0 DUP4 ADD MSTORE PUSH2 0x1746 DUP2 PUSH2 0x170D JUMP JUMPDEST SWAP1 POP SWAP2 SWAP1 POP JUMP JUMPDEST PUSH32 0x4A6F6220616C7265616479206163636570746564000000000000000000000000 PUSH0 DUP3 ADD MSTORE POP JUMP JUMPDEST PUSH0 PUSH2 0x1781 PUSH1 0x14 DUP4 PUSH2 0xCC8 JUMP JUMPDEST SWAP2 POP PUSH2 0x178C DUP3 PUSH2 0x174D JUMP JUMPDEST PUSH1 0x20 DUP3 ADD SWAP1 POP SWAP2 SWAP1 POP JUMP JUMPDEST PUSH0 PUSH1 0x20 DUP3 ADD SWAP1 POP DUP2 DUP2 SUB PUSH0 DUP4 ADD MSTORE PUSH2 0x17AE DUP2 PUSH2 0x1775 JUMP JUMPDEST SWAP1 POP SWAP2 SWAP1 POP JUMP JUMPDEST PUSH32 0x436C69656E742063616E6E6F7420616363657074207468656972206F776E206A PUSH0 DUP3 ADD MSTORE PUSH32 0x6F62000000000000000000000000000000000000000000000000000000000000 PUSH1 0x20 DUP3 ADD MSTORE POP JUMP JUMPDEST PUSH0 PUSH2 0x180F PUSH1 0x22 DUP4 PUSH2 0xCC8 JUMP JUMPDEST SWAP2 POP PUSH2 0x181A DUP3 PUSH2 0x17B5 JUMP JUMPDEST PUSH1 0x40 DUP3 ADD SWAP1 POP SWAP2 SWAP1 POP JUMP JUMPDEST PUSH0 PUSH1 0x20 DUP3 ADD SWAP1 POP DUP2 DUP2 SUB PUSH0 DUP4 ADD MSTORE PUSH2 0x183C DUP2 PUSH2 0x1803 JUMP JUMPDEST SWAP1 POP SWAP2 SWAP1 POP JUMP INVALID LOG2 PUSH5 0x6970667358 0x22 SLT KECCAK256 0xD2 0xDA CREATE2 ORIGIN 0x29 BASEFEE STATICCALL 0xD8 0xB1 GASPRICE 0xB5 DELEGATECALL 0xE8 SWAP5 SDIV 0xBE PUSH4 0xBDB3D0A1 0xD3 0xB0 PUSH26 0x433C289C44628D4064736F6C634300081A003300000000000000 "
				},
				"gasEstimates": {
					"creation": {
						"codeDepositCost": "1253000",
						"executionCost": "1300",
						"totalCost": "1254300"
					},
					"external": {
						"acceptJob(uint256)": "infinite",
						"depositFunds(uint256)": "7245",
						"jobCounter()": "2490",
						"jobs(uint256)": "infinite",
						"postJob(uint256,string,string)": "infinite",
						"releaseFunds(uint256)": "infinite"
					}
				},
				"methodIdentifiers": {
					"acceptJob(uint256)": "63b2f3c9",
					"depositFunds(uint256)": "3b76594d",
					"jobCounter()": "50355d76",
					"jobs(uint256)": "180aedf3",
					"postJob(uint256,string,string)": "2a240c7f",
					"releaseFunds(uint256)": "4d68282f"
				}
			},
			"storageLayout": {
				"storage": [
					{
						"astId": 19,
						"contract": "contracts/JobMarketplace2.0.sol:JobMarketplace",
						"label": "jobCounter",
						"offset": 0,
						"slot": "0",
						"type": "t_uint256"
					},
					{
						"astId": 24,
						"contract": "contracts/JobMarketplace2.0.sol:JobMarketplace",
						"label": "jobs",
						"offset": 0,
						"slot": "1",
						"type": "t_mapping(t_uint256,t_struct(Job)17_storage)"
					}
				],
				"types": {
					"t_address": {
						"encoding": "inplace",
						"label": "address",
						"numberOfBytes": "20"
					},
					"t_bool": {
						"encoding": "inplace",
						"label": "bool",
						"numberOfBytes": "1"
					},
					"t_mapping(t_uint256,t_struct(Job)17_storage)": {
						"encoding": "mapping",
						"key": "t_uint256",
						"label": "mapping(uint256 => struct JobMarketplace.Job)",
						"numberOfBytes": "32",
						"value": "t_struct(Job)17_storage"
					},
					"t_string_storage": {
						"encoding": "bytes",
						"label": "string",
						"numberOfBytes": "32"
					},
					"t_struct(Job)17_storage": {
						"encoding": "inplace",
						"label": "struct JobMarketplace.Job",
						"members": [
							{
								"astId": 4,
								"contract": "contracts/JobMarketplace2.0.sol:JobMarketplace",
								"label": "id",
								"offset": 0,
								"slot": "0",
								"type": "t_uint256"
							},
							{
								"astId": 6,
								"contract": "contracts/JobMarketplace2.0.sol:JobMarketplace",
								"label": "client",
								"offset": 0,
								"slot": "1",
								"type": "t_address"
							},
							{
								"astId": 8,
								"contract": "contracts/JobMarketplace2.0.sol:JobMarketplace",
								"label": "freelancer",
								"offset": 0,
								"slot": "2",
								"type": "t_address"
							},
							{
								"astId": 10,
								"contract": "contracts/JobMarketplace2.0.sol:JobMarketplace",
								"label": "budget",
								"offset": 0,
								"slot": "3",
								"type": "t_uint256"
							},
							{
								"astId": 12,
								"contract": "contracts/JobMarketplace2.0.sol:JobMarketplace",
								"label": "title",
								"offset": 0,
								"slot": "4",
								"type": "t_string_storage"
							},
							{
								"astId": 14,
								"contract": "contracts/JobMarketplace2.0.sol:JobMarketplace",
								"label": "description",
								"offset": 0,
								"slot": "5",
								"type": "t_string_storage"
							},
							{
								"astId": 16,
								"contract": "contracts/JobMarketplace2.0.sol:JobMarketplace",
								"label": "isCompleted",
								"offset": 0,
								"slot": "6",
								"type": "t_bool"
							}
						],
						"numberOfBytes": "224"
					},
					"t_uint256": {
						"encoding": "inplace",
						"label": "uint256",
						"numberOfBytes": "32"
					}
				}
			},
			"userdoc": {
				"kind": "user",
				"methods": {},
				"notice": "Created by Matt Lindborg UAT MS582 Week 7",
				"version": 1
			}
		}
	}
}